{
  "_format": "hh-sol-artifact-1",
  "contractName": "CommunityRules",
  "sourceName": "contracts/CommunityRules.sol",
  "abi": [
    {
      "inputs": [
        {
          "internalType": "uint8",
          "name": "inspectorProportionality",
          "type": "uint8"
        },
        {
          "internalType": "uint8",
          "name": "activistProportionality",
          "type": "uint8"
        },
        {
          "internalType": "uint8",
          "name": "researcherProportionality",
          "type": "uint8"
        },
        {
          "internalType": "uint8",
          "name": "developerProportionality",
          "type": "uint8"
        },
        {
          "internalType": "uint8",
          "name": "contributorProportionality",
          "type": "uint8"
        }
      ],
      "stateMutability": "nonpayable",
      "type": "constructor"
    },
    {
      "inputs": [
        {
          "internalType": "address",
          "name": "owner",
          "type": "address"
        }
      ],
      "name": "OwnableInvalidOwner",
      "type": "error"
    },
    {
      "inputs": [
        {
          "internalType": "address",
          "name": "account",
          "type": "address"
        }
      ],
      "name": "OwnableUnauthorizedAccount",
      "type": "error"
    },
    {
      "anonymous": false,
      "inputs": [
        {
          "indexed": true,
          "internalType": "address",
          "name": "informer",
          "type": "address"
        },
        {
          "indexed": true,
          "internalType": "address",
          "name": "reported",
          "type": "address"
        },
        {
          "indexed": false,
          "internalType": "uint64",
          "name": "newDelationId",
          "type": "uint64"
        }
      ],
      "name": "DelationAdded",
      "type": "event"
    },
    {
      "anonymous": false,
      "inputs": [
        {
          "indexed": true,
          "internalType": "address",
          "name": "addr",
          "type": "address"
        }
      ],
      "name": "DeniedUserEvent",
      "type": "event"
    },
    {
      "anonymous": false,
      "inputs": [
        {
          "indexed": true,
          "internalType": "address",
          "name": "inviter",
          "type": "address"
        },
        {
          "indexed": true,
          "internalType": "address",
          "name": "invited",
          "type": "address"
        },
        {
          "indexed": false,
          "internalType": "enum CommunityTypes.UserType",
          "name": "userTypeTo",
          "type": "uint8"
        }
      ],
      "name": "InvitationAdded",
      "type": "event"
    },
    {
      "anonymous": false,
      "inputs": [
        {
          "indexed": true,
          "internalType": "address",
          "name": "previousOwner",
          "type": "address"
        },
        {
          "indexed": true,
          "internalType": "address",
          "name": "newOwner",
          "type": "address"
        }
      ],
      "name": "OwnershipTransferred",
      "type": "event"
    },
    {
      "anonymous": false,
      "inputs": [
        {
          "indexed": true,
          "internalType": "address",
          "name": "addr",
          "type": "address"
        },
        {
          "indexed": false,
          "internalType": "enum CommunityTypes.UserType",
          "name": "userType",
          "type": "uint8"
        }
      ],
      "name": "UserRegistered",
      "type": "event"
    },
    {
      "inputs": [],
      "name": "SUPPORTER_INVITATION_DELAY_BLOCKS",
      "outputs": [
        {
          "internalType": "uint32",
          "name": "",
          "type": "uint32"
        }
      ],
      "stateMutability": "view",
      "type": "function"
    },
    {
      "inputs": [],
      "name": "VOTER_INVITATION_DELAY_BLOCKS",
      "outputs": [
        {
          "internalType": "uint32",
          "name": "",
          "type": "uint32"
        }
      ],
      "stateMutability": "view",
      "type": "function"
    },
    {
      "inputs": [
        {
          "internalType": "address",
          "name": "addr",
          "type": "address"
        },
        {
          "internalType": "string",
          "name": "title",
          "type": "string"
        },
        {
          "internalType": "string",
          "name": "testimony",
          "type": "string"
        }
      ],
      "name": "addDelation",
      "outputs": [],
      "stateMutability": "nonpayable",
      "type": "function"
    },
    {
      "inputs": [
        {
          "internalType": "address",
          "name": "inviter",
          "type": "address"
        },
        {
          "internalType": "address",
          "name": "invited",
          "type": "address"
        },
        {
          "internalType": "enum CommunityTypes.UserType",
          "name": "userType",
          "type": "uint8"
        }
      ],
      "name": "addInvitation",
      "outputs": [],
      "stateMutability": "nonpayable",
      "type": "function"
    },
    {
      "inputs": [
        {
          "internalType": "address",
          "name": "inviter",
          "type": "address"
        }
      ],
      "name": "addInviterPenalty",
      "outputs": [],
      "stateMutability": "nonpayable",
      "type": "function"
    },
    {
      "inputs": [
        {
          "internalType": "address",
          "name": "addr",
          "type": "address"
        },
        {
          "internalType": "enum CommunityTypes.UserType",
          "name": "userType",
          "type": "uint8"
        }
      ],
      "name": "addUser",
      "outputs": [],
      "stateMutability": "nonpayable",
      "type": "function"
    },
    {
      "inputs": [
        {
          "internalType": "address",
          "name": "",
          "type": "address"
        }
      ],
      "name": "allowedCallers",
      "outputs": [
        {
          "internalType": "bool",
          "name": "",
          "type": "bool"
        }
      ],
      "stateMutability": "view",
      "type": "function"
    },
    {
      "inputs": [
        {
          "internalType": "uint256",
          "name": "",
          "type": "uint256"
        }
      ],
      "name": "delationsById",
      "outputs": [
        {
          "internalType": "uint64",
          "name": "id",
          "type": "uint64"
        },
        {
          "internalType": "address",
          "name": "informer",
          "type": "address"
        },
        {
          "internalType": "address",
          "name": "reported",
          "type": "address"
        },
        {
          "internalType": "string",
          "name": "title",
          "type": "string"
        },
        {
          "internalType": "string",
          "name": "testimony",
          "type": "string"
        },
        {
          "internalType": "uint256",
          "name": "createdAtBlock",
          "type": "uint256"
        }
      ],
      "stateMutability": "view",
      "type": "function"
    },
    {
      "inputs": [],
      "name": "delationsCount",
      "outputs": [
        {
          "internalType": "uint64",
          "name": "",
          "type": "uint64"
        }
      ],
      "stateMutability": "view",
      "type": "function"
    },
    {
      "inputs": [
        {
          "internalType": "address",
          "name": "addr",
          "type": "address"
        }
      ],
      "name": "getInvitation",
      "outputs": [
        {
          "components": [
            {
              "internalType": "address",
              "name": "invited",
              "type": "address"
            },
            {
              "internalType": "address",
              "name": "inviter",
              "type": "address"
            },
            {
              "internalType": "enum CommunityTypes.UserType",
              "name": "userType",
              "type": "uint8"
            },
            {
              "internalType": "uint256",
              "name": "createdAtBlock",
              "type": "uint256"
            }
          ],
          "internalType": "struct CommunityTypes.Invitation",
          "name": "",
          "type": "tuple"
        }
      ],
      "stateMutability": "view",
      "type": "function"
    },
    {
      "inputs": [
        {
          "internalType": "address",
          "name": "addr",
          "type": "address"
        }
      ],
      "name": "getUser",
      "outputs": [
        {
          "internalType": "enum CommunityTypes.UserType",
          "name": "",
          "type": "uint8"
        }
      ],
      "stateMutability": "view",
      "type": "function"
    },
    {
      "inputs": [
        {
          "internalType": "address",
          "name": "addr",
          "type": "address"
        }
      ],
      "name": "getUserDelations",
      "outputs": [
        {
          "components": [
            {
              "internalType": "uint64",
              "name": "id",
              "type": "uint64"
            },
            {
              "internalType": "address",
              "name": "informer",
              "type": "address"
            },
            {
              "internalType": "address",
              "name": "reported",
              "type": "address"
            },
            {
              "internalType": "string",
              "name": "title",
              "type": "string"
            },
            {
              "internalType": "string",
              "name": "testimony",
              "type": "string"
            },
            {
              "internalType": "uint256",
              "name": "createdAtBlock",
              "type": "uint256"
            }
          ],
          "internalType": "struct CommunityTypes.Delation[]",
          "name": "",
          "type": "tuple[]"
        }
      ],
      "stateMutability": "view",
      "type": "function"
    },
    {
      "inputs": [
        {
          "internalType": "enum CommunityTypes.UserType",
          "name": "userType",
          "type": "uint8"
        }
      ],
      "name": "getUserTypeSettings",
      "outputs": [
        {
          "components": [
            {
              "internalType": "uint8",
              "name": "proportionalityOnRegister",
              "type": "uint8"
            },
            {
              "internalType": "bool",
              "name": "directProportionalityRegistration",
              "type": "bool"
            },
            {
              "internalType": "bool",
              "name": "needInvitationOnRegister",
              "type": "bool"
            },
            {
              "internalType": "uint32",
              "name": "invitationDelayBlocks",
              "type": "uint32"
            },
            {
              "internalType": "bool",
              "name": "isVoter",
              "type": "bool"
            }
          ],
          "internalType": "struct CommunityTypes.UserTypeSetting",
          "name": "",
          "type": "tuple"
        }
      ],
      "stateMutability": "view",
      "type": "function"
    },
    {
      "inputs": [
        {
          "internalType": "address",
          "name": "addr",
          "type": "address"
        }
      ],
      "name": "hasWaitedRequiredTime",
      "outputs": [
        {
          "internalType": "bool",
          "name": "",
          "type": "bool"
        }
      ],
      "stateMutability": "view",
      "type": "function"
    },
    {
      "inputs": [
        {
          "internalType": "address",
          "name": "",
          "type": "address"
        }
      ],
      "name": "invitations",
      "outputs": [
        {
          "internalType": "address",
          "name": "invited",
          "type": "address"
        },
        {
          "internalType": "address",
          "name": "inviter",
          "type": "address"
        },
        {
          "internalType": "enum CommunityTypes.UserType",
          "name": "userType",
          "type": "uint8"
        },
        {
          "internalType": "uint256",
          "name": "createdAtBlock",
          "type": "uint256"
        }
      ],
      "stateMutability": "view",
      "type": "function"
    },
    {
      "inputs": [
        {
          "internalType": "address",
          "name": "",
          "type": "address"
        }
      ],
      "name": "inviterPenalties",
      "outputs": [
        {
          "internalType": "uint16",
          "name": "",
          "type": "uint16"
        }
      ],
      "stateMutability": "view",
      "type": "function"
    },
    {
      "inputs": [
        {
          "internalType": "address",
          "name": "caller",
          "type": "address"
        }
      ],
      "name": "isAllowedCaller",
      "outputs": [
        {
          "internalType": "bool",
          "name": "",
          "type": "bool"
        }
      ],
      "stateMutability": "view",
      "type": "function"
    },
    {
      "inputs": [
        {
          "internalType": "address",
          "name": "userAddress",
          "type": "address"
        }
      ],
      "name": "isDenied",
      "outputs": [
        {
          "internalType": "bool",
          "name": "",
          "type": "bool"
        }
      ],
      "stateMutability": "view",
      "type": "function"
    },
    {
      "inputs": [
        {
          "internalType": "address",
          "name": "addr",
          "type": "address"
        }
      ],
      "name": "isVoter",
      "outputs": [
        {
          "internalType": "bool",
          "name": "",
          "type": "bool"
        }
      ],
      "stateMutability": "view",
      "type": "function"
    },
    {
      "inputs": [
        {
          "internalType": "address",
          "name": "",
          "type": "address"
        }
      ],
      "name": "lastDelationBlock",
      "outputs": [
        {
          "internalType": "uint256",
          "name": "",
          "type": "uint256"
        }
      ],
      "stateMutability": "view",
      "type": "function"
    },
    {
      "inputs": [
        {
          "internalType": "address",
          "name": "allowed",
          "type": "address"
        }
      ],
      "name": "newAllowedCaller",
      "outputs": [],
      "stateMutability": "nonpayable",
      "type": "function"
    },
    {
      "inputs": [],
      "name": "owner",
      "outputs": [
        {
          "internalType": "address",
          "name": "",
          "type": "address"
        }
      ],
      "stateMutability": "view",
      "type": "function"
    },
    {
      "inputs": [],
      "name": "renounceOwnership",
      "outputs": [],
      "stateMutability": "nonpayable",
      "type": "function"
    },
    {
      "inputs": [
        {
          "internalType": "address",
          "name": "_invitationRulesAddress",
          "type": "address"
        },
        {
          "internalType": "address",
          "name": "_validationRulesAddress",
          "type": "address"
        }
      ],
      "name": "setContractCall",
      "outputs": [],
      "stateMutability": "nonpayable",
      "type": "function"
    },
    {
      "inputs": [
        {
          "internalType": "address",
          "name": "userAddress",
          "type": "address"
        }
      ],
      "name": "setToDenied",
      "outputs": [],
      "stateMutability": "nonpayable",
      "type": "function"
    },
    {
      "inputs": [
        {
          "internalType": "address",
          "name": "newOwner",
          "type": "address"
        }
      ],
      "name": "transferOwnership",
      "outputs": [],
      "stateMutability": "nonpayable",
      "type": "function"
    },
    {
      "inputs": [
        {
          "internalType": "enum CommunityTypes.UserType",
          "name": "userType",
          "type": "uint8"
        },
        {
          "internalType": "address",
          "name": "userAddress",
          "type": "address"
        }
      ],
      "name": "userTypeIs",
      "outputs": [
        {
          "internalType": "bool",
          "name": "",
          "type": "bool"
        }
      ],
      "stateMutability": "view",
      "type": "function"
    },
    {
      "inputs": [
        {
          "internalType": "enum CommunityTypes.UserType",
          "name": "",
          "type": "uint8"
        }
      ],
      "name": "userTypeSettings",
      "outputs": [
        {
          "internalType": "uint8",
          "name": "proportionalityOnRegister",
          "type": "uint8"
        },
        {
          "internalType": "bool",
          "name": "directProportionalityRegistration",
          "type": "bool"
        },
        {
          "internalType": "bool",
          "name": "needInvitationOnRegister",
          "type": "bool"
        },
        {
          "internalType": "uint32",
          "name": "invitationDelayBlocks",
          "type": "uint32"
        },
        {
          "internalType": "bool",
          "name": "isVoter",
          "type": "bool"
        }
      ],
      "stateMutability": "view",
      "type": "function"
    },
    {
      "inputs": [
        {
          "internalType": "enum CommunityTypes.UserType",
          "name": "",
          "type": "uint8"
        }
      ],
      "name": "userTypesCount",
      "outputs": [
        {
          "internalType": "uint64",
          "name": "",
          "type": "uint64"
        }
      ],
      "stateMutability": "view",
      "type": "function"
    },
    {
      "inputs": [
        {
          "internalType": "enum CommunityTypes.UserType",
          "name": "",
          "type": "uint8"
        }
      ],
      "name": "userTypesTotalCount",
      "outputs": [
        {
          "internalType": "uint64",
          "name": "",
          "type": "uint64"
        }
      ],
      "stateMutability": "view",
      "type": "function"
    },
    {
      "inputs": [],
      "name": "usersCount",
      "outputs": [
        {
          "internalType": "uint64",
          "name": "",
          "type": "uint64"
        }
      ],
      "stateMutability": "view",
      "type": "function"
    },
    {
      "inputs": [],
      "name": "votersCount",
      "outputs": [
        {
          "internalType": "uint256",
          "name": "",
          "type": "uint256"
        }
      ],
      "stateMutability": "view",
      "type": "function"
    }
  ],
  "bytecode": "0x608060405234801561001057600080fd5b50604051612c73380380612c7383398101604081905261002f91610683565b338061005557604051631e4fbdf760e01b81526000600482015260240160405180910390fd5b61005e8161061d565b506040805160a080820183526000808352602080840182815284860183815260966060808801918252608080890187815260078852600a80885299517f22e39f61d1e4986b4f116cea9067f62cc77d74dff1780ae9c8b5166d1dd288298054975196519551925115156701000000000000000260ff60381b1963ffffffff90941663010000000266ffffffff0000001997151562010000029790971666ffffffffff0000199815156101000261ffff19909a1660ff909416939093179890981796909616179390931792909216939093179091558651948501875283855291840183905260019584018690528301829052820181905290928152602080820192909252604090810160009081208451815486860151878601516060808a015160809a8b015115156701000000000000000260ff60381b1963ffffffff90921663010000000266ffffffff0000001994151562010000029490941666ffffffffff0000199515156101000261ffff1990971660ff98891617969096179490941694909417919091179290921617909255835160a081018552908b168152600194810185905292830193909352918101829052918201819052600a906002600781111561022b5761022b6106e8565b8152602080820192909252604090810160009081208451815486860151878601516060808a015160809a8b015115156701000000000000000260ff60381b1963ffffffff90921663010000000266ffffffff0000001994151562010000029490941666ffffffffff0000199515156101000261ffff1990971660ff98891617969096179490941694909417919091179290921617909255835160a081018552908a1681529384018290526001928401839052620186a0908401529282015290600a9060066007811115610300576103006106e8565b8152602080820192909252604090810160009081208451815486860151878601516060808a015160809a8b015115156701000000000000000260ff60381b1963ffffffff90921663010000000266ffffffff0000001994151562010000029490941666ffffffffff0000199515156101000261ffff1990971660ff98891617969096179490941694909417919091179290921617909255835160a08101855290891681529384018290526001928401839052620186a0908401529282015290600a90600360078111156103d5576103d56106e8565b8152602080820192909252604090810160009081208451815486860151878601516060808a015160809a8b015115156701000000000000000260ff60381b1963ffffffff90921663010000000266ffffffff0000001994151562010000029490941666ffffffffff0000199515156101000261ffff1990971660ff98891617969096179490941694909417919091179290921617909255835160a08101855290881681529384018290526001928401839052620186a0908401529282015290600a90600460078111156104aa576104aa6106e8565b8152602080820192909252604090810160009081208451815486860151878601516060808a015160809a8b015115156701000000000000000260ff60381b1963ffffffff90921663010000000266ffffffff0000001994151562010000029490941666ffffffffff0000199515156101000261ffff1990971660ff98891617969096179490941694909417919091179290921617909255835160a08101855290871681529384018290526001928401839052620186a0908401529282015290600a906005600781111561057f5761057f6106e8565b81526020808201929092526040908101600020835181549385015192850151606086015160809096015115156701000000000000000260ff60381b1963ffffffff90971663010000000266ffffffff0000001992151562010000029290921666ffffffffff0000199515156101000261ffff1990971660ff909416939093179590951793909316179190911792909216179055506106fe9350505050565b600080546001600160a01b038381166001600160a01b0319831681178455604051919092169283917f8be0079c531659141344cd1fd0a4f28419497f9722a3daafe3b4186f6b6457e09190a35050565b805160ff8116811461067e57600080fd5b919050565b600080600080600060a0868803121561069b57600080fd5b6106a48661066d565b94506106b26020870161066d565b93506106c06040870161066d565b92506106ce6060870161066d565b91506106dc6080870161066d565b90509295509295909350565b634e487b7160e01b600052602160045260246000fd5b6125668061070d6000396000f3fe608060405234801561001057600080fd5b50600436106101f05760003560e01c80637ccfdba71161010f5780639c3eead9116100a2578063deffb90611610071578063deffb9061461062e578063e838dfbb14610638578063f2fde38b14610664578063ff7890951461067757600080fd5b80639c3eead9146105bf578063a1dcdb22146105d2578063a6801258146105ef578063a7771ee31461061b57600080fd5b80639497c608116100de5780639497c6081461052d5780639547f95314610540578063959ef1d2146105a457806398c07938146105b757600080fd5b80637ccfdba7146104d95780638da5cb5b146104ec5780638f93716f14610507578063922201421461051a57600080fd5b806358f43f76116101875780636ba13a82116101565780636ba13a821461045b5780636f77926b14610475578063715018a6146104ae5780637b334154146104b657600080fd5b806358f43f76146103a95780635b0abfb1146104005780635b2b62a1146104235780636101bf211461044857600080fd5b80632115c634116101c35780632115c634146102fb5780632b17b8be146103325780632f22dc7b14610352578063306cda551461037b57600080fd5b806304521ca3146101f5578063064505ad1461020a5780630ed4ea5e146102335780631eb2c120146102ba575b600080fd5b610208610203366004611e45565b61068a565b005b61021d610218366004611e78565b6106c0565b60405161022a9190611ed9565b60405180910390f35b610281610241366004611fb6565b600a6020526000908152604090205460ff80821691610100810482169162010000820481169163ffffffff630100000082041691600160381b9091041685565b6040805160ff909616865293151560208601529115159284019290925263ffffffff90911660608301521515608082015260a00161022a565b6102e36102c8366004611fb6565b6009602052600090815260409020546001600160401b031681565b6040516001600160401b03909116815260200161022a565b61031f610309366004611e78565b600b6020526000908152604090205461ffff1681565b60405161ffff909116815260200161022a565b610345610340366004611e78565b61089f565b60405161022a9190612009565b6102e3610360366004611fb6565b6008602052600090815260409020546001600160401b031681565b61039b610389366004611e78565b600c6020526000908152604090205481565b60405190815260200161022a565b6103f06103b7366004611e78565b6007602052600090815260409020805460018201546002909201546001600160a01b039182169291821691600160a01b900460ff169084565b60405161022a949392919061204b565b61041361040e366004611e78565b610945565b604051901515815260200161022a565b61043661043136600461207f565b610994565b60405161022a96959493929190612098565b610208610456366004611e78565b610af3565b6002546102e390600160401b90046001600160401b031681565b6104a1610483366004611e78565b6001600160a01b031660009081526003602052604090205460ff1690565b60405161022a91906120f9565b610208610b71565b6104136104c4366004611e78565b60016020526000908152604090205460ff1681565b6102086104e7366004612107565b610b85565b6000546040516001600160a01b03909116815260200161022a565b610208610515366004611e78565b610ea8565b6002546102e3906001600160401b031681565b61041361053b36600461214a565b610ed7565b61055361054e366004611fb6565b610f45565b60405161022a9190600060a08201905060ff835116825260208301511515602083015260408301511515604083015263ffffffff606084015116606083015260808301511515608083015292915050565b6102086105b2366004611e78565b611006565b61039b61112e565b6102086105cd366004612166565b611203565b6105da609681565b60405163ffffffff909116815260200161022a565b6104136105fd366004611e78565b6001600160a01b031660009081526001602052604090205460ff1690565b610413610629366004611e78565b611597565b6105da620186a081565b610413610646366004611e78565b6001600160a01b031660009081526004602052604090205460ff1690565b610208610672366004611e78565b6115ef565b610208610685366004612233565b61162a565b610692611af9565b600d80546001600160a01b039384166001600160a01b031991821617909155600e8054929093169116179055565b6001600160a01b0381166000908152600560209081526040808320805482518185028101850190935280835260609492939192909184015b828210156108945760008481526020908190206040805160c0810182526005860290920180546001600160401b03811684526001600160a01b03600160401b909104811694840194909452600181015490931690820152600282018054919291606084019190610767906122aa565b80601f0160208091040260200160405190810160405280929190818152602001828054610793906122aa565b80156107e05780601f106107b5576101008083540402835291602001916107e0565b820191906000526020600020905b8154815290600101906020018083116107c357829003601f168201915b505050505081526020016003820180546107f9906122aa565b80601f0160208091040260200160405190810160405280929190818152602001828054610825906122aa565b80156108725780601f1061084757610100808354040283529160200191610872565b820191906000526020600020905b81548152906001019060200180831161085557829003601f168201915b50505050508152602001600482015481525050815260200190600101906106f8565b505050509050919050565b6040805160808101825260008082526020820181905291810182905260608101919091526001600160a01b03828116600090815260076020818152604092839020835160808101855281548616815260018201549586169281019290925290939092840191600160a01b90910460ff169081111561091f5761091f611fd1565b600781111561093057610930611fd1565b81526020016002820154815250509050919050565b6001600160a01b0381166000908152600c6020526040812054158061098e57506001600160a01b0382166000908152600c602052604090205461098b90611388906122fa565b43115b92915050565b6006602052600090815260409020805460018201546002830180546001600160401b03841694600160401b9094046001600160a01b039081169493169291906109dc906122aa565b80601f0160208091040260200160405190810160405280929190818152602001828054610a08906122aa565b8015610a555780601f10610a2a57610100808354040283529160200191610a55565b820191906000526020600020905b815481529060010190602001808311610a3857829003601f168201915b505050505090806003018054610a6a906122aa565b80601f0160208091040260200160405190810160405280929190818152602001828054610a96906122aa565b8015610ae35780601f10610ab857610100808354040283529160200191610ae3565b820191906000526020600020905b815481529060010190602001808311610ac657829003601f168201915b5050505050908060040154905086565b3360009081526001602052604090205460ff16610b2b5760405162461bcd60e51b8152600401610b229061230d565b60405180910390fd5b6001600160a01b0381166000908152600b60205260408120805461ffff1691610b5383612339565b91906101000a81548161ffff021916908361ffff1602179055505050565b610b79611af9565b610b836000611b26565b565b3360009081526001602052604090205460ff16610bb45760405162461bcd60e51b8152600401610b229061230d565b600d546001600160a01b0316338114610c0f5760405162461bcd60e51b815260206004820152601e60248201527f43616c6c6572206d7573742062652073797374656d20636f6e747261637400006044820152606401610b22565b6001600160a01b038316610c655760405162461bcd60e51b815260206004820152601e60248201527f496e766974656420616464726573732063616e6e6f74206265207a65726f00006044820152606401610b22565b6001600160a01b038381166000908152600760205260409020541615610cbf5760405162461bcd60e51b815260206004820152600f60248201526e105b1c9958591e481a5b9d9a5d1959608a1b6044820152606401610b22565b6001600160a01b03831660009081526003602052604081205460ff166007811115610cec57610cec611fd1565b14610d2e5760405162461bcd60e51b8152602060048201526012602482015271105b1c9958591e481c9959da5cdd195c995960721b6044820152606401610b22565b6000826007811115610d4257610d42611fd1565b03610d8f5760405162461bcd60e51b815260206004820181905260248201527f496e76616c69642075736572207479706520666f7220696e7669746174696f6e6044820152606401610b22565b6040518060800160405280846001600160a01b03168152602001856001600160a01b03168152602001836007811115610dca57610dca611fd1565b8152436020918201526001600160a01b0380861660009081526007808452604091829020855181549085166001600160a01b03199182161782559486015160018201805491909516958116861785559286015190949093926001600160a81b0319161790600160a01b908490811115610e4557610e45611fd1565b021790555060608201518160020155905050826001600160a01b0316846001600160a01b03167f3aed71ce4143148a406a002376059e9cb31ad2e3c9b2a431fc106d4be03f204784604051610e9a91906120f9565b60405180910390a350505050565b610eb0611af9565b6001600160a01b03166000908152600160208190526040909120805460ff19169091179055565b6000826007811115610eeb57610eeb611fd1565b6001600160a01b03831660009081526003602052604090205460ff166007811115610f1857610f18611fd1565b148015610f3e57506001600160a01b03821660009081526004602052604090205460ff16155b9392505050565b6040805160a081018252600080825260208201819052918101829052606081018290526080810191909152600a6000836007811115610f8657610f86611fd1565b6007811115610f9757610f97611fd1565b81526020808201929092526040908101600020815160a081018352905460ff808216835261010082048116151594830194909452620100008104841615159282019290925263ffffffff63010000008304166060820152600160381b9091049091161515608082015292915050565b3360009081526001602052604090205460ff166110355760405162461bcd60e51b8152600401610b229061230d565b6001600160a01b03811660009081526004602052604090205460ff1661112b576001600160a01b0381166000908152600360205260408120546008919060ff16600781111561108657611086611fd1565b600781111561109757611097611fd1565b81526020810191909152604001600090812080546001600160401b0316916110be8361235a565b82546001600160401b039182166101009390930a9283029190920219909116179055506001600160a01b038116600081815260046020526040808220805460ff19166001179055517f4e283ac74dcfce6ff8dd078cc60000ae1deac4f6ae889f87268c6ed2fd0404d89190a25b50565b60086020527f625b35f5e76f098dd7c3a05b10e2e5e78a4a01228d60c3b143426cdf36d26455547f9321edea6e3be4df59a344b401fab4f888b556fda1f954244cff9204bad624b8547f91238f30f286c9a1c6e901c4eda3b214c381c846e3dbe48df95c21488e8e1fdb54600660009081527f13acf3fc7bed94759963f076d5d3443d88732026bffc8253bdf4a6e65f21ecc55490936001600160401b03908116938116926111e192908216911661237d565b6111eb919061237d565b6111f5919061237d565b6001600160401b0316905090565b3360009081526001602052604090205460ff166112325760405162461bcd60e51b8152600401610b229061230d565b6001600160a01b0382166112885760405162461bcd60e51b815260206004820152601b60248201527f5573657220616464726573732063616e6e6f74206265207a65726f00000000006044820152606401610b22565b6001600160a01b03821660009081526003602052604081205460ff1660078111156112b5576112b5611fd1565b146112f85760405162461bcd60e51b81526020600482015260136024820152725573657220616c72656164792065786973747360681b6044820152606401610b22565b600081600781111561130c5761130c611fd1565b0361134d5760405162461bcd60e51b8152602060048201526011602482015270496e76616c69642075736572207479706560781b6044820152606401610b22565b61135681611b76565b6113a25760405162461bcd60e51b815260206004820152601760248201527f50726f706f7274696f6e616c69747920696e76616c69640000000000000000006044820152606401610b22565b6113ac8282611d1c565b6113ed5760405162461bcd60e51b815260206004820152601260248201527124b73b30b634b21034b73b34ba30ba34b7b760711b6044820152606401610b22565b6001600160a01b0382166000908152600360205260409020805482919060ff1916600183600781111561142257611422611fd1565b021790555060028054600160401b90046001600160401b03169060086114478361239c565b91906101000a8154816001600160401b0302191690836001600160401b03160217905550506008600082600781111561148257611482611fd1565b600781111561149357611493611fd1565b81526020810191909152604001600090812080546001600160401b0316916114ba8361239c565b91906101000a8154816001600160401b0302191690836001600160401b0316021790555050600960008260078111156114f5576114f5611fd1565b600781111561150657611506611fd1565b81526020810191909152604001600090812080546001600160401b03169161152d8361239c565b91906101000a8154816001600160401b0302191690836001600160401b0316021790555050816001600160a01b03167f8e18574f8a7333e6a87112742a55853a643e2f0550f4e1a3a2c3f1bb2994441d8260405161158b91906120f9565b60405180910390a25050565b6001600160a01b03811660009081526004602052604081205460ff16156115c057506000919050565b6001600160a01b0382166000908152600360205260409020546115e59060ff16610f45565b6080015192915050565b6115f7611af9565b6001600160a01b03811661162157604051631e4fbdf760e01b815260006004820152602401610b22565b61112b81611b26565b815160641080159061163f5750805161012c10155b6116845760405162461bcd60e51b815260206004820152601660248201527513585e0818da185c9858dd195c9cc81c995858da195960521b6044820152606401610b22565b61168d33610945565b6116cd5760405162461bcd60e51b8152602060048201526011602482015270576169742064656c617920626c6f636b7360781b6044820152606401610b22565b3360009081526003602052604081205460ff1660078111156116f1576116f1611fd1565b0361173e5760405162461bcd60e51b815260206004820152601960248201527f43616c6c6572206d7573742062652072656769737465726564000000000000006044820152606401610b22565b60073360009081526003602052604090205460ff16600781111561176457611764611fd1565b036117b15760405162461bcd60e51b815260206004820152601960248201527f4e6f7420616c6c6f77656420746f20737570706f7274657273000000000000006044820152606401610b22565b6001600160a01b03831660009081526003602052604081205460ff1660078111156117de576117de611fd1565b0361182b5760405162461bcd60e51b815260206004820152601760248201527f55736572206d75737420626520726567697374657265640000000000000000006044820152606401610b22565b6001600160a01b0383166118815760405162461bcd60e51b815260206004820152601a60248201527f43616e6e6f742064656c617465207a65726f20616464726573730000000000006044820152606401610b22565b336001600160a01b038416036118d95760405162461bcd60e51b815260206004820152601d60248201527f53656c662d64656e756e63696174696f6e206e6f7420616c6c6f7765640000006044820152606401610b22565b336000908152600c60205260408120439055600280546001600160401b0316916119028361239c565b82546101009290920a6001600160401b03818102199093169183160217909155600280546040805160c0810182529184168083523360208085019182526001600160a01b038b8116868601818152606088018d8152608089018d90524360a08a015260009283526005808652978320805460018181018355918552959093208951959098029097018054955194909a166001600160e01b031990951694909417600160401b93831693909302929092178855915190870180546001600160a01b031916919092161790559051909450909283929091908201906119e5908261240d565b50608082015160038201906119fa908261240d565b5060a091909101516004909101556001600160401b03828116600090815260066020908152604091829020845181549286015194166001600160e01b031990921691909117600160401b6001600160a01b0394851602178155908301516001820180546001600160a01b031916919093161790915560608201518291906002820190611a86908261240d565b5060808201516003820190611a9b908261240d565b5060a091909101516004909101556040516001600160401b03831681526001600160a01b0386169033907f189a77cbe3dec0697e2a3b90dc61ee5a0271739d521848b871170224328f7a889060200160405180910390a35050505050565b6000546001600160a01b03163314610b835760405163118cdaa760e01b8152336004820152602401610b22565b600080546001600160a01b038381166001600160a01b0319831681178455604051919092169283917f8be0079c531659141344cd1fd0a4f28419497f9722a3daafe3b4186f6b6457e09190a35050565b60016000908152600860208190527fad67d757c34507f157cacfa2e3153e9f260a2244f30428821be7be64587ac55f546001600160401b031690829081856007811115611bc557611bc5611fd1565b6007811115611bd657611bd6611fd1565b815260208101919091526040016000908120546001600160401b03169150600a81866007811115611c0957611c09611fd1565b6007811115611c1a57611c1a611fd1565b815260208082019290925260409081016000908120825160a081018452905460ff80821680845261010083048216151596840196909652620100008204811615159483019490945263ffffffff63010000008204166060830152600160381b900490921615156080830152909250819003611c9b5750600195945050505050565b60056001600160401b0384161015611cb95750600195945050505050565b816020015115611cef57611cd060ff8216856124cb565b6001600160401b0316836001600160401b031610945050505050919050565b611cfc60ff8216856124f4565b6001600160401b0316836001600160401b03161115945050505050919050565b6000600a6000836007811115611d3457611d34611fd1565b6007811115611d4557611d45611fd1565b815260208101919091526040016000205462010000900460ff16611d6b5750600161098e565b6001600160a01b0383811660009081526007602081815260408084208151608081018352815487168152600182015496871693810193909352939491939290840191600160a01b900460ff1690811115611dc757611dc7611fd1565b6007811115611dd857611dd8611fd1565b8152602001600282015481525050905060008160600151118015611e215750826007811115611e0957611e09611fd1565b81604001516007811115611e1f57611e1f611fd1565b145b949350505050565b80356001600160a01b0381168114611e4057600080fd5b919050565b60008060408385031215611e5857600080fd5b611e6183611e29565b9150611e6f60208401611e29565b90509250929050565b600060208284031215611e8a57600080fd5b610f3e82611e29565b6000815180845260005b81811015611eb957602081850181015186830182015201611e9d565b506000602082860101526020601f19601f83011685010191505092915050565b6000602082016020835280845180835260408501915060408160051b86010192506020860160005b82811015611f9b57603f1987860301845281516001600160401b03815116865260018060a01b03602082015116602087015260018060a01b036040820151166040870152606081015160c06060880152611f5e60c0880182611e93565b905060808201518782036080890152611f778282611e93565b60a09384015198909301979097525094506020938401939190910190600101611f01565b50929695505050505050565b803560088110611e4057600080fd5b600060208284031215611fc857600080fd5b610f3e82611fa7565b634e487b7160e01b600052602160045260246000fd5b6008811061200557634e487b7160e01b600052602160045260246000fd5b9052565b81516001600160a01b03908116825260208084015190911690820152604080830151608083019161203c90840182611fe7565b50606092830151919092015290565b6001600160a01b03858116825284166020820152608081016120706040830185611fe7565b82606083015295945050505050565b60006020828403121561209157600080fd5b5035919050565b6001600160401b03871681526001600160a01b0386811660208301528516604082015260c0606082018190526000906120d390830186611e93565b82810360808401526120e58186611e93565b9150508260a0830152979650505050505050565b6020810161098e8284611fe7565b60008060006060848603121561211c57600080fd5b61212584611e29565b925061213360208501611e29565b915061214160408501611fa7565b90509250925092565b6000806040838503121561215d57600080fd5b611e6183611fa7565b6000806040838503121561217957600080fd5b61218283611e29565b9150611e6f60208401611fa7565b634e487b7160e01b600052604160045260246000fd5b600082601f8301126121b757600080fd5b81356001600160401b038111156121d0576121d0612190565b604051601f8201601f19908116603f011681016001600160401b03811182821017156121fe576121fe612190565b60405281815283820160200185101561221657600080fd5b816020850160208301376000918101602001919091529392505050565b60008060006060848603121561224857600080fd5b61225184611e29565b925060208401356001600160401b0381111561226c57600080fd5b612278868287016121a6565b92505060408401356001600160401b0381111561229457600080fd5b6122a0868287016121a6565b9150509250925092565b600181811c908216806122be57607f821691505b6020821081036122de57634e487b7160e01b600052602260045260246000fd5b50919050565b634e487b7160e01b600052601160045260246000fd5b8082018082111561098e5761098e6122e4565b6020808252601290820152712737ba1030b63637bbb2b21031b0b63632b960711b604082015260600190565b600061ffff821661ffff8103612351576123516122e4565b60010192915050565b60006001600160401b03821680612373576123736122e4565b6000190192915050565b6001600160401b03818116838216019081111561098e5761098e6122e4565b60006001600160401b0382166001600160401b038103612351576123516122e4565b601f82111561240857806000526020600020601f840160051c810160208510156123e55750805b601f840160051c820191505b8181101561240557600081556001016123f1565b50505b505050565b81516001600160401b0381111561242657612426612190565b61243a8161243484546122aa565b846123be565b6020601f82116001811461246e57600083156124565750848201515b600019600385901b1c1916600184901b178455612405565b600084815260208120601f198516915b8281101561249e578785015182556020948501946001909201910161247e565b50848210156124bc5786840151600019600387901b60f8161c191681555b50505050600190811b01905550565b6001600160401b0381811683821602908116908181146124ed576124ed6122e4565b5092915050565b60006001600160401b0383168061251b57634e487b7160e01b600052601260045260246000fd5b806001600160401b038416049150509291505056fea2646970667358221220caea7ecd3f930e7052f8697b6ac1c87685f3bab25319840b8dc552599e0f252a64736f6c634300081b0033",
  "linkReferences": {},
  "deployedLinkReferences": {}
}