{
  "_format": "hh-sol-artifact-1",
  "contractName": "CommunityRules",
  "sourceName": "contracts/CommunityRules.sol",
  "abi": [
    {
      "inputs": [
        {
          "internalType": "uint256",
          "name": "inspectorProportionality",
          "type": "uint256"
        },
        {
          "internalType": "uint256",
          "name": "activistProportionality",
          "type": "uint256"
        },
        {
          "internalType": "uint256",
          "name": "researcherProportionality",
          "type": "uint256"
        },
        {
          "internalType": "uint256",
          "name": "developerProportionality",
          "type": "uint256"
        },
        {
          "internalType": "uint256",
          "name": "contributorProportionality",
          "type": "uint256"
        }
      ],
      "stateMutability": "nonpayable",
      "type": "constructor"
    },
    {
      "anonymous": false,
      "inputs": [
        {
          "indexed": false,
          "internalType": "address",
          "name": "informer",
          "type": "address"
        },
        {
          "indexed": false,
          "internalType": "address",
          "name": "reported",
          "type": "address"
        }
      ],
      "name": "AddDelelationEvent",
      "type": "event"
    },
    {
      "anonymous": false,
      "inputs": [
        {
          "indexed": false,
          "internalType": "address",
          "name": "inviter",
          "type": "address"
        },
        {
          "indexed": false,
          "internalType": "address",
          "name": "invited",
          "type": "address"
        },
        {
          "indexed": false,
          "internalType": "enum UserType",
          "name": "userTypeTo",
          "type": "uint8"
        }
      ],
      "name": "AddInvitationEvent",
      "type": "event"
    },
    {
      "anonymous": false,
      "inputs": [
        {
          "indexed": false,
          "internalType": "address",
          "name": "addr",
          "type": "address"
        },
        {
          "indexed": false,
          "internalType": "enum UserType",
          "name": "userType",
          "type": "uint8"
        }
      ],
      "name": "AddUserEvent",
      "type": "event"
    },
    {
      "anonymous": false,
      "inputs": [
        {
          "indexed": false,
          "internalType": "address",
          "name": "addr",
          "type": "address"
        }
      ],
      "name": "DeniedUserEvent",
      "type": "event"
    },
    {
      "anonymous": false,
      "inputs": [
        {
          "indexed": true,
          "internalType": "address",
          "name": "previousOwner",
          "type": "address"
        },
        {
          "indexed": true,
          "internalType": "address",
          "name": "newOwner",
          "type": "address"
        }
      ],
      "name": "OwnershipTransferred",
      "type": "event"
    },
    {
      "inputs": [],
      "name": "MINIMUM_REGISTERED_USERS_QUANTITY",
      "outputs": [
        {
          "internalType": "uint256",
          "name": "",
          "type": "uint256"
        }
      ],
      "stateMutability": "view",
      "type": "function"
    },
    {
      "inputs": [
        {
          "internalType": "address",
          "name": "addr",
          "type": "address"
        },
        {
          "internalType": "string",
          "name": "title",
          "type": "string"
        },
        {
          "internalType": "string",
          "name": "testimony",
          "type": "string"
        }
      ],
      "name": "addDelation",
      "outputs": [],
      "stateMutability": "nonpayable",
      "type": "function"
    },
    {
      "inputs": [
        {
          "internalType": "address",
          "name": "inviter",
          "type": "address"
        },
        {
          "internalType": "address",
          "name": "invited",
          "type": "address"
        },
        {
          "internalType": "enum UserType",
          "name": "userType",
          "type": "uint8"
        }
      ],
      "name": "addInvitation",
      "outputs": [],
      "stateMutability": "nonpayable",
      "type": "function"
    },
    {
      "inputs": [
        {
          "internalType": "address",
          "name": "addr",
          "type": "address"
        },
        {
          "internalType": "enum UserType",
          "name": "userType",
          "type": "uint8"
        }
      ],
      "name": "addUser",
      "outputs": [],
      "stateMutability": "nonpayable",
      "type": "function"
    },
    {
      "inputs": [
        {
          "internalType": "address",
          "name": "",
          "type": "address"
        }
      ],
      "name": "allowedCallers",
      "outputs": [
        {
          "internalType": "bool",
          "name": "",
          "type": "bool"
        }
      ],
      "stateMutability": "view",
      "type": "function"
    },
    {
      "inputs": [],
      "name": "delationsCount",
      "outputs": [
        {
          "internalType": "uint256",
          "name": "",
          "type": "uint256"
        }
      ],
      "stateMutability": "view",
      "type": "function"
    },
    {
      "inputs": [
        {
          "internalType": "address",
          "name": "addr",
          "type": "address"
        }
      ],
      "name": "getInvitation",
      "outputs": [
        {
          "components": [
            {
              "internalType": "address",
              "name": "invited",
              "type": "address"
            },
            {
              "internalType": "address",
              "name": "inviter",
              "type": "address"
            },
            {
              "internalType": "enum UserType",
              "name": "userType",
              "type": "uint8"
            },
            {
              "internalType": "uint256",
              "name": "createdAtBlock",
              "type": "uint256"
            }
          ],
          "internalType": "struct Invitation",
          "name": "",
          "type": "tuple"
        }
      ],
      "stateMutability": "view",
      "type": "function"
    },
    {
      "inputs": [
        {
          "internalType": "address",
          "name": "addr",
          "type": "address"
        }
      ],
      "name": "getUser",
      "outputs": [
        {
          "internalType": "enum UserType",
          "name": "",
          "type": "uint8"
        }
      ],
      "stateMutability": "view",
      "type": "function"
    },
    {
      "inputs": [
        {
          "internalType": "address",
          "name": "addr",
          "type": "address"
        }
      ],
      "name": "getUserDelations",
      "outputs": [
        {
          "components": [
            {
              "internalType": "uint256",
              "name": "id",
              "type": "uint256"
            },
            {
              "internalType": "address",
              "name": "informer",
              "type": "address"
            },
            {
              "internalType": "address",
              "name": "reported",
              "type": "address"
            },
            {
              "internalType": "string",
              "name": "title",
              "type": "string"
            },
            {
              "internalType": "string",
              "name": "testimony",
              "type": "string"
            }
          ],
          "internalType": "struct Delation[]",
          "name": "",
          "type": "tuple[]"
        }
      ],
      "stateMutability": "view",
      "type": "function"
    },
    {
      "inputs": [
        {
          "internalType": "enum UserType",
          "name": "userType",
          "type": "uint8"
        }
      ],
      "name": "getUserTypeSettings",
      "outputs": [
        {
          "components": [
            {
              "internalType": "uint256",
              "name": "proportionalityOnRegister",
              "type": "uint256"
            },
            {
              "internalType": "bool",
              "name": "directProportionalityRegistration",
              "type": "bool"
            },
            {
              "internalType": "bool",
              "name": "needInvitationOnRegister",
              "type": "bool"
            },
            {
              "internalType": "uint256",
              "name": "invitationDelayBlocks",
              "type": "uint256"
            },
            {
              "internalType": "bool",
              "name": "isVoter",
              "type": "bool"
            }
          ],
          "internalType": "struct UserTypeSetting",
          "name": "",
          "type": "tuple"
        }
      ],
      "stateMutability": "view",
      "type": "function"
    },
    {
      "inputs": [
        {
          "internalType": "address",
          "name": "",
          "type": "address"
        }
      ],
      "name": "invitations",
      "outputs": [
        {
          "internalType": "address",
          "name": "invited",
          "type": "address"
        },
        {
          "internalType": "address",
          "name": "inviter",
          "type": "address"
        },
        {
          "internalType": "enum UserType",
          "name": "userType",
          "type": "uint8"
        },
        {
          "internalType": "uint256",
          "name": "createdAtBlock",
          "type": "uint256"
        }
      ],
      "stateMutability": "view",
      "type": "function"
    },
    {
      "inputs": [
        {
          "internalType": "address",
          "name": "caller",
          "type": "address"
        }
      ],
      "name": "isAllowedCaller",
      "outputs": [
        {
          "internalType": "bool",
          "name": "",
          "type": "bool"
        }
      ],
      "stateMutability": "view",
      "type": "function"
    },
    {
      "inputs": [
        {
          "internalType": "address",
          "name": "addr",
          "type": "address"
        }
      ],
      "name": "isVoter",
      "outputs": [
        {
          "internalType": "bool",
          "name": "",
          "type": "bool"
        }
      ],
      "stateMutability": "view",
      "type": "function"
    },
    {
      "inputs": [
        {
          "internalType": "address",
          "name": "allowed",
          "type": "address"
        }
      ],
      "name": "newAllowedCaller",
      "outputs": [],
      "stateMutability": "nonpayable",
      "type": "function"
    },
    {
      "inputs": [],
      "name": "owner",
      "outputs": [
        {
          "internalType": "address",
          "name": "",
          "type": "address"
        }
      ],
      "stateMutability": "view",
      "type": "function"
    },
    {
      "inputs": [],
      "name": "renounceOwnership",
      "outputs": [],
      "stateMutability": "nonpayable",
      "type": "function"
    },
    {
      "inputs": [
        {
          "internalType": "address",
          "name": "userAddress",
          "type": "address"
        }
      ],
      "name": "setDeniedType",
      "outputs": [],
      "stateMutability": "nonpayable",
      "type": "function"
    },
    {
      "inputs": [
        {
          "internalType": "address",
          "name": "newOwner",
          "type": "address"
        }
      ],
      "name": "transferOwnership",
      "outputs": [],
      "stateMutability": "nonpayable",
      "type": "function"
    },
    {
      "inputs": [
        {
          "internalType": "enum UserType",
          "name": "userType",
          "type": "uint8"
        },
        {
          "internalType": "address",
          "name": "userAddress",
          "type": "address"
        }
      ],
      "name": "userTypeIs",
      "outputs": [
        {
          "internalType": "bool",
          "name": "",
          "type": "bool"
        }
      ],
      "stateMutability": "view",
      "type": "function"
    },
    {
      "inputs": [
        {
          "internalType": "enum UserType",
          "name": "",
          "type": "uint8"
        }
      ],
      "name": "userTypeSettings",
      "outputs": [
        {
          "internalType": "uint256",
          "name": "proportionalityOnRegister",
          "type": "uint256"
        },
        {
          "internalType": "bool",
          "name": "directProportionalityRegistration",
          "type": "bool"
        },
        {
          "internalType": "bool",
          "name": "needInvitationOnRegister",
          "type": "bool"
        },
        {
          "internalType": "uint256",
          "name": "invitationDelayBlocks",
          "type": "uint256"
        },
        {
          "internalType": "bool",
          "name": "isVoter",
          "type": "bool"
        }
      ],
      "stateMutability": "view",
      "type": "function"
    },
    {
      "inputs": [
        {
          "internalType": "enum UserType",
          "name": "",
          "type": "uint8"
        }
      ],
      "name": "userTypesCount",
      "outputs": [
        {
          "internalType": "uint256",
          "name": "",
          "type": "uint256"
        }
      ],
      "stateMutability": "view",
      "type": "function"
    },
    {
      "inputs": [
        {
          "internalType": "enum UserType",
          "name": "",
          "type": "uint8"
        }
      ],
      "name": "userTypesTotalCount",
      "outputs": [
        {
          "internalType": "uint256",
          "name": "",
          "type": "uint256"
        }
      ],
      "stateMutability": "view",
      "type": "function"
    },
    {
      "inputs": [],
      "name": "usersCount",
      "outputs": [
        {
          "internalType": "uint256",
          "name": "",
          "type": "uint256"
        }
      ],
      "stateMutability": "view",
      "type": "function"
    },
    {
      "inputs": [],
      "name": "votersCount",
      "outputs": [
        {
          "internalType": "uint256",
          "name": "",
          "type": "uint256"
        }
      ],
      "stateMutability": "view",
      "type": "function"
    }
  ],
  "bytecode": "0x608060405234801561001057600080fd5b506040516139b03803806139b0833981810160405281019061003291906106a4565b61004e61004361059d60201b60201c565b6105a560201b60201c565b6040518060a0016040528060008152602001600015158152602001600115158152602001600081526020016000151581525060076000600160088111156100985761009761071f565b5b60088111156100aa576100a961071f565b5b81526020019081526020016000206000820151816000015560208201518160010160006101000a81548160ff02191690831515021790555060408201518160010160016101000a81548160ff0219169083151502179055506060820151816002015560808201518160030160006101000a81548160ff0219169083151502179055509050506040518060a00160405280868152602001600115158152602001600115158152602001600081526020016000151581525060076000600260088111156101785761017761071f565b5b600881111561018a5761018961071f565b5b81526020019081526020016000206000820151816000015560208201518160010160006101000a81548160ff02191690831515021790555060408201518160010160016101000a81548160ff0219169083151502179055506060820151816002015560808201518160030160006101000a81548160ff0219169083151502179055509050506040518060a001604052808581526020016000151581526020016001151581526020016103e881526020016001151581525060076000600660088111156102595761025861071f565b5b600881111561026b5761026a61071f565b5b81526020019081526020016000206000820151816000015560208201518160010160006101000a81548160ff02191690831515021790555060408201518160010160016101000a81548160ff0219169083151502179055506060820151816002015560808201518160030160006101000a81548160ff0219169083151502179055509050506040518060a001604052808481526020016000151581526020016001151581526020016103e8815260200160011515815250600760006003600881111561033a5761033961071f565b5b600881111561034c5761034b61071f565b5b81526020019081526020016000206000820151816000015560208201518160010160006101000a81548160ff02191690831515021790555060408201518160010160016101000a81548160ff0219169083151502179055506060820151816002015560808201518160030160006101000a81548160ff0219169083151502179055509050506040518060a001604052808381526020016000151581526020016001151581526020016103e8815260200160011515815250600760006004600881111561041b5761041a61071f565b5b600881111561042d5761042c61071f565b5b81526020019081526020016000206000820151816000015560208201518160010160006101000a81548160ff02191690831515021790555060408201518160010160016101000a81548160ff0219169083151502179055506060820151816002015560808201518160030160006101000a81548160ff0219169083151502179055509050506040518060a001604052808281526020016000151581526020016001151581526020016103e881526020016001151581525060076000600560088111156104fc576104fb61071f565b5b600881111561050e5761050d61071f565b5b81526020019081526020016000206000820151816000015560208201518160010160006101000a81548160ff02191690831515021790555060408201518160010160016101000a81548160ff0219169083151502179055506060820151816002015560808201518160030160006101000a81548160ff021916908315150217905550905050505050505061074e565b600033905090565b60008060009054906101000a900473ffffffffffffffffffffffffffffffffffffffff169050816000806101000a81548173ffffffffffffffffffffffffffffffffffffffff021916908373ffffffffffffffffffffffffffffffffffffffff1602179055508173ffffffffffffffffffffffffffffffffffffffff168173ffffffffffffffffffffffffffffffffffffffff167f8be0079c531659141344cd1fd0a4f28419497f9722a3daafe3b4186f6b6457e060405160405180910390a35050565b600080fd5b6000819050919050565b6106818161066e565b811461068c57600080fd5b50565b60008151905061069e81610678565b92915050565b600080600080600060a086880312156106c0576106bf610669565b5b60006106ce8882890161068f565b95505060206106df8882890161068f565b94505060406106f08882890161068f565b93505060606107018882890161068f565b92505060806107128882890161068f565b9150509295509295909350565b7f4e487b7100000000000000000000000000000000000000000000000000000000600052602160045260246000fd5b6132538061075d6000396000f3fe608060405234801561001057600080fd5b50600436106101585760003560e01c80638da5cb5b116100c35780639c3eead91161007c5780639c3eead91461041c578063a680125814610438578063a7771ee314610468578063e202fa4d14610498578063f2fde38b146104b4578063ff789095146104d057610158565b80638da5cb5b146103465780638f93716f1461036457806392220142146103805780639497c6081461039e5780639547f953146103ce57806398c07938146103fe57610158565b806358f43f761161011557806358f43f761461026f5780636ba13a82146102a25780636f77926b146102c0578063715018a6146102f05780637b334154146102fa5780637ccfdba71461032a57610158565b8063064505ad1461015d5780630ed4ea5e1461018d5780631eb2c120146101c157806327127f5d146101f15780632b17b8be1461020f5780632f22dc7b1461023f575b600080fd5b61017760048036038101906101729190612075565b6104ec565b6040516101849190612299565b60405180910390f35b6101a760048036038101906101a291906122e0565b610764565b6040516101b8959493929190612337565b60405180910390f35b6101db60048036038101906101d691906122e0565b6107c1565b6040516101e8919061238a565b60405180910390f35b6101f96107d9565b604051610206919061238a565b60405180910390f35b61022960048036038101906102249190612075565b6107de565b6040516102369190612471565b60405180910390f35b610259600480360381019061025491906122e0565b610928565b604051610266919061238a565b60405180910390f35b61028960048036038101906102849190612075565b610940565b60405161029994939291906124aa565b60405180910390f35b6102aa6109bd565b6040516102b7919061238a565b60405180910390f35b6102da60048036038101906102d59190612075565b6109c3565b6040516102e791906124ef565b60405180910390f35b6102f8610a19565b005b610314600480360381019061030f9190612075565b610a2d565b604051610321919061250a565b60405180910390f35b610344600480360381019061033f9190612525565b610a4d565b005b61034e610e06565b60405161035b9190612578565b60405180910390f35b61037e60048036038101906103799190612075565b610e2f565b005b610388610e91565b604051610395919061238a565b60405180910390f35b6103b860048036038101906103b39190612593565b610e97565b6040516103c5919061250a565b60405180910390f35b6103e860048036038101906103e391906122e0565b610f14565b6040516103f5919061264a565b60405180910390f35b610406610fca565b604051610413919061238a565b60405180910390f35b61043660048036038101906104319190612665565b6110d3565b005b610452600480360381019061044d9190612075565b611460565b60405161045f919061250a565b60405180910390f35b610482600480360381019061047d9190612075565b6114b6565b60405161048f919061250a565b60405180910390f35b6104b260048036038101906104ad9190612075565b611518565b005b6104ce60048036038101906104c99190612075565b6116df565b005b6104ea60048036038101906104e591906127da565b611762565b005b6060600360008373ffffffffffffffffffffffffffffffffffffffff1673ffffffffffffffffffffffffffffffffffffffff168152602001908152602001600020805480602002602001604051908101604052809291908181526020016000905b8282101561075957838290600052602060002090600502016040518060a0016040529081600082015481526020016001820160009054906101000a900473ffffffffffffffffffffffffffffffffffffffff1673ffffffffffffffffffffffffffffffffffffffff1673ffffffffffffffffffffffffffffffffffffffff1681526020016002820160009054906101000a900473ffffffffffffffffffffffffffffffffffffffff1673ffffffffffffffffffffffffffffffffffffffff1673ffffffffffffffffffffffffffffffffffffffff16815260200160038201805461063690612894565b80601f016020809104026020016040519081016040528092919081815260200182805461066290612894565b80156106af5780601f10610684576101008083540402835291602001916106af565b820191906000526020600020905b81548152906001019060200180831161069257829003601f168201915b505050505081526020016004820180546106c890612894565b80601f01602080910402602001604051908101604052809291908181526020018280546106f490612894565b80156107415780601f1061071657610100808354040283529160200191610741565b820191906000526020600020905b81548152906001019060200180831161072457829003601f168201915b5050505050815250508152602001906001019061054d565b505050509050919050565b60076020528060005260406000206000915090508060000154908060010160009054906101000a900460ff16908060010160019054906101000a900460ff16908060020154908060030160009054906101000a900460ff16905085565b60066020528060005260406000206000915090505481565b600581565b6107e6611f68565b600460008373ffffffffffffffffffffffffffffffffffffffff1673ffffffffffffffffffffffffffffffffffffffff1681526020019081526020016000206040518060800160405290816000820160009054906101000a900473ffffffffffffffffffffffffffffffffffffffff1673ffffffffffffffffffffffffffffffffffffffff1673ffffffffffffffffffffffffffffffffffffffff1681526020016001820160009054906101000a900473ffffffffffffffffffffffffffffffffffffffff1673ffffffffffffffffffffffffffffffffffffffff1673ffffffffffffffffffffffffffffffffffffffff1681526020016001820160149054906101000a900460ff166008811115610901576109006123a5565b5b6008811115610913576109126123a5565b5b81526020016002820154815250509050919050565b60056020528060005260406000206000915090505481565b60046020528060005260406000206000915090508060000160009054906101000a900473ffffffffffffffffffffffffffffffffffffffff16908060010160009054906101000a900473ffffffffffffffffffffffffffffffffffffffff16908060010160149054906101000a900460ff16908060020154905084565b60095481565b6000600260008373ffffffffffffffffffffffffffffffffffffffff1673ffffffffffffffffffffffffffffffffffffffff16815260200190815260200160002060009054906101000a900460ff169050919050565b610a21611aad565b610a2b6000611b2b565b565b60016020528060005260406000206000915054906101000a900460ff1681565b600160003373ffffffffffffffffffffffffffffffffffffffff1673ffffffffffffffffffffffffffffffffffffffff16815260200190815260200160002060009054906101000a900460ff16610ad9576040517f08c379a0000000000000000000000000000000000000000000000000000000008152600401610ad090612922565b60405180910390fd5b600073ffffffffffffffffffffffffffffffffffffffff16600460008473ffffffffffffffffffffffffffffffffffffffff1673ffffffffffffffffffffffffffffffffffffffff16815260200190815260200160002060000160009054906101000a900473ffffffffffffffffffffffffffffffffffffffff1673ffffffffffffffffffffffffffffffffffffffff1614610baa576040517f08c379a0000000000000000000000000000000000000000000000000000000008152600401610ba19061298e565b60405180910390fd5b60006008811115610bbe57610bbd6123a5565b5b600260008473ffffffffffffffffffffffffffffffffffffffff1673ffffffffffffffffffffffffffffffffffffffff16815260200190815260200160002060009054906101000a900460ff166008811115610c1d57610c1c6123a5565b5b14610c5d576040517f08c379a0000000000000000000000000000000000000000000000000000000008152600401610c54906129fa565b60405180910390fd5b60405180608001604052808373ffffffffffffffffffffffffffffffffffffffff1681526020018473ffffffffffffffffffffffffffffffffffffffff168152602001826008811115610cb357610cb26123a5565b5b815260200143815250600460008473ffffffffffffffffffffffffffffffffffffffff1673ffffffffffffffffffffffffffffffffffffffff16815260200190815260200160002060008201518160000160006101000a81548173ffffffffffffffffffffffffffffffffffffffff021916908373ffffffffffffffffffffffffffffffffffffffff16021790555060208201518160010160006101000a81548173ffffffffffffffffffffffffffffffffffffffff021916908373ffffffffffffffffffffffffffffffffffffffff16021790555060408201518160010160146101000a81548160ff02191690836008811115610db457610db36123a5565b5b0217905550606082015181600201559050507f901be2f9ae038bff3ed90525a236278dcd3b4ae87000beba691f4912303235d8838383604051610df993929190612a1a565b60405180910390a1505050565b60008060009054906101000a900473ffffffffffffffffffffffffffffffffffffffff16905090565b610e37611aad565b60018060008373ffffffffffffffffffffffffffffffffffffffff1673ffffffffffffffffffffffffffffffffffffffff16815260200190815260200160002060006101000a81548160ff02191690831515021790555050565b60085481565b6000826008811115610eac57610eab6123a5565b5b600260008473ffffffffffffffffffffffffffffffffffffffff1673ffffffffffffffffffffffffffffffffffffffff16815260200190815260200160002060009054906101000a900460ff166008811115610f0b57610f0a6123a5565b5b14905092915050565b610f1c611fce565b60076000836008811115610f3357610f326123a5565b5b6008811115610f4557610f446123a5565b5b81526020019081526020016000206040518060a0016040529081600082015481526020016001820160009054906101000a900460ff161515151581526020016001820160019054906101000a900460ff16151515158152602001600282015481526020016003820160009054906101000a900460ff1615151515815250509050919050565b60006005600060036008811115610fe457610fe36123a5565b5b6008811115610ff657610ff56123a5565b5b815260200190815260200160002054600560006004600881111561101d5761101c6123a5565b5b600881111561102f5761102e6123a5565b5b8152602001908152602001600020546005600060056008811115611056576110556123a5565b5b6008811115611068576110676123a5565b5b815260200190815260200160002054600560006006600881111561108f5761108e6123a5565b5b60088111156110a1576110a06123a5565b5b8152602001908152602001600020546110ba9190612a80565b6110c49190612a80565b6110ce9190612a80565b905090565b600160003373ffffffffffffffffffffffffffffffffffffffff1673ffffffffffffffffffffffffffffffffffffffff16815260200190815260200160002060009054906101000a900460ff1661115f576040517f08c379a000000000000000000000000000000000000000000000000000000000815260040161115690612922565b60405180910390fd5b60006008811115611173576111726123a5565b5b600260008473ffffffffffffffffffffffffffffffffffffffff1673ffffffffffffffffffffffffffffffffffffffff16815260200190815260200160002060009054906101000a900460ff1660088111156111d2576111d16123a5565b5b14611212576040517f08c379a000000000000000000000000000000000000000000000000000000000815260040161120990612b00565b60405180910390fd5b60006008811115611226576112256123a5565b5b816008811115611239576112386123a5565b5b03611279576040517f08c379a000000000000000000000000000000000000000000000000000000000815260040161127090612b6c565b60405180910390fd5b61128281611bef565b6112c1576040517f08c379a00000000000000000000000000000000000000000000000000000000081526004016112b890612bd8565b60405180910390fd5b6112cb8282611d85565b61130a576040517f08c379a000000000000000000000000000000000000000000000000000000000815260040161130190612c44565b60405180910390fd5b80600260008473ffffffffffffffffffffffffffffffffffffffff1673ffffffffffffffffffffffffffffffffffffffff16815260200190815260200160002060006101000a81548160ff0219169083600881111561136c5761136b6123a5565b5b02179055506009600081548092919061138490612c64565b9190505550600560008260088111156113a05761139f6123a5565b5b60088111156113b2576113b16123a5565b5b815260200190815260200160002060008154809291906113d190612c64565b9190505550600660008260088111156113ed576113ec6123a5565b5b60088111156113ff576113fe6123a5565b5b8152602001908152602001600020600081548092919061141e90612c64565b91905055507f7e9d1e0ce3fa635fda0b423f40aeb85e9aa332042faebecff692e06cf182260d8282604051611454929190612cac565b60405180910390a15050565b6000600160008373ffffffffffffffffffffffffffffffffffffffff1673ffffffffffffffffffffffffffffffffffffffff16815260200190815260200160002060009054906101000a900460ff169050919050565b600061150d600260008473ffffffffffffffffffffffffffffffffffffffff1673ffffffffffffffffffffffffffffffffffffffff16815260200190815260200160002060009054906101000a900460ff16610f14565b608001519050919050565b600160003373ffffffffffffffffffffffffffffffffffffffff1673ffffffffffffffffffffffffffffffffffffffff16815260200190815260200160002060009054906101000a900460ff166115a4576040517f08c379a000000000000000000000000000000000000000000000000000000000815260040161159b90612922565b60405180910390fd5b60056000600260008473ffffffffffffffffffffffffffffffffffffffff1673ffffffffffffffffffffffffffffffffffffffff16815260200190815260200160002060009054906101000a900460ff166008811115611607576116066123a5565b5b6008811115611619576116186123a5565b5b8152602001908152602001600020600081548092919061163890612cd5565b91905055506008600260008373ffffffffffffffffffffffffffffffffffffffff1673ffffffffffffffffffffffffffffffffffffffff16815260200190815260200160002060006101000a81548160ff021916908360088111156116a05761169f6123a5565b5b02179055507f4e283ac74dcfce6ff8dd078cc60000ae1deac4f6ae889f87268c6ed2fd0404d8816040516116d49190612578565b60405180910390a150565b6116e7611aad565b600073ffffffffffffffffffffffffffffffffffffffff168173ffffffffffffffffffffffffffffffffffffffff1603611756576040517f08c379a000000000000000000000000000000000000000000000000000000000815260040161174d90612d70565b60405180910390fd5b61175f81611b2b565b50565b60006008811115611776576117756123a5565b5b600260003373ffffffffffffffffffffffffffffffffffffffff1673ffffffffffffffffffffffffffffffffffffffff16815260200190815260200160002060009054906101000a900460ff1660088111156117d5576117d46123a5565b5b03611815576040517f08c379a000000000000000000000000000000000000000000000000000000000815260040161180c90612ddc565b60405180910390fd5b60006008811115611829576118286123a5565b5b600260008573ffffffffffffffffffffffffffffffffffffffff1673ffffffffffffffffffffffffffffffffffffffff16815260200190815260200160002060009054906101000a900460ff166008811115611888576118876123a5565b5b036118c8576040517f08c379a00000000000000000000000000000000000000000000000000000000081526004016118bf90612e48565b60405180910390fd5b600360008473ffffffffffffffffffffffffffffffffffffffff1673ffffffffffffffffffffffffffffffffffffffff1681526020019081526020016000206040518060a0016040528060016008546119219190612a80565b81526020013373ffffffffffffffffffffffffffffffffffffffff1681526020018573ffffffffffffffffffffffffffffffffffffffff1681526020018481526020018381525090806001815401808255809150506001900390600052602060002090600502016000909190919091506000820151816000015560208201518160010160006101000a81548173ffffffffffffffffffffffffffffffffffffffff021916908373ffffffffffffffffffffffffffffffffffffffff16021790555060408201518160020160006101000a81548173ffffffffffffffffffffffffffffffffffffffff021916908373ffffffffffffffffffffffffffffffffffffffff1602179055506060820151816003019081611a3e9190613014565b506080820151816004019081611a549190613014565b50505060086000815480929190611a6a90612c64565b91905055507f7da036e59c6c49d773d1641f0bb20f614d377e40e5338c5d14c3819367fe20b83384604051611aa09291906130e6565b60405180910390a1505050565b611ab5611f60565b73ffffffffffffffffffffffffffffffffffffffff16611ad3610e06565b73ffffffffffffffffffffffffffffffffffffffff1614611b29576040517f08c379a0000000000000000000000000000000000000000000000000000000008152600401611b209061315b565b60405180910390fd5b565b60008060009054906101000a900473ffffffffffffffffffffffffffffffffffffffff169050816000806101000a81548173ffffffffffffffffffffffffffffffffffffffff021916908373ffffffffffffffffffffffffffffffffffffffff1602179055508173ffffffffffffffffffffffffffffffffffffffff168173ffffffffffffffffffffffffffffffffffffffff167f8be0079c531659141344cd1fd0a4f28419497f9722a3daafe3b4186f6b6457e060405160405180910390a35050565b6000806005600060016008811115611c0a57611c096123a5565b5b6008811115611c1c57611c1b6123a5565b5b8152602001908152602001600020549050600060056000856008811115611c4657611c456123a5565b5b6008811115611c5857611c576123a5565b5b8152602001908152602001600020549050600060076000866008811115611c8257611c816123a5565b5b6008811115611c9457611c936123a5565b5b81526020019081526020016000206040518060a0016040529081600082015481526020016001820160009054906101000a900460ff161515151581526020016001820160019054906101000a900460ff16151515158152602001600282015481526020016003820160009054906101000a900460ff161515151581525050905060008160000151905060008103611d32576001945050505050611d80565b6005831015611d48576001945050505050611d80565b816020015115611d6b578084611d5e919061317b565b8310945050505050611d80565b8084611d7791906131ec565b83109450505050505b919050565b600060076000836008811115611d9e57611d9d6123a5565b5b6008811115611db057611daf6123a5565b5b815260200190815260200160002060010160019054906101000a900460ff16611ddc5760019050611f5a565b6000600460008573ffffffffffffffffffffffffffffffffffffffff1673ffffffffffffffffffffffffffffffffffffffff1681526020019081526020016000206040518060800160405290816000820160009054906101000a900473ffffffffffffffffffffffffffffffffffffffff1673ffffffffffffffffffffffffffffffffffffffff1673ffffffffffffffffffffffffffffffffffffffff1681526020016001820160009054906101000a900473ffffffffffffffffffffffffffffffffffffffff1673ffffffffffffffffffffffffffffffffffffffff1673ffffffffffffffffffffffffffffffffffffffff1681526020016001820160149054906101000a900460ff166008811115611ef957611ef86123a5565b5b6008811115611f0b57611f0a6123a5565b5b8152602001600282015481525050905060008160600151118015611f565750826008811115611f3d57611f3c6123a5565b5b81604001516008811115611f5457611f536123a5565b5b145b9150505b92915050565b600033905090565b6040518060800160405280600073ffffffffffffffffffffffffffffffffffffffff168152602001600073ffffffffffffffffffffffffffffffffffffffff16815260200160006008811115611fc157611fc06123a5565b5b8152602001600081525090565b6040518060a0016040528060008152602001600015158152602001600015158152602001600081526020016000151581525090565b6000604051905090565b600080fd5b600080fd5b600073ffffffffffffffffffffffffffffffffffffffff82169050919050565b600061204282612017565b9050919050565b61205281612037565b811461205d57600080fd5b50565b60008135905061206f81612049565b92915050565b60006020828403121561208b5761208a61200d565b5b600061209984828501612060565b91505092915050565b600081519050919050565b600082825260208201905092915050565b6000819050602082019050919050565b6000819050919050565b6120e1816120ce565b82525050565b6120f081612037565b82525050565b600081519050919050565b600082825260208201905092915050565b60005b83811015612130578082015181840152602081019050612115565b60008484015250505050565b6000601f19601f8301169050919050565b6000612158826120f6565b6121628185612101565b9350612172818560208601612112565b61217b8161213c565b840191505092915050565b600060a08301600083015161219e60008601826120d8565b5060208301516121b160208601826120e7565b5060408301516121c460408601826120e7565b50606083015184820360608601526121dc828261214d565b915050608083015184820360808601526121f6828261214d565b9150508091505092915050565b600061220f8383612186565b905092915050565b6000602082019050919050565b600061222f826120a2565b61223981856120ad565b93508360208202850161224b856120be565b8060005b8581101561228757848403895281516122688582612203565b945061227383612217565b925060208a0199505060018101905061224f565b50829750879550505050505092915050565b600060208201905081810360008301526122b38184612224565b905092915050565b600981106122c857600080fd5b50565b6000813590506122da816122bb565b92915050565b6000602082840312156122f6576122f561200d565b5b6000612304848285016122cb565b91505092915050565b612316816120ce565b82525050565b60008115159050919050565b6123318161231c565b82525050565b600060a08201905061234c600083018861230d565b6123596020830187612328565b6123666040830186612328565b612373606083018561230d565b6123806080830184612328565b9695505050505050565b600060208201905061239f600083018461230d565b92915050565b7f4e487b7100000000000000000000000000000000000000000000000000000000600052602160045260246000fd5b600981106123e5576123e46123a5565b5b50565b60008190506123f6826123d4565b919050565b6000612406826123e8565b9050919050565b612416816123fb565b82525050565b60808201600082015161243260008501826120e7565b50602082015161244560208501826120e7565b506040820151612458604085018261240d565b50606082015161246b60608501826120d8565b50505050565b6000608082019050612486600083018461241c565b92915050565b61249581612037565b82525050565b6124a4816123fb565b82525050565b60006080820190506124bf600083018761248c565b6124cc602083018661248c565b6124d9604083018561249b565b6124e6606083018461230d565b95945050505050565b6000602082019050612504600083018461249b565b92915050565b600060208201905061251f6000830184612328565b92915050565b60008060006060848603121561253e5761253d61200d565b5b600061254c86828701612060565b935050602061255d86828701612060565b925050604061256e868287016122cb565b9150509250925092565b600060208201905061258d600083018461248c565b92915050565b600080604083850312156125aa576125a961200d565b5b60006125b8858286016122cb565b92505060206125c985828601612060565b9150509250929050565b6125dc8161231c565b82525050565b60a0820160008201516125f860008501826120d8565b50602082015161260b60208501826125d3565b50604082015161261e60408501826125d3565b50606082015161263160608501826120d8565b50608082015161264460808501826125d3565b50505050565b600060a08201905061265f60008301846125e2565b92915050565b6000806040838503121561267c5761267b61200d565b5b600061268a85828601612060565b925050602061269b858286016122cb565b9150509250929050565b600080fd5b600080fd5b7f4e487b7100000000000000000000000000000000000000000000000000000000600052604160045260246000fd5b6126e78261213c565b810181811067ffffffffffffffff82111715612706576127056126af565b5b80604052505050565b6000612719612003565b905061272582826126de565b919050565b600067ffffffffffffffff821115612745576127446126af565b5b61274e8261213c565b9050602081019050919050565b82818337600083830152505050565b600061277d6127788461272a565b61270f565b905082815260208101848484011115612799576127986126aa565b5b6127a484828561275b565b509392505050565b600082601f8301126127c1576127c06126a5565b5b81356127d184826020860161276a565b91505092915050565b6000806000606084860312156127f3576127f261200d565b5b600061280186828701612060565b935050602084013567ffffffffffffffff81111561282257612821612012565b5b61282e868287016127ac565b925050604084013567ffffffffffffffff81111561284f5761284e612012565b5b61285b868287016127ac565b9150509250925092565b7f4e487b7100000000000000000000000000000000000000000000000000000000600052602260045260246000fd5b600060028204905060018216806128ac57607f821691505b6020821081036128bf576128be612865565b5b50919050565b600082825260208201905092915050565b7f4e6f7420616c6c6f7765642063616c6c65720000000000000000000000000000600082015250565b600061290c6012836128c5565b9150612917826128d6565b602082019050919050565b6000602082019050818103600083015261293b816128ff565b9050919050565b7f416c726561647920696e76697465640000000000000000000000000000000000600082015250565b6000612978600f836128c5565b915061298382612942565b602082019050919050565b600060208201905081810360008301526129a78161296b565b9050919050565b7f416c726561647920726567697374657265640000000000000000000000000000600082015250565b60006129e46012836128c5565b91506129ef826129ae565b602082019050919050565b60006020820190508181036000830152612a13816129d7565b9050919050565b6000606082019050612a2f600083018661248c565b612a3c602083018561248c565b612a49604083018461249b565b949350505050565b7f4e487b7100000000000000000000000000000000000000000000000000000000600052601160045260246000fd5b6000612a8b826120ce565b9150612a96836120ce565b9250828201905080821115612aae57612aad612a51565b5b92915050565b7f5573657220616c72656164792065786973747300000000000000000000000000600082015250565b6000612aea6013836128c5565b9150612af582612ab4565b602082019050919050565b60006020820190508181036000830152612b1981612add565b9050919050565b7f496e76616c696420757365722074797065000000000000000000000000000000600082015250565b6000612b566011836128c5565b9150612b6182612b20565b602082019050919050565b60006020820190508181036000830152612b8581612b49565b9050919050565b7f50726f706f7274696f6e616c69747920696e76616c6964000000000000000000600082015250565b6000612bc26017836128c5565b9150612bcd82612b8c565b602082019050919050565b60006020820190508181036000830152612bf181612bb5565b9050919050565b7f496e76616c696420696e7669746174696f6e0000000000000000000000000000600082015250565b6000612c2e6012836128c5565b9150612c3982612bf8565b602082019050919050565b60006020820190508181036000830152612c5d81612c21565b9050919050565b6000612c6f826120ce565b91507fffffffffffffffffffffffffffffffffffffffffffffffffffffffffffffffff8203612ca157612ca0612a51565b5b600182019050919050565b6000604082019050612cc1600083018561248c565b612cce602083018461249b565b9392505050565b6000612ce0826120ce565b915060008203612cf357612cf2612a51565b5b600182039050919050565b7f4f776e61626c653a206e6577206f776e657220697320746865207a65726f206160008201527f6464726573730000000000000000000000000000000000000000000000000000602082015250565b6000612d5a6026836128c5565b9150612d6582612cfe565b604082019050919050565b60006020820190508181036000830152612d8981612d4d565b9050919050565b7f43616c6c6572206d757374206265207265676973746572656400000000000000600082015250565b6000612dc66019836128c5565b9150612dd182612d90565b602082019050919050565b60006020820190508181036000830152612df581612db9565b9050919050565b7f55736572206d7573742062652072656769737465726564000000000000000000600082015250565b6000612e326017836128c5565b9150612e3d82612dfc565b602082019050919050565b60006020820190508181036000830152612e6181612e25565b9050919050565b60008190508160005260206000209050919050565b60006020601f8301049050919050565b600082821b905092915050565b600060088302612eca7fffffffffffffffffffffffffffffffffffffffffffffffffffffffffffffffff82612e8d565b612ed48683612e8d565b95508019841693508086168417925050509392505050565b6000819050919050565b6000612f11612f0c612f07846120ce565b612eec565b6120ce565b9050919050565b6000819050919050565b612f2b83612ef6565b612f3f612f3782612f18565b848454612e9a565b825550505050565b600090565b612f54612f47565b612f5f818484612f22565b505050565b5b81811015612f8357612f78600082612f4c565b600181019050612f65565b5050565b601f821115612fc857612f9981612e68565b612fa284612e7d565b81016020851015612fb1578190505b612fc5612fbd85612e7d565b830182612f64565b50505b505050565b600082821c905092915050565b6000612feb60001984600802612fcd565b1980831691505092915050565b60006130048383612fda565b9150826002028217905092915050565b61301d826120f6565b67ffffffffffffffff811115613036576130356126af565b5b6130408254612894565b61304b828285612f87565b600060209050601f83116001811461307e576000841561306c578287015190505b6130768582612ff8565b8655506130de565b601f19841661308c86612e68565b60005b828110156130b45784890151825560018201915060208501945060208101905061308f565b868310156130d157848901516130cd601f891682612fda565b8355505b6001600288020188555050505b505050505050565b60006040820190506130fb600083018561248c565b613108602083018461248c565b9392505050565b7f4f776e61626c653a2063616c6c6572206973206e6f7420746865206f776e6572600082015250565b60006131456020836128c5565b91506131508261310f565b602082019050919050565b6000602082019050818103600083015261317481613138565b9050919050565b6000613186826120ce565b9150613191836120ce565b925082820261319f816120ce565b915082820484148315176131b6576131b5612a51565b5b5092915050565b7f4e487b7100000000000000000000000000000000000000000000000000000000600052601260045260246000fd5b60006131f7826120ce565b9150613202836120ce565b925082613212576132116131bd565b5b82820490509291505056fea2646970667358221220338fffc32742e19fd47f1400f9da490c57e7f362f5fc695fa9b30f7995e0a1af64736f6c634300081b0033",
  "linkReferences": {},
  "deployedLinkReferences": {}
}