{
  "_format": "hh-sol-artifact-1",
  "contractName": "InspectionRules",
  "sourceName": "contracts/InspectionRules.sol",
  "abi": [
    {
      "inputs": [
        {
          "internalType": "uint256",
          "name": "timeBetweenInspections_",
          "type": "uint256"
        },
        {
          "internalType": "uint256",
          "name": "blocksToExpireAcceptedInspection_",
          "type": "uint256"
        },
        {
          "internalType": "uint256",
          "name": "allowedInitialRequests_",
          "type": "uint256"
        },
        {
          "internalType": "uint256",
          "name": "acceptInspectionDelayBlocks_",
          "type": "uint256"
        },
        {
          "internalType": "uint256",
          "name": "securityBlocksToValidatorAnalysis_",
          "type": "uint256"
        }
      ],
      "stateMutability": "nonpayable",
      "type": "constructor"
    },
    {
      "anonymous": false,
      "inputs": [
        {
          "indexed": true,
          "internalType": "address",
          "name": "previousOwner",
          "type": "address"
        },
        {
          "indexed": true,
          "internalType": "address",
          "name": "newOwner",
          "type": "address"
        }
      ],
      "name": "OwnershipTransferred",
      "type": "event"
    },
    {
      "inputs": [
        {
          "internalType": "uint256",
          "name": "inspectionId",
          "type": "uint256"
        }
      ],
      "name": "acceptInspection",
      "outputs": [],
      "stateMutability": "nonpayable",
      "type": "function"
    },
    {
      "inputs": [],
      "name": "acceptInspectionDelayBlocks",
      "outputs": [
        {
          "internalType": "uint256",
          "name": "",
          "type": "uint256"
        }
      ],
      "stateMutability": "view",
      "type": "function"
    },
    {
      "inputs": [
        {
          "internalType": "uint256",
          "name": "id",
          "type": "uint256"
        },
        {
          "internalType": "string",
          "name": "justification",
          "type": "string"
        }
      ],
      "name": "addInspectionValidation",
      "outputs": [],
      "stateMutability": "nonpayable",
      "type": "function"
    },
    {
      "inputs": [
        {
          "internalType": "address",
          "name": "",
          "type": "address"
        }
      ],
      "name": "allowedCallers",
      "outputs": [
        {
          "internalType": "bool",
          "name": "",
          "type": "bool"
        }
      ],
      "stateMutability": "view",
      "type": "function"
    },
    {
      "inputs": [],
      "name": "allowedInitialRequests",
      "outputs": [
        {
          "internalType": "uint256",
          "name": "",
          "type": "uint256"
        }
      ],
      "stateMutability": "view",
      "type": "function"
    },
    {
      "inputs": [],
      "name": "blocksToExpireAcceptedInspection",
      "outputs": [
        {
          "internalType": "uint256",
          "name": "",
          "type": "uint256"
        }
      ],
      "stateMutability": "view",
      "type": "function"
    },
    {
      "inputs": [
        {
          "internalType": "uint256",
          "name": "inspectionId",
          "type": "uint256"
        }
      ],
      "name": "calculateBlocksToExpire",
      "outputs": [
        {
          "internalType": "uint256",
          "name": "",
          "type": "uint256"
        }
      ],
      "stateMutability": "view",
      "type": "function"
    },
    {
      "inputs": [
        {
          "internalType": "uint256",
          "name": "id",
          "type": "uint256"
        }
      ],
      "name": "getInspection",
      "outputs": [
        {
          "components": [
            {
              "internalType": "uint256",
              "name": "id",
              "type": "uint256"
            },
            {
              "internalType": "enum InspectionStatus",
              "name": "status",
              "type": "uint8"
            },
            {
              "internalType": "address",
              "name": "regenerator",
              "type": "address"
            },
            {
              "internalType": "address",
              "name": "inspector",
              "type": "address"
            },
            {
              "internalType": "uint256",
              "name": "treesResult",
              "type": "uint256"
            },
            {
              "internalType": "uint256",
              "name": "biodiversityResult",
              "type": "uint256"
            },
            {
              "internalType": "uint256",
              "name": "regenerationScore",
              "type": "uint256"
            },
            {
              "internalType": "string",
              "name": "proofPhoto",
              "type": "string"
            },
            {
              "internalType": "string",
              "name": "report",
              "type": "string"
            },
            {
              "internalType": "uint256",
              "name": "validationsCount",
              "type": "uint256"
            },
            {
              "internalType": "uint256",
              "name": "createdAt",
              "type": "uint256"
            },
            {
              "internalType": "uint256",
              "name": "acceptedAt",
              "type": "uint256"
            },
            {
              "internalType": "uint256",
              "name": "inspectedAt",
              "type": "uint256"
            },
            {
              "internalType": "uint256",
              "name": "inspectedAtEra",
              "type": "uint256"
            },
            {
              "internalType": "uint256",
              "name": "invalidatedAt",
              "type": "uint256"
            }
          ],
          "internalType": "struct Inspection",
          "name": "",
          "type": "tuple"
        }
      ],
      "stateMutability": "view",
      "type": "function"
    },
    {
      "inputs": [
        {
          "internalType": "address",
          "name": "addr",
          "type": "address"
        }
      ],
      "name": "getInspectionsHistory",
      "outputs": [
        {
          "internalType": "uint256[]",
          "name": "",
          "type": "uint256[]"
        }
      ],
      "stateMutability": "view",
      "type": "function"
    },
    {
      "inputs": [],
      "name": "inspectionsBiodiversityImpact",
      "outputs": [
        {
          "internalType": "uint256",
          "name": "",
          "type": "uint256"
        }
      ],
      "stateMutability": "view",
      "type": "function"
    },
    {
      "inputs": [],
      "name": "inspectionsCount",
      "outputs": [
        {
          "internalType": "uint256",
          "name": "",
          "type": "uint256"
        }
      ],
      "stateMutability": "view",
      "type": "function"
    },
    {
      "inputs": [],
      "name": "inspectionsTotalCount",
      "outputs": [
        {
          "internalType": "uint256",
          "name": "",
          "type": "uint256"
        }
      ],
      "stateMutability": "view",
      "type": "function"
    },
    {
      "inputs": [],
      "name": "inspectionsTreesImpact",
      "outputs": [
        {
          "internalType": "uint256",
          "name": "",
          "type": "uint256"
        }
      ],
      "stateMutability": "view",
      "type": "function"
    },
    {
      "inputs": [
        {
          "internalType": "address",
          "name": "caller",
          "type": "address"
        }
      ],
      "name": "isAllowedCaller",
      "outputs": [
        {
          "internalType": "bool",
          "name": "",
          "type": "bool"
        }
      ],
      "stateMutability": "view",
      "type": "function"
    },
    {
      "inputs": [
        {
          "internalType": "address",
          "name": "allowed",
          "type": "address"
        }
      ],
      "name": "newAllowedCaller",
      "outputs": [],
      "stateMutability": "nonpayable",
      "type": "function"
    },
    {
      "inputs": [],
      "name": "owner",
      "outputs": [
        {
          "internalType": "address",
          "name": "",
          "type": "address"
        }
      ],
      "stateMutability": "view",
      "type": "function"
    },
    {
      "inputs": [
        {
          "internalType": "uint256",
          "name": "inspectionId",
          "type": "uint256"
        },
        {
          "internalType": "string",
          "name": "proofPhoto",
          "type": "string"
        },
        {
          "internalType": "string",
          "name": "report",
          "type": "string"
        },
        {
          "internalType": "uint256",
          "name": "treesResult",
          "type": "uint256"
        },
        {
          "internalType": "uint256",
          "name": "biodiversityResult",
          "type": "uint256"
        }
      ],
      "name": "realizeInspection",
      "outputs": [],
      "stateMutability": "nonpayable",
      "type": "function"
    },
    {
      "inputs": [],
      "name": "realizedInspectionsCount",
      "outputs": [
        {
          "internalType": "uint256",
          "name": "",
          "type": "uint256"
        }
      ],
      "stateMutability": "view",
      "type": "function"
    },
    {
      "inputs": [],
      "name": "renounceOwnership",
      "outputs": [],
      "stateMutability": "nonpayable",
      "type": "function"
    },
    {
      "inputs": [],
      "name": "requestInspection",
      "outputs": [],
      "stateMutability": "nonpayable",
      "type": "function"
    },
    {
      "inputs": [],
      "name": "securityBlocksToValidatorAnalysis",
      "outputs": [
        {
          "internalType": "uint256",
          "name": "",
          "type": "uint256"
        }
      ],
      "stateMutability": "view",
      "type": "function"
    },
    {
      "inputs": [
        {
          "components": [
            {
              "internalType": "address",
              "name": "communityRulesAddress",
              "type": "address"
            },
            {
              "internalType": "address",
              "name": "regeneratorRulesAddress",
              "type": "address"
            },
            {
              "internalType": "address",
              "name": "validationRulesAddress",
              "type": "address"
            },
            {
              "internalType": "address",
              "name": "inspectorRulesAddress",
              "type": "address"
            },
            {
              "internalType": "address",
              "name": "regenerationIndexRulesAddress",
              "type": "address"
            },
            {
              "internalType": "address",
              "name": "activistRulesAddress",
              "type": "address"
            },
            {
              "internalType": "address",
              "name": "voteRulesAddress",
              "type": "address"
            }
          ],
          "internalType": "struct ContractsDependency",
          "name": "contractDependency",
          "type": "tuple"
        }
      ],
      "name": "setContractAddressDependencies",
      "outputs": [],
      "stateMutability": "nonpayable",
      "type": "function"
    },
    {
      "inputs": [],
      "name": "timeBetweenInspections",
      "outputs": [
        {
          "internalType": "uint256",
          "name": "",
          "type": "uint256"
        }
      ],
      "stateMutability": "view",
      "type": "function"
    },
    {
      "inputs": [
        {
          "internalType": "address",
          "name": "newOwner",
          "type": "address"
        }
      ],
      "name": "transferOwnership",
      "outputs": [],
      "stateMutability": "nonpayable",
      "type": "function"
    },
    {
      "inputs": [
        {
          "components": [
            {
              "internalType": "uint256",
              "name": "id",
              "type": "uint256"
            },
            {
              "internalType": "address",
              "name": "regeneratorWallet",
              "type": "address"
            },
            {
              "internalType": "string",
              "name": "name",
              "type": "string"
            },
            {
              "internalType": "string",
              "name": "proofPhoto",
              "type": "string"
            },
            {
              "internalType": "uint256",
              "name": "totalArea",
              "type": "uint256"
            },
            {
              "internalType": "bool",
              "name": "pendingInspection",
              "type": "bool"
            },
            {
              "internalType": "uint256",
              "name": "totalInspections",
              "type": "uint256"
            },
            {
              "internalType": "uint256",
              "name": "lastRequestAt",
              "type": "uint256"
            },
            {
              "components": [
                {
                  "internalType": "uint256",
                  "name": "score",
                  "type": "uint256"
                }
              ],
              "internalType": "struct RegenerationScore",
              "name": "regenerationScore",
              "type": "tuple"
            },
            {
              "components": [
                {
                  "internalType": "bool",
                  "name": "onContractPool",
                  "type": "bool"
                },
                {
                  "internalType": "uint256",
                  "name": "currentEra",
                  "type": "uint256"
                }
              ],
              "internalType": "struct Pool",
              "name": "pool",
              "type": "tuple"
            },
            {
              "internalType": "uint256",
              "name": "createdAt",
              "type": "uint256"
            },
            {
              "internalType": "uint256",
              "name": "coordinatesCount",
              "type": "uint256"
            }
          ],
          "internalType": "struct Regenerator",
          "name": "regenerator",
          "type": "tuple"
        }
      ],
      "name": "waitToRequest",
      "outputs": [
        {
          "internalType": "bool",
          "name": "",
          "type": "bool"
        }
      ],
      "stateMutability": "view",
      "type": "function"
    }
  ],
  "bytecode": "0x61012060405234801561001157600080fd5b50604051615f36380380615f3683398181016040528101906100339190610189565b61004f61004461008260201b60201c565b61008a60201b60201c565b84608081815250508360a081815250508260c081815250508160e081815250508061010081815250505050505050610204565b600033905090565b60008060009054906101000a900473ffffffffffffffffffffffffffffffffffffffff169050816000806101000a81548173ffffffffffffffffffffffffffffffffffffffff021916908373ffffffffffffffffffffffffffffffffffffffff1602179055508173ffffffffffffffffffffffffffffffffffffffff168173ffffffffffffffffffffffffffffffffffffffff167f8be0079c531659141344cd1fd0a4f28419497f9722a3daafe3b4186f6b6457e060405160405180910390a35050565b600080fd5b6000819050919050565b61016681610153565b811461017157600080fd5b50565b6000815190506101838161015d565b92915050565b600080600080600060a086880312156101a5576101a461014e565b5b60006101b388828901610174565b95505060206101c488828901610174565b94505060406101d588828901610174565b93505060606101e688828901610174565b92505060806101f788828901610174565b9150509295509295909350565b60805160a05160c05160e05161010051615caf6102876000396000818161129c0152613c19015260008181611a090152613b1c0152600081816112c2015261190f0152600081816108ed01528181611992015281816119e501528181613a6101528181613b580152613c3d0152600081816112f701526113310152615caf6000f3fe608060405234801561001057600080fd5b50600436106101735760003560e01c806386ae2fb1116100de578063d7c9834e11610097578063e785750211610071578063e785750214610418578063ed8f932114610434578063f283667014610452578063f2fde38b1461048257610173565b8063d7c9834e146103ac578063e42c9551146103dc578063e710483d146103fa57610173565b806386ae2fb1146102fc5780638da5cb5b146103065780638f93716f146103245780639df79c9214610340578063a2b570a41461035e578063a68012581461037c57610173565b806346ab97081161013057806346ab97081461023a5780635401c1f2146102565780636b2edc1614610274578063715018a6146102925780637b3341541461029c5780637b798468146102cc57610173565b80630cfd82c61461017857806316d2bd34146101945780632c1d62e4146101b25780632eb92363146101ce57806330a93c55146101ec5780633dbf1e8f1461021c575b600080fd5b610192600480360381019061018d9190613f64565b61049e565b005b61019c610a5f565b6040516101a99190614026565b60405180910390f35b6101cc60048036038101906101c79190614041565b610a65565b005b6101d661129a565b6040516101e39190614026565b60405180910390f35b61020660048036038101906102019190614323565b6112be565b604051610213919061437b565b60405180910390f35b61022461132f565b6040516102319190614026565b60405180910390f35b610254600480360381019061024f919061444a565b611353565b005b61025e611541565b60405161026b9190614026565b60405180910390f35b61027c611547565b6040516102899190614026565b60405180910390f35b61029a61154d565b005b6102b660048036038101906102b19190614477565b611561565b6040516102c3919061437b565b60405180910390f35b6102e660048036038101906102e19190614477565b611581565b6040516102f39190614562565b60405180910390f35b610304611618565b005b61030e611882565b60405161031b9190614593565b60405180910390f35b61033e60048036038101906103399190614477565b6118ab565b005b61034861190d565b6040516103559190614026565b60405180910390f35b610366611931565b6040516103739190614026565b60405180910390f35b61039660048036038101906103919190614477565b611937565b6040516103a3919061437b565b60405180910390f35b6103c660048036038101906103c191906145ae565b61198d565b6040516103d39190614026565b60405180910390f35b6103e46119e3565b6040516103f19190614026565b60405180910390f35b610402611a07565b60405161040f9190614026565b60405180910390f35b610432600480360381019061042d91906145ae565b611a2b565b005b61043c6124ac565b6040516104499190614026565b60405180910390f35b61046c600480360381019061046791906145ae565b6124b2565b604051610479919061482a565b60405180910390f35b61049c60048036038101906104979190614477565b61274f565b005b600060046000878152602001908152602001600020604051806101e0016040529081600082015481526020016001820160009054906101000a900460ff1660048111156104ee576104ed6145db565b5b6004811115610500576104ff6145db565b5b81526020016001820160019054906101000a900473ffffffffffffffffffffffffffffffffffffffff1673ffffffffffffffffffffffffffffffffffffffff1673ffffffffffffffffffffffffffffffffffffffff1681526020016002820160009054906101000a900473ffffffffffffffffffffffffffffffffffffffff1673ffffffffffffffffffffffffffffffffffffffff1673ffffffffffffffffffffffffffffffffffffffff1681526020016003820154815260200160048201548152602001600582015481526020016006820180546105de9061487b565b80601f016020809104026020016040519081016040528092919081815260200182805461060a9061487b565b80156106575780601f1061062c57610100808354040283529160200191610657565b820191906000526020600020905b81548152906001019060200180831161063a57829003601f168201915b505050505081526020016007820180546106709061487b565b80601f016020809104026020016040519081016040528092919081815260200182805461069c9061487b565b80156106e95780601f106106be576101008083540402835291602001916106e9565b820191906000526020600020905b8154815290600101906020018083116106cc57829003601f168201915b505050505081526020016008820154815260200160098201548152602001600a8201548152602001600b8201548152602001600c8201548152602001600d820154815250509050600760009054906101000a900473ffffffffffffffffffffffffffffffffffffffff1673ffffffffffffffffffffffffffffffffffffffff16639497c6086002336040518363ffffffff1660e01b815260040161078e9291906148f4565b602060405180830381865afa1580156107ab573d6000803e3d6000fd5b505050506040513d601f19601f820116820180604052508101906107cf9190614932565b61080e576040517f08c379a0000000000000000000000000000000000000000000000000000000008152600401610805906149bc565b60405180910390fd5b60016004811115610822576108216145db565b5b81602001516004811115610839576108386145db565b5b14610879576040517f08c379a000000000000000000000000000000000000000000000000000000000815260040161087090614a28565b60405180910390fd5b3373ffffffffffffffffffffffffffffffffffffffff16816060015173ffffffffffffffffffffffffffffffffffffffff16146108eb576040517f08c379a00000000000000000000000000000000000000000000000000000000081526004016108e290614aba565b60405180910390fd5b7f000000000000000000000000000000000000000000000000000000000000000081610160015161091c9190614b09565b43111561095e576040517f08c379a000000000000000000000000000000000000000000000000000000000815260040161095590614b89565b60405180910390fd5b61096b81868686866127d2565b61097481612aee565b82600f60008282546109869190614b09565b92505081905550816010600082825461099f9190614b09565b925050819055506001600260003373ffffffffffffffffffffffffffffffffffffffff1673ffffffffffffffffffffffffffffffffffffffff1681526020019081526020016000206000836040015173ffffffffffffffffffffffffffffffffffffffff1673ffffffffffffffffffffffffffffffffffffffff16815260200190815260200160002060006101000a81548160ff021916908315150217905550600d6000815480929190610a5290614ba9565b9190505550505050505050565b600d5481565b600a60009054906101000a900473ffffffffffffffffffffffffffffffffffffffff1673ffffffffffffffffffffffffffffffffffffffff1663adfaa72e336040518263ffffffff1660e01b8152600401610ac09190614593565b602060405180830381865afa158015610add573d6000803e3d6000fd5b505050506040513d601f19601f82011682018060405250810190610b019190614932565b610b40576040517f08c379a0000000000000000000000000000000000000000000000000000000008152600401610b3790614c3d565b60405180910390fd5b600860009054906101000a900473ffffffffffffffffffffffffffffffffffffffff1673ffffffffffffffffffffffffffffffffffffffff1663361119ac336040518263ffffffff1660e01b8152600401610b9b9190614593565b602060405180830381865afa158015610bb8573d6000803e3d6000fd5b505050506040513d601f19601f82011682018060405250810190610bdc9190614932565b610c1b576040517f08c379a0000000000000000000000000000000000000000000000000000000008152600401610c1290614ca9565b60405180910390fd5b61012c81511115610c61576040517f08c379a0000000000000000000000000000000000000000000000000000000008152600401610c5890614d15565b60405180910390fd5b600060046000848152602001908152602001600020604051806101e0016040529081600082015481526020016001820160009054906101000a900460ff166004811115610cb157610cb06145db565b5b6004811115610cc357610cc26145db565b5b81526020016001820160019054906101000a900473ffffffffffffffffffffffffffffffffffffffff1673ffffffffffffffffffffffffffffffffffffffff1673ffffffffffffffffffffffffffffffffffffffff1681526020016002820160009054906101000a900473ffffffffffffffffffffffffffffffffffffffff1673ffffffffffffffffffffffffffffffffffffffff1673ffffffffffffffffffffffffffffffffffffffff168152602001600382015481526020016004820154815260200160058201548152602001600682018054610da19061487b565b80601f0160208091040260200160405190810160405280929190818152602001828054610dcd9061487b565b8015610e1a5780601f10610def57610100808354040283529160200191610e1a565b820191906000526020600020905b815481529060010190602001808311610dfd57829003601f168201915b50505050508152602001600782018054610e339061487b565b80601f0160208091040260200160405190810160405280929190818152602001828054610e5f9061487b565b8015610eac5780601f10610e8157610100808354040283529160200191610eac565b820191906000526020600020905b815481529060010190602001808311610e8f57829003601f168201915b505050505081526020016008820154815260200160098201548152602001600a8201548152602001600b8201548152602001600c8201548152602001600d820154815250509050806101a00151600660009054906101000a900473ffffffffffffffffffffffffffffffffffffffff1673ffffffffffffffffffffffffffffffffffffffff1663e05cf1556040518163ffffffff1660e01b8152600401602060405180830381865afa158015610f66573d6000803e3d6000fd5b505050506040513d601f19601f82011682018060405250810190610f8a9190614d4a565b1115610fcb576040517f08c379a0000000000000000000000000000000000000000000000000000000008152600401610fc290614dc3565b60405180910390fd5b60018161012001818151610fdf9190614b09565b915081815250508060046000836000015181526020019081526020016000206000820151816000015560208201518160010160006101000a81548160ff02191690836004811115611033576110326145db565b5b021790555060408201518160010160016101000a81548173ffffffffffffffffffffffffffffffffffffffff021916908373ffffffffffffffffffffffffffffffffffffffff16021790555060608201518160020160006101000a81548173ffffffffffffffffffffffffffffffffffffffff021916908373ffffffffffffffffffffffffffffffffffffffff1602179055506080820151816003015560a0820151816004015560c0820151816005015560e08201518160060190816110f99190614f8f565b506101008201518160070190816111109190614f8f565b506101208201518160080155610140820151816009015561016082015181600a015561018082015181600b01556101a082015181600c01556101c082015181600d01559050506000600860009054906101000a900473ffffffffffffffffffffffffffffffffffffffff1673ffffffffffffffffffffffffffffffffffffffff166369bf81c36040518163ffffffff1660e01b8152600401602060405180830381865afa1580156111c5573d6000803e3d6000fd5b505050506040513d601f19601f820116820180604052508101906111e99190614d4a565b8261012001511015905080156112035761120282612e36565b5b600860009054906101000a900473ffffffffffffffffffffffffffffffffffffffff1673ffffffffffffffffffffffffffffffffffffffff16636f7ffca68385336040518463ffffffff1660e01b81526004016112629392919061509a565b600060405180830381600087803b15801561127c57600080fd5b505af1158015611290573d6000803e3d6000fd5b5050505050505050565b7f000000000000000000000000000000000000000000000000000000000000000081565b60007f00000000000000000000000000000000000000000000000000000000000000008260c0015110156112f5576001905061132a565b7f00000000000000000000000000000000000000000000000000000000000000008260e001516113259190614b09565b431190505b919050565b7f000000000000000000000000000000000000000000000000000000000000000081565b61135b61304f565b8060000151600760006101000a81548173ffffffffffffffffffffffffffffffffffffffff021916908373ffffffffffffffffffffffffffffffffffffffff1602179055508060200151600660006101000a81548173ffffffffffffffffffffffffffffffffffffffff021916908373ffffffffffffffffffffffffffffffffffffffff1602179055508060400151600860006101000a81548173ffffffffffffffffffffffffffffffffffffffff021916908373ffffffffffffffffffffffffffffffffffffffff1602179055508060600151600560006101000a81548173ffffffffffffffffffffffffffffffffffffffff021916908373ffffffffffffffffffffffffffffffffffffffff1602179055508060800151600b60006101000a81548173ffffffffffffffffffffffffffffffffffffffff021916908373ffffffffffffffffffffffffffffffffffffffff1602179055508060a00151600960006101000a81548173ffffffffffffffffffffffffffffffffffffffff021916908373ffffffffffffffffffffffffffffffffffffffff1602179055508060c00151600a60006101000a81548173ffffffffffffffffffffffffffffffffffffffff021916908373ffffffffffffffffffffffffffffffffffffffff16021790555050565b600c5481565b600e5481565b61155561304f565b61155f60006130cd565b565b60016020528060005260406000206000915054906101000a900460ff1681565b6060600360008373ffffffffffffffffffffffffffffffffffffffff1673ffffffffffffffffffffffffffffffffffffffff16815260200190815260200160002080548060200260200160405190810160405280929190818152602001828054801561160c57602002820191906000526020600020905b8154815260200190600101908083116115f8575b50505050509050919050565b6000600660009054906101000a900473ffffffffffffffffffffffffffffffffffffffff1673ffffffffffffffffffffffffffffffffffffffff166365ab21b0336040518263ffffffff1660e01b81526004016116759190614593565b600060405180830381865afa158015611692573d6000803e3d6000fd5b505050506040513d6000823e3d601f19601f820116820180604052508101906116bb919061534a565b9050600760009054906101000a900473ffffffffffffffffffffffffffffffffffffffff1673ffffffffffffffffffffffffffffffffffffffff16639497c6086001336040518363ffffffff1660e01b815260040161171b9291906148f4565b602060405180830381865afa158015611738573d6000803e3d6000fd5b505050506040513d601f19601f8201168201806040525081019061175c9190614932565b61179b576040517f08c379a0000000000000000000000000000000000000000000000000000000008152600401611792906153df565b60405180910390fd5b8060a00151156117e0576040517f08c379a00000000000000000000000000000000000000000000000000000000081526004016117d79061544b565b60405180910390fd5b6117e9816112be565b611828576040517f08c379a000000000000000000000000000000000000000000000000000000000815260040161181f906154b7565b60405180910390fd5b600c8160c001511061186f576040517f08c379a000000000000000000000000000000000000000000000000000000000815260040161186690615523565b60405180910390fd5b611877613191565b61187f613691565b50565b60008060009054906101000a900473ffffffffffffffffffffffffffffffffffffffff16905090565b6118b361304f565b60018060008373ffffffffffffffffffffffffffffffffffffffff1673ffffffffffffffffffffffffffffffffffffffff16815260200190815260200160002060006101000a81548160ff02191690831515021790555050565b7f000000000000000000000000000000000000000000000000000000000000000081565b60105481565b6000600160008373ffffffffffffffffffffffffffffffffffffffff1673ffffffffffffffffffffffffffffffffffffffff16815260200190815260200160002060009054906101000a900460ff169050919050565b6000437f000000000000000000000000000000000000000000000000000000000000000060046000858152602001908152602001600020600a01546119d29190614b09565b6119dc9190615543565b9050919050565b7f000000000000000000000000000000000000000000000000000000000000000081565b7f000000000000000000000000000000000000000000000000000000000000000081565b600760009054906101000a900473ffffffffffffffffffffffffffffffffffffffff1673ffffffffffffffffffffffffffffffffffffffff16639497c6086002336040518363ffffffff1660e01b8152600401611a899291906148f4565b602060405180830381865afa158015611aa6573d6000803e3d6000fd5b505050506040513d601f19601f82011682018060405250810190611aca9190614932565b611b09576040517f08c379a0000000000000000000000000000000000000000000000000000000008152600401611b00906149bc565b60405180910390fd5b600560009054906101000a900473ffffffffffffffffffffffffffffffffffffffff1673ffffffffffffffffffffffffffffffffffffffff16634d5ff1d3336040518263ffffffff1660e01b8152600401611b649190614593565b602060405180830381865afa158015611b81573d6000803e3d6000fd5b505050506040513d601f19601f82011682018060405250810190611ba59190614932565b611be4576040517f08c379a0000000000000000000000000000000000000000000000000000000008152600401611bdb906155c3565b60405180910390fd5b600060046000838152602001908152602001600020604051806101e0016040529081600082015481526020016001820160009054906101000a900460ff166004811115611c3457611c336145db565b5b6004811115611c4657611c456145db565b5b81526020016001820160019054906101000a900473ffffffffffffffffffffffffffffffffffffffff1673ffffffffffffffffffffffffffffffffffffffff1673ffffffffffffffffffffffffffffffffffffffff1681526020016002820160009054906101000a900473ffffffffffffffffffffffffffffffffffffffff1673ffffffffffffffffffffffffffffffffffffffff1673ffffffffffffffffffffffffffffffffffffffff168152602001600382015481526020016004820154815260200160058201548152602001600682018054611d249061487b565b80601f0160208091040260200160405190810160405280929190818152602001828054611d509061487b565b8015611d9d5780601f10611d7257610100808354040283529160200191611d9d565b820191906000526020600020905b815481529060010190602001808311611d8057829003601f168201915b50505050508152602001600782018054611db69061487b565b80601f0160208091040260200160405190810160405280929190818152602001828054611de29061487b565b8015611e2f5780601f10611e0457610100808354040283529160200191611e2f565b820191906000526020600020905b815481529060010190602001808311611e1257829003601f168201915b505050505081526020016008820154815260200160098201548152602001600a8201548152602001600b8201548152602001600c8201548152602001600d820154815250509050600181600001511015611ebe576040517f08c379a0000000000000000000000000000000000000000000000000000000008152600401611eb59061562f565b60405180910390fd5b611ec6613720565b611f05576040517f08c379a0000000000000000000000000000000000000000000000000000000008152600401611efc906156c1565b60405180910390fd5b600260003373ffffffffffffffffffffffffffffffffffffffff1673ffffffffffffffffffffffffffffffffffffffff1681526020019081526020016000206000826040015173ffffffffffffffffffffffffffffffffffffffff1673ffffffffffffffffffffffffffffffffffffffff16815260200190815260200160002060009054906101000a900460ff1615611fd3576040517f08c379a0000000000000000000000000000000000000000000000000000000008152600401611fca90615753565b60405180910390fd5b60006004811115611fe757611fe66145db565b5b81602001516004811115611ffe57611ffd6145db565b5b1461203e576040517f08c379a0000000000000000000000000000000000000000000000000000000008152600401612035906157bf565b60405180910390fd5b61204781613b18565b612086576040517f08c379a000000000000000000000000000000000000000000000000000000000815260040161207d9061582b565b60405180910390fd5b61208e613b54565b6120cd576040517f08c379a00000000000000000000000000000000000000000000000000000000081526004016120c490615897565b60405180910390fd5b600560009054906101000a900473ffffffffffffffffffffffffffffffffffffffff1673ffffffffffffffffffffffffffffffffffffffff16637fbbbf1c336040518263ffffffff1660e01b81526004016121289190614593565b602060405180830381865afa158015612145573d6000803e3d6000fd5b505050506040513d601f19601f820116820180604052508101906121699190614932565b6121a8576040517f08c379a000000000000000000000000000000000000000000000000000000000815260040161219f90615903565b60405180910390fd5b6001816020019060048111156121c1576121c06145db565b5b908160048111156121d5576121d46145db565b5b81525050438161016001818152505033816060019073ffffffffffffffffffffffffffffffffffffffff16908173ffffffffffffffffffffffffffffffffffffffff168152505080600460008481526020019081526020016000206000820151816000015560208201518160010160006101000a81548160ff02191690836004811115612265576122646145db565b5b021790555060408201518160010160016101000a81548173ffffffffffffffffffffffffffffffffffffffff021916908373ffffffffffffffffffffffffffffffffffffffff16021790555060608201518160020160006101000a81548173ffffffffffffffffffffffffffffffffffffffff021916908373ffffffffffffffffffffffffffffffffffffffff1602179055506080820151816003015560a0820151816004015560c0820151816005015560e082015181600601908161232b9190614f8f565b506101008201518160070190816123429190614f8f565b506101208201518160080155610140820151816009015561016082015181600a015561018082015181600b01556101a082015181600c01556101c082015181600d0155905050600660009054906101000a900473ffffffffffffffffffffffffffffffffffffffff1673ffffffffffffffffffffffffffffffffffffffff16631db6420482604001516040518263ffffffff1660e01b81526004016123e79190614593565b600060405180830381600087803b15801561240157600080fd5b505af1158015612415573d6000803e3d6000fd5b50505050600560009054906101000a900473ffffffffffffffffffffffffffffffffffffffff1673ffffffffffffffffffffffffffffffffffffffff1663d518ad5f33846040518363ffffffff1660e01b8152600401612476929190615923565b600060405180830381600087803b15801561249057600080fd5b505af11580156124a4573d6000803e3d6000fd5b505050505050565b600f5481565b6124ba613d20565b60046000838152602001908152602001600020604051806101e0016040529081600082015481526020016001820160009054906101000a900460ff166004811115612508576125076145db565b5b600481111561251a576125196145db565b5b81526020016001820160019054906101000a900473ffffffffffffffffffffffffffffffffffffffff1673ffffffffffffffffffffffffffffffffffffffff1673ffffffffffffffffffffffffffffffffffffffff1681526020016002820160009054906101000a900473ffffffffffffffffffffffffffffffffffffffff1673ffffffffffffffffffffffffffffffffffffffff1673ffffffffffffffffffffffffffffffffffffffff1681526020016003820154815260200160048201548152602001600582015481526020016006820180546125f89061487b565b80601f01602080910402602001604051908101604052809291908181526020018280546126249061487b565b80156126715780601f1061264657610100808354040283529160200191612671565b820191906000526020600020905b81548152906001019060200180831161265457829003601f168201915b5050505050815260200160078201805461268a9061487b565b80601f01602080910402602001604051908101604052809291908181526020018280546126b69061487b565b80156127035780601f106126d857610100808354040283529160200191612703565b820191906000526020600020905b8154815290600101906020018083116126e657829003601f168201915b505050505081526020016008820154815260200160098201548152602001600a8201548152602001600b8201548152602001600c8201548152602001600d820154815250509050919050565b61275761304f565b600073ffffffffffffffffffffffffffffffffffffffff168173ffffffffffffffffffffffffffffffffffffffff16036127c6576040517f08c379a00000000000000000000000000000000000000000000000000000000081526004016127bd906159be565b60405180910390fd5b6127cf816130cd565b50565b6002856020019060048111156127eb576127ea6145db565b5b908160048111156127ff576127fe6145db565b5b8152505081856080018181525050808560a0018181525050600b60009054906101000a900473ffffffffffffffffffffffffffffffffffffffff1673ffffffffffffffffffffffffffffffffffffffff16631cb9a02a83836040518363ffffffff1660e01b81526004016128749291906159de565b602060405180830381865afa158015612891573d6000803e3d6000fd5b505050506040513d601f19601f820116820180604052508101906128b59190614d4a565b8560c0018181525050838560e00181905250828561010001819052504385610180018181525050600660009054906101000a900473ffffffffffffffffffffffffffffffffffffffff1673ffffffffffffffffffffffffffffffffffffffff1663e05cf1556040518163ffffffff1660e01b8152600401602060405180830381865afa158015612949573d6000803e3d6000fd5b505050506040513d601f19601f8201168201806040525081019061296d9190614d4a565b856101a00181815250508460046000876000015181526020019081526020016000206000820151816000015560208201518160010160006101000a81548160ff021916908360048111156129c4576129c36145db565b5b021790555060408201518160010160016101000a81548173ffffffffffffffffffffffffffffffffffffffff021916908373ffffffffffffffffffffffffffffffffffffffff16021790555060608201518160020160006101000a81548173ffffffffffffffffffffffffffffffffffffffff021916908373ffffffffffffffffffffffffffffffffffffffff1602179055506080820151816003015560a0820151816004015560c0820151816005015560e0820151816006019081612a8a9190614f8f565b50610100820151816007019081612aa19190614f8f565b506101208201518160080155610140820151816009015561016082015181600a015561018082015181600b01556101a082015181600c01556101c082015181600d01559050505050505050565b600081604001519050600082606001519050600960009054906101000a900473ffffffffffffffffffffffffffffffffffffffff1673ffffffffffffffffffffffffffffffffffffffff1662b2c92083600660009054906101000a900473ffffffffffffffffffffffffffffffffffffffff1673ffffffffffffffffffffffffffffffffffffffff166330d91ee1868860c001516040518363ffffffff1660e01b8152600401612b9f929190615923565b6020604051808303816000875af1158015612bbe573d6000803e3d6000fd5b505050506040513d601f19601f82011682018060405250810190612be29190614d4a565b6040518363ffffffff1660e01b8152600401612bff929190615923565b600060405180830381600087803b158015612c1957600080fd5b505af1158015612c2d573d6000803e3d6000fd5b50505050600960009054906101000a900473ffffffffffffffffffffffffffffffffffffffff1673ffffffffffffffffffffffffffffffffffffffff1663f1a204ce82600560009054906101000a900473ffffffffffffffffffffffffffffffffffffffff1673ffffffffffffffffffffffffffffffffffffffff1663a1ce8d3a856040518263ffffffff1660e01b8152600401612ccb9190614593565b6020604051808303816000875af1158015612cea573d6000803e3d6000fd5b505050506040513d601f19601f82011682018060405250810190612d0e9190614d4a565b6040518363ffffffff1660e01b8152600401612d2b929190615923565b600060405180830381600087803b158015612d4557600080fd5b505af1158015612d59573d6000803e3d6000fd5b50505050600360008373ffffffffffffffffffffffffffffffffffffffff1673ffffffffffffffffffffffffffffffffffffffff16815260200190815260200160002083600001519080600181540180825580915050600190039060005260206000200160009091909190915055600360008273ffffffffffffffffffffffffffffffffffffffff1673ffffffffffffffffffffffffffffffffffffffff16815260200190815260200160002083600001519080600181540180825580915050600190039060005260206000200160009091909190915055505050565b8060800151600f6000828254612e4c9190615543565b925050819055508060a0015160106000828254612e699190615543565b92505081905550600c6000815480929190612e8390615a07565b9190505550600481602001906004811115612ea157612ea06145db565b5b90816004811115612eb557612eb46145db565b5b8152505043816101c00181815250508060046000836000015181526020019081526020016000206000820151816000015560208201518160010160006101000a81548160ff02191690836004811115612f1157612f106145db565b5b021790555060408201518160010160016101000a81548173ffffffffffffffffffffffffffffffffffffffff021916908373ffffffffffffffffffffffffffffffffffffffff16021790555060608201518160020160006101000a81548173ffffffffffffffffffffffffffffffffffffffff021916908373ffffffffffffffffffffffffffffffffffffffff1602179055506080820151816003015560a0820151816004015560c0820151816005015560e0820151816006019081612fd79190614f8f565b50610100820151816007019081612fee9190614f8f565b506101208201518160080155610140820151816009015561016082015181600a015561018082015181600b01556101a082015181600c01556101c082015181600d0155905050600d600081548092919061304790615a07565b919050555050565b613057613d02565b73ffffffffffffffffffffffffffffffffffffffff16613075611882565b73ffffffffffffffffffffffffffffffffffffffff16146130cb576040517f08c379a00000000000000000000000000000000000000000000000000000000081526004016130c290615a7c565b60405180910390fd5b565b60008060009054906101000a900473ffffffffffffffffffffffffffffffffffffffff169050816000806101000a81548173ffffffffffffffffffffffffffffffffffffffff021916908373ffffffffffffffffffffffffffffffffffffffff1602179055508173ffffffffffffffffffffffffffffffffffffffff168173ffffffffffffffffffffffffffffffffffffffff167f8be0079c531659141344cd1fd0a4f28419497f9722a3daafe3b4186f6b6457e060405160405180910390a35050565b60006001600e546131a29190614b09565b9050600060046000838152602001908152602001600020604051806101e0016040529081600082015481526020016001820160009054906101000a900460ff1660048111156131f4576131f36145db565b5b6004811115613206576132056145db565b5b81526020016001820160019054906101000a900473ffffffffffffffffffffffffffffffffffffffff1673ffffffffffffffffffffffffffffffffffffffff1673ffffffffffffffffffffffffffffffffffffffff1681526020016002820160009054906101000a900473ffffffffffffffffffffffffffffffffffffffff1673ffffffffffffffffffffffffffffffffffffffff1673ffffffffffffffffffffffffffffffffffffffff1681526020016003820154815260200160048201548152602001600582015481526020016006820180546132e49061487b565b80601f01602080910402602001604051908101604052809291908181526020018280546133109061487b565b801561335d5780601f106133325761010080835404028352916020019161335d565b820191906000526020600020905b81548152906001019060200180831161334057829003601f168201915b505050505081526020016007820180546133769061487b565b80601f01602080910402602001604051908101604052809291908181526020018280546133a29061487b565b80156133ef5780601f106133c4576101008083540402835291602001916133ef565b820191906000526020600020905b8154815290600101906020018083116133d257829003601f168201915b505050505081526020016008820154815260200160098201548152602001600a8201548152602001600b8201548152602001600c8201548152602001600d82015481525050905081816000018181525050600081602001906004811115613459576134586145db565b5b9081600481111561346d5761346c6145db565b5b8152505033816040019073ffffffffffffffffffffffffffffffffffffffff16908173ffffffffffffffffffffffffffffffffffffffff16815250506000816060019073ffffffffffffffffffffffffffffffffffffffff16908173ffffffffffffffffffffffffffffffffffffffff168152505043816101400181815250508060046000836000015181526020019081526020016000206000820151816000015560208201518160010160006101000a81548160ff0219169083600481111561353a576135396145db565b5b021790555060408201518160010160016101000a81548173ffffffffffffffffffffffffffffffffffffffff021916908373ffffffffffffffffffffffffffffffffffffffff16021790555060608201518160020160006101000a81548173ffffffffffffffffffffffffffffffffffffffff021916908373ffffffffffffffffffffffffffffffffffffffff1602179055506080820151816003015560a0820151816004015560c0820151816005015560e08201518160060190816136009190614f8f565b506101008201518160070190816136179190614f8f565b506101208201518160080155610140820151816009015561016082015181600a015561018082015181600b01556101a082015181600c01556101c082015181600d0155905050600c600081548092919061367090614ba9565b9190505550600e600081548092919061368890614ba9565b91905055505050565b600660009054906101000a900473ffffffffffffffffffffffffffffffffffffffff1673ffffffffffffffffffffffffffffffffffffffff166394c3cee9336040518263ffffffff1660e01b81526004016136ec9190614593565b600060405180830381600087803b15801561370657600080fd5b505af115801561371a573d6000803e3d6000fd5b50505050565b600080600560009054906101000a900473ffffffffffffffffffffffffffffffffffffffff1673ffffffffffffffffffffffffffffffffffffffff1663e8f7dfcf336040518263ffffffff1660e01b815260040161377e9190614593565b600060405180830381865afa15801561379b573d6000803e3d6000fd5b505050506040513d6000823e3d601f19601f820116820180604052508101906137c49190615c30565b90506000600460008361010001518152602001908152602001600020604051806101e0016040529081600082015481526020016001820160009054906101000a900460ff16600481111561381b5761381a6145db565b5b600481111561382d5761382c6145db565b5b81526020016001820160019054906101000a900473ffffffffffffffffffffffffffffffffffffffff1673ffffffffffffffffffffffffffffffffffffffff1673ffffffffffffffffffffffffffffffffffffffff1681526020016002820160009054906101000a900473ffffffffffffffffffffffffffffffffffffffff1673ffffffffffffffffffffffffffffffffffffffff1673ffffffffffffffffffffffffffffffffffffffff16815260200160038201548152602001600482015481526020016005820154815260200160068201805461390b9061487b565b80601f01602080910402602001604051908101604052809291908181526020018280546139379061487b565b80156139845780601f1061395957610100808354040283529160200191613984565b820191906000526020600020905b81548152906001019060200180831161396757829003601f168201915b5050505050815260200160078201805461399d9061487b565b80601f01602080910402602001604051908101604052809291908181526020018280546139c99061487b565b8015613a165780601f106139eb57610100808354040283529160200191613a16565b820191906000526020600020905b8154815290600101906020018083116139f957829003601f168201915b505050505081526020016008820154815260200160098201548152602001600a8201548152602001600b8201548152602001600c8201548152602001600d82015481525050905060007f0000000000000000000000000000000000000000000000000000000000000000826101600151613a909190614b09565b43119050600060026004811115613aaa57613aa96145db565b5b83602001516004811115613ac157613ac06145db565b5b1480613af45750600480811115613adb57613ada6145db565b5b83602001516004811115613af257613af16145db565b5b145b90508080613aff5750815b80613b0f57506000846101000151145b94505050505090565b60007f0000000000000000000000000000000000000000000000000000000000000000826101400151613b4b9190614b09565b43119050919050565b60007f0000000000000000000000000000000000000000000000000000000000000000600660009054906101000a900473ffffffffffffffffffffffffffffffffffffffff1673ffffffffffffffffffffffffffffffffffffffff1663582256f16040518163ffffffff1660e01b8152600401602060405180830381865afa158015613be4573d6000803e3d6000fd5b505050506040513d601f19601f82011682018060405250810190613c089190614d4a565b1015613c175760009050613cff565b7f0000000000000000000000000000000000000000000000000000000000000000613cfb7f0000000000000000000000000000000000000000000000000000000000000000600660009054906101000a900473ffffffffffffffffffffffffffffffffffffffff1673ffffffffffffffffffffffffffffffffffffffff1663582256f16040518163ffffffff1660e01b8152600401602060405180830381865afa158015613cc9573d6000803e3d6000fd5b505050506040513d601f19601f82011682018060405250810190613ced9190614d4a565b613d0a90919063ffffffff16565b1190505b90565b600033905090565b60008183613d189190615543565b905092915050565b604051806101e001604052806000815260200160006004811115613d4757613d466145db565b5b8152602001600073ffffffffffffffffffffffffffffffffffffffff168152602001600073ffffffffffffffffffffffffffffffffffffffff16815260200160008152602001600081526020016000815260200160608152602001606081526020016000815260200160008152602001600081526020016000815260200160008152602001600081525090565b6000604051905090565b600080fd5b600080fd5b6000819050919050565b613dfb81613de8565b8114613e0657600080fd5b50565b600081359050613e1881613df2565b92915050565b600080fd5b600080fd5b6000601f19601f8301169050919050565b7f4e487b7100000000000000000000000000000000000000000000000000000000600052604160045260246000fd5b613e7182613e28565b810181811067ffffffffffffffff82111715613e9057613e8f613e39565b5b80604052505050565b6000613ea3613dd4565b9050613eaf8282613e68565b919050565b600067ffffffffffffffff821115613ecf57613ece613e39565b5b613ed882613e28565b9050602081019050919050565b82818337600083830152505050565b6000613f07613f0284613eb4565b613e99565b905082815260208101848484011115613f2357613f22613e23565b5b613f2e848285613ee5565b509392505050565b600082601f830112613f4b57613f4a613e1e565b5b8135613f5b848260208601613ef4565b91505092915050565b600080600080600060a08688031215613f8057613f7f613dde565b5b6000613f8e88828901613e09565b955050602086013567ffffffffffffffff811115613faf57613fae613de3565b5b613fbb88828901613f36565b945050604086013567ffffffffffffffff811115613fdc57613fdb613de3565b5b613fe888828901613f36565b9350506060613ff988828901613e09565b925050608061400a88828901613e09565b9150509295509295909350565b61402081613de8565b82525050565b600060208201905061403b6000830184614017565b92915050565b6000806040838503121561405857614057613dde565b5b600061406685828601613e09565b925050602083013567ffffffffffffffff81111561408757614086613de3565b5b61409385828601613f36565b9150509250929050565b600080fd5b600080fd5b600073ffffffffffffffffffffffffffffffffffffffff82169050919050565b60006140d2826140a7565b9050919050565b6140e2816140c7565b81146140ed57600080fd5b50565b6000813590506140ff816140d9565b92915050565b60008115159050919050565b61411a81614105565b811461412557600080fd5b50565b60008135905061413781614111565b92915050565b6000602082840312156141535761415261409d565b5b61415d6020613e99565b9050600061416d84828501613e09565b60008301525092915050565b60006040828403121561418f5761418e61409d565b5b6141996040613e99565b905060006141a984828501614128565b60008301525060206141bd84828501613e09565b60208301525092915050565b60006101a082840312156141e0576141df61409d565b5b6141eb610180613e99565b905060006141fb84828501613e09565b600083015250602061420f848285016140f0565b602083015250604082013567ffffffffffffffff811115614233576142326140a2565b5b61423f84828501613f36565b604083015250606082013567ffffffffffffffff811115614263576142626140a2565b5b61426f84828501613f36565b606083015250608061428384828501613e09565b60808301525060a061429784828501614128565b60a08301525060c06142ab84828501613e09565b60c08301525060e06142bf84828501613e09565b60e0830152506101006142d48482850161413d565b610100830152506101206142ea84828501614179565b6101208301525061016061430084828501613e09565b6101408301525061018061431684828501613e09565b6101608301525092915050565b60006020828403121561433957614338613dde565b5b600082013567ffffffffffffffff81111561435757614356613de3565b5b614363848285016141c9565b91505092915050565b61437581614105565b82525050565b6000602082019050614390600083018461436c565b92915050565b600060e082840312156143ac576143ab61409d565b5b6143b660e0613e99565b905060006143c6848285016140f0565b60008301525060206143da848285016140f0565b60208301525060406143ee848285016140f0565b6040830152506060614402848285016140f0565b6060830152506080614416848285016140f0565b60808301525060a061442a848285016140f0565b60a08301525060c061443e848285016140f0565b60c08301525092915050565b600060e082840312156144605761445f613dde565b5b600061446e84828501614396565b91505092915050565b60006020828403121561448d5761448c613dde565b5b600061449b848285016140f0565b91505092915050565b600081519050919050565b600082825260208201905092915050565b6000819050602082019050919050565b6144d981613de8565b82525050565b60006144eb83836144d0565b60208301905092915050565b6000602082019050919050565b600061450f826144a4565b61451981856144af565b9350614524836144c0565b8060005b8381101561455557815161453c88826144df565b9750614547836144f7565b925050600181019050614528565b5085935050505092915050565b6000602082019050818103600083015261457c8184614504565b905092915050565b61458d816140c7565b82525050565b60006020820190506145a86000830184614584565b92915050565b6000602082840312156145c4576145c3613dde565b5b60006145d284828501613e09565b91505092915050565b7f4e487b7100000000000000000000000000000000000000000000000000000000600052602160045260246000fd5b6005811061461b5761461a6145db565b5b50565b600081905061462c8261460a565b919050565b600061463c8261461e565b9050919050565b61464c81614631565b82525050565b61465b816140c7565b82525050565b600081519050919050565b600082825260208201905092915050565b60005b8381101561469b578082015181840152602081019050614680565b60008484015250505050565b60006146b282614661565b6146bc818561466c565b93506146cc81856020860161467d565b6146d581613e28565b840191505092915050565b60006101e0830160008301516146f960008601826144d0565b50602083015161470c6020860182614643565b50604083015161471f6040860182614652565b5060608301516147326060860182614652565b50608083015161474560808601826144d0565b5060a083015161475860a08601826144d0565b5060c083015161476b60c08601826144d0565b5060e083015184820360e086015261478382826146a7565b91505061010083015184820361010086015261479f82826146a7565b9150506101208301516147b66101208601826144d0565b506101408301516147cb6101408601826144d0565b506101608301516147e06101608601826144d0565b506101808301516147f56101808601826144d0565b506101a083015161480a6101a08601826144d0565b506101c083015161481f6101c08601826144d0565b508091505092915050565b6000602082019050818103600083015261484481846146e0565b905092915050565b7f4e487b7100000000000000000000000000000000000000000000000000000000600052602260045260246000fd5b6000600282049050600182168061489357607f821691505b6020821081036148a6576148a561484c565b5b50919050565b600981106148bd576148bc6145db565b5b50565b60008190506148ce826148ac565b919050565b60006148de826148c0565b9050919050565b6148ee816148d3565b82525050565b600060408201905061490960008301856148e5565b6149166020830184614584565b9392505050565b60008151905061492c81614111565b92915050565b60006020828403121561494857614947613dde565b5b60006149568482850161491d565b91505092915050565b600082825260208201905092915050565b7f506c6561736520726567697374657220617320696e73706563746f7200000000600082015250565b60006149a6601c8361495f565b91506149b182614970565b602082019050919050565b600060208201905081810360008301526149d581614999565b9050919050565b7f416363657074207468697320696e7370656374696f6e206265666f7265000000600082015250565b6000614a12601d8361495f565b9150614a1d826149dc565b602082019050919050565b60006020820190508181036000830152614a4181614a05565b9050919050565b7f596f752068617665206e6f74206163636570746564207468697320696e73706560008201527f6374696f6e000000000000000000000000000000000000000000000000000000602082015250565b6000614aa460258361495f565b9150614aaf82614a48565b604082019050919050565b60006020820190508181036000830152614ad381614a97565b9050919050565b7f4e487b7100000000000000000000000000000000000000000000000000000000600052601160045260246000fd5b6000614b1482613de8565b9150614b1f83613de8565b9250828201905080821115614b3757614b36614ada565b5b92915050565b7f496e7370656374696f6e20457870697265640000000000000000000000000000600082015250565b6000614b7360128361495f565b9150614b7e82614b3d565b602082019050919050565b60006020820190508181036000830152614ba281614b66565b9050919050565b6000614bb482613de8565b91507fffffffffffffffffffffffffffffffffffffffffffffffffffffffffffffffff8203614be657614be5614ada565b5b600182019050919050565b7f557365722063616e6e6f7420766f746500000000000000000000000000000000600082015250565b6000614c2760108361495f565b9150614c3282614bf1565b602082019050919050565b60006020820190508181036000830152614c5681614c1a565b9050919050565b7f576169742074696d654265747765656e566f7465730000000000000000000000600082015250565b6000614c9360158361495f565b9150614c9e82614c5d565b602082019050919050565b60006020820190508181036000830152614cc281614c86565b9050919050565b7f4d61782033303020636861726163746572732072656163686564000000000000600082015250565b6000614cff601a8361495f565b9150614d0a82614cc9565b602082019050919050565b60006020820190508181036000830152614d2e81614cf2565b9050919050565b600081519050614d4481613df2565b92915050565b600060208284031215614d6057614d5f613dde565b5b6000614d6e84828501614d35565b91505092915050565b7f43616e206e6f74206164642076616c69646174696f6e20616e796d6f72650000600082015250565b6000614dad601e8361495f565b9150614db882614d77565b602082019050919050565b60006020820190508181036000830152614ddc81614da0565b9050919050565b60008190508160005260206000209050919050565b60006020601f8301049050919050565b600082821b905092915050565b600060088302614e457fffffffffffffffffffffffffffffffffffffffffffffffffffffffffffffffff82614e08565b614e4f8683614e08565b95508019841693508086168417925050509392505050565b6000819050919050565b6000614e8c614e87614e8284613de8565b614e67565b613de8565b9050919050565b6000819050919050565b614ea683614e71565b614eba614eb282614e93565b848454614e15565b825550505050565b600090565b614ecf614ec2565b614eda818484614e9d565b505050565b5b81811015614efe57614ef3600082614ec7565b600181019050614ee0565b5050565b601f821115614f4357614f1481614de3565b614f1d84614df8565b81016020851015614f2c578190505b614f40614f3885614df8565b830182614edf565b50505b505050565b600082821c905092915050565b6000614f6660001984600802614f48565b1980831691505092915050565b6000614f7f8383614f55565b9150826002028217905092915050565b614f9882614661565b67ffffffffffffffff811115614fb157614fb0613e39565b5b614fbb825461487b565b614fc6828285614f02565b600060209050601f831160018114614ff95760008415614fe7578287015190505b614ff18582614f73565b865550615059565b601f19841661500786614de3565b60005b8281101561502f5784890151825560018201915060208501945060208101905061500a565b8683101561504c5784890151615048601f891682614f55565b8355505b6001600288020188555050505b505050505050565b600061506c82614661565b615076818561495f565b935061508681856020860161467d565b61508f81613e28565b840191505092915050565b600060608201905081810360008301526150b481866146e0565b905081810360208301526150c88185615061565b90506150d76040830184614584565b949350505050565b6000815190506150ee816140d9565b92915050565b600061510761510284613eb4565b613e99565b90508281526020810184848401111561512357615122613e23565b5b61512e84828561467d565b509392505050565b600082601f83011261514b5761514a613e1e565b5b815161515b8482602086016150f4565b91505092915050565b60006020828403121561517a5761517961409d565b5b6151846020613e99565b9050600061519484828501614d35565b60008301525092915050565b6000604082840312156151b6576151b561409d565b5b6151c06040613e99565b905060006151d08482850161491d565b60008301525060206151e484828501614d35565b60208301525092915050565b60006101a082840312156152075761520661409d565b5b615212610180613e99565b9050600061522284828501614d35565b6000830152506020615236848285016150df565b602083015250604082015167ffffffffffffffff81111561525a576152596140a2565b5b61526684828501615136565b604083015250606082015167ffffffffffffffff81111561528a576152896140a2565b5b61529684828501615136565b60608301525060806152aa84828501614d35565b60808301525060a06152be8482850161491d565b60a08301525060c06152d284828501614d35565b60c08301525060e06152e684828501614d35565b60e0830152506101006152fb84828501615164565b61010083015250610120615311848285016151a0565b6101208301525061016061532784828501614d35565b6101408301525061018061533d84828501614d35565b6101608301525092915050565b6000602082840312156153605761535f613dde565b5b600082015167ffffffffffffffff81111561537e5761537d613de3565b5b61538a848285016151f0565b91505092915050565b7f506c6561736520726567697374657220617320726567656e657261746f720000600082015250565b60006153c9601e8361495f565b91506153d482615393565b602082019050919050565b600060208201905081810360008301526153f8816153bc565b9050919050565b7f5265717565737420616c7265616479204f50454e000000000000000000000000600082015250565b600061543560148361495f565b9150615440826153ff565b602082019050919050565b6000602082019050818103600083015261546481615428565b9050919050565b7f5761697420746f20726571756573740000000000000000000000000000000000600082015250565b60006154a1600f8361495f565b91506154ac8261546b565b602082019050919050565b600060208201905081810360008301526154d081615494565b9050919050565b7f596f75206861766520636f6d706c6574656420796f7572206d697373696f6e00600082015250565b600061550d601f8361495f565b9150615518826154d7565b602082019050919050565b6000602082019050818103600083015261553c81615500565b9050919050565b600061554e82613de8565b915061555983613de8565b925082820390508181111561557157615570614ada565b5b92915050565b7f4e6f206d6f7265207468616e2033206769766555707320616c6c6f7765640000600082015250565b60006155ad601e8361495f565b91506155b882615577565b602082019050919050565b600060208201905081810360008301526155dc816155a0565b9050919050565b7f5468697320696e7370656374696f6e20646f206e6f7420657869737400000000600082015250565b6000615619601c8361495f565b9150615624826155e3565b602082019050919050565b600060208201905081810360008301526156488161560c565b9050919050565b7f596f7520616c7265616479206861766520616e20696e7370656374696f6e204160008201527f6363657074656400000000000000000000000000000000000000000000000000602082015250565b60006156ab60278361495f565b91506156b68261564f565b604082019050919050565b600060208201905081810360008301526156da8161569e565b9050919050565b7f416c726561647920696e73706563746564207468697320726567656e6572617460008201527f6f72000000000000000000000000000000000000000000000000000000000000602082015250565b600061573d60228361495f565b9150615748826156e1565b604082019050919050565b6000602082019050818103600083015261576c81615730565b9050919050565b7f5468697320696e7370656374696f6e206973206e6f74204f50454e0000000000600082015250565b60006157a9601b8361495f565b91506157b482615773565b602082019050919050565b600060208201905081810360008301526157d88161579c565b9050919050565b7f5761697420696e7370656374696f6e2064656c617920626c6f636b7300000000600082015250565b6000615815601c8361495f565b9150615820826157df565b602082019050919050565b6000602082019050818103600083015261584481615808565b9050919050565b7f5761697420756e74696c206e6578742065726120746f20616363657074000000600082015250565b6000615881601d8361495f565b915061588c8261584b565b602082019050919050565b600060208201905081810360008301526158b081615874565b9050919050565b7f5761697420746f20616363657074000000000000000000000000000000000000600082015250565b60006158ed600e8361495f565b91506158f8826158b7565b602082019050919050565b6000602082019050818103600083015261591c816158e0565b9050919050565b60006040820190506159386000830185614584565b6159456020830184614017565b9392505050565b7f4f776e61626c653a206e6577206f776e657220697320746865207a65726f206160008201527f6464726573730000000000000000000000000000000000000000000000000000602082015250565b60006159a860268361495f565b91506159b38261594c565b604082019050919050565b600060208201905081810360008301526159d78161599b565b9050919050565b60006040820190506159f36000830185614017565b615a006020830184614017565b9392505050565b6000615a1282613de8565b915060008203615a2557615a24614ada565b5b600182039050919050565b7f4f776e61626c653a2063616c6c6572206973206e6f7420746865206f776e6572600082015250565b6000615a6660208361495f565b9150615a7182615a30565b602082019050919050565b60006020820190508181036000830152615a9581615a59565b9050919050565b600060408284031215615ab257615ab161409d565b5b615abc6040613e99565b90506000615acc84828501614d35565b6000830152506020615ae084828501614d35565b60208301525092915050565b60006101808284031215615b0357615b0261409d565b5b615b0e610160613e99565b90506000615b1e84828501614d35565b6000830152506020615b32848285016150df565b602083015250604082015167ffffffffffffffff811115615b5657615b556140a2565b5b615b6284828501615136565b604083015250606082015167ffffffffffffffff811115615b8657615b856140a2565b5b615b9284828501615136565b6060830152506080615ba684828501614d35565b60808301525060a0615bba84828501614d35565b60a08301525060c0615bce84828501614d35565b60c08301525060e0615be284828501614d35565b60e083015250610100615bf784828501614d35565b61010083015250610120615c0d84828501615a9c565b61012083015250610160615c2384828501614d35565b6101408301525092915050565b600060208284031215615c4657615c45613dde565b5b600082015167ffffffffffffffff811115615c6457615c63613de3565b5b615c7084828501615aec565b9150509291505056fea2646970667358221220ade01bc7246fcd075435330f70ea656be41cd1e8f234f37b14ef2d72977494cb64736f6c634300081b0033",
  "linkReferences": {},
  "deployedLinkReferences": {}
}