{
  "_format": "hh-sol-artifact-1",
  "contractName": "InspectionRules",
  "sourceName": "contracts/InspectionRules.sol",
  "abi": [
    {
      "inputs": [
        {
          "internalType": "uint32",
          "name": "timeBetweenInspections_",
          "type": "uint32"
        },
        {
          "internalType": "uint32",
          "name": "blocksToExpireAcceptedInspection_",
          "type": "uint32"
        },
        {
          "internalType": "uint8",
          "name": "allowedInitialRequests_",
          "type": "uint8"
        },
        {
          "internalType": "uint32",
          "name": "acceptInspectionDelayBlocks_",
          "type": "uint32"
        },
        {
          "internalType": "uint32",
          "name": "securityBlocksToValidation_",
          "type": "uint32"
        }
      ],
      "stateMutability": "nonpayable",
      "type": "constructor"
    },
    {
      "inputs": [
        {
          "internalType": "address",
          "name": "owner",
          "type": "address"
        }
      ],
      "name": "OwnableInvalidOwner",
      "type": "error"
    },
    {
      "inputs": [
        {
          "internalType": "address",
          "name": "account",
          "type": "address"
        }
      ],
      "name": "OwnableUnauthorizedAccount",
      "type": "error"
    },
    {
      "inputs": [],
      "name": "ReentrancyGuardReentrantCall",
      "type": "error"
    },
    {
      "anonymous": false,
      "inputs": [
        {
          "indexed": true,
          "internalType": "uint256",
          "name": "inspectionId",
          "type": "uint256"
        },
        {
          "indexed": true,
          "internalType": "address",
          "name": "inspectorAddress",
          "type": "address"
        },
        {
          "indexed": false,
          "internalType": "uint256",
          "name": "acceptedAt",
          "type": "uint256"
        }
      ],
      "name": "InspectionAccepted",
      "type": "event"
    },
    {
      "anonymous": false,
      "inputs": [
        {
          "indexed": true,
          "internalType": "uint256",
          "name": "inspectionId",
          "type": "uint256"
        },
        {
          "indexed": true,
          "internalType": "address",
          "name": "inspectorAddress",
          "type": "address"
        },
        {
          "indexed": true,
          "internalType": "address",
          "name": "regeneratorAddress",
          "type": "address"
        },
        {
          "indexed": false,
          "internalType": "uint256",
          "name": "invalidatedAt",
          "type": "uint256"
        }
      ],
      "name": "InspectionInvalidated",
      "type": "event"
    },
    {
      "anonymous": false,
      "inputs": [
        {
          "indexed": true,
          "internalType": "uint256",
          "name": "inspectionId",
          "type": "uint256"
        },
        {
          "indexed": true,
          "internalType": "address",
          "name": "inspectorAddress",
          "type": "address"
        },
        {
          "indexed": true,
          "internalType": "address",
          "name": "regeneratorAddress",
          "type": "address"
        },
        {
          "indexed": false,
          "internalType": "uint32",
          "name": "treesResult",
          "type": "uint32"
        },
        {
          "indexed": false,
          "internalType": "uint32",
          "name": "biodiversityResult",
          "type": "uint32"
        },
        {
          "indexed": false,
          "internalType": "uint32",
          "name": "regenerationScore",
          "type": "uint32"
        },
        {
          "indexed": false,
          "internalType": "uint256",
          "name": "inspectedAt",
          "type": "uint256"
        }
      ],
      "name": "InspectionRealized",
      "type": "event"
    },
    {
      "anonymous": false,
      "inputs": [
        {
          "indexed": true,
          "internalType": "uint256",
          "name": "inspectionId",
          "type": "uint256"
        },
        {
          "indexed": true,
          "internalType": "address",
          "name": "regeneratorAddress",
          "type": "address"
        },
        {
          "indexed": false,
          "internalType": "uint256",
          "name": "createdAt",
          "type": "uint256"
        }
      ],
      "name": "InspectionRequested",
      "type": "event"
    },
    {
      "anonymous": false,
      "inputs": [
        {
          "indexed": true,
          "internalType": "address",
          "name": "_validatorAddress",
          "type": "address"
        },
        {
          "indexed": false,
          "internalType": "uint256",
          "name": "_resourceId",
          "type": "uint256"
        },
        {
          "indexed": false,
          "internalType": "string",
          "name": "_justification",
          "type": "string"
        }
      ],
      "name": "InspectionValidation",
      "type": "event"
    },
    {
      "anonymous": false,
      "inputs": [
        {
          "indexed": true,
          "internalType": "address",
          "name": "previousOwner",
          "type": "address"
        },
        {
          "indexed": true,
          "internalType": "address",
          "name": "newOwner",
          "type": "address"
        }
      ],
      "name": "OwnershipTransferred",
      "type": "event"
    },
    {
      "inputs": [],
      "name": "MAX_BIODIVERSITY_RESULT",
      "outputs": [
        {
          "internalType": "uint32",
          "name": "",
          "type": "uint32"
        }
      ],
      "stateMutability": "view",
      "type": "function"
    },
    {
      "inputs": [],
      "name": "MAX_REGENERATOR_INSPECTIONS",
      "outputs": [
        {
          "internalType": "uint8",
          "name": "",
          "type": "uint8"
        }
      ],
      "stateMutability": "view",
      "type": "function"
    },
    {
      "inputs": [
        {
          "internalType": "uint64",
          "name": "inspectionId",
          "type": "uint64"
        }
      ],
      "name": "acceptInspection",
      "outputs": [],
      "stateMutability": "nonpayable",
      "type": "function"
    },
    {
      "inputs": [],
      "name": "acceptInspectionDelayBlocks",
      "outputs": [
        {
          "internalType": "uint32",
          "name": "",
          "type": "uint32"
        }
      ],
      "stateMutability": "view",
      "type": "function"
    },
    {
      "inputs": [
        {
          "components": [
            {
              "internalType": "uint64",
              "name": "id",
              "type": "uint64"
            },
            {
              "internalType": "enum InspectionStatus",
              "name": "status",
              "type": "uint8"
            },
            {
              "internalType": "address",
              "name": "regenerator",
              "type": "address"
            },
            {
              "internalType": "address",
              "name": "inspector",
              "type": "address"
            },
            {
              "internalType": "uint32",
              "name": "treesResult",
              "type": "uint32"
            },
            {
              "internalType": "uint32",
              "name": "biodiversityResult",
              "type": "uint32"
            },
            {
              "internalType": "uint32",
              "name": "regenerationScore",
              "type": "uint32"
            },
            {
              "internalType": "string",
              "name": "proofPhotos",
              "type": "string"
            },
            {
              "internalType": "string",
              "name": "justificationReport",
              "type": "string"
            },
            {
              "internalType": "uint256",
              "name": "validationsCount",
              "type": "uint256"
            },
            {
              "internalType": "uint256",
              "name": "createdAt",
              "type": "uint256"
            },
            {
              "internalType": "uint256",
              "name": "acceptedAt",
              "type": "uint256"
            },
            {
              "internalType": "uint256",
              "name": "inspectedAt",
              "type": "uint256"
            },
            {
              "internalType": "uint256",
              "name": "inspectedAtEra",
              "type": "uint256"
            },
            {
              "internalType": "uint256",
              "name": "invalidatedAt",
              "type": "uint256"
            }
          ],
          "internalType": "struct Inspection",
          "name": "inspection",
          "type": "tuple"
        }
      ],
      "name": "acceptInspectionDelayBlocksPassed",
      "outputs": [
        {
          "internalType": "bool",
          "name": "",
          "type": "bool"
        }
      ],
      "stateMutability": "view",
      "type": "function"
    },
    {
      "inputs": [
        {
          "internalType": "uint64",
          "name": "id",
          "type": "uint64"
        },
        {
          "internalType": "string",
          "name": "justification",
          "type": "string"
        }
      ],
      "name": "addInspectionValidation",
      "outputs": [],
      "stateMutability": "nonpayable",
      "type": "function"
    },
    {
      "inputs": [],
      "name": "allowedInitialRequests",
      "outputs": [
        {
          "internalType": "uint8",
          "name": "",
          "type": "uint8"
        }
      ],
      "stateMutability": "view",
      "type": "function"
    },
    {
      "inputs": [],
      "name": "alreadyHaveInspectionAccepted",
      "outputs": [
        {
          "internalType": "bool",
          "name": "",
          "type": "bool"
        }
      ],
      "stateMutability": "view",
      "type": "function"
    },
    {
      "inputs": [],
      "name": "blocksToExpireAcceptedInspection",
      "outputs": [
        {
          "internalType": "uint32",
          "name": "",
          "type": "uint32"
        }
      ],
      "stateMutability": "view",
      "type": "function"
    },
    {
      "inputs": [
        {
          "internalType": "uint64",
          "name": "inspectionId",
          "type": "uint64"
        }
      ],
      "name": "calculateBlocksToExpire",
      "outputs": [
        {
          "internalType": "uint256",
          "name": "",
          "type": "uint256"
        }
      ],
      "stateMutability": "view",
      "type": "function"
    },
    {
      "inputs": [
        {
          "internalType": "uint64",
          "name": "id",
          "type": "uint64"
        }
      ],
      "name": "getInspection",
      "outputs": [
        {
          "components": [
            {
              "internalType": "uint64",
              "name": "id",
              "type": "uint64"
            },
            {
              "internalType": "enum InspectionStatus",
              "name": "status",
              "type": "uint8"
            },
            {
              "internalType": "address",
              "name": "regenerator",
              "type": "address"
            },
            {
              "internalType": "address",
              "name": "inspector",
              "type": "address"
            },
            {
              "internalType": "uint32",
              "name": "treesResult",
              "type": "uint32"
            },
            {
              "internalType": "uint32",
              "name": "biodiversityResult",
              "type": "uint32"
            },
            {
              "internalType": "uint32",
              "name": "regenerationScore",
              "type": "uint32"
            },
            {
              "internalType": "string",
              "name": "proofPhotos",
              "type": "string"
            },
            {
              "internalType": "string",
              "name": "justificationReport",
              "type": "string"
            },
            {
              "internalType": "uint256",
              "name": "validationsCount",
              "type": "uint256"
            },
            {
              "internalType": "uint256",
              "name": "createdAt",
              "type": "uint256"
            },
            {
              "internalType": "uint256",
              "name": "acceptedAt",
              "type": "uint256"
            },
            {
              "internalType": "uint256",
              "name": "inspectedAt",
              "type": "uint256"
            },
            {
              "internalType": "uint256",
              "name": "inspectedAtEra",
              "type": "uint256"
            },
            {
              "internalType": "uint256",
              "name": "invalidatedAt",
              "type": "uint256"
            }
          ],
          "internalType": "struct Inspection",
          "name": "",
          "type": "tuple"
        }
      ],
      "stateMutability": "view",
      "type": "function"
    },
    {
      "inputs": [
        {
          "internalType": "address",
          "name": "addr",
          "type": "address"
        }
      ],
      "name": "getInspectionsHistory",
      "outputs": [
        {
          "internalType": "uint64[]",
          "name": "",
          "type": "uint64[]"
        }
      ],
      "stateMutability": "view",
      "type": "function"
    },
    {
      "inputs": [
        {
          "internalType": "uint64",
          "name": "",
          "type": "uint64"
        }
      ],
      "name": "inspectionPenalized",
      "outputs": [
        {
          "internalType": "bool",
          "name": "",
          "type": "bool"
        }
      ],
      "stateMutability": "view",
      "type": "function"
    },
    {
      "inputs": [],
      "name": "inspectionsBiodiversityImpact",
      "outputs": [
        {
          "internalType": "uint256",
          "name": "",
          "type": "uint256"
        }
      ],
      "stateMutability": "view",
      "type": "function"
    },
    {
      "inputs": [],
      "name": "inspectionsCount",
      "outputs": [
        {
          "internalType": "uint64",
          "name": "",
          "type": "uint64"
        }
      ],
      "stateMutability": "view",
      "type": "function"
    },
    {
      "inputs": [],
      "name": "inspectionsTotalCount",
      "outputs": [
        {
          "internalType": "uint64",
          "name": "",
          "type": "uint64"
        }
      ],
      "stateMutability": "view",
      "type": "function"
    },
    {
      "inputs": [],
      "name": "inspectionsTreesImpact",
      "outputs": [
        {
          "internalType": "uint256",
          "name": "",
          "type": "uint256"
        }
      ],
      "stateMutability": "view",
      "type": "function"
    },
    {
      "inputs": [],
      "name": "owner",
      "outputs": [
        {
          "internalType": "address",
          "name": "",
          "type": "address"
        }
      ],
      "stateMutability": "view",
      "type": "function"
    },
    {
      "inputs": [
        {
          "internalType": "uint64",
          "name": "inspectionId",
          "type": "uint64"
        },
        {
          "internalType": "string",
          "name": "proofPhotos",
          "type": "string"
        },
        {
          "internalType": "string",
          "name": "justificationReport",
          "type": "string"
        },
        {
          "internalType": "uint32",
          "name": "treesResult",
          "type": "uint32"
        },
        {
          "internalType": "uint32",
          "name": "biodiversityResult",
          "type": "uint32"
        }
      ],
      "name": "realizeInspection",
      "outputs": [],
      "stateMutability": "nonpayable",
      "type": "function"
    },
    {
      "inputs": [],
      "name": "realizedInspectionsCount",
      "outputs": [
        {
          "internalType": "uint64",
          "name": "",
          "type": "uint64"
        }
      ],
      "stateMutability": "view",
      "type": "function"
    },
    {
      "inputs": [],
      "name": "renounceOwnership",
      "outputs": [],
      "stateMutability": "nonpayable",
      "type": "function"
    },
    {
      "inputs": [],
      "name": "requestInspection",
      "outputs": [],
      "stateMutability": "nonpayable",
      "type": "function"
    },
    {
      "inputs": [],
      "name": "securityBlocksToValidation",
      "outputs": [
        {
          "internalType": "uint32",
          "name": "",
          "type": "uint32"
        }
      ],
      "stateMutability": "view",
      "type": "function"
    },
    {
      "inputs": [
        {
          "components": [
            {
              "internalType": "address",
              "name": "communityRulesAddress",
              "type": "address"
            },
            {
              "internalType": "address",
              "name": "regeneratorRulesAddress",
              "type": "address"
            },
            {
              "internalType": "address",
              "name": "validationRulesAddress",
              "type": "address"
            },
            {
              "internalType": "address",
              "name": "inspectorRulesAddress",
              "type": "address"
            },
            {
              "internalType": "address",
              "name": "regenerationIndexRulesAddress",
              "type": "address"
            },
            {
              "internalType": "address",
              "name": "activistRulesAddress",
              "type": "address"
            },
            {
              "internalType": "address",
              "name": "voteRulesAddress",
              "type": "address"
            }
          ],
          "internalType": "struct ContractsDependency",
          "name": "contractDependency",
          "type": "tuple"
        }
      ],
      "name": "setContractInterfaces",
      "outputs": [],
      "stateMutability": "nonpayable",
      "type": "function"
    },
    {
      "inputs": [],
      "name": "timeBetweenInspections",
      "outputs": [
        {
          "internalType": "uint32",
          "name": "",
          "type": "uint32"
        }
      ],
      "stateMutability": "view",
      "type": "function"
    },
    {
      "inputs": [
        {
          "internalType": "address",
          "name": "newOwner",
          "type": "address"
        }
      ],
      "name": "transferOwnership",
      "outputs": [],
      "stateMutability": "nonpayable",
      "type": "function"
    },
    {
      "inputs": [
        {
          "components": [
            {
              "internalType": "uint64",
              "name": "id",
              "type": "uint64"
            },
            {
              "internalType": "address",
              "name": "regeneratorWallet",
              "type": "address"
            },
            {
              "internalType": "string",
              "name": "name",
              "type": "string"
            },
            {
              "internalType": "string",
              "name": "proofPhoto",
              "type": "string"
            },
            {
              "internalType": "uint32",
              "name": "totalArea",
              "type": "uint32"
            },
            {
              "internalType": "bool",
              "name": "pendingInspection",
              "type": "bool"
            },
            {
              "internalType": "uint256",
              "name": "totalInspections",
              "type": "uint256"
            },
            {
              "internalType": "uint256",
              "name": "lastRequestAt",
              "type": "uint256"
            },
            {
              "components": [
                {
                  "internalType": "uint256",
                  "name": "score",
                  "type": "uint256"
                }
              ],
              "internalType": "struct RegenerationScore",
              "name": "regenerationScore",
              "type": "tuple"
            },
            {
              "components": [
                {
                  "internalType": "bool",
                  "name": "onContractPool",
                  "type": "bool"
                },
                {
                  "internalType": "uint256",
                  "name": "currentEra",
                  "type": "uint256"
                }
              ],
              "internalType": "struct Pool",
              "name": "pool",
              "type": "tuple"
            },
            {
              "internalType": "uint256",
              "name": "createdAt",
              "type": "uint256"
            },
            {
              "internalType": "uint256",
              "name": "coordinatesCount",
              "type": "uint256"
            },
            {
              "internalType": "bool",
              "name": "isFullyInvalidated",
              "type": "bool"
            }
          ],
          "internalType": "struct Regenerator",
          "name": "regenerator",
          "type": "tuple"
        }
      ],
      "name": "waitToRequest",
      "outputs": [
        {
          "internalType": "bool",
          "name": "",
          "type": "bool"
        }
      ],
      "stateMutability": "view",
      "type": "function"
    }
  ],
  "bytecode": "0x61012060405234801561001157600080fd5b5060405161471b38038061471b833981016040819052610030916100f5565b338061005657604051631e4fbdf760e01b81526000600482015260240160405180910390fd5b61005f8161008c565b506001805563ffffffff94851660a05292841660c05260ff909116608052821660e0521661010052610162565b600080546001600160a01b038381166001600160a01b0319831681178455604051919092169283917f8be0079c531659141344cd1fd0a4f28419497f9722a3daafe3b4186f6b6457e09190a35050565b805163ffffffff811681146100f057600080fd5b919050565b600080600080600060a0868803121561010d57600080fd5b610116866100dc565b9450610124602087016100dc565b9350604086015160ff8116811461013a57600080fd5b9250610148606087016100dc565b9150610156608087016100dc565b90509295509295909350565b60805160a05160c05160e051610100516145366101e5600039600081816102360152612b6e0152600081816103fc01526108870152600081816103d5015281816104960152818161076d015281816120dd01528181612ac40152612b950152600081816102720152610847015260008181610382015261081001526145366000f3fe608060405234801561001057600080fd5b50600436106101a95760003560e01c80637b798468116100f9578063be15277e11610097578063e734b81311610071578063e734b8131461041e578063ed8f932114610431578063ee05057f1461043a578063f2fde38b1461045a57600080fd5b8063be15277e146103ad578063e42c9551146103d0578063e710483d146103f757600080fd5b80638da5cb5b116100d35780638da5cb5b1461035957806392f265d7146103745780639df79c921461037d578063a2b570a4146103a457600080fd5b80637b7984681461031e57806386297de91461033e57806386ae2fb11461035157600080fd5b80633eef1a2a1161016657806361a7581b1161014057806361a7581b146102d45780636b2edc16146102e95780636ec0837614610303578063715018a61461031657600080fd5b80633eef1a2a146102945780634d3fbe61146102a75780635401c1f2146102c157600080fd5b80630cda2cce146101ae57806316d2bd34146101d4578063180d794414610206578063216e13491461021e57806335c11677146102315780633dbf1e8f1461026d575b600080fd5b6101c16101bc366004613653565b61046d565b6040519081526020015b60405180910390f35b6002546101ee90600160401b90046001600160401b031681565b6040516001600160401b0390911681526020016101cb565b61020e6104cc565b60405190151581526020016101cb565b61020e61022c3660046138c4565b61080c565b6102587f000000000000000000000000000000000000000000000000000000000000000081565b60405163ffffffff90911681526020016101cb565b6102587f000000000000000000000000000000000000000000000000000000000000000081565b61020e6102a2366004613a18565b610883565b6102af600c81565b60405160ff90911681526020016101cb565b6002546101ee906001600160401b031681565b6102e76102e2366004613b70565b6108bc565b005b6002546101ee90600160801b90046001600160401b031681565b6102e7610311366004613c0c565b61095d565b6102e76111a4565b61033161032c366004613c5b565b6111b8565b6040516101cb9190613c78565b6102e761034c366004613653565b611256565b6102e7611aa7565b6000546040516001600160a01b0390911681526020016101cb565b61025861012c81565b6102af7f000000000000000000000000000000000000000000000000000000000000000081565b6101c160045481565b61020e6103bb366004613653565b60056020526000908152604090205460ff1681565b6102587f000000000000000000000000000000000000000000000000000000000000000081565b6102587f000000000000000000000000000000000000000000000000000000000000000081565b6102e761042c366004613cc4565b611ccb565b6101c160035481565b61044d610448366004613653565b612409565b6040516101cb9190613ddf565b6102e7610468366004613c5b565b6126ca565b6001600160401b03811660009081526006602081905260408220015443906104bc9063ffffffff7f00000000000000000000000000000000000000000000000000000000000000001690613f14565b6104c69190613f27565b92915050565b60095460405163e8f7dfcf60e01b815233600482015260009182916001600160a01b039091169063e8f7dfcf90602401600060405180830381865afa158015610519573d6000803e3d6000fd5b505050506040513d6000823e601f3d908101601f191682016040526105419190810190613fce565b6101008101516001600160401b03908116600090815260066020908152604080832081516101e08101909252805494851682529495509193919290830190600160401b900460ff16600381111561059a5761059a613d65565b60038111156105ab576105ab613d65565b815281546001600160a01b03600160481b909104811660208301526001830154908116604083015263ffffffff600160a01b820481166060840152600160c01b820481166080840152600160e01b9091041660a082015260028201805460c090920191610617906140e7565b80601f0160208091040260200160405190810160405280929190818152602001828054610643906140e7565b80156106905780601f1061066557610100808354040283529160200191610690565b820191906000526020600020905b81548152906001019060200180831161067357829003601f168201915b505050505081526020016003820180546106a9906140e7565b80601f01602080910402602001604051908101604052809291908181526020018280546106d5906140e7565b80156107225780601f106106f757610100808354040283529160200191610722565b820191906000526020600020905b81548152906001019060200180831161070557829003601f168201915b505050505081526020016004820154815260200160058201548152602001600682015481526020016007820154815260200160088201548152602001600982015481525050905060007f000000000000000000000000000000000000000000000000000000000000000063ffffffff168261016001516107a29190613f14565b4311905060006002836020015160038111156107c0576107c0613d65565b14806107e157506003836020015160038111156107df576107df613d65565b145b905080806107ec5750815b8061080357506101008401516001600160401b0316155b94505050505090565b60007f000000000000000000000000000000000000000000000000000000000000000060ff168260c00151101561084557506001919050565b7f000000000000000000000000000000000000000000000000000000000000000063ffffffff168260e0015161087b9190613f14565b431192915050565b60007f000000000000000000000000000000000000000000000000000000000000000063ffffffff1682610140015161087b9190613f14565b6108c4612705565b8051600b80546001600160a01b03199081166001600160a01b03938416179091556020830151600a805483169184169190911790556040830151600c8054831691841691909117905560608301516009805483169184169190911790556080830151600f8054831691841691909117905560a0830151600d8054831691841691909117905560c090920151600e80549093169116179055565b610965612732565b600b5460405163e838dfbb60e01b81523360048201526001600160a01b039091169063e838dfbb90602401602060405180830381865afa1580156109ad573d6000803e3d6000fd5b505050506040513d601f19601f820116820180604052508101906109d1919061412c565b15610a115760405162461bcd60e51b815260206004820152600b60248201526a155cd95c8819195b9a595960aa1b60448201526064015b60405180910390fd5b805161012c1015610a5d5760405162461bcd60e51b815260206004820152601660248201527513585e0818da185c9858dd195c9cc81c995858da195960521b6044820152606401610a08565b600e546040516356fd539760e11b81523360048201526001600160a01b039091169063adfaa72e90602401602060405180830381865afa158015610aa5573d6000803e3d6000fd5b505050506040513d601f19601f82011682018060405250810190610ac9919061412c565b610b035760405162461bcd60e51b815260206004820152600b60248201526a2737ba1030903b37ba32b960a91b6044820152606401610a08565b600c54604051630d84466b60e21b81523360048201526001600160a01b039091169063361119ac90602401602060405180830381865afa158015610b4b573d6000803e3d6000fd5b505050506040513d601f19601f82011682018060405250810190610b6f919061412c565b610bb35760405162461bcd60e51b8152602060048201526015602482015274576169742074696d654265747765656e566f74657360581b6044820152606401610a08565b3360009081526010602090815260408083206001600160401b038616845290915290205460ff1615610c175760405162461bcd60e51b815260206004820152600d60248201526c105b1c9958591e481d9bdd1959609a1b6044820152606401610a08565b6001600160401b03821660009081526005602052604090205460ff1615610c805760405162461bcd60e51b815260206004820152601960248201527f50656e616c7469657320616c7265616479206170706c696564000000000000006044820152606401610a08565b3360009081526010602090815260408083206001600160401b03861684528252808320805460ff1916600117905560068252918290206008810154600a54845163e05cf15560e01b81529451929491936001600160a01b03919091169263e05cf1559260048082019392918290030181865afa158015610d04573d6000803e3d6000fd5b505050506040513d601f19601f82011682018060405250810190610d289190614149565b14610d6e5760405162461bcd60e51b815260206004820152601660248201527543616e27742076616c696461646520616e796d6f726560501b6044820152606401610a08565b805460016001600160401b0390911610801590610da2575060025481546001600160401b03600160801b9092048216911611155b610dee5760405162461bcd60e51b815260206004820152601960248201527f496e7370656374696f6e20646f6573206e6f74206578697374000000000000006044820152606401610a08565b60028154600160401b900460ff166003811115610e0d57610e0d613d65565b14610e5a5760405162461bcd60e51b815260206004820152601d60248201527f4f6e6c7920746f20696e7370656374656420696e7370656374696f6e730000006044820152606401610a08565b6001816004016000828254610e6f9190613f14565b9091555050600c54604080516369bf81c360e01b815290516000926001600160a01b0316916369bf81c39160048083019260209291908290030181865afa158015610ebe573d6000803e3d6000fd5b505050506040513d601f19601f82011682018060405250810190610ee29190614149565b90506002811015610f485760405162461bcd60e51b815260206004820152602a60248201527f56616c69646174696f6e207468726573686f6c642063616e6e6f74206265206c60448201526932b9b9903a3430b7101960b11b6064820152608401610a08565b808260040154106110f2576001600160401b0384166000908152600560205260409020805460ff19166001179055610f7f8261275c565b6009546001830154835460405163b1e8665560e01b81526001600160a01b0392831660048201526001600160401b039091166024820152600092919091169063b1e86655906044016020604051808303816000875af1158015610fe6573d6000803e3d6000fd5b505050506040513d601f19601f8201168201806040525081019061100a9190614149565b9050600960009054906101000a90046001600160a01b03166001600160a01b031663b24eb7696040518163ffffffff1660e01b8152600401602060405180830381865afa15801561105f573d6000803e3d6000fd5b505050506040513d601f19601f820116820180604052508101906110839190614162565b60ff1681106110f057600954600184015460405163680d64d360e11b81526001600160a01b03918216600482015291169063d01ac9a690602401600060405180830381600087803b1580156110d757600080fd5b505af11580156110eb573d6000803e3d6000fd5b505050505b505b600c5460405163eb48556b60e01b81523360048201526001600160a01b039091169063eb48556b90602401600060405180830381600087803b15801561113757600080fd5b505af115801561114b573d6000803e3d6000fd5b505083546040513393507f804fe88dce417b67dd8890f8cac643949e87d8edcba4e9efb221cbd850c52feb925061118d916001600160401b0316908790614185565b60405180910390a250506111a060018055565b5050565b6111ac612705565b6111b66000612a70565b565b6001600160a01b03811660009081526007602090815260409182902080548351818402810184019094528084526060939283018282801561124a57602002820191906000526020600020906000905b82829054906101000a90046001600160401b03166001600160401b0316815260200190600801906020826007010492830192600103820291508084116112075790505b50505050509050919050565b61125e612732565b600b54604051631292f8c160e31b81526001600160a01b0390911690639497c608906112919060029033906004016141a7565b602060405180830381865afa1580156112ae573d6000803e3d6000fd5b505050506040513d601f19601f820116820180604052508101906112d2919061412c565b6113105760405162461bcd60e51b815260206004820152600f60248201526e4f6e6c7920696e73706563746f727360881b6044820152606401610a08565b600954604051634d5ff1d360e01b81523360048201526001600160a01b0390911690634d5ff1d390602401602060405180830381865afa158015611358573d6000803e3d6000fd5b505050506040513d601f19601f8201168201806040525081019061137c919061412c565b6113c15760405162461bcd60e51b815260206004820152601660248201527513db9b1e480cc819da5d99555c1cc8185b1b1bddd95960521b6044820152606401610a08565b6001600160401b038082166000908152600660205260409020805490916001911610156114305760405162461bcd60e51b815260206004820152601760248201527f496e7370656374696f6e20646f206e6f742065786973740000000000000000006044820152606401610a08565b6114386104cc565b6114775760405162461bcd60e51b815260206004820152601060248201526f105b1c9958591e481858d8d95c1d195960821b6044820152606401610a08565b3360009081526008602090815260408083208454600160481b90046001600160a01b0316845290915290205460ff16156114e75760405162461bcd60e51b8152602060048201526011602482015270105b1c9958591e481a5b9cdc1958dd1959607a1b6044820152606401610a08565b60008154600160401b900460ff16600381111561150657611506613d65565b146115535760405162461bcd60e51b815260206004820152601760248201527f496e7370656374696f6e206d757374206265204f50454e0000000000000000006044820152606401610a08565b604080516101e0810190915281546001600160401b0381168252611766919083906020830190600160401b900460ff16600381111561159457611594613d65565b60038111156115a5576115a5613d65565b815281546001600160a01b03600160481b909104811660208301526001830154908116604083015263ffffffff600160a01b820481166060840152600160c01b820481166080840152600160e01b9091041660a082015260028201805460c090920191611611906140e7565b80601f016020809104026020016040519081016040528092919081815260200182805461163d906140e7565b801561168a5780601f1061165f5761010080835404028352916020019161168a565b820191906000526020600020905b81548152906001019060200180831161166d57829003601f168201915b505050505081526020016003820180546116a3906140e7565b80601f01602080910402602001604051908101604052809291908181526020018280546116cf906140e7565b801561171c5780601f106116f15761010080835404028352916020019161171c565b820191906000526020600020905b8154815290600101906020018083116116ff57829003601f168201915b505050505081526020016004820154815260200160058201548152602001600682015481526020016007820154815260200160088201548152602001600982015481525050610883565b6117a65760405162461bcd60e51b8152602060048201526011602482015270576169742064656c617920626c6f636b7360781b6044820152606401610a08565b6117ae612ac0565b6117f05760405162461bcd60e51b81526020600482015260136024820152725761697420756e74696c206e6578742065726160681b6044820152606401610a08565b600954604051631feeefc760e21b81523360048201526001600160a01b0390911690637fbbbf1c90602401602060405180830381865afa158015611838573d6000803e3d6000fd5b505050506040513d601f19601f8201168201806040525081019061185c919061412c565b6118995760405162461bcd60e51b815260206004820152600e60248201526d15d85a5d081d1bc81858d8d95c1d60921b6044820152606401610a08565b600b548154604051631292f8c160e31b81526001600160a01b0392831692639497c608926118d892600192600160481b909204909116906004016141a7565b602060405180830381865afa1580156118f5573d6000803e3d6000fd5b505050506040513d601f19601f82011682018060405250810190611919919061412c565b61195b5760405162461bcd60e51b8152602060048201526013602482015272149959d95b995c985d1bdc881a5b9d985b1a59606a1b6044820152606401610a08565b8054600160401b60ff60401b19909116178082554360068301556001820180546001600160a01b03191633179055600a5460405163076d908160e21b81526001600160a01b03600160481b90930483166004820152911690631db6420490602401600060405180830381600087803b1580156119d657600080fd5b505af11580156119ea573d6000803e3d6000fd5b50506009546040516396cd035760e01b81523360048201526001600160401b03861660248201526001600160a01b0390911692506396cd03579150604401600060405180830381600087803b158015611a4257600080fd5b505af1158015611a56573d6000803e3d6000fd5b50506040514381523392506001600160401b03851691507ff9556ba762f15e7f3671b8f33a1f662df1a146fa3ec77a706435e6e4572ab8d19060200160405180910390a350611aa460018055565b50565b611aaf612732565b600a5460405163065ab21b60e41b81523360048201526000916001600160a01b0316906365ab21b090602401600060405180830381865afa158015611af8573d6000803e3d6000fd5b505050506040513d6000823e601f3d908101601f19168201604052611b20919081019061423d565b600b54604051631292f8c160e31b81529192506001600160a01b031690639497c60890611b549060019033906004016141a7565b602060405180830381865afa158015611b71573d6000803e3d6000fd5b505050506040513d601f19601f82011682018060405250810190611b95919061412c565b611bd55760405162461bcd60e51b81526020600482015260116024820152704f6e6c7920726567656e657261746f727360781b6044820152606401610a08565b8060a0015115611c165760405162461bcd60e51b815260206004820152600c60248201526b2932b8bab2b9ba1027a822a760a11b6044820152606401610a08565b611c1f8161080c565b611c5d5760405162461bcd60e51b815260206004820152600f60248201526e15d85a5d081d1bc81c995c5d595cdd608a1b6044820152606401610a08565b60c0810151600c11611cb15760405162461bcd60e51b815260206004820152601f60248201527f596f75206861766520636f6d706c6574656420796f7572206d697373696f6e006044820152606401610a08565b611cb9612c41565b611cc16130d4565b506111b660018055565b611cd3612732565b835160961015611d125760405162461bcd60e51b815260206004820152600a60248201526909ac2f040d8cadccee8d60b31b6044820152606401610a08565b82516103e81015611d525760405162461bcd60e51b815260206004820152600a60248201526909ac2f040d8cadccee8d60b31b6044820152606401610a08565b6001600160401b03858116600090815260066020908152604080832081516101e08101909252805494851682529293909291830190600160401b900460ff166003811115611da257611da2613d65565b6003811115611db357611db3613d65565b815281546001600160a01b03600160481b909104811660208301526001830154908116604083015263ffffffff600160a01b820481166060840152600160c01b820481166080840152600160e01b9091041660a082015260028201805460c090920191611e1f906140e7565b80601f0160208091040260200160405190810160405280929190818152602001828054611e4b906140e7565b8015611e985780601f10611e6d57610100808354040283529160200191611e98565b820191906000526020600020905b815481529060010190602001808311611e7b57829003601f168201915b50505050508152602001600382018054611eb1906140e7565b80601f0160208091040260200160405190810160405280929190818152602001828054611edd906140e7565b8015611f2a5780601f10611eff57610100808354040283529160200191611f2a565b820191906000526020600020905b815481529060010190602001808311611f0d57829003601f168201915b5050505050815260200160048201548152602001600582015481526020016006820154815260200160078201548152602001600882015481526020016009820154815250509050600b60009054906101000a90046001600160a01b03166001600160a01b0316639497c6086002336040518363ffffffff1660e01b8152600401611fb59291906141a7565b602060405180830381865afa158015611fd2573d6000803e3d6000fd5b505050506040513d601f19601f82011682018060405250810190611ff6919061412c565b6120345760405162461bcd60e51b815260206004820152600f60248201526e4f6e6c7920696e73706563746f727360881b6044820152606401610a08565b60018160200151600381111561204c5761204c613d65565b146120895760405162461bcd60e51b815260206004820152600d60248201526c416363657074206265666f726560981b6044820152606401610a08565b60608101516001600160a01b031633146120db5760405162461bcd60e51b81526020600482015260136024820152722737ba103cb7bab91034b739b832b1ba34b7b760691b6044820152606401610a08565b7f000000000000000000000000000000000000000000000000000000000000000063ffffffff168161016001516121129190613f14565b4311156121565760405162461bcd60e51b8152602060048201526012602482015271125b9cdc1958dd1a5bdb88115e1c1a5c995960721b6044820152606401610a08565b600a54604082810151905163065ab21b60e41b81526001600160a01b03918216600482015260009291909116906365ab21b090602401600060405180830381865afa1580156121a9573d6000803e3d6000fd5b505050506040513d6000823e601f3d908101601f191682016040526121d1919081019061423d565b90506000600460ff16826080015163ffffffff166121ef9190614374565b9050808563ffffffff16111561225e5760405162461bcd60e51b815260206004820152602e60248201527f5472656520636f756e7420657863656564732064656e73697479206c696d697460448201526d20666f722074686973206172656160901b6064820152608401610a08565b61012c63ffffffff851611156122a95760405162461bcd60e51b815260206004820152601060248201526f13585e081c995cdd5b1d081b1a5b5a5d60821b6044820152606401610a08565b6122b68388888888613133565b6122bf836133d7565b8463ffffffff16600360008282546122d79190613f14565b925050819055508363ffffffff16600460008282546122f69190613f14565b9091555050336000908152600860208181526040808420878201516001600160a01b03168552909152909120805460ff19166001179055600280546001600160401b03600160401b909104169161234c8361438b565b91906101000a8154816001600160401b0302191690836001600160401b031602179055505082604001516001600160a01b0316336001600160a01b0316896001600160401b03167f2224ef9c9aa3c3be082984f4341bc9e478345a0cdd809d940f034880dfeef86488888860c00151436040516123ee949392919063ffffffff9485168152928416602084015292166040820152606081019190915260800190565b60405180910390a450505061240260018055565b5050505050565b6124a7604080516101e0810190915260008082526020820190815260200160006001600160a01b0316815260200160006001600160a01b03168152602001600063ffffffff168152602001600063ffffffff168152602001600063ffffffff16815260200160608152602001606081526020016000815260200160008152602001600081526020016000815260200160008152602001600081525090565b6001600160401b0382811660009081526006602090815260409182902082516101e0810190935280549384168352919290830190600160401b900460ff1660038111156124f6576124f6613d65565b600381111561250757612507613d65565b815281546001600160a01b03600160481b909104811660208301526001830154908116604083015263ffffffff600160a01b820481166060840152600160c01b820481166080840152600160e01b9091041660a082015260028201805460c090920191612573906140e7565b80601f016020809104026020016040519081016040528092919081815260200182805461259f906140e7565b80156125ec5780601f106125c1576101008083540402835291602001916125ec565b820191906000526020600020905b8154815290600101906020018083116125cf57829003601f168201915b50505050508152602001600382018054612605906140e7565b80601f0160208091040260200160405190810160405280929190818152602001828054612631906140e7565b801561267e5780601f106126535761010080835404028352916020019161267e565b820191906000526020600020905b81548152906001019060200180831161266157829003601f168201915b5050505050815260200160048201548152602001600582015481526020016006820154815260200160078201548152602001600882015481526020016009820154815250509050919050565b6126d2612705565b6001600160a01b0381166126fc57604051631e4fbdf760e01b815260006004820152602401610a08565b611aa481612a70565b6000546001600160a01b031633146111b65760405163118cdaa760e01b8152336004820152602401610a08565b60026001540361275557604051633ee5aeb560e01b815260040160405180910390fd5b6002600155565b8060010160149054906101000a900463ffffffff1663ffffffff16600360008282546127889190613f27565b9091555050600181015460048054600160c01b90920463ffffffff16916000906127b3908490613f27565b9091555050600280546001600160401b03169060006127d1836143b6565b91906101000a8154816001600160401b0302191690836001600160401b03160217905550506002600881819054906101000a90046001600160401b03168092919061281b906143b6565b82546101009290920a6001600160401b038181021990931691909216919091021790555080546803000000000000000060ff60401b1990911617808255436009830155600a546040516361e4c1e960e11b81526001600160a01b03600160481b9093048316600482015291169063c3c983d290602401600060405180830381600087803b1580156128ab57600080fd5b505af11580156128bf573d6000803e3d6000fd5b5050600a5483546001850154604051631214f86f60e11b8152600160481b9092046001600160a01b039081166004840152600160e01b90910463ffffffff1660248301529091169250632429f0de9150604401600060405180830381600087803b15801561292c57600080fd5b505af1158015612940573d6000803e3d6000fd5b505060095460018401546040516361e4c1e960e11b81526001600160a01b0391821660048201529116925063c3c983d29150602401600060405180830381600087803b15801561298f57600080fd5b505af11580156129a3573d6000803e3d6000fd5b505060095460018401546040516310c791e560e11b81526001600160a01b039182166004820152600060248201529116925063218f23ca9150604401600060405180830381600087803b1580156129f957600080fd5b505af1158015612a0d573d6000803e3d6000fd5b5050825460018401546040514381526001600160a01b03600160481b84048116955090911692506001600160401b03909116907f5030472abe84127f1f2b92ab27763256a3d275c0c827c8cffa506c99cd1ed1049060200160405180910390a450565b600080546001600160a01b038381166001600160a01b0319831681178455604051919092169283917f8be0079c531659141344cd1fd0a4f28419497f9722a3daafe3b4186f6b6457e09190a35050565b60007f000000000000000000000000000000000000000000000000000000000000000063ffffffff16600a60009054906101000a90046001600160a01b03166001600160a01b031663582256f16040518163ffffffff1660e01b8152600401602060405180830381865afa158015612b3c573d6000803e3d6000fd5b505050506040513d601f19601f82011682018060405250810190612b609190614149565b1015612b6c5750600090565b7f000000000000000000000000000000000000000000000000000000000000000063ffffffff167f000000000000000000000000000000000000000000000000000000000000000063ffffffff16600a60009054906101000a90046001600160a01b03166001600160a01b031663582256f16040518163ffffffff1660e01b8152600401602060405180830381865afa158015612c0d573d6000803e3d6000fd5b505050506040513d601f19601f82011682018060405250810190612c319190614149565b612c3b9190613f27565b11905090565b60028054600160801b90046001600160401b0316906010612c618361438b565b82546101009290920a6001600160401b03818102199093169183160217909155600254600160801b90048116600081815260066020908152604080832081516101e0810190925280549586168252939550919391929190830190600160401b900460ff166003811115612cd657612cd6613d65565b6003811115612ce757612ce7613d65565b815281546001600160a01b03600160481b909104811660208301526001830154908116604083015263ffffffff600160a01b820481166060840152600160c01b820481166080840152600160e01b9091041660a082015260028201805460c090920191612d53906140e7565b80601f0160208091040260200160405190810160405280929190818152602001828054612d7f906140e7565b8015612dcc5780601f10612da157610100808354040283529160200191612dcc565b820191906000526020600020905b815481529060010190602001808311612daf57829003601f168201915b50505050508152602001600382018054612de5906140e7565b80601f0160208091040260200160405190810160405280929190818152602001828054612e11906140e7565b8015612e5e5780601f10612e3357610100808354040283529160200191612e5e565b820191906000526020600020905b815481529060010190602001808311612e4157829003601f168201915b50505091835250506004820154602080830191909152600583015460408301526006830154606083015260078301546080830152600883015460a083015260099092015460c0909101526001600160401b0384168252909150600090820181905250336040808301919091526000606083018190524361014084015282516001600160401b039081168252600660209081529290912083518154921667ffffffffffffffff1983168117825592840151849391929091839168ffffffffffffffffff191617600160401b836003811115612f3a57612f3a613d65565b021790555060408201518154600160481b600160e81b031916600160481b6001600160a01b03928316021782556060830151600183018054608086015160a087015160c0880151949095166001600160c01b031990921691909117600160a01b63ffffffff92831602176001600160c01b0316600160c01b948216949094026001600160e01b031693909317600160e01b939092169290920217905560e08201516002820190612fea9082614425565b5061010082015160038201906130009082614425565b5061012082015160048201556101408201516005820155610160820151600682015561018082015160078201556101a082015160088201556101c090910151600990910155600280546001600160401b031690600061305e8361438b565b91906101000a8154816001600160401b0302191690836001600160401b0316021790555050336001600160a01b0316826001600160401b03167f30053137f0cf60633be984694dd6295bb2027e571b975e37b0cedeefb92b375d436040516130c891815260200190565b60405180910390a35050565b600a546040516394c3cee960e01b81523360048201526001600160a01b03909116906394c3cee990602401600060405180830381600087803b15801561311957600080fd5b505af115801561312d573d6000803e3d6000fd5b50505050565b6002602086018190525063ffffffff8281166080870181905290821660a08701819052600f5460405163ac2d165360e01b8152600481019390935260248301919091526001600160a01b03169063ac2d165390604401602060405180830381865afa1580156131a6573d6000803e3d6000fd5b505050506040513d601f19601f820116820180604052508101906131ca91906144e3565b63ffffffff1660c086015260e08501849052610100850183905243610180860152600a546040805163e05cf15560e01b815290516001600160a01b039092169163e05cf155916004808201926020929091908290030181865afa158015613235573d6000803e3d6000fd5b505050506040513d601f19601f820116820180604052508101906132599190614149565b6101a086015284516001600160401b03908116600090815260066020908152604090912087518154931667ffffffffffffffff1984168117825591880151889391929091839168ffffffffffffffffff1990911617600160401b8360038111156132c5576132c5613d65565b021790555060408201518154600160481b600160e81b031916600160481b6001600160a01b03928316021782556060830151600183018054608086015160a087015160c0880151949095166001600160c01b031990921691909117600160a01b63ffffffff92831602176001600160c01b0316600160c01b948216949094026001600160e01b031693909317600160e01b939092169290920217905560e082015160028201906133759082614425565b50610100820151600382019061338b9082614425565b5061012082015160048201556101408201516005820155610160820151600682015561018082015160078201556101a082015160088201556101c0909101516009909101555050505050565b6040818101516060830151600d54600a5460c086015186519551630f1698bb60e11b81526001600160a01b03808716600483015263ffffffff90921660248201526001600160401b039096166044870152939492939182169262b2c9209286921690631e2d3176906064016020604051808303816000875af1158015613461573d6000803e3d6000fd5b505050506040513d601f19601f820116820180604052508101906134859190614149565b6040516001600160e01b031960e085901b1681526001600160a01b0390921660048301526024820152604401600060405180830381600087803b1580156134cb57600080fd5b505af11580156134df573d6000803e3d6000fd5b5050600d54600954865160405163bf960e8560e01b81526001600160a01b0387811660048301526001600160401b039092166024820152928116945063f1a204ce9350859291169063bf960e85906044016020604051808303816000875af115801561354f573d6000803e3d6000fd5b505050506040513d601f19601f820116820180604052508101906135739190614149565b6040516001600160e01b031960e085901b1681526001600160a01b0390921660048301526024820152604401600060405180830381600087803b1580156135b957600080fd5b505af11580156135cd573d6000803e3d6000fd5b5050506001600160a01b0390921660009081526007602090815260408220945185546001810187559583529120600485040180546001600160401b0392831660086003909716969096026101000a9586029290950219909416179092555050565b6001600160401b0381168114611aa457600080fd5b803561364e8161362e565b919050565b60006020828403121561366557600080fd5b81356136708161362e565b9392505050565b634e487b7160e01b600052604160045260246000fd5b604051602081016001600160401b03811182821017156136af576136af613677565b60405290565b604080519081016001600160401b03811182821017156136af576136af613677565b6040516101a081016001600160401b03811182821017156136af576136af613677565b6040516101e081016001600160401b03811182821017156136af576136af613677565b60405160e081016001600160401b03811182821017156136af576136af613677565b60405161016081016001600160401b03811182821017156136af576136af613677565b604051601f8201601f191681016001600160401b038111828210171561378a5761378a613677565b604052919050565b6001600160a01b0381168114611aa457600080fd5b803561364e81613792565b60006001600160401b038211156137cb576137cb613677565b50601f01601f191660200190565b600082601f8301126137ea57600080fd5b81356137fd6137f8826137b2565b613762565b81815284602083860101111561381257600080fd5b816020850160208301376000918101602001919091529392505050565b63ffffffff81168114611aa457600080fd5b803561364e8161382f565b8015158114611aa457600080fd5b803561364e8161384c565b60006020828403121561387757600080fd5b61387f61368d565b9135825250919050565b60006040828403121561389b57600080fd5b6138a36136b5565b905081356138b08161384c565b815260209182013591810191909152919050565b6000602082840312156138d657600080fd5b81356001600160401b038111156138ec57600080fd5b82016101c081850312156138ff57600080fd5b6139076136d7565b61391082613643565b815261391e602083016137a7565b602082015260408201356001600160401b0381111561393c57600080fd5b613948868285016137d9565b60408301525060608201356001600160401b0381111561396757600080fd5b613973868285016137d9565b60608301525061398560808301613841565b608082015261399660a0830161385a565b60a082015260c0828101359082015260e080830135908201526139bd856101008401613865565b6101008201526139d1856101208401613889565b61012082015261016082810135610140830152610180830135908201526139fb6101a0830161385a565b610180820152949350505050565b80356004811061364e57600080fd5b600060208284031215613a2a57600080fd5b81356001600160401b03811115613a4057600080fd5b82016101e08185031215613a5357600080fd5b613a5b6136fa565b613a6482613643565b8152613a7260208301613a09565b6020820152613a83604083016137a7565b6040820152613a94606083016137a7565b6060820152613aa560808301613841565b6080820152613ab660a08301613841565b60a0820152613ac760c08301613841565b60c082015260e08201356001600160401b03811115613ae557600080fd5b613af1868285016137d9565b60e0830152506101008201356001600160401b03811115613b1157600080fd5b613b1d868285016137d9565b6101008301525061012082810135908201526101408083013590820152610160808301359082015261018080830135908201526101a080830135908201526101c091820135918101919091529392505050565b600060e0828403128015613b8357600080fd5b50613b8c61371d565b8235613b9781613792565b81526020830135613ba781613792565b60208201526040830135613bba81613792565b60408201526060830135613bcd81613792565b6060820152613bde608084016137a7565b6080820152613bef60a084016137a7565b60a0820152613c0060c084016137a7565b60c08201529392505050565b60008060408385031215613c1f57600080fd5b8235613c2a8161362e565b915060208301356001600160401b03811115613c4557600080fd5b613c51858286016137d9565b9150509250929050565b600060208284031215613c6d57600080fd5b813561367081613792565b602080825282518282018190526000918401906040840190835b81811015613cb95783516001600160401b0316835260209384019390920191600101613c92565b509095945050505050565b600080600080600060a08688031215613cdc57600080fd5b8535613ce78161362e565b945060208601356001600160401b03811115613d0257600080fd5b613d0e888289016137d9565b94505060408601356001600160401b03811115613d2a57600080fd5b613d36888289016137d9565b9350506060860135613d478161382f565b91506080860135613d578161382f565b809150509295509295909350565b634e487b7160e01b600052602160045260246000fd5b60048110613d8b57613d8b613d65565b9052565b60005b83811015613daa578181015183820152602001613d92565b50506000910152565b60008151808452613dcb816020860160208601613d8f565b601f01601f19169290920160200192915050565b60208152613df96020820183516001600160401b03169052565b60006020830151613e0d6040840182613d7b565b5060408301516001600160a01b03811660608401525060608301516001600160a01b038116608084015250608083015163ffffffff811660a08401525060a083015163ffffffff811660c08401525060c083015163ffffffff811660e08401525060e08301516101e0610100840152613e8a610200840182613db3565b9050610100840151601f1984830301610120850152613ea98282613db3565b9150506101208401516101408401526101408401516101608401526101608401516101808401526101808401516101a08401526101a08401516101c08401526101c08401516101e08401528091505092915050565b634e487b7160e01b600052601160045260246000fd5b808201808211156104c6576104c6613efe565b818103818111156104c6576104c6613efe565b805161364e8161362e565b805161364e81613792565b600082601f830112613f6157600080fd5b8151613f6f6137f8826137b2565b818152846020838601011115613f8457600080fd5b613f95826020830160208701613d8f565b949350505050565b600060408284031215613faf57600080fd5b613fb76136b5565b825181526020928301519281019290925250919050565b600060208284031215613fe057600080fd5b81516001600160401b03811115613ff657600080fd5b8201610180818503121561400957600080fd5b61401161373f565b61401a82613f3a565b815261402860208301613f45565b602082015260408201516001600160401b0381111561404657600080fd5b61405286828501613f50565b60408301525060608201516001600160401b0381111561407157600080fd5b61407d86828501613f50565b6060830152506080828101519082015260a0808301519082015260c0808301519082015260e080830151908201526140b86101008301613f3a565b6101008201526140cc856101208401613f9d565b61012082015261016091909101516101408201529392505050565b600181811c908216806140fb57607f821691505b60208210810361411b57634e487b7160e01b600052602260045260246000fd5b50919050565b805161364e8161384c565b60006020828403121561413e57600080fd5b81516136708161384c565b60006020828403121561415b57600080fd5b5051919050565b60006020828403121561417457600080fd5b815160ff8116811461367057600080fd5b6001600160401b0383168152604060208201526000613f956040830184613db3565b60408101600884106141bb576141bb613d65565b9281526001600160a01b039190911660209091015290565b805161364e8161382f565b6000602082840312156141f057600080fd5b6141f861368d565b9151825250919050565b60006040828403121561421457600080fd5b61421c6136b5565b905081516142298161384c565b815260209182015191810191909152919050565b60006020828403121561424f57600080fd5b81516001600160401b0381111561426557600080fd5b82016101c0818503121561427857600080fd5b6142806136d7565b61428982613f3a565b815261429760208301613f45565b602082015260408201516001600160401b038111156142b557600080fd5b6142c186828501613f50565b60408301525060608201516001600160401b038111156142e057600080fd5b6142ec86828501613f50565b6060830152506142fe608083016141d3565b608082015261430f60a08301614121565b60a082015260c0828101519082015260e080830151908201526143368561010084016141de565b61010082015261434a856101208401614202565b61012082015261016082810151610140830152610180830151908201526139fb6101a08301614121565b80820281158282048414176104c6576104c6613efe565b60006001600160401b0382166001600160401b0381036143ad576143ad613efe565b60010192915050565b60006001600160401b038216806143cf576143cf613efe565b6000190192915050565b601f82111561442057806000526020600020601f840160051c810160208510156144005750805b601f840160051c820191505b81811015612402576000815560010161440c565b505050565b81516001600160401b0381111561443e5761443e613677565b6144528161444c84546140e7565b846143d9565b6020601f821160018114614486576000831561446e5750848201515b600019600385901b1c1916600184901b178455612402565b600084815260208120601f198516915b828110156144b65787850151825560209485019460019092019101614496565b50848210156144d45786840151600019600387901b60f8161c191681555b50505050600190811b01905550565b6000602082840312156144f557600080fd5b81516136708161382f56fea26469706673582212208fd2eeb759630ba8bb80e3959eb9ddc7e16cca9a92b2dea9cf1ad7f79b910de164736f6c634300081b0033",
  "linkReferences": {},
  "deployedLinkReferences": {}
}