{
  "_format": "hh-sol-artifact-1",
  "contractName": "RegenerationCredit",
  "sourceName": "contracts/RegenerationCredit.sol",
  "abi": [
    {
      "inputs": [
        {
          "internalType": "uint256",
          "name": "totalSupply",
          "type": "uint256"
        }
      ],
      "stateMutability": "nonpayable",
      "type": "constructor"
    },
    {
      "inputs": [
        {
          "internalType": "address",
          "name": "spender",
          "type": "address"
        },
        {
          "internalType": "uint256",
          "name": "allowance",
          "type": "uint256"
        },
        {
          "internalType": "uint256",
          "name": "needed",
          "type": "uint256"
        }
      ],
      "name": "ERC20InsufficientAllowance",
      "type": "error"
    },
    {
      "inputs": [
        {
          "internalType": "address",
          "name": "sender",
          "type": "address"
        },
        {
          "internalType": "uint256",
          "name": "balance",
          "type": "uint256"
        },
        {
          "internalType": "uint256",
          "name": "needed",
          "type": "uint256"
        }
      ],
      "name": "ERC20InsufficientBalance",
      "type": "error"
    },
    {
      "inputs": [
        {
          "internalType": "address",
          "name": "approver",
          "type": "address"
        }
      ],
      "name": "ERC20InvalidApprover",
      "type": "error"
    },
    {
      "inputs": [
        {
          "internalType": "address",
          "name": "receiver",
          "type": "address"
        }
      ],
      "name": "ERC20InvalidReceiver",
      "type": "error"
    },
    {
      "inputs": [
        {
          "internalType": "address",
          "name": "sender",
          "type": "address"
        }
      ],
      "name": "ERC20InvalidSender",
      "type": "error"
    },
    {
      "inputs": [
        {
          "internalType": "address",
          "name": "spender",
          "type": "address"
        }
      ],
      "name": "ERC20InvalidSpender",
      "type": "error"
    },
    {
      "inputs": [
        {
          "internalType": "address",
          "name": "owner",
          "type": "address"
        }
      ],
      "name": "OwnableInvalidOwner",
      "type": "error"
    },
    {
      "inputs": [
        {
          "internalType": "address",
          "name": "account",
          "type": "address"
        }
      ],
      "name": "OwnableUnauthorizedAccount",
      "type": "error"
    },
    {
      "inputs": [],
      "name": "ReentrancyGuardReentrantCall",
      "type": "error"
    },
    {
      "anonymous": false,
      "inputs": [
        {
          "indexed": true,
          "internalType": "address",
          "name": "owner",
          "type": "address"
        },
        {
          "indexed": true,
          "internalType": "address",
          "name": "spender",
          "type": "address"
        },
        {
          "indexed": false,
          "internalType": "uint256",
          "name": "value",
          "type": "uint256"
        }
      ],
      "name": "Approval",
      "type": "event"
    },
    {
      "anonymous": false,
      "inputs": [
        {
          "indexed": true,
          "internalType": "address",
          "name": "previousOwner",
          "type": "address"
        },
        {
          "indexed": true,
          "internalType": "address",
          "name": "newOwner",
          "type": "address"
        }
      ],
      "name": "OwnershipTransferred",
      "type": "event"
    },
    {
      "anonymous": false,
      "inputs": [
        {
          "indexed": true,
          "internalType": "address",
          "name": "account",
          "type": "address"
        },
        {
          "indexed": false,
          "internalType": "uint256",
          "name": "amount",
          "type": "uint256"
        },
        {
          "indexed": false,
          "internalType": "uint256",
          "name": "newAccountCertifiedTotal",
          "type": "uint256"
        }
      ],
      "name": "TokensCertified",
      "type": "event"
    },
    {
      "anonymous": false,
      "inputs": [
        {
          "indexed": true,
          "internalType": "address",
          "name": "from",
          "type": "address"
        },
        {
          "indexed": true,
          "internalType": "address",
          "name": "to",
          "type": "address"
        },
        {
          "indexed": false,
          "internalType": "uint256",
          "name": "value",
          "type": "uint256"
        }
      ],
      "name": "Transfer",
      "type": "event"
    },
    {
      "inputs": [],
      "name": "DECIMALS",
      "outputs": [
        {
          "internalType": "uint8",
          "name": "",
          "type": "uint8"
        }
      ],
      "stateMutability": "view",
      "type": "function"
    },
    {
      "inputs": [],
      "name": "NAME",
      "outputs": [
        {
          "internalType": "string",
          "name": "",
          "type": "string"
        }
      ],
      "stateMutability": "view",
      "type": "function"
    },
    {
      "inputs": [],
      "name": "SYMBOL",
      "outputs": [
        {
          "internalType": "string",
          "name": "",
          "type": "string"
        }
      ],
      "stateMutability": "view",
      "type": "function"
    },
    {
      "inputs": [
        {
          "internalType": "address",
          "name": "_fundAddress",
          "type": "address"
        },
        {
          "internalType": "uint256",
          "name": "_numTokens",
          "type": "uint256"
        }
      ],
      "name": "addContractPool",
      "outputs": [
        {
          "internalType": "bool",
          "name": "",
          "type": "bool"
        }
      ],
      "stateMutability": "nonpayable",
      "type": "function"
    },
    {
      "inputs": [
        {
          "internalType": "address",
          "name": "owner",
          "type": "address"
        },
        {
          "internalType": "address",
          "name": "spender",
          "type": "address"
        }
      ],
      "name": "allowance",
      "outputs": [
        {
          "internalType": "uint256",
          "name": "",
          "type": "uint256"
        }
      ],
      "stateMutability": "view",
      "type": "function"
    },
    {
      "inputs": [
        {
          "internalType": "address",
          "name": "spender",
          "type": "address"
        },
        {
          "internalType": "uint256",
          "name": "value",
          "type": "uint256"
        }
      ],
      "name": "approve",
      "outputs": [
        {
          "internalType": "bool",
          "name": "",
          "type": "bool"
        }
      ],
      "stateMutability": "nonpayable",
      "type": "function"
    },
    {
      "inputs": [
        {
          "internalType": "address",
          "name": "account",
          "type": "address"
        }
      ],
      "name": "balanceOf",
      "outputs": [
        {
          "internalType": "uint256",
          "name": "",
          "type": "uint256"
        }
      ],
      "stateMutability": "view",
      "type": "function"
    },
    {
      "inputs": [
        {
          "internalType": "uint256",
          "name": "value",
          "type": "uint256"
        }
      ],
      "name": "burn",
      "outputs": [],
      "stateMutability": "nonpayable",
      "type": "function"
    },
    {
      "inputs": [
        {
          "internalType": "address",
          "name": "account",
          "type": "address"
        },
        {
          "internalType": "uint256",
          "name": "amount",
          "type": "uint256"
        }
      ],
      "name": "burnFrom",
      "outputs": [],
      "stateMutability": "nonpayable",
      "type": "function"
    },
    {
      "inputs": [
        {
          "internalType": "uint256",
          "name": "amount",
          "type": "uint256"
        }
      ],
      "name": "burnTokens",
      "outputs": [],
      "stateMutability": "nonpayable",
      "type": "function"
    },
    {
      "inputs": [
        {
          "internalType": "address",
          "name": "",
          "type": "address"
        }
      ],
      "name": "certificate",
      "outputs": [
        {
          "internalType": "uint256",
          "name": "",
          "type": "uint256"
        }
      ],
      "stateMutability": "view",
      "type": "function"
    },
    {
      "inputs": [
        {
          "internalType": "address",
          "name": "poolAddress",
          "type": "address"
        }
      ],
      "name": "contractPool",
      "outputs": [
        {
          "internalType": "bool",
          "name": "",
          "type": "bool"
        }
      ],
      "stateMutability": "view",
      "type": "function"
    },
    {
      "inputs": [],
      "name": "decimals",
      "outputs": [
        {
          "internalType": "uint8",
          "name": "",
          "type": "uint8"
        }
      ],
      "stateMutability": "view",
      "type": "function"
    },
    {
      "inputs": [
        {
          "internalType": "uint256",
          "name": "numTokens",
          "type": "uint256"
        }
      ],
      "name": "decreaseLocked",
      "outputs": [],
      "stateMutability": "nonpayable",
      "type": "function"
    },
    {
      "inputs": [],
      "name": "name",
      "outputs": [
        {
          "internalType": "string",
          "name": "",
          "type": "string"
        }
      ],
      "stateMutability": "view",
      "type": "function"
    },
    {
      "inputs": [],
      "name": "owner",
      "outputs": [
        {
          "internalType": "address",
          "name": "",
          "type": "address"
        }
      ],
      "stateMutability": "view",
      "type": "function"
    },
    {
      "inputs": [],
      "name": "renounceOwnership",
      "outputs": [],
      "stateMutability": "nonpayable",
      "type": "function"
    },
    {
      "inputs": [],
      "name": "symbol",
      "outputs": [
        {
          "internalType": "string",
          "name": "",
          "type": "string"
        }
      ],
      "stateMutability": "view",
      "type": "function"
    },
    {
      "inputs": [],
      "name": "totalCertified",
      "outputs": [
        {
          "internalType": "uint256",
          "name": "",
          "type": "uint256"
        }
      ],
      "stateMutability": "view",
      "type": "function"
    },
    {
      "inputs": [],
      "name": "totalCertified_",
      "outputs": [
        {
          "internalType": "uint256",
          "name": "",
          "type": "uint256"
        }
      ],
      "stateMutability": "view",
      "type": "function"
    },
    {
      "inputs": [],
      "name": "totalLocked",
      "outputs": [
        {
          "internalType": "uint256",
          "name": "",
          "type": "uint256"
        }
      ],
      "stateMutability": "view",
      "type": "function"
    },
    {
      "inputs": [],
      "name": "totalLocked_",
      "outputs": [
        {
          "internalType": "uint256",
          "name": "",
          "type": "uint256"
        }
      ],
      "stateMutability": "view",
      "type": "function"
    },
    {
      "inputs": [],
      "name": "totalSupply",
      "outputs": [
        {
          "internalType": "uint256",
          "name": "",
          "type": "uint256"
        }
      ],
      "stateMutability": "view",
      "type": "function"
    },
    {
      "inputs": [
        {
          "internalType": "address",
          "name": "to",
          "type": "address"
        },
        {
          "internalType": "uint256",
          "name": "value",
          "type": "uint256"
        }
      ],
      "name": "transfer",
      "outputs": [
        {
          "internalType": "bool",
          "name": "",
          "type": "bool"
        }
      ],
      "stateMutability": "nonpayable",
      "type": "function"
    },
    {
      "inputs": [
        {
          "internalType": "address",
          "name": "from",
          "type": "address"
        },
        {
          "internalType": "address",
          "name": "to",
          "type": "address"
        },
        {
          "internalType": "uint256",
          "name": "value",
          "type": "uint256"
        }
      ],
      "name": "transferFrom",
      "outputs": [
        {
          "internalType": "bool",
          "name": "",
          "type": "bool"
        }
      ],
      "stateMutability": "nonpayable",
      "type": "function"
    },
    {
      "inputs": [
        {
          "internalType": "address",
          "name": "newOwner",
          "type": "address"
        }
      ],
      "name": "transferOwnership",
      "outputs": [],
      "stateMutability": "nonpayable",
      "type": "function"
    }
  ],
  "bytecode": "0x608060405234801561001057600080fd5b506040516111d83803806111d883398101604081905261002f916102a4565b336040518060400160405280601381526020017f524547454e45524154494f4e204352454449540000000000000000000000000081525060405180604001604052806002815260200161524360f01b8152508160039081610090919061035c565b50600461009d828261035c565b5050506001600160a01b0381166100cf57604051631e4fbdf760e01b8152600060048201526024015b60405180910390fd5b6100d8816100ee565b5060016006556100e83382610140565b50610441565b600580546001600160a01b038381166001600160a01b0319831681179093556040519116919082907f8be0079c531659141344cd1fd0a4f28419497f9722a3daafe3b4186f6b6457e090600090a35050565b6001600160a01b03821661016a5760405163ec442f0560e01b8152600060048201526024016100c6565b6101766000838361017a565b5050565b6001600160a01b0383166101a557806002600082825461019a919061041a565b909155506102179050565b6001600160a01b038316600090815260208190526040902054818110156101f85760405163391434e360e21b81526001600160a01b038516600482015260248101829052604481018390526064016100c6565b6001600160a01b03841660009081526020819052604090209082900390555b6001600160a01b03821661023357600280548290039055610252565b6001600160a01b03821660009081526020819052604090208054820190555b816001600160a01b0316836001600160a01b03167fddf252ad1be2c89b69c2b068fc378daa952ba7f163c4a11628f55a4df523b3ef8360405161029791815260200190565b60405180910390a3505050565b6000602082840312156102b657600080fd5b5051919050565b634e487b7160e01b600052604160045260246000fd5b600181811c908216806102e757607f821691505b60208210810361030757634e487b7160e01b600052602260045260246000fd5b50919050565b601f82111561035757806000526020600020601f840160051c810160208510156103345750805b601f840160051c820191505b818110156103545760008155600101610340565b50505b505050565b81516001600160401b03811115610375576103756102bd565b6103898161038384546102d3565b8461030d565b6020601f8211600181146103bd57600083156103a55750848201515b600019600385901b1c1916600184901b178455610354565b600084815260208120601f198516915b828110156103ed57878501518255602094850194600190920191016103cd565b508482101561040b5786840151600019600387901b60f8161c191681555b50505050600190811b01905550565b8082018082111561043b57634e487b7160e01b600052601160045260246000fd5b92915050565b610d88806104506000396000f3fe608060405234801561001057600080fd5b506004361061018e5760003560e01c80636d1b229d116100de578063a3f4df7e11610097578063dd62ed3e11610071578063dd62ed3e14610373578063e56658e8146103ac578063f2fde38b146103bf578063f76f8d78146103d257600080fd5b8063a3f4df7e14610326578063a9059cbb14610358578063b14f0b431461036b57600080fd5b80636d1b229d146102ac57806370a08231146102bf578063715018a6146102e857806379cc6790146102f05780638da5cb5b1461030357806395d89b411461031e57600080fd5b80632e0f26251161014b57806342966c681161012557806342966c681461027357806349d62776146102885780634d65a8461461029157806356891412146102a457600080fd5b80632e0f262514610226578063313ce567146102405780633834565d1461024757600080fd5b806306fdde0314610193578063095ea7b3146101b15780630ed944c3146101d457806318160ddd146101eb5780631affb7b7146101f357806323b872dd14610213575b600080fd5b61019b6103f3565b6040516101a89190610b9d565b60405180910390f35b6101c46101bf366004610c07565b610485565b60405190151581526020016101a8565b6101dd60085481565b6040519081526020016101a8565b6002546101dd565b6101dd610201366004610c31565b600a6020526000908152604090205481565b6101c4610221366004610c53565b61049f565b61022e601281565b60405160ff90911681526020016101a8565b601261022e565b6101c4610255366004610c31565b6001600160a01b031660009081526007602052604090205460ff1690565b610286610281366004610c90565b6104c3565b005b6101dd60095481565b6101c461029f366004610c07565b6104d0565b6009546101dd565b6102866102ba366004610c90565b610528565b6101dd6102cd366004610c31565b6001600160a01b031660009081526020819052604090205490565b610286610592565b6102866102fe366004610c07565b6105a6565b6005546040516001600160a01b0390911681526020016101a8565b61019b6105bf565b61019b60405180604001604052806013815260200172149151d153915490551253d38810d491511255606a1b81525081565b6101c4610366366004610c07565b6105ce565b6008546101dd565b6101dd610381366004610ca9565b6001600160a01b03918216600090815260016020908152604080832093909416825291909152205490565b6102866103ba366004610c90565b6105dc565b6102866103cd366004610c31565b610719565b61019b60405180604001604052806002815260200161524360f01b81525081565b60606003805461040290610cdc565b80601f016020809104026020016040519081016040528092919081815260200182805461042e90610cdc565b801561047b5780601f106104505761010080835404028352916020019161047b565b820191906000526020600020905b81548152906001019060200180831161045e57829003601f168201915b5050505050905090565b600033610493818585610754565b60019150505b92915050565b6000336104ad858285610766565b6104b88585856107e5565b506001949350505050565b6104cd3382610844565b50565b60006104da61087a565b6001600160a01b0383166000908152600760205260409020805460ff191660011790556105083384846107e5565b816009600082825461051a9190610d2c565b909155506001949350505050565b600081116105885760405162461bcd60e51b815260206004820152602260248201527f4275726e20616d6f756e74206d7573742062652067726561746572207468616e604482015261020360f41b60648201526084015b60405180910390fd5b6104cd33826108a7565b61059a61087a565b6105a4600061094c565b565b6105b1823383610766565b6105bb82826108a7565b5050565b60606004805461040290610cdc565b6000336104938185856107e5565b3360009081526007602052604090205460ff166106315760405162461bcd60e51b8152602060048201526013602482015272139bdd08184818dbdb9d1c9858dd081c1bdbdb606a1b604482015260640161057f565b336000908152602081905260409020548111156106865760405162461bcd60e51b8152602060048201526013602482015272506f6f6c206f7574206f662062616c616e636560681b604482015260640161057f565b6009548111156106e75760405162461bcd60e51b815260206004820152602660248201527f43616e6e6f74206465637265617365206d6f7265207468616e20746f74616c206044820152651b1bd8dad95960d21b606482015260840161057f565b3360009081526007602052604090205460ff16156104cd5780600960008282546107119190610d3f565b909155505050565b61072161087a565b6001600160a01b03811661074b57604051631e4fbdf760e01b81526000600482015260240161057f565b6104cd8161094c565b610761838383600161099e565b505050565b6001600160a01b038381166000908152600160209081526040808320938616835292905220546000198110156107df57818110156107d057604051637dc7a0d960e11b81526001600160a01b0384166004820152602481018290526044810183905260640161057f565b6107df8484848403600061099e565b50505050565b6001600160a01b03831661080f57604051634b637e8f60e11b81526000600482015260240161057f565b6001600160a01b0382166108395760405163ec442f0560e01b81526000600482015260240161057f565b610761838383610a73565b6001600160a01b03821661086e57604051634b637e8f60e11b81526000600482015260240161057f565b6105bb82600083610a73565b6005546001600160a01b031633146105a45760405163118cdaa760e01b815233600482015260240161057f565b6108b18282610844565b6001600160a01b0382166000908152600a6020526040812080548392906108d9908490610d2c565b9250508190555080600860008282546108f29190610d2c565b90915550506001600160a01b0382166000818152600a6020908152604091829020548251858152918201527fdcfaa57faef6cafa9ba0201b781740b5b5d63ee6dcee12a25d5cc93c1cc1df16910160405180910390a25050565b600580546001600160a01b038381166001600160a01b0319831681179093556040519116919082907f8be0079c531659141344cd1fd0a4f28419497f9722a3daafe3b4186f6b6457e090600090a35050565b6001600160a01b0384166109c85760405163e602df0560e01b81526000600482015260240161057f565b6001600160a01b0383166109f257604051634a1406b160e11b81526000600482015260240161057f565b6001600160a01b03808516600090815260016020908152604080832093871683529290522082905580156107df57826001600160a01b0316846001600160a01b03167f8c5be1e5ebec7d5bd14f71427d1e84f3dd0314c0f7b2291e5b200ac8c7c3b92584604051610a6591815260200190565b60405180910390a350505050565b6001600160a01b038316610a9e578060026000828254610a939190610d2c565b90915550610b109050565b6001600160a01b03831660009081526020819052604090205481811015610af15760405163391434e360e21b81526001600160a01b0385166004820152602481018290526044810183905260640161057f565b6001600160a01b03841660009081526020819052604090209082900390555b6001600160a01b038216610b2c57600280548290039055610b4b565b6001600160a01b03821660009081526020819052604090208054820190555b816001600160a01b0316836001600160a01b03167fddf252ad1be2c89b69c2b068fc378daa952ba7f163c4a11628f55a4df523b3ef83604051610b9091815260200190565b60405180910390a3505050565b602081526000825180602084015260005b81811015610bcb5760208186018101516040868401015201610bae565b506000604082850101526040601f19601f83011684010191505092915050565b80356001600160a01b0381168114610c0257600080fd5b919050565b60008060408385031215610c1a57600080fd5b610c2383610beb565b946020939093013593505050565b600060208284031215610c4357600080fd5b610c4c82610beb565b9392505050565b600080600060608486031215610c6857600080fd5b610c7184610beb565b9250610c7f60208501610beb565b929592945050506040919091013590565b600060208284031215610ca257600080fd5b5035919050565b60008060408385031215610cbc57600080fd5b610cc583610beb565b9150610cd360208401610beb565b90509250929050565b600181811c90821680610cf057607f821691505b602082108103610d1057634e487b7160e01b600052602260045260246000fd5b50919050565b634e487b7160e01b600052601160045260246000fd5b8082018082111561049957610499610d16565b8181038181111561049957610499610d1656fea2646970667358221220c9383a3d98341c957add51c4e443b81194a8833b91ae542bf8aae4f5462489d664736f6c634300081b0033",
  "linkReferences": {},
  "deployedLinkReferences": {}
}