{
  "_format": "hh-sol-artifact-1",
  "contractName": "RegenerationCredit",
  "sourceName": "contracts/RegenerationCredit.sol",
  "abi": [
    {
      "inputs": [
        {
          "internalType": "uint256",
          "name": "total",
          "type": "uint256"
        }
      ],
      "stateMutability": "nonpayable",
      "type": "constructor"
    },
    {
      "anonymous": false,
      "inputs": [
        {
          "indexed": true,
          "internalType": "address",
          "name": "owner",
          "type": "address"
        },
        {
          "indexed": true,
          "internalType": "address",
          "name": "spender",
          "type": "address"
        },
        {
          "indexed": false,
          "internalType": "uint256",
          "name": "value",
          "type": "uint256"
        }
      ],
      "name": "Approval",
      "type": "event"
    },
    {
      "anonymous": false,
      "inputs": [
        {
          "indexed": true,
          "internalType": "address",
          "name": "previousOwner",
          "type": "address"
        },
        {
          "indexed": true,
          "internalType": "address",
          "name": "newOwner",
          "type": "address"
        }
      ],
      "name": "OwnershipTransferred",
      "type": "event"
    },
    {
      "anonymous": false,
      "inputs": [
        {
          "indexed": true,
          "internalType": "address",
          "name": "from",
          "type": "address"
        },
        {
          "indexed": true,
          "internalType": "address",
          "name": "to",
          "type": "address"
        },
        {
          "indexed": false,
          "internalType": "uint256",
          "name": "value",
          "type": "uint256"
        }
      ],
      "name": "Transfer",
      "type": "event"
    },
    {
      "inputs": [],
      "name": "DECIMALS",
      "outputs": [
        {
          "internalType": "uint8",
          "name": "",
          "type": "uint8"
        }
      ],
      "stateMutability": "view",
      "type": "function"
    },
    {
      "inputs": [],
      "name": "NAME",
      "outputs": [
        {
          "internalType": "string",
          "name": "",
          "type": "string"
        }
      ],
      "stateMutability": "view",
      "type": "function"
    },
    {
      "inputs": [],
      "name": "SYMBOL",
      "outputs": [
        {
          "internalType": "string",
          "name": "",
          "type": "string"
        }
      ],
      "stateMutability": "view",
      "type": "function"
    },
    {
      "inputs": [
        {
          "internalType": "address",
          "name": "_fundAddress",
          "type": "address"
        },
        {
          "internalType": "uint256",
          "name": "_numTokens",
          "type": "uint256"
        }
      ],
      "name": "addContractPool",
      "outputs": [
        {
          "internalType": "bool",
          "name": "",
          "type": "bool"
        }
      ],
      "stateMutability": "nonpayable",
      "type": "function"
    },
    {
      "inputs": [
        {
          "internalType": "address",
          "name": "owner",
          "type": "address"
        },
        {
          "internalType": "address",
          "name": "delegate",
          "type": "address"
        }
      ],
      "name": "allowance",
      "outputs": [
        {
          "internalType": "uint256",
          "name": "",
          "type": "uint256"
        }
      ],
      "stateMutability": "view",
      "type": "function"
    },
    {
      "inputs": [
        {
          "internalType": "address",
          "name": "delegate",
          "type": "address"
        },
        {
          "internalType": "uint256",
          "name": "numTokens",
          "type": "uint256"
        }
      ],
      "name": "approve",
      "outputs": [
        {
          "internalType": "bool",
          "name": "",
          "type": "bool"
        }
      ],
      "stateMutability": "nonpayable",
      "type": "function"
    },
    {
      "inputs": [
        {
          "internalType": "address",
          "name": "tokenOwner",
          "type": "address"
        }
      ],
      "name": "balanceOf",
      "outputs": [
        {
          "internalType": "uint256",
          "name": "",
          "type": "uint256"
        }
      ],
      "stateMutability": "view",
      "type": "function"
    },
    {
      "inputs": [
        {
          "internalType": "uint256",
          "name": "amount",
          "type": "uint256"
        }
      ],
      "name": "burnTokens",
      "outputs": [],
      "stateMutability": "nonpayable",
      "type": "function"
    },
    {
      "inputs": [
        {
          "internalType": "address",
          "name": "tokenOwner",
          "type": "address"
        },
        {
          "internalType": "uint256",
          "name": "amount",
          "type": "uint256"
        }
      ],
      "name": "burnTokensWith",
      "outputs": [],
      "stateMutability": "nonpayable",
      "type": "function"
    },
    {
      "inputs": [
        {
          "internalType": "address",
          "name": "",
          "type": "address"
        }
      ],
      "name": "certificate",
      "outputs": [
        {
          "internalType": "uint256",
          "name": "",
          "type": "uint256"
        }
      ],
      "stateMutability": "view",
      "type": "function"
    },
    {
      "inputs": [
        {
          "internalType": "address",
          "name": "contractFundsAddress",
          "type": "address"
        }
      ],
      "name": "contractPool",
      "outputs": [
        {
          "internalType": "bool",
          "name": "",
          "type": "bool"
        }
      ],
      "stateMutability": "view",
      "type": "function"
    },
    {
      "inputs": [],
      "name": "decimals",
      "outputs": [
        {
          "internalType": "uint8",
          "name": "",
          "type": "uint8"
        }
      ],
      "stateMutability": "view",
      "type": "function"
    },
    {
      "inputs": [
        {
          "internalType": "address",
          "name": "spender",
          "type": "address"
        },
        {
          "internalType": "uint256",
          "name": "subtractedValue",
          "type": "uint256"
        }
      ],
      "name": "decreaseAllowance",
      "outputs": [
        {
          "internalType": "bool",
          "name": "",
          "type": "bool"
        }
      ],
      "stateMutability": "nonpayable",
      "type": "function"
    },
    {
      "inputs": [
        {
          "internalType": "address",
          "name": "spender",
          "type": "address"
        },
        {
          "internalType": "uint256",
          "name": "addedValue",
          "type": "uint256"
        }
      ],
      "name": "increaseAllowance",
      "outputs": [
        {
          "internalType": "bool",
          "name": "",
          "type": "bool"
        }
      ],
      "stateMutability": "nonpayable",
      "type": "function"
    },
    {
      "inputs": [],
      "name": "name",
      "outputs": [
        {
          "internalType": "string",
          "name": "",
          "type": "string"
        }
      ],
      "stateMutability": "pure",
      "type": "function"
    },
    {
      "inputs": [],
      "name": "owner",
      "outputs": [
        {
          "internalType": "address",
          "name": "",
          "type": "address"
        }
      ],
      "stateMutability": "view",
      "type": "function"
    },
    {
      "inputs": [],
      "name": "renounceOwnership",
      "outputs": [],
      "stateMutability": "nonpayable",
      "type": "function"
    },
    {
      "inputs": [],
      "name": "symbol",
      "outputs": [
        {
          "internalType": "string",
          "name": "",
          "type": "string"
        }
      ],
      "stateMutability": "view",
      "type": "function"
    },
    {
      "inputs": [],
      "name": "totalCertified",
      "outputs": [
        {
          "internalType": "uint256",
          "name": "",
          "type": "uint256"
        }
      ],
      "stateMutability": "view",
      "type": "function"
    },
    {
      "inputs": [],
      "name": "totalCertified_",
      "outputs": [
        {
          "internalType": "uint256",
          "name": "",
          "type": "uint256"
        }
      ],
      "stateMutability": "view",
      "type": "function"
    },
    {
      "inputs": [],
      "name": "totalLocked",
      "outputs": [
        {
          "internalType": "uint256",
          "name": "",
          "type": "uint256"
        }
      ],
      "stateMutability": "view",
      "type": "function"
    },
    {
      "inputs": [],
      "name": "totalLocked_",
      "outputs": [
        {
          "internalType": "uint256",
          "name": "",
          "type": "uint256"
        }
      ],
      "stateMutability": "view",
      "type": "function"
    },
    {
      "inputs": [],
      "name": "totalSupply",
      "outputs": [
        {
          "internalType": "uint256",
          "name": "",
          "type": "uint256"
        }
      ],
      "stateMutability": "view",
      "type": "function"
    },
    {
      "inputs": [],
      "name": "totalSupply_",
      "outputs": [
        {
          "internalType": "uint256",
          "name": "",
          "type": "uint256"
        }
      ],
      "stateMutability": "view",
      "type": "function"
    },
    {
      "inputs": [
        {
          "internalType": "address",
          "name": "receiver",
          "type": "address"
        },
        {
          "internalType": "uint256",
          "name": "numTokens",
          "type": "uint256"
        }
      ],
      "name": "transfer",
      "outputs": [
        {
          "internalType": "bool",
          "name": "",
          "type": "bool"
        }
      ],
      "stateMutability": "nonpayable",
      "type": "function"
    },
    {
      "inputs": [
        {
          "internalType": "address",
          "name": "owner",
          "type": "address"
        },
        {
          "internalType": "address",
          "name": "buyer",
          "type": "address"
        },
        {
          "internalType": "uint256",
          "name": "numTokens",
          "type": "uint256"
        }
      ],
      "name": "transferFrom",
      "outputs": [
        {
          "internalType": "bool",
          "name": "",
          "type": "bool"
        }
      ],
      "stateMutability": "nonpayable",
      "type": "function"
    },
    {
      "inputs": [
        {
          "internalType": "address",
          "name": "newOwner",
          "type": "address"
        }
      ],
      "name": "transferOwnership",
      "outputs": [],
      "stateMutability": "nonpayable",
      "type": "function"
    },
    {
      "inputs": [
        {
          "internalType": "address",
          "name": "tokenOwner",
          "type": "address"
        },
        {
          "internalType": "address",
          "name": "receiver",
          "type": "address"
        },
        {
          "internalType": "uint256",
          "name": "numTokens",
          "type": "uint256"
        }
      ],
      "name": "transferWith",
      "outputs": [],
      "stateMutability": "nonpayable",
      "type": "function"
    }
  ],
  "bytecode": "0x608060405234801561001057600080fd5b5060405161293038038061293083398181016040528101906100329190610238565b6040518060400160405280601381526020017f524547454e45524154494f4e20435245444954000000000000000000000000008152506040518060400160405280600281526020017f524300000000000000000000000000000000000000000000000000000000000081525081600390816100ad91906104ab565b5080600490816100bd91906104ab565b5050506100dc6100d161012f60201b60201c565b61013760201b60201c565b80600a81905550600a54600660003373ffffffffffffffffffffffffffffffffffffffff1673ffffffffffffffffffffffffffffffffffffffff168152602001908152602001600020819055505061057d565b600033905090565b6000600560009054906101000a900473ffffffffffffffffffffffffffffffffffffffff16905081600560006101000a81548173ffffffffffffffffffffffffffffffffffffffff021916908373ffffffffffffffffffffffffffffffffffffffff1602179055508173ffffffffffffffffffffffffffffffffffffffff168173ffffffffffffffffffffffffffffffffffffffff167f8be0079c531659141344cd1fd0a4f28419497f9722a3daafe3b4186f6b6457e060405160405180910390a35050565b600080fd5b6000819050919050565b61021581610202565b811461022057600080fd5b50565b6000815190506102328161020c565b92915050565b60006020828403121561024e5761024d6101fd565b5b600061025c84828501610223565b91505092915050565b600081519050919050565b7f4e487b7100000000000000000000000000000000000000000000000000000000600052604160045260246000fd5b7f4e487b7100000000000000000000000000000000000000000000000000000000600052602260045260246000fd5b600060028204905060018216806102e657607f821691505b6020821081036102f9576102f861029f565b5b50919050565b60008190508160005260206000209050919050565b60006020601f8301049050919050565b600082821b905092915050565b6000600883026103617fffffffffffffffffffffffffffffffffffffffffffffffffffffffffffffffff82610324565b61036b8683610324565b95508019841693508086168417925050509392505050565b6000819050919050565b60006103a86103a361039e84610202565b610383565b610202565b9050919050565b6000819050919050565b6103c28361038d565b6103d66103ce826103af565b848454610331565b825550505050565b600090565b6103eb6103de565b6103f68184846103b9565b505050565b5b8181101561041a5761040f6000826103e3565b6001810190506103fc565b5050565b601f82111561045f57610430816102ff565b61043984610314565b81016020851015610448578190505b61045c61045485610314565b8301826103fb565b50505b505050565b600082821c905092915050565b600061048260001984600802610464565b1980831691505092915050565b600061049b8383610471565b9150826002028217905092915050565b6104b482610265565b67ffffffffffffffff8111156104cd576104cc610270565b5b6104d782546102ce565b6104e282828561041e565b600060209050601f8311600181146105155760008415610503578287015190505b61050d858261048f565b865550610575565b601f198416610523866102ff565b60005b8281101561054b57848901518255600182019150602085019450602081019050610526565b868310156105685784890151610564601f891682610471565b8355505b6001600288020188555050505b505050505050565b6123a48061058c6000396000f3fe608060405234801561001057600080fd5b50600436106101c45760003560e01c80636d1b229d116100f9578063a457c2d711610097578063b34b4d0011610071578063b34b4d0014610523578063dd62ed3e1461053f578063f2fde38b1461056f578063f76f8d781461058b576101c4565b8063a457c2d7146104a5578063a9059cbb146104d5578063b14f0b4314610505576101c4565b80638da5cb5b116100d35780638da5cb5b1461042f57806395d89b411461044d578063a2c7670e1461046b578063a3f4df7e14610487576101c4565b80636d1b229d146103d957806370a08231146103f5578063715018a614610425576101c4565b8063313ce567116101665780633950935111610140578063395093511461033d57806349d627761461036d5780634d65a8461461038b57806356891412146103bb576101c4565b8063313ce567146102d1578063324536eb146102ef5780633834565d1461030d576101c4565b806318160ddd116101a257806318160ddd146102355780631affb7b71461025357806323b872dd146102835780632e0f2625146102b3576101c4565b806306fdde03146101c9578063095ea7b3146101e75780630ed944c314610217575b600080fd5b6101d16105a9565b6040516101de9190611a92565b60405180910390f35b61020160048036038101906101fc9190611b4d565b6105e6565b60405161020e9190611ba8565b60405180910390f35b61021f6106d8565b60405161022c9190611bd2565b60405180910390f35b61023d6106de565b60405161024a9190611bd2565b60405180910390f35b61026d60048036038101906102689190611bed565b6106e8565b60405161027a9190611bd2565b60405180910390f35b61029d60048036038101906102989190611c1a565b610700565b6040516102aa9190611ba8565b60405180910390f35b6102bb610aec565b6040516102c89190611c89565b60405180910390f35b6102d9610af1565b6040516102e69190611c89565b60405180910390f35b6102f7610afa565b6040516103049190611bd2565b60405180910390f35b61032760048036038101906103229190611bed565b610b00565b6040516103349190611ba8565b60405180910390f35b61035760048036038101906103529190611b4d565b610b56565b6040516103649190611ba8565b60405180910390f35b610375610b8d565b6040516103829190611bd2565b60405180910390f35b6103a560048036038101906103a09190611b4d565b610b93565b6040516103b29190611ba8565b60405180910390f35b6103c3610c23565b6040516103d09190611bd2565b60405180910390f35b6103f360048036038101906103ee9190611ca4565b610c2d565b005b61040f600480360381019061040a9190611bed565b610c3a565b60405161041c9190611bd2565b60405180910390f35b61042d610c83565b005b610437610c97565b6040516104449190611ce0565b60405180910390f35b610455610cc1565b6040516104629190611a92565b60405180910390f35b61048560048036038101906104809190611c1a565b610d53565b005b61048f611014565b60405161049c9190611a92565b60405180910390f35b6104bf60048036038101906104ba9190611b4d565b61104d565b6040516104cc9190611ba8565b60405180910390f35b6104ef60048036038101906104ea9190611b4d565b6110c4565b6040516104fc9190611ba8565b60405180910390f35b61050d6112e1565b60405161051a9190611bd2565b60405180910390f35b61053d60048036038101906105389190611b4d565b6112eb565b005b61055960048036038101906105549190611cfb565b611341565b6040516105669190611bd2565b60405180910390f35b61058960048036038101906105849190611bed565b6113c8565b005b61059361144b565b6040516105a09190611a92565b60405180910390f35b60606040518060400160405280601381526020017f524547454e45524154494f4e2043524544495400000000000000000000000000815250905090565b600081600760003373ffffffffffffffffffffffffffffffffffffffff1673ffffffffffffffffffffffffffffffffffffffff16815260200190815260200160002060008573ffffffffffffffffffffffffffffffffffffffff1673ffffffffffffffffffffffffffffffffffffffff168152602001908152602001600020819055508273ffffffffffffffffffffffffffffffffffffffff163373ffffffffffffffffffffffffffffffffffffffff167f8c5be1e5ebec7d5bd14f71427d1e84f3dd0314c0f7b2291e5b200ac8c7c3b925846040516106c69190611bd2565b60405180910390a36001905092915050565b600b5481565b6000600a54905090565b60086020528060005260406000206000915090505481565b6000600660008573ffffffffffffffffffffffffffffffffffffffff1673ffffffffffffffffffffffffffffffffffffffff16815260200190815260200160002054821115610784576040517f08c379a000000000000000000000000000000000000000000000000000000000815260040161077b90611d87565b60405180910390fd5b600760008573ffffffffffffffffffffffffffffffffffffffff1673ffffffffffffffffffffffffffffffffffffffff16815260200190815260200160002060003373ffffffffffffffffffffffffffffffffffffffff1673ffffffffffffffffffffffffffffffffffffffff16815260200190815260200160002054821115610843576040517f08c379a000000000000000000000000000000000000000000000000000000000815260040161083a90611df3565b60405180910390fd5b61089582600660008773ffffffffffffffffffffffffffffffffffffffff1673ffffffffffffffffffffffffffffffffffffffff1681526020019081526020016000205461148490919063ffffffff16565b600660008673ffffffffffffffffffffffffffffffffffffffff1673ffffffffffffffffffffffffffffffffffffffff1681526020019081526020016000208190555061096782600760008773ffffffffffffffffffffffffffffffffffffffff1673ffffffffffffffffffffffffffffffffffffffff16815260200190815260200160002060003373ffffffffffffffffffffffffffffffffffffffff1673ffffffffffffffffffffffffffffffffffffffff1681526020019081526020016000205461148490919063ffffffff16565b600760008673ffffffffffffffffffffffffffffffffffffffff1673ffffffffffffffffffffffffffffffffffffffff16815260200190815260200160002060003373ffffffffffffffffffffffffffffffffffffffff1673ffffffffffffffffffffffffffffffffffffffff16815260200190815260200160002081905550610a3982600660008673ffffffffffffffffffffffffffffffffffffffff1673ffffffffffffffffffffffffffffffffffffffff1681526020019081526020016000205461149a90919063ffffffff16565b600660008573ffffffffffffffffffffffffffffffffffffffff1673ffffffffffffffffffffffffffffffffffffffff168152602001908152602001600020819055508273ffffffffffffffffffffffffffffffffffffffff168473ffffffffffffffffffffffffffffffffffffffff167fddf252ad1be2c89b69c2b068fc378daa952ba7f163c4a11628f55a4df523b3ef84604051610ad99190611bd2565b60405180910390a3600190509392505050565b601281565b60006012905090565b600a5481565b6000600960008373ffffffffffffffffffffffffffffffffffffffff1673ffffffffffffffffffffffffffffffffffffffff16815260200190815260200160002060009054906101000a900460ff169050919050565b600080610b616114b0565b9050610b82818585610b738589611341565b610b7d9190611e42565b6114b8565b600191505092915050565b600c5481565b6000610b9d611681565b6001600960008573ffffffffffffffffffffffffffffffffffffffff1673ffffffffffffffffffffffffffffffffffffffff16815260200190815260200160002060006101000a81548160ff021916908315150217905550610bff83836110c4565b5081600c6000828254610c129190611e42565b925050819055506001905092915050565b6000600c54905090565b610c3733826116ff565b50565b6000600660008373ffffffffffffffffffffffffffffffffffffffff1673ffffffffffffffffffffffffffffffffffffffff168152602001908152602001600020549050919050565b610c8b611681565b610c95600061177c565b565b6000600560009054906101000a900473ffffffffffffffffffffffffffffffffffffffff16905090565b606060048054610cd090611ea5565b80601f0160208091040260200160405190810160405280929190818152602001828054610cfc90611ea5565b8015610d495780601f10610d1e57610100808354040283529160200191610d49565b820191906000526020600020905b815481529060010190602001808311610d2c57829003601f168201915b5050505050905090565b610d5c33610b00565b610d9b576040517f08c379a0000000000000000000000000000000000000000000000000000000008152600401610d9290611f22565b60405180910390fd5b600660008473ffffffffffffffffffffffffffffffffffffffff1673ffffffffffffffffffffffffffffffffffffffff16815260200190815260200160002054811115610e1d576040517f08c379a0000000000000000000000000000000000000000000000000000000008152600401610e1490611f8e565b60405180910390fd5b610e6f81600660008673ffffffffffffffffffffffffffffffffffffffff1673ffffffffffffffffffffffffffffffffffffffff1681526020019081526020016000205461148490919063ffffffff16565b600660008573ffffffffffffffffffffffffffffffffffffffff1673ffffffffffffffffffffffffffffffffffffffff16815260200190815260200160002081905550610f0481600660008573ffffffffffffffffffffffffffffffffffffffff1673ffffffffffffffffffffffffffffffffffffffff1681526020019081526020016000205461149a90919063ffffffff16565b600660008473ffffffffffffffffffffffffffffffffffffffff1673ffffffffffffffffffffffffffffffffffffffff168152602001908152602001600020819055508173ffffffffffffffffffffffffffffffffffffffff168373ffffffffffffffffffffffffffffffffffffffff167fddf252ad1be2c89b69c2b068fc378daa952ba7f163c4a11628f55a4df523b3ef83604051610fa49190611bd2565b60405180910390a3600960008473ffffffffffffffffffffffffffffffffffffffff1673ffffffffffffffffffffffffffffffffffffffff16815260200190815260200160002060009054906101000a900460ff161561100f5780600c600082825403925050819055505b505050565b6040518060400160405280601381526020017f524547454e45524154494f4e204352454449540000000000000000000000000081525081565b6000806110586114b0565b905060006110668286611341565b9050838110156110ab576040517f08c379a00000000000000000000000000000000000000000000000000000000081526004016110a290612020565b60405180910390fd5b6110b882868684036114b8565b60019250505092915050565b6000600660003373ffffffffffffffffffffffffffffffffffffffff1673ffffffffffffffffffffffffffffffffffffffff16815260200190815260200160002054821115611148576040517f08c379a000000000000000000000000000000000000000000000000000000000815260040161113f90611d87565b60405180910390fd5b61119a82600660003373ffffffffffffffffffffffffffffffffffffffff1673ffffffffffffffffffffffffffffffffffffffff1681526020019081526020016000205461148490919063ffffffff16565b600660003373ffffffffffffffffffffffffffffffffffffffff1673ffffffffffffffffffffffffffffffffffffffff1681526020019081526020016000208190555061122f82600660008673ffffffffffffffffffffffffffffffffffffffff1673ffffffffffffffffffffffffffffffffffffffff1681526020019081526020016000205461149a90919063ffffffff16565b600660008573ffffffffffffffffffffffffffffffffffffffff1673ffffffffffffffffffffffffffffffffffffffff168152602001908152602001600020819055508273ffffffffffffffffffffffffffffffffffffffff163373ffffffffffffffffffffffffffffffffffffffff167fddf252ad1be2c89b69c2b068fc378daa952ba7f163c4a11628f55a4df523b3ef846040516112cf9190611bd2565b60405180910390a36001905092915050565b6000600b54905090565b6112f433610b00565b611333576040517f08c379a000000000000000000000000000000000000000000000000000000000815260040161132a90611f22565b60405180910390fd5b61133d82826116ff565b5050565b6000600760008473ffffffffffffffffffffffffffffffffffffffff1673ffffffffffffffffffffffffffffffffffffffff16815260200190815260200160002060008373ffffffffffffffffffffffffffffffffffffffff1673ffffffffffffffffffffffffffffffffffffffff16815260200190815260200160002054905092915050565b6113d0611681565b600073ffffffffffffffffffffffffffffffffffffffff168173ffffffffffffffffffffffffffffffffffffffff160361143f576040517f08c379a0000000000000000000000000000000000000000000000000000000008152600401611436906120b2565b60405180910390fd5b6114488161177c565b50565b6040518060400160405280600281526020017f524300000000000000000000000000000000000000000000000000000000000081525081565b6000818361149291906120d2565b905092915050565b600081836114a89190611e42565b905092915050565b600033905090565b600073ffffffffffffffffffffffffffffffffffffffff168373ffffffffffffffffffffffffffffffffffffffff1603611527576040517f08c379a000000000000000000000000000000000000000000000000000000000815260040161151e90612178565b60405180910390fd5b600073ffffffffffffffffffffffffffffffffffffffff168273ffffffffffffffffffffffffffffffffffffffff1603611596576040517f08c379a000000000000000000000000000000000000000000000000000000000815260040161158d9061220a565b60405180910390fd5b80600160008573ffffffffffffffffffffffffffffffffffffffff1673ffffffffffffffffffffffffffffffffffffffff16815260200190815260200160002060008473ffffffffffffffffffffffffffffffffffffffff1673ffffffffffffffffffffffffffffffffffffffff168152602001908152602001600020819055508173ffffffffffffffffffffffffffffffffffffffff168373ffffffffffffffffffffffffffffffffffffffff167f8c5be1e5ebec7d5bd14f71427d1e84f3dd0314c0f7b2291e5b200ac8c7c3b925836040516116749190611bd2565b60405180910390a3505050565b6116896114b0565b73ffffffffffffffffffffffffffffffffffffffff166116a7610c97565b73ffffffffffffffffffffffffffffffffffffffff16146116fd576040517f08c379a00000000000000000000000000000000000000000000000000000000081526004016116f490612276565b60405180910390fd5b565b6117098282611842565b80600860008473ffffffffffffffffffffffffffffffffffffffff1673ffffffffffffffffffffffffffffffffffffffff16815260200190815260200160002060008282546117589190611e42565b9250508190555080600b60008282546117719190611e42565b925050819055505050565b6000600560009054906101000a900473ffffffffffffffffffffffffffffffffffffffff16905081600560006101000a81548173ffffffffffffffffffffffffffffffffffffffff021916908373ffffffffffffffffffffffffffffffffffffffff1602179055508173ffffffffffffffffffffffffffffffffffffffff168173ffffffffffffffffffffffffffffffffffffffff167f8be0079c531659141344cd1fd0a4f28419497f9722a3daafe3b4186f6b6457e060405160405180910390a35050565b600073ffffffffffffffffffffffffffffffffffffffff168273ffffffffffffffffffffffffffffffffffffffff16036118b1576040517f08c379a00000000000000000000000000000000000000000000000000000000081526004016118a8906122e2565b60405180910390fd5b6000600660008473ffffffffffffffffffffffffffffffffffffffff1673ffffffffffffffffffffffffffffffffffffffff16815260200190815260200160002054905081811015611938576040517f08c379a000000000000000000000000000000000000000000000000000000000815260040161192f9061234e565b60405180910390fd5b818103600660008573ffffffffffffffffffffffffffffffffffffffff1673ffffffffffffffffffffffffffffffffffffffff1681526020019081526020016000208190555081600a600082825461199091906120d2565b92505081905550600073ffffffffffffffffffffffffffffffffffffffff168373ffffffffffffffffffffffffffffffffffffffff167fddf252ad1be2c89b69c2b068fc378daa952ba7f163c4a11628f55a4df523b3ef846040516119f59190611bd2565b60405180910390a3505050565b600081519050919050565b600082825260208201905092915050565b60005b83811015611a3c578082015181840152602081019050611a21565b60008484015250505050565b6000601f19601f8301169050919050565b6000611a6482611a02565b611a6e8185611a0d565b9350611a7e818560208601611a1e565b611a8781611a48565b840191505092915050565b60006020820190508181036000830152611aac8184611a59565b905092915050565b600080fd5b600073ffffffffffffffffffffffffffffffffffffffff82169050919050565b6000611ae482611ab9565b9050919050565b611af481611ad9565b8114611aff57600080fd5b50565b600081359050611b1181611aeb565b92915050565b6000819050919050565b611b2a81611b17565b8114611b3557600080fd5b50565b600081359050611b4781611b21565b92915050565b60008060408385031215611b6457611b63611ab4565b5b6000611b7285828601611b02565b9250506020611b8385828601611b38565b9150509250929050565b60008115159050919050565b611ba281611b8d565b82525050565b6000602082019050611bbd6000830184611b99565b92915050565b611bcc81611b17565b82525050565b6000602082019050611be76000830184611bc3565b92915050565b600060208284031215611c0357611c02611ab4565b5b6000611c1184828501611b02565b91505092915050565b600080600060608486031215611c3357611c32611ab4565b5b6000611c4186828701611b02565b9350506020611c5286828701611b02565b9250506040611c6386828701611b38565b9150509250925092565b600060ff82169050919050565b611c8381611c6d565b82525050565b6000602082019050611c9e6000830184611c7a565b92915050565b600060208284031215611cba57611cb9611ab4565b5b6000611cc884828501611b38565b91505092915050565b611cda81611ad9565b82525050565b6000602082019050611cf56000830184611cd1565b92915050565b60008060408385031215611d1257611d11611ab4565b5b6000611d2085828601611b02565b9250506020611d3185828601611b02565b9150509250929050565b7f496e73756666696369656e742062616c616e63652e0000000000000000000000600082015250565b6000611d71601583611a0d565b9150611d7c82611d3b565b602082019050919050565b60006020820190508181036000830152611da081611d64565b9050919050565b7f496e73756666696369656e7420616c6c6f77616e63652e000000000000000000600082015250565b6000611ddd601783611a0d565b9150611de882611da7565b602082019050919050565b60006020820190508181036000830152611e0c81611dd0565b9050919050565b7f4e487b7100000000000000000000000000000000000000000000000000000000600052601160045260246000fd5b6000611e4d82611b17565b9150611e5883611b17565b9250828201905080821115611e7057611e6f611e13565b5b92915050565b7f4e487b7100000000000000000000000000000000000000000000000000000000600052602260045260246000fd5b60006002820490506001821680611ebd57607f821691505b602082108103611ed057611ecf611e76565b5b50919050565b7f4e6f74206120636f6e747261637420706f6f6c00000000000000000000000000600082015250565b6000611f0c601383611a0d565b9150611f1782611ed6565b602082019050919050565b60006020820190508181036000830152611f3b81611eff565b9050919050565b7f596f7520646f6e2774206861766520524320546f6b656e730000000000000000600082015250565b6000611f78601883611a0d565b9150611f8382611f42565b602082019050919050565b60006020820190508181036000830152611fa781611f6b565b9050919050565b7f45524332303a2064656372656173656420616c6c6f77616e63652062656c6f7760008201527f207a65726f000000000000000000000000000000000000000000000000000000602082015250565b600061200a602583611a0d565b915061201582611fae565b604082019050919050565b6000602082019050818103600083015261203981611ffd565b9050919050565b7f4f776e61626c653a206e6577206f776e657220697320746865207a65726f206160008201527f6464726573730000000000000000000000000000000000000000000000000000602082015250565b600061209c602683611a0d565b91506120a782612040565b604082019050919050565b600060208201905081810360008301526120cb8161208f565b9050919050565b60006120dd82611b17565b91506120e883611b17565b9250828203905081811115612100576120ff611e13565b5b92915050565b7f45524332303a20617070726f76652066726f6d20746865207a65726f2061646460008201527f7265737300000000000000000000000000000000000000000000000000000000602082015250565b6000612162602483611a0d565b915061216d82612106565b604082019050919050565b6000602082019050818103600083015261219181612155565b9050919050565b7f45524332303a20617070726f766520746f20746865207a65726f20616464726560008201527f7373000000000000000000000000000000000000000000000000000000000000602082015250565b60006121f4602283611a0d565b91506121ff82612198565b604082019050919050565b60006020820190508181036000830152612223816121e7565b9050919050565b7f4f776e61626c653a2063616c6c6572206973206e6f7420746865206f776e6572600082015250565b6000612260602083611a0d565b915061226b8261222a565b602082019050919050565b6000602082019050818103600083015261228f81612253565b9050919050565b7f4275726e2066726f6d20746865207a65726f2061646472657373000000000000600082015250565b60006122cc601a83611a0d565b91506122d782612296565b602082019050919050565b600060208201905081810360008301526122fb816122bf565b9050919050565b7f4275726e20616d6f756e7420657863656564732062616c616e63650000000000600082015250565b6000612338601b83611a0d565b915061234382612302565b602082019050919050565b600060208201905081810360008301526123678161232b565b905091905056fea2646970667358221220fca2e9720ad68ff2d27c5998d256c39ee1b8cf67ad35a43a26698187c460218464736f6c634300081b0033",
  "linkReferences": {},
  "deployedLinkReferences": {}
}