{
  "_format": "hh-sol-artifact-1",
  "contractName": "RegeneratorRules",
  "sourceName": "contracts/RegeneratorRules.sol",
  "abi": [
    {
      "inputs": [
        {
          "internalType": "address",
          "name": "communityRulesAddress",
          "type": "address"
        },
        {
          "internalType": "address",
          "name": "regeneratorPoolAddress",
          "type": "address"
        }
      ],
      "stateMutability": "nonpayable",
      "type": "constructor"
    },
    {
      "inputs": [
        {
          "internalType": "address",
          "name": "owner",
          "type": "address"
        }
      ],
      "name": "OwnableInvalidOwner",
      "type": "error"
    },
    {
      "inputs": [
        {
          "internalType": "address",
          "name": "account",
          "type": "address"
        }
      ],
      "name": "OwnableUnauthorizedAccount",
      "type": "error"
    },
    {
      "inputs": [],
      "name": "ReentrancyGuardReentrantCall",
      "type": "error"
    },
    {
      "anonymous": false,
      "inputs": [
        {
          "indexed": true,
          "internalType": "address",
          "name": "previousOwner",
          "type": "address"
        },
        {
          "indexed": true,
          "internalType": "address",
          "name": "newOwner",
          "type": "address"
        }
      ],
      "name": "OwnershipTransferred",
      "type": "event"
    },
    {
      "anonymous": false,
      "inputs": [
        {
          "indexed": true,
          "internalType": "address",
          "name": "regeneratorAddress",
          "type": "address"
        },
        {
          "indexed": false,
          "internalType": "uint256",
          "name": "blockNumber",
          "type": "uint256"
        }
      ],
      "name": "RegeneratorEnteredPool",
      "type": "event"
    },
    {
      "anonymous": false,
      "inputs": [
        {
          "indexed": true,
          "internalType": "uint256",
          "name": "id",
          "type": "uint256"
        },
        {
          "indexed": true,
          "internalType": "address",
          "name": "regeneratorAddress",
          "type": "address"
        },
        {
          "indexed": false,
          "internalType": "string",
          "name": "name",
          "type": "string"
        },
        {
          "indexed": false,
          "internalType": "uint32",
          "name": "totalArea",
          "type": "uint32"
        },
        {
          "indexed": false,
          "internalType": "uint256",
          "name": "blockNumber",
          "type": "uint256"
        }
      ],
      "name": "RegeneratorRegistered",
      "type": "event"
    },
    {
      "anonymous": false,
      "inputs": [
        {
          "indexed": true,
          "internalType": "address",
          "name": "regeneratorAddress",
          "type": "address"
        },
        {
          "indexed": true,
          "internalType": "uint256",
          "name": "era",
          "type": "uint256"
        },
        {
          "indexed": false,
          "internalType": "uint256",
          "name": "blockNumber",
          "type": "uint256"
        }
      ],
      "name": "RegeneratorWithdrawalInitiated",
      "type": "event"
    },
    {
      "inputs": [],
      "name": "MAX_REGENERATION_AREA",
      "outputs": [
        {
          "internalType": "uint32",
          "name": "",
          "type": "uint32"
        }
      ],
      "stateMutability": "view",
      "type": "function"
    },
    {
      "inputs": [],
      "name": "MINIMUM_INSPECTIONS_TO_POOL",
      "outputs": [
        {
          "internalType": "uint8",
          "name": "",
          "type": "uint8"
        }
      ],
      "stateMutability": "view",
      "type": "function"
    },
    {
      "inputs": [],
      "name": "MIN_REGENERATION_AREA",
      "outputs": [
        {
          "internalType": "uint32",
          "name": "",
          "type": "uint32"
        }
      ],
      "stateMutability": "view",
      "type": "function"
    },
    {
      "inputs": [
        {
          "internalType": "uint32",
          "name": "totalArea",
          "type": "uint32"
        },
        {
          "internalType": "string",
          "name": "name",
          "type": "string"
        },
        {
          "internalType": "string",
          "name": "proofPhoto",
          "type": "string"
        },
        {
          "internalType": "string",
          "name": "projectDescription",
          "type": "string"
        },
        {
          "components": [
            {
              "internalType": "string",
              "name": "latitude",
              "type": "string"
            },
            {
              "internalType": "string",
              "name": "longitude",
              "type": "string"
            }
          ],
          "internalType": "struct Coordinates[]",
          "name": "_coordinates",
          "type": "tuple[]"
        }
      ],
      "name": "addRegenerator",
      "outputs": [],
      "stateMutability": "nonpayable",
      "type": "function"
    },
    {
      "inputs": [
        {
          "internalType": "address",
          "name": "addr",
          "type": "address"
        }
      ],
      "name": "afterAcceptInspection",
      "outputs": [],
      "stateMutability": "nonpayable",
      "type": "function"
    },
    {
      "inputs": [
        {
          "internalType": "address",
          "name": "addr",
          "type": "address"
        },
        {
          "internalType": "uint32",
          "name": "score",
          "type": "uint32"
        },
        {
          "internalType": "uint64",
          "name": "inspectionId",
          "type": "uint64"
        }
      ],
      "name": "afterRealizeInspection",
      "outputs": [
        {
          "internalType": "uint256",
          "name": "",
          "type": "uint256"
        }
      ],
      "stateMutability": "nonpayable",
      "type": "function"
    },
    {
      "inputs": [
        {
          "internalType": "address",
          "name": "addr",
          "type": "address"
        }
      ],
      "name": "afterRequestInspection",
      "outputs": [],
      "stateMutability": "nonpayable",
      "type": "function"
    },
    {
      "inputs": [
        {
          "internalType": "address",
          "name": "",
          "type": "address"
        }
      ],
      "name": "allowedCallers",
      "outputs": [
        {
          "internalType": "bool",
          "name": "",
          "type": "bool"
        }
      ],
      "stateMutability": "view",
      "type": "function"
    },
    {
      "inputs": [
        {
          "internalType": "address",
          "name": "",
          "type": "address"
        }
      ],
      "name": "areaPhoto",
      "outputs": [
        {
          "internalType": "string",
          "name": "",
          "type": "string"
        }
      ],
      "stateMutability": "view",
      "type": "function"
    },
    {
      "inputs": [
        {
          "internalType": "address",
          "name": "",
          "type": "address"
        },
        {
          "internalType": "uint256",
          "name": "",
          "type": "uint256"
        }
      ],
      "name": "coordinates",
      "outputs": [
        {
          "internalType": "string",
          "name": "latitude",
          "type": "string"
        },
        {
          "internalType": "string",
          "name": "longitude",
          "type": "string"
        }
      ],
      "stateMutability": "view",
      "type": "function"
    },
    {
      "inputs": [
        {
          "internalType": "address",
          "name": "addr",
          "type": "address"
        }
      ],
      "name": "decrementInspections",
      "outputs": [],
      "stateMutability": "nonpayable",
      "type": "function"
    },
    {
      "inputs": [
        {
          "internalType": "address",
          "name": "addr",
          "type": "address"
        }
      ],
      "name": "getCoordinates",
      "outputs": [
        {
          "components": [
            {
              "internalType": "string",
              "name": "latitude",
              "type": "string"
            },
            {
              "internalType": "string",
              "name": "longitude",
              "type": "string"
            }
          ],
          "internalType": "struct Coordinates[]",
          "name": "",
          "type": "tuple[]"
        }
      ],
      "stateMutability": "view",
      "type": "function"
    },
    {
      "inputs": [
        {
          "internalType": "address",
          "name": "addr",
          "type": "address"
        }
      ],
      "name": "getRegenerator",
      "outputs": [
        {
          "components": [
            {
              "internalType": "uint64",
              "name": "id",
              "type": "uint64"
            },
            {
              "internalType": "address",
              "name": "regeneratorWallet",
              "type": "address"
            },
            {
              "internalType": "string",
              "name": "name",
              "type": "string"
            },
            {
              "internalType": "string",
              "name": "proofPhoto",
              "type": "string"
            },
            {
              "internalType": "uint32",
              "name": "totalArea",
              "type": "uint32"
            },
            {
              "internalType": "bool",
              "name": "pendingInspection",
              "type": "bool"
            },
            {
              "internalType": "uint256",
              "name": "totalInspections",
              "type": "uint256"
            },
            {
              "internalType": "uint256",
              "name": "lastRequestAt",
              "type": "uint256"
            },
            {
              "components": [
                {
                  "internalType": "uint256",
                  "name": "score",
                  "type": "uint256"
                }
              ],
              "internalType": "struct RegenerationScore",
              "name": "regenerationScore",
              "type": "tuple"
            },
            {
              "components": [
                {
                  "internalType": "bool",
                  "name": "onContractPool",
                  "type": "bool"
                },
                {
                  "internalType": "uint256",
                  "name": "currentEra",
                  "type": "uint256"
                }
              ],
              "internalType": "struct Pool",
              "name": "pool",
              "type": "tuple"
            },
            {
              "internalType": "uint256",
              "name": "createdAt",
              "type": "uint256"
            },
            {
              "internalType": "uint256",
              "name": "coordinatesCount",
              "type": "uint256"
            },
            {
              "internalType": "bool",
              "name": "isFullyInvalidated",
              "type": "bool"
            }
          ],
          "internalType": "struct Regenerator",
          "name": "regenerator",
          "type": "tuple"
        }
      ],
      "stateMutability": "view",
      "type": "function"
    },
    {
      "inputs": [
        {
          "internalType": "address",
          "name": "",
          "type": "address"
        }
      ],
      "name": "impactRegenerators",
      "outputs": [
        {
          "internalType": "bool",
          "name": "",
          "type": "bool"
        }
      ],
      "stateMutability": "view",
      "type": "function"
    },
    {
      "inputs": [
        {
          "internalType": "address",
          "name": "caller",
          "type": "address"
        }
      ],
      "name": "isAllowedCaller",
      "outputs": [
        {
          "internalType": "bool",
          "name": "",
          "type": "bool"
        }
      ],
      "stateMutability": "view",
      "type": "function"
    },
    {
      "inputs": [
        {
          "internalType": "address",
          "name": "allowed",
          "type": "address"
        }
      ],
      "name": "newAllowedCaller",
      "outputs": [],
      "stateMutability": "nonpayable",
      "type": "function"
    },
    {
      "inputs": [],
      "name": "nextEraIn",
      "outputs": [
        {
          "internalType": "uint256",
          "name": "",
          "type": "uint256"
        }
      ],
      "stateMutability": "view",
      "type": "function"
    },
    {
      "inputs": [],
      "name": "owner",
      "outputs": [
        {
          "internalType": "address",
          "name": "",
          "type": "address"
        }
      ],
      "stateMutability": "view",
      "type": "function"
    },
    {
      "inputs": [],
      "name": "poolCurrentEra",
      "outputs": [
        {
          "internalType": "uint256",
          "name": "",
          "type": "uint256"
        }
      ],
      "stateMutability": "view",
      "type": "function"
    },
    {
      "inputs": [
        {
          "internalType": "address",
          "name": "",
          "type": "address"
        }
      ],
      "name": "projectDescriptions",
      "outputs": [
        {
          "internalType": "string",
          "name": "",
          "type": "string"
        }
      ],
      "stateMutability": "view",
      "type": "function"
    },
    {
      "inputs": [],
      "name": "regenerationArea",
      "outputs": [
        {
          "internalType": "uint256",
          "name": "",
          "type": "uint256"
        }
      ],
      "stateMutability": "view",
      "type": "function"
    },
    {
      "inputs": [],
      "name": "regenerationTotalArea",
      "outputs": [
        {
          "internalType": "uint256",
          "name": "",
          "type": "uint256"
        }
      ],
      "stateMutability": "view",
      "type": "function"
    },
    {
      "inputs": [
        {
          "internalType": "uint256",
          "name": "",
          "type": "uint256"
        }
      ],
      "name": "regeneratorsAddress",
      "outputs": [
        {
          "internalType": "address",
          "name": "",
          "type": "address"
        }
      ],
      "stateMutability": "view",
      "type": "function"
    },
    {
      "inputs": [
        {
          "internalType": "address",
          "name": "addr",
          "type": "address"
        },
        {
          "internalType": "uint256",
          "name": "amountToRemove",
          "type": "uint256"
        }
      ],
      "name": "removeInspectionLevels",
      "outputs": [],
      "stateMutability": "nonpayable",
      "type": "function"
    },
    {
      "inputs": [
        {
          "internalType": "address",
          "name": "addr",
          "type": "address"
        }
      ],
      "name": "removePoolLevels",
      "outputs": [],
      "stateMutability": "nonpayable",
      "type": "function"
    },
    {
      "inputs": [],
      "name": "renounceOwnership",
      "outputs": [],
      "stateMutability": "nonpayable",
      "type": "function"
    },
    {
      "inputs": [
        {
          "internalType": "address",
          "name": "_inspectionRulesAddress",
          "type": "address"
        },
        {
          "internalType": "address",
          "name": "_validationRulesAddress",
          "type": "address"
        }
      ],
      "name": "setContractCall",
      "outputs": [],
      "stateMutability": "nonpayable",
      "type": "function"
    },
    {
      "inputs": [],
      "name": "totalImpactRegenerators",
      "outputs": [
        {
          "internalType": "uint256",
          "name": "",
          "type": "uint256"
        }
      ],
      "stateMutability": "view",
      "type": "function"
    },
    {
      "inputs": [
        {
          "internalType": "address",
          "name": "newOwner",
          "type": "address"
        }
      ],
      "name": "transferOwnership",
      "outputs": [],
      "stateMutability": "nonpayable",
      "type": "function"
    },
    {
      "inputs": [
        {
          "internalType": "string",
          "name": "newPhoto",
          "type": "string"
        }
      ],
      "name": "updateAreaPhoto",
      "outputs": [],
      "stateMutability": "nonpayable",
      "type": "function"
    },
    {
      "inputs": [],
      "name": "withdraw",
      "outputs": [],
      "stateMutability": "nonpayable",
      "type": "function"
    }
  ],
  "bytecode": "0x608060405234801561001057600080fd5b506040516135ad3803806135ad83398101604081905261002f91610101565b338061005557604051631e4fbdf760e01b81526000600482015260240160405180910390fd5b61005e81610095565b506001600255600b80546001600160a01b039384166001600160a01b031991821617909155600c8054929093169116179055610134565b600080546001600160a01b038381166001600160a01b0319831681178455604051919092169283917f8be0079c531659141344cd1fd0a4f28419497f9722a3daafe3b4186f6b6457e09190a35050565b80516001600160a01b03811681146100fc57600080fd5b919050565b6000806040838503121561011457600080fd5b61011d836100e5565b915061012b602084016100e5565b90509250929050565b61346a806101436000396000f3fe608060405234801561001057600080fd5b50600436106101e55760003560e01c80638ca6bee81161010f578063aa8d536a116100a2578063e05cf15511610071578063e05cf15514610459578063e57637f014610461578063f2fde38b1461048a578063f92f0f8e1461049d57600080fd5b8063aa8d536a146103ff578063b9a68b2b14610412578063c3c983d214610425578063c85a58ff1461043857600080fd5b806394c3cee9116100de57806394c3cee91461039d578063a6801258146103b0578063a6bae8b0146103dc578063a77963f0146103e557600080fd5b80638ca6bee81461033b5780638da5cb5b146103455780638ee394721461036a5780638f93716f1461038a57600080fd5b806345e0e89a11610187578063715018a611610156578063715018a6146102ca57806377811610146102d25780637b334154146102e557806385b5ee9b1461031857600080fd5b806345e0e89a1461027c578063582256f11461028457806365ab21b01461028c5780636ea7a2e9146102ac57600080fd5b80632429f0de116101c35780632429f0de14610238578063257b4e7c1461024b5780633ccfd60b1461026b578063442f96251461027357600080fd5b806304521ca3146101ea5780631db64204146101ff5780631e2d317614610212575b600080fd5b6101fd6101f836600461274a565b6104b0565b005b6101fd61020d36600461277d565b6104e6565b6102256102203660046127c8565b610558565b6040519081526020015b60405180910390f35b6101fd61024636600461280f565b6106c3565b61025e61025936600461277d565b6107d1565b60405161022f919061287f565b6101fd61086b565b610225600e5481565b600e54610225565b610225610a4b565b61029f61029a36600461277d565b610acb565b60405161022f9190612892565b6102b56101f481565b60405163ffffffff909116815260200161022f565b6101fd610ce4565b6101fd6102e0366004612a40565b610cf6565b6103086102f336600461277d565b60016020526000908152604090205460ff1681565b604051901515815260200161022f565b61030861032636600461277d565b60076020526000908152604090205460ff1681565b6102b56207a12081565b6000546001600160a01b03165b6040516001600160a01b03909116815260200161022f565b61037d61037836600461277d565b610e06565b60405161022f9190612a7c565b6101fd61039836600461277d565b611227565b6101fd6103ab36600461277d565b611256565b6103086103be36600461277d565b6001600160a01b031660009081526001602052604090205460ff1690565b610225600d5481565b6103ed600381565b60405160ff909116815260200161022f565b61025e61040d36600461277d565b6112df565b6101fd610420366004612b08565b6112f8565b6101fd61043336600461277d565b611894565b61044b61044636600461280f565b6119c6565b60405161022f929190612c0e565b610225611b17565b61035261046f366004612c3c565b6004602052600090815260409020546001600160a01b031681565b6101fd61049836600461277d565b611b61565b6101fd6104ab36600461277d565b611b9f565b6104b8611d0c565b600f80546001600160a01b039384166001600160a01b03199182161790915560108054929093169116179055565b3360009081526001602052604090205460ff1661051e5760405162461bcd60e51b815260040161051590612c55565b60405180910390fd5b600f546001600160a01b03163381146105495760405162461bcd60e51b815260040161051590612c81565b610554826000611d39565b5050565b3360009081526001602052604081205460ff166105875760405162461bcd60e51b815260040161051590612c55565b600f546001600160a01b03163381146105b25760405162461bcd60e51b815260040161051590612c81565b6105ba611d74565b604063ffffffff851611156106015760405162461bcd60e51b815260206004820152600d60248201526c4d6178696d756d2073636f726560981b6044820152606401610515565b6001600160401b03831660009081526009602052604090205460ff16156106765760405162461bcd60e51b8152602060048201526024808201527f496e7370656374696f6e20726573756c747320616c7265616479207375626d696044820152631d1d195960e21b6064820152608401610515565b6001600160401b0383166000908152600960205260408120805460ff191660011790556106a286611d9c565b90506106af868686611e2b565b91506106bb6001600255565b509392505050565b3360009081526001602052604090205460ff166106f25760405162461bcd60e51b815260040161051590612c55565b600f546001600160a01b031633811461071d5760405162461bcd60e51b815260040161051590612c81565b610725611d74565b6001600160a01b03831660009081526003602052604081206006018054849290610750908490612cce565b9091555050600c54604051631af0d89760e01b81526001600160a01b038581166004830152602482018590526000604483015290911690631af0d89790606401600060405180830381600087803b1580156107aa57600080fd5b505af11580156107be573d6000803e3d6000fd5b505050506107cc6001600255565b505050565b600860205260009081526040902080546107ea90612ce7565b80601f016020809104026020016040519081016040528092919081815260200182805461081690612ce7565b80156108635780601f1061083857610100808354040283529160200191610863565b820191906000526020600020905b81548152906001019060200180831161084657829003601f168201915b505050505081565b610873611d74565b600b54604051631292f8c160e31b81526001600160a01b0390911690639497c608906108a6906001903390600401612d43565b602060405180830381865afa1580156108c3573d6000803e3d6000fd5b505050506040513d601f19601f820116820180604052508101906108e79190612d69565b61092c5760405162461bcd60e51b815260206004820152601660248201527513db9b1e481c9959d95b995c985d1bdc9cc81c1bdbdb60521b6044820152606401610515565b336000908152600360205260409020600481015461094b906003111590565b61098d5760405162461bcd60e51b81526020600482015260136024820152724d696e696d756d20696e7370656374696f6e7360681b6044820152606401610515565b600881015461099d816001612d8b565b6008830155600c5460405163f3fef3a360e01b8152336004820152602481018390526001600160a01b039091169063f3fef3a390604401600060405180830381600087803b1580156109ee57600080fd5b505af1158015610a02573d6000803e3d6000fd5b50506040514381528392503391507f81f7cfdaaebb3eb89eee117bbfcd1e956d1c8bfa759f5eda2ba6f63551a4db209060200160405180910390a35050610a496001600255565b565b600c546000906001600160a01b031663d5ee3eb5610a67611b17565b6040518263ffffffff1660e01b8152600401610a8591815260200190565b602060405180830381865afa158015610aa2573d6000803e3d6000fd5b505050506040513d601f19601f82011682018060405250810190610ac69190612d9e565b905090565b610ad3612679565b6001600160a01b0380831660009081526003602090815260409182902082516101a08101845281546001600160401b0381168252600160401b9004909416918401919091526001810180549192840191610b2c90612ce7565b80601f0160208091040260200160405190810160405280929190818152602001828054610b5890612ce7565b8015610ba55780601f10610b7a57610100808354040283529160200191610ba5565b820191906000526020600020905b815481529060010190602001808311610b8857829003601f168201915b50505050508152602001600282018054610bbe90612ce7565b80601f0160208091040260200160405190810160405280929190818152602001828054610bea90612ce7565b8015610c375780601f10610c0c57610100808354040283529160200191610c37565b820191906000526020600020905b815481529060010190602001808311610c1a57829003601f168201915b5050509183525050600382015463ffffffff811660208084019190915260ff640100000000909204821615156040808501919091526004850154606085015260058501546080850152805180830182526006860154815260a08501528051808201909152600785015483161515815260088501549181019190915260c0830152600983015460e0830152600a830154610100830152600b9092015490911615156101209091015292915050565b610cec611d0c565b610a496000611fc0565b805160961015610d395760405162461bcd60e51b815260206004820152600e60248201526d4d6178206368617261637465727360901b6044820152606401610515565b600b54604051631292f8c160e31b81526001600160a01b0390911690639497c60890610d6c906001903390600401612d43565b602060405180830381865afa158015610d89573d6000803e3d6000fd5b505050506040513d601f19601f82011682018060405250810190610dad9190612d69565b610ded5760405162461bcd60e51b81526020600482015260116024820152704f6e6c7920726567656e657261746f727360781b6044820152606401610515565b3360009081526008602052604090206105548282612e1a565b6001600160a01b03808216600090815260036020908152604080832081516101a08101835281546001600160401b0381168252600160401b900490951692850192909252600182018054606095939284019190610e6290612ce7565b80601f0160208091040260200160405190810160405280929190818152602001828054610e8e90612ce7565b8015610edb5780601f10610eb057610100808354040283529160200191610edb565b820191906000526020600020905b815481529060010190602001808311610ebe57829003601f168201915b50505050508152602001600282018054610ef490612ce7565b80601f0160208091040260200160405190810160405280929190818152602001828054610f2090612ce7565b8015610f6d5780601f10610f4257610100808354040283529160200191610f6d565b820191906000526020600020905b815481529060010190602001808311610f5057829003601f168201915b5050509183525050600382015463ffffffff811660208084019190915260ff640100000000909204821615156040808501919091526004850154606085015260058501546080850152805180830182526006860154815260a08501528051808201909152600785015483161515815260088501549181019190915260c0830152600983015460e0830152600a830154610100830152600b909201549091161515610120909101526101608101519091506000906001600160401b038111156110375761103761299d565b60405190808252806020026020018201604052801561107c57816020015b60408051808201909152606080825260208201528152602001906001900390816110555790505b5061016083015190915060005b8181101561121d576001600160a01b03861660009081526005602052604090208054829081106110bb576110bb612ed2565b90600052602060002090600202016040518060400160405290816000820180546110e490612ce7565b80601f016020809104026020016040519081016040528092919081815260200182805461111090612ce7565b801561115d5780601f106111325761010080835404028352916020019161115d565b820191906000526020600020905b81548152906001019060200180831161114057829003601f168201915b5050505050815260200160018201805461117690612ce7565b80601f01602080910402602001604051908101604052809291908181526020018280546111a290612ce7565b80156111ef5780601f106111c4576101008083540402835291602001916111ef565b820191906000526020600020905b8154815290600101906020018083116111d257829003601f168201915b50505050508152505083828151811061120a5761120a612ed2565b6020908102919091010152600101611089565b5090949350505050565b61122f611d0c565b6001600160a01b03166000908152600160208190526040909120805460ff19169091179055565b3360009081526001602052604090205460ff166112855760405162461bcd60e51b815260040161051590612c55565b600f546001600160a01b03163381146112b05760405162461bcd60e51b815260040161051590612c81565b6112bb826001611d39565b61055482436001600160a01b03909116600090815260036020526040902060050155565b600660205260009081526040902080546107ea90612ce7565b845160321080159061130c57508351609610155b801561131a5750825160c810155b61135f5760405162461bcd60e51b815260206004820152601660248201527513585e0818da185c9858dd195c9cc81c995858da195960521b6044820152606401610515565b600381108015906113715750600a8111155b6113d05760405162461bcd60e51b815260206004820152602a60248201527f4d696e696d756d203320616e64206d6178696d756d20313020636f6f7264696e60448201526961746520706f696e747360b01b6064820152608401610515565b6101f463ffffffff8716108015906113f157506207a12063ffffffff871611155b6114535760405162461bcd60e51b815260206004820152602d60248201527f4d696e696d756d2035303020616e64206d6178696d756d203530302e3030302060448201526c737175617265206d657465727360981b6064820152608401610515565b61145d8282612010565b600b5460405162f5960960e51b81526000916001600160a01b031690631eb2c1209061148e90600190600401612ee8565b602060405180830381865afa1580156114ab573d6000803e3d6000fd5b505050506040513d601f19601f820116820180604052508101906114cf9190612ef6565b6114da906001612f13565b9050604051806101a00160405280826001600160401b03168152602001336001600160a01b031681526020018781526020018681526020018863ffffffff16815260200160001515815260200160008152602001600081526020016040518060200160405280600081525081526020016040518060400160405280600015158152602001600c60009054906101000a90046001600160a01b03166001600160a01b031663ed0df79e6040518163ffffffff1660e01b8152600401602060405180830381865afa1580156115b1573d6000803e3d6000fd5b505050506040513d601f19601f820116820180604052508101906115d59190612d9e565b9052815243602080830191909152604080830186905260006060909301839052338352600382529182902083518154928501516001600160a01b0316600160401b026001600160e01b03199093166001600160401b03909116179190911781559082015160018201906116489082612e1a565b506060820151600282019061165d9082612e1a565b50608082015160038201805460a085015115156401000000000264ffffffffff1990911663ffffffff9093169290921791909117905560c082015160048083019190915560e0830151600583015561010083015151600680840191909155610120840151805160078501805491151560ff1992831617905560209182015160088601556101408601516009860155610160860151600a86015561018090950151600b909401805494151594909516939093179093556001600160401b0384166000908152908252604080822080546001600160a01b031916339081179091558252929091522061174d8582612e1a565b50600b54604051639c3eead960e01b81526001600160a01b0390911690639c3eead990611781903390600190600401612f32565b600060405180830381600087803b15801561179b57600080fd5b505af11580156117af573d6000803e3d6000fd5b505050508663ffffffff16600e60008282546117cb9190612d8b565b90915550600090505b8281101561183b573360009081526005602052604090208484838181106117fd576117fd612ed2565b905060200281019061180f9190612f4f565b8154600181018355600092835260209092209091600202016118318282613075565b50506001016117d4565b50336001600160a01b0316816001600160401b03167fe7929ab3a316468d25671f32aa731ca41460f5459029b8ed818d4d32152c7f00888a4360405161188393929190613157565b60405180910390a350505050505050565b3360009081526001602052604090205460ff166118c35760405162461bcd60e51b815260040161051590612c55565b600f546001600160a01b03163381146118ee5760405162461bcd60e51b815260040161051590612c81565b6001600160a01b038216600090815260036020526040902060040154806119575760405162461bcd60e51b815260206004820152601860248201527f746f74616c496e7370656374696f6e7320696e76616c696400000000000000006044820152606401610515565b8060010361199557600d805490600061196f83613182565b90915550506001600160a01b0383166000908152600760205260409020805460ff191690555b6001600160a01b03831660009081526003602052604081206004018054916119bc83613182565b9190505550505050565b600560205281600052604060002081815481106119e257600080fd5b906000526020600020906002020160009150915050806000018054611a0690612ce7565b80601f0160208091040260200160405190810160405280929190818152602001828054611a3290612ce7565b8015611a7f5780601f10611a5457610100808354040283529160200191611a7f565b820191906000526020600020905b815481529060010190602001808311611a6257829003601f168201915b505050505090806001018054611a9490612ce7565b80601f0160208091040260200160405190810160405280929190818152602001828054611ac090612ce7565b8015611b0d5780601f10611ae257610100808354040283529160200191611b0d565b820191906000526020600020905b815481529060010190602001808311611af057829003601f168201915b5050505050905082565b600c5460408051637686fbcf60e11b815290516000926001600160a01b03169163ed0df79e9160048083019260209291908290030181865afa158015610aa2573d6000803e3d6000fd5b611b69611d0c565b6001600160a01b038116611b9357604051631e4fbdf760e01b815260006004820152602401610515565b611b9c81611fc0565b50565b3360009081526001602052604090205460ff16611bce5760405162461bcd60e51b815260040161051590612c55565b6010546001600160a01b0316338114611bf95760405162461bcd60e51b815260040161051590612c81565b611c01611d74565b6001600160a01b0382166000908152600360205260409020600b81015460ff1615611c7c5760405162461bcd60e51b815260206004820152602560248201527f526567656e657261746f7220616c72656164792066756c6c7920696e76616c6960448201526419185d195960da1b6064820152608401610515565b600b8101805460ff19166001179055611c94836122ab565b600c54604051631af0d89760e01b81526001600160a01b038581166004830152600060248301526001604483015290911690631af0d89790606401600060405180830381600087803b158015611ce957600080fd5b505af1158015611cfd573d6000803e3d6000fd5b50505050506105546001600255565b6000546001600160a01b03163314610a495760405163118cdaa760e01b8152336004820152602401610515565b6001600160a01b0390911660009081526003602081905260409091200180549115156401000000000264ff0000000019909216919091179055565b6002805403611d9657604051633ee5aeb560e01b815260040160405180910390fd5b60028055565b6001600160a01b03811660009081526003602052604081206004810180549083611dc583613199565b90915550506001600160a01b03831660009081526007602052604090205460ff16611e21576001600160a01b0383166000908152600760205260408120805460ff19166001179055600d805491611e1b83613199565b91905055505b6004015492915050565b6001600160a01b0383166000908152600360205260408120805490916001600160401b039091169003611ea05760405162461bcd60e51b815260206004820152601a60248201527f526567656e657261746f7220646f6573206e6f742065786973740000000000006044820152606401610515565b8263ffffffff16816006016000016000828254611ebd9190612d8b565b9091555050600481015460031115611ed55750505050565b600781015463ffffffff84169060ff16611f44575060078101805460ff1916600117905560068101546040516001600160a01b038616907fdf477f1abb30c779b76ead783acd2084230ef08ba1570ce9dee934c0c5b93b9d90611f3b9043815260200190565b60405180910390a25b600c546040516338e8490d60e11b81526001600160a01b038781166004830152602482018490526001600160401b0386166044830152909116906371d0921a90606401600060405180830381600087803b158015611fa157600080fd5b505af1158015611fb5573d6000803e3d6000fd5b505050505050505050565b600080546001600160a01b038381166001600160a01b0319831681178455604051919092169283917f8be0079c531659141344cd1fd0a4f28419497f9722a3daafe3b4186f6b6457e09190a35050565b60005b818110156107cc576000612028826001612d8b565b90505b8281101561212a5783838281811061204557612045612ed2565b90506020028101906120579190612f4f565b6040516020016120679190613220565b6040516020818303038152906040528051906020012084848481811061208f5761208f612ed2565b90506020028101906120a19190612f4f565b6040516020016120b19190613220565b60405160208183030381529060405280519060200120036121225760405162461bcd60e51b815260206004820152602560248201527f4475706c696361746520636f6f7264696e6174657320617265206e6f7420616c6044820152641b1bddd95960da1b6064820152608401610515565b60010161202b565b50600061219884848481811061214257612142612ed2565b90506020028101906121549190612f4f565b61215e9080612f6f565b8080601f0160208091040260200160405190810160405280939291908181526020018383808284376000920191909152506122e992505050565b905060006121d18585858181106121b1576121b1612ed2565b90506020028101906121c39190612f4f565b61215e906020810190612f6f565b9050620f42406121e381605919613276565b83121580156121fc57506121f881605a613276565b8313155b61223b5760405162461bcd60e51b815260206004820152601060248201526f496e76616c6964206c6174697475646560801b6044820152606401610515565b6122478160b319613276565b8212158015612260575061225c8160b4613276565b8213155b6122a05760405162461bcd60e51b8152602060048201526011602482015270496e76616c6964206c6f6e67697475646560781b6044820152606401610515565b505050600101612013565b6001600160a01b038116600090815260036020819052604082200154600e805463ffffffff9092169290916122e1908490612cce565b909155505050565b80516000908290158015906122ff5750601e8151105b61234b5760405162461bcd60e51b815260206004820181905260248201527f496e76616c696420636f6f7264696e61746520737472696e67206c656e6774686044820152606401610515565b60008060001990506000808460008151811061236957612369612ed2565b01602001516001600160f81b031916602d60f81b03612389575060019050805b815b85518110156124dc5760008682815181106123a8576123a8612ed2565b01602001516001600160f81b03191690506000600360fc1b82108015906123dd5750603960f81b6001600160f81b0319831611155b9050601760f91b6001600160f81b031983161481806123f95750805b6124455760405162461bcd60e51b815260206004820152601f60248201527f496e76616c69642063686172616374657220696e20636f6f7264696e617465006044820152606401610515565b80156124a457866000191461249c5760405162461bcd60e51b815260206004820152601b60248201527f4d756c7469706c6520646f747320696e20636f6f7264696e61746500000000006044820152606401610515565b8396506124d1565b86196124d1576124b9603060f885901c6132a6565b6124c489600a613276565b6124ce91906132cd565b97505b50505060010161238b565b50826000191461264a57600080806124f5866001612d8b565b90505b8751811080156125085750600682105b156125f457600088828151811061252157612521612ed2565b01602001516001600160f81b0319169050600360fc1b81108015906125545750603960f81b6001600160f81b0319821611155b6125aa5760405162461bcd60e51b815260206004820152602160248201527f496e76616c69642063686172616374657220696e20646563696d616c207061726044820152601d60fa1b6064820152608401610515565b6125b9603060f883901c6132f5565b60ff166125c785600a61330e565b6125d19190612d8b565b9350826125dd81613199565b9350505080806125ec90613199565b9150506124f8565b508161260182600a61340c565b61260b9088613276565b61261591906132cd565b955060068110156126435761262b816006612cce565b61263690600a61340c565b6126409087613276565b95505b505061265a565b61265784620f4240613276565b93505b80612665578361266e565b61266e84613418565b979650505050505050565b604051806101a0016040528060006001600160401b0316815260200160006001600160a01b031681526020016060815260200160608152602001600063ffffffff16815260200160001515815260200160008152602001600081526020016126ed6040518060200160405280600081525090565b81526020016127116040518060400160405280600015158152602001600081525090565b815260200160008152602001600081526020016000151581525090565b80356001600160a01b038116811461274557600080fd5b919050565b6000806040838503121561275d57600080fd5b6127668361272e565b91506127746020840161272e565b90509250929050565b60006020828403121561278f57600080fd5b6127988261272e565b9392505050565b803563ffffffff8116811461274557600080fd5b6001600160401b0381168114611b9c57600080fd5b6000806000606084860312156127dd57600080fd5b6127e68461272e565b92506127f46020850161279f565b91506040840135612804816127b3565b809150509250925092565b6000806040838503121561282257600080fd5b61282b8361272e565b946020939093013593505050565b6000815180845260005b8181101561285f57602081850181015186830182015201612843565b506000602082860101526020601f19601f83011685010191505092915050565b6020815260006127986020830184612839565b602081526128ac6020820183516001600160401b03169052565b600060208301516128c860408401826001600160a01b03169052565b5060408301516101c060608401526128e46101e0840182612839565b90506060840151601f198483030160808501526129018282612839565b915050608084015161291b60a085018263ffffffff169052565b5060a084015180151560c08501525060c084015160e084015260e0840151610100840152610100840151612953610120850182519052565b50610120840151805115156101408501526020810151610160850152506101408401516101808401526101608401516101a08401526101808401516106bb6101c085018215159052565b634e487b7160e01b600052604160045260246000fd5b600082601f8301126129c457600080fd5b81356001600160401b038111156129dd576129dd61299d565b604051601f8201601f19908116603f011681016001600160401b0381118282101715612a0b57612a0b61299d565b604052818152838201602001851015612a2357600080fd5b816020850160208301376000918101602001919091529392505050565b600060208284031215612a5257600080fd5b81356001600160401b03811115612a6857600080fd5b612a74848285016129b3565b949350505050565b6000602082016020835280845180835260408501915060408160051b86010192506020860160005b82811015612afc57603f198786030184528151805160408752612aca6040880182612839565b9050602082015191508681036020880152612ae58183612839565b965050506020938401939190910190600101612aa4565b50929695505050505050565b60008060008060008060a08789031215612b2157600080fd5b612b2a8761279f565b955060208701356001600160401b03811115612b4557600080fd5b612b5189828a016129b3565b95505060408701356001600160401b03811115612b6d57600080fd5b612b7989828a016129b3565b94505060608701356001600160401b03811115612b9557600080fd5b612ba189828a016129b3565b93505060808701356001600160401b03811115612bbd57600080fd5b8701601f81018913612bce57600080fd5b80356001600160401b03811115612be457600080fd5b8960208260051b8401011115612bf957600080fd5b60208201935080925050509295509295509295565b604081526000612c216040830185612839565b8281036020840152612c338185612839565b95945050505050565b600060208284031215612c4e57600080fd5b5035919050565b6020808252601290820152712737ba1030b63637bbb2b21031b0b63632b960711b604082015260600190565b6020808252601e908201527f43616c6c6572206d7573742062652073797374656d20636f6e74726163740000604082015260600190565b634e487b7160e01b600052601160045260246000fd5b81810381811115612ce157612ce1612cb8565b92915050565b600181811c90821680612cfb57607f821691505b602082108103612d1b57634e487b7160e01b600052602260045260246000fd5b50919050565b60088110612d3f57634e487b7160e01b600052602160045260246000fd5b9052565b60408101612d518285612d21565b6001600160a01b039290921660209190910152919050565b600060208284031215612d7b57600080fd5b8151801515811461279857600080fd5b80820180821115612ce157612ce1612cb8565b600060208284031215612db057600080fd5b5051919050565b601f8211156107cc57806000526020600020601f840160051c81016020851015612dde5750805b601f840160051c820191505b81811015612dfe5760008155600101612dea565b5050505050565b600019600383901b1c191660019190911b1790565b81516001600160401b03811115612e3357612e3361299d565b612e4781612e418454612ce7565b84612db7565b6020601f821160018114612e755760008315612e635750848201515b612e6d8482612e05565b855550612dfe565b600084815260208120601f198516915b82811015612ea55787850151825560209485019460019092019101612e85565b5084821015612ec35786840151600019600387901b60f8161c191681555b50505050600190811b01905550565b634e487b7160e01b600052603260045260246000fd5b60208101612ce18284612d21565b600060208284031215612f0857600080fd5b8151612798816127b3565b6001600160401b038181168382160190811115612ce157612ce1612cb8565b6001600160a01b0383168152604081016127986020830184612d21565b60008235603e19833603018112612f6557600080fd5b9190910192915050565b6000808335601e19843603018112612f8657600080fd5b8301803591506001600160401b03821115612fa057600080fd5b602001915036819003821315612fb557600080fd5b9250929050565b6001600160401b03831115612fd357612fd361299d565b612fe783612fe18354612ce7565b83612db7565b6000601f84116001811461301557600085156130035750838201355b61300d8682612e05565b845550612dfe565b600083815260209020601f19861690835b828110156130465786850135825560209485019460019092019101613026565b50868210156130635760001960f88860031b161c19848701351681555b505060018560011b0183555050505050565b61307f8283612f6f565b6001600160401b038111156130965761309661299d565b6130aa816130a48554612ce7565b85612db7565b6000601f8211600181146130d857600083156130c65750838201355b6130d08482612e05565b865550613132565b600085815260209020601f19841690835b8281101561310957868501358255602094850194600190920191016130e9565b50848210156131265760001960f88660031b161c19848701351681555b505060018360011b0185555b505050506131436020830183612f6f565b613151818360018601612fbc565b50505050565b60608152600061316a6060830186612839565b63ffffffff9490941660208301525060400152919050565b60008161319157613191612cb8565b506000190190565b6000600182016131ab576131ab612cb8565b5060010190565b6000808335601e198436030181126131c957600080fd5b83016020810192503590506001600160401b038111156131e857600080fd5b803603821315612fb557600080fd5b81835281816020850137506000828201602090810191909152601f909101601f19169091010190565b60208152600061323083846131b2565b604060208501526132456060850182846131f7565b91505061325560208501856131b2565b848303601f1901604086015261326c8382846131f7565b9695505050505050565b80820260008212600160ff1b8414161561329257613292612cb8565b8181058314821517612ce157612ce1612cb8565b81810360008312801583831316838312821617156132c6576132c6612cb8565b5092915050565b80820182811260008312801582168215821617156132ed576132ed612cb8565b505092915050565b60ff8281168282160390811115612ce157612ce1612cb8565b8082028115828204841417612ce157612ce1612cb8565b6001815b60018411156133605780850481111561334457613344612cb8565b600184161561335257908102905b60019390931c928002613329565b935093915050565b60008261337757506001612ce1565b8161338457506000612ce1565b816001811461339a57600281146133a4576133c0565b6001915050612ce1565b60ff8411156133b5576133b5612cb8565b50506001821b612ce1565b5060208310610133831016604e8410600b84101617156133e3575081810a612ce1565b6133f06000198484613325565b806000190482111561340457613404612cb8565b029392505050565b60006127988383613368565b6000600160ff1b820161342d5761342d612cb8565b506000039056fea264697066735822122081bfcc654999d75ac2c068f7f0449634ee0ff26fe270ffc47fd0ac0167173a8964736f6c634300081b0033",
  "linkReferences": {},
  "deployedLinkReferences": {}
}