{
  "_format": "hh-sol-artifact-1",
  "contractName": "RegeneratorRules",
  "sourceName": "contracts/RegeneratorRules.sol",
  "abi": [
    {
      "inputs": [
        {
          "internalType": "address",
          "name": "communityRulesAddress",
          "type": "address"
        },
        {
          "internalType": "address",
          "name": "regeneratorPoolAddress",
          "type": "address"
        }
      ],
      "stateMutability": "nonpayable",
      "type": "constructor"
    },
    {
      "anonymous": false,
      "inputs": [
        {
          "indexed": true,
          "internalType": "address",
          "name": "previousOwner",
          "type": "address"
        },
        {
          "indexed": true,
          "internalType": "address",
          "name": "newOwner",
          "type": "address"
        }
      ],
      "name": "OwnershipTransferred",
      "type": "event"
    },
    {
      "inputs": [
        {
          "internalType": "uint256",
          "name": "totalArea",
          "type": "uint256"
        },
        {
          "internalType": "string",
          "name": "name",
          "type": "string"
        },
        {
          "internalType": "string",
          "name": "proofPhoto",
          "type": "string"
        },
        {
          "components": [
            {
              "internalType": "string",
              "name": "latitude",
              "type": "string"
            },
            {
              "internalType": "string",
              "name": "longitude",
              "type": "string"
            }
          ],
          "internalType": "struct Coordinates[]",
          "name": "_coordinates",
          "type": "tuple[]"
        }
      ],
      "name": "addRegenerator",
      "outputs": [],
      "stateMutability": "nonpayable",
      "type": "function"
    },
    {
      "inputs": [
        {
          "internalType": "address",
          "name": "addr",
          "type": "address"
        }
      ],
      "name": "afterAcceptInspection",
      "outputs": [],
      "stateMutability": "nonpayable",
      "type": "function"
    },
    {
      "inputs": [
        {
          "internalType": "address",
          "name": "addr",
          "type": "address"
        },
        {
          "internalType": "uint256",
          "name": "score",
          "type": "uint256"
        }
      ],
      "name": "afterRealizeInspection",
      "outputs": [
        {
          "internalType": "uint256",
          "name": "",
          "type": "uint256"
        }
      ],
      "stateMutability": "nonpayable",
      "type": "function"
    },
    {
      "inputs": [
        {
          "internalType": "address",
          "name": "addr",
          "type": "address"
        }
      ],
      "name": "afterRequestInspection",
      "outputs": [],
      "stateMutability": "nonpayable",
      "type": "function"
    },
    {
      "inputs": [
        {
          "internalType": "address",
          "name": "",
          "type": "address"
        }
      ],
      "name": "allowedCallers",
      "outputs": [
        {
          "internalType": "bool",
          "name": "",
          "type": "bool"
        }
      ],
      "stateMutability": "view",
      "type": "function"
    },
    {
      "inputs": [
        {
          "internalType": "address",
          "name": "",
          "type": "address"
        }
      ],
      "name": "areaPhoto",
      "outputs": [
        {
          "internalType": "string",
          "name": "",
          "type": "string"
        }
      ],
      "stateMutability": "view",
      "type": "function"
    },
    {
      "inputs": [
        {
          "internalType": "address",
          "name": "",
          "type": "address"
        },
        {
          "internalType": "uint256",
          "name": "",
          "type": "uint256"
        }
      ],
      "name": "coordinates",
      "outputs": [
        {
          "internalType": "string",
          "name": "latitude",
          "type": "string"
        },
        {
          "internalType": "string",
          "name": "longitude",
          "type": "string"
        }
      ],
      "stateMutability": "view",
      "type": "function"
    },
    {
      "inputs": [
        {
          "internalType": "address",
          "name": "addr",
          "type": "address"
        }
      ],
      "name": "decrementInspections",
      "outputs": [],
      "stateMutability": "nonpayable",
      "type": "function"
    },
    {
      "inputs": [
        {
          "internalType": "address",
          "name": "addr",
          "type": "address"
        }
      ],
      "name": "getCoordinates",
      "outputs": [
        {
          "components": [
            {
              "internalType": "string",
              "name": "latitude",
              "type": "string"
            },
            {
              "internalType": "string",
              "name": "longitude",
              "type": "string"
            }
          ],
          "internalType": "struct Coordinates[]",
          "name": "",
          "type": "tuple[]"
        }
      ],
      "stateMutability": "view",
      "type": "function"
    },
    {
      "inputs": [
        {
          "internalType": "address",
          "name": "addr",
          "type": "address"
        }
      ],
      "name": "getRegenerator",
      "outputs": [
        {
          "components": [
            {
              "internalType": "uint256",
              "name": "id",
              "type": "uint256"
            },
            {
              "internalType": "address",
              "name": "regeneratorWallet",
              "type": "address"
            },
            {
              "internalType": "string",
              "name": "name",
              "type": "string"
            },
            {
              "internalType": "string",
              "name": "proofPhoto",
              "type": "string"
            },
            {
              "internalType": "uint256",
              "name": "totalArea",
              "type": "uint256"
            },
            {
              "internalType": "bool",
              "name": "pendingInspection",
              "type": "bool"
            },
            {
              "internalType": "uint256",
              "name": "totalInspections",
              "type": "uint256"
            },
            {
              "internalType": "uint256",
              "name": "lastRequestAt",
              "type": "uint256"
            },
            {
              "components": [
                {
                  "internalType": "uint256",
                  "name": "score",
                  "type": "uint256"
                }
              ],
              "internalType": "struct RegenerationScore",
              "name": "regenerationScore",
              "type": "tuple"
            },
            {
              "components": [
                {
                  "internalType": "bool",
                  "name": "onContractPool",
                  "type": "bool"
                },
                {
                  "internalType": "uint256",
                  "name": "currentEra",
                  "type": "uint256"
                }
              ],
              "internalType": "struct Pool",
              "name": "pool",
              "type": "tuple"
            },
            {
              "internalType": "uint256",
              "name": "createdAt",
              "type": "uint256"
            },
            {
              "internalType": "uint256",
              "name": "coordinatesCount",
              "type": "uint256"
            }
          ],
          "internalType": "struct Regenerator",
          "name": "regenerator",
          "type": "tuple"
        }
      ],
      "stateMutability": "view",
      "type": "function"
    },
    {
      "inputs": [
        {
          "internalType": "address",
          "name": "",
          "type": "address"
        }
      ],
      "name": "impactRegenerators",
      "outputs": [
        {
          "internalType": "bool",
          "name": "",
          "type": "bool"
        }
      ],
      "stateMutability": "view",
      "type": "function"
    },
    {
      "inputs": [
        {
          "internalType": "address",
          "name": "caller",
          "type": "address"
        }
      ],
      "name": "isAllowedCaller",
      "outputs": [
        {
          "internalType": "bool",
          "name": "",
          "type": "bool"
        }
      ],
      "stateMutability": "view",
      "type": "function"
    },
    {
      "inputs": [
        {
          "internalType": "address",
          "name": "allowed",
          "type": "address"
        }
      ],
      "name": "newAllowedCaller",
      "outputs": [],
      "stateMutability": "nonpayable",
      "type": "function"
    },
    {
      "inputs": [],
      "name": "nextEraIn",
      "outputs": [
        {
          "internalType": "uint256",
          "name": "",
          "type": "uint256"
        }
      ],
      "stateMutability": "view",
      "type": "function"
    },
    {
      "inputs": [],
      "name": "owner",
      "outputs": [
        {
          "internalType": "address",
          "name": "",
          "type": "address"
        }
      ],
      "stateMutability": "view",
      "type": "function"
    },
    {
      "inputs": [],
      "name": "poolCurrentEra",
      "outputs": [
        {
          "internalType": "uint256",
          "name": "",
          "type": "uint256"
        }
      ],
      "stateMutability": "view",
      "type": "function"
    },
    {
      "inputs": [],
      "name": "regenerationArea",
      "outputs": [
        {
          "internalType": "uint256",
          "name": "",
          "type": "uint256"
        }
      ],
      "stateMutability": "view",
      "type": "function"
    },
    {
      "inputs": [],
      "name": "regenerationTotalArea",
      "outputs": [
        {
          "internalType": "uint256",
          "name": "",
          "type": "uint256"
        }
      ],
      "stateMutability": "view",
      "type": "function"
    },
    {
      "inputs": [
        {
          "internalType": "address",
          "name": "addr",
          "type": "address"
        }
      ],
      "name": "regeneratorExists",
      "outputs": [
        {
          "internalType": "bool",
          "name": "",
          "type": "bool"
        }
      ],
      "stateMutability": "view",
      "type": "function"
    },
    {
      "inputs": [
        {
          "internalType": "address",
          "name": "",
          "type": "address"
        }
      ],
      "name": "regenerators",
      "outputs": [
        {
          "internalType": "uint256",
          "name": "id",
          "type": "uint256"
        },
        {
          "internalType": "address",
          "name": "regeneratorWallet",
          "type": "address"
        },
        {
          "internalType": "string",
          "name": "name",
          "type": "string"
        },
        {
          "internalType": "string",
          "name": "proofPhoto",
          "type": "string"
        },
        {
          "internalType": "uint256",
          "name": "totalArea",
          "type": "uint256"
        },
        {
          "internalType": "bool",
          "name": "pendingInspection",
          "type": "bool"
        },
        {
          "internalType": "uint256",
          "name": "totalInspections",
          "type": "uint256"
        },
        {
          "internalType": "uint256",
          "name": "lastRequestAt",
          "type": "uint256"
        },
        {
          "components": [
            {
              "internalType": "uint256",
              "name": "score",
              "type": "uint256"
            }
          ],
          "internalType": "struct RegenerationScore",
          "name": "regenerationScore",
          "type": "tuple"
        },
        {
          "components": [
            {
              "internalType": "bool",
              "name": "onContractPool",
              "type": "bool"
            },
            {
              "internalType": "uint256",
              "name": "currentEra",
              "type": "uint256"
            }
          ],
          "internalType": "struct Pool",
          "name": "pool",
          "type": "tuple"
        },
        {
          "internalType": "uint256",
          "name": "createdAt",
          "type": "uint256"
        },
        {
          "internalType": "uint256",
          "name": "coordinatesCount",
          "type": "uint256"
        }
      ],
      "stateMutability": "view",
      "type": "function"
    },
    {
      "inputs": [
        {
          "internalType": "uint256",
          "name": "",
          "type": "uint256"
        }
      ],
      "name": "regeneratorsAddress",
      "outputs": [
        {
          "internalType": "address",
          "name": "",
          "type": "address"
        }
      ],
      "stateMutability": "view",
      "type": "function"
    },
    {
      "inputs": [
        {
          "internalType": "address",
          "name": "addr",
          "type": "address"
        },
        {
          "internalType": "uint256",
          "name": "removeSomeLevels",
          "type": "uint256"
        }
      ],
      "name": "removePoolLevels",
      "outputs": [],
      "stateMutability": "nonpayable",
      "type": "function"
    },
    {
      "inputs": [],
      "name": "renounceOwnership",
      "outputs": [],
      "stateMutability": "nonpayable",
      "type": "function"
    },
    {
      "inputs": [],
      "name": "totalImpactRegenerators",
      "outputs": [
        {
          "internalType": "uint256",
          "name": "",
          "type": "uint256"
        }
      ],
      "stateMutability": "view",
      "type": "function"
    },
    {
      "inputs": [
        {
          "internalType": "address",
          "name": "newOwner",
          "type": "address"
        }
      ],
      "name": "transferOwnership",
      "outputs": [],
      "stateMutability": "nonpayable",
      "type": "function"
    },
    {
      "inputs": [
        {
          "internalType": "string",
          "name": "newPhoto",
          "type": "string"
        }
      ],
      "name": "updateAreaPhoto",
      "outputs": [],
      "stateMutability": "nonpayable",
      "type": "function"
    },
    {
      "inputs": [],
      "name": "withdraw",
      "outputs": [],
      "stateMutability": "nonpayable",
      "type": "function"
    }
  ],
  "bytecode": "0x608060405234801561001057600080fd5b50604051614c8a380380614c8a83398181016040528101906100329190610206565b61004e6100436100d760201b60201c565b6100df60201b60201c565b81600760006101000a81548173ffffffffffffffffffffffffffffffffffffffff021916908373ffffffffffffffffffffffffffffffffffffffff16021790555080600860006101000a81548173ffffffffffffffffffffffffffffffffffffffff021916908373ffffffffffffffffffffffffffffffffffffffff1602179055505050610246565b600033905090565b60008060009054906101000a900473ffffffffffffffffffffffffffffffffffffffff169050816000806101000a81548173ffffffffffffffffffffffffffffffffffffffff021916908373ffffffffffffffffffffffffffffffffffffffff1602179055508173ffffffffffffffffffffffffffffffffffffffff168173ffffffffffffffffffffffffffffffffffffffff167f8be0079c531659141344cd1fd0a4f28419497f9722a3daafe3b4186f6b6457e060405160405180910390a35050565b600080fd5b600073ffffffffffffffffffffffffffffffffffffffff82169050919050565b60006101d3826101a8565b9050919050565b6101e3816101c8565b81146101ee57600080fd5b50565b600081519050610200816101da565b92915050565b6000806040838503121561021d5761021c6101a3565b5b600061022b858286016101f1565b925050602061023c858286016101f1565b9150509250929050565b614a35806102556000396000f3fe608060405234801561001057600080fd5b50600436106101a95760003560e01c80637b334154116100f9578063a6bae8b011610097578063cec6df7f11610071578063cec6df7f146104ec578063e05cf15514610508578063e57637f014610526578063f2fde38b14610556576101a9565b8063a6bae8b014610481578063c3c983d21461049f578063c85a58ff146104bb576101a9565b80638ee39472116100d35780638ee39472146103e95780638f93716f1461041957806394c3cee914610435578063a680125814610451576101a9565b80637b3341541461036b57806385b5ee9b1461039b5780638da5cb5b146103cb576101a9565b80633ccfd60b11610166578063582256f111610140578063582256f1146102f757806365ab21b014610315578063715018a614610345578063778116101461034f576101a9565b80633ccfd60b146102b1578063442f9625146102bb57806345e0e89a146102d9576101a9565b8063037f944d146101ae57806318ad5c9a146101de5780631db64204146101fa578063257b4e7c146102165780632b4d8eae1461024657806330d91ee114610281575b600080fd5b6101c860048036038101906101c39190613506565b610572565b6040516101d5919061354e565b60405180910390f35b6101f860048036038101906101f3919061359f565b6105c0565b005b610214600480360381019061020f9190613506565b610a20565b005b610230600480360381019061022b9190613506565b610aba565b60405161023d919061366f565b60405180910390f35b610260600480360381019061025b9190613506565b610b5a565b6040516102789c9b9a99989796959493929190613718565b60405180910390f35b61029b6004803603810190610296919061359f565b610d3a565b6040516102a891906137e0565b60405180910390f35b6102b9610de9565b005b6102c3611280565b6040516102d091906137e0565b60405180910390f35b6102e1611286565b6040516102ee91906137e0565b60405180910390f35b6102ff611290565b60405161030c91906137e0565b60405180910390f35b61032f600480360381019061032a9190613506565b61133a565b60405161033c91906139aa565b60405180910390f35b61034d6115bc565b005b61036960048036038101906103649190613b01565b6115d0565b005b61038560048036038101906103809190613506565b611743565b604051610392919061354e565b60405180910390f35b6103b560048036038101906103b09190613506565b611763565b6040516103c2919061354e565b60405180910390f35b6103d3611783565b6040516103e09190613b4a565b60405180910390f35b61040360048036038101906103fe9190613506565b6117ac565b6040516104109190613c6b565b60405180910390f35b610433600480360381019061042e9190613506565b611c56565b005b61044f600480360381019061044a9190613506565b611cb8565b005b61046b60048036038101906104669190613506565b611d5c565b604051610478919061354e565b60405180910390f35b610489611db2565b60405161049691906137e0565b60405180910390f35b6104b960048036038101906104b49190613506565b611db8565b005b6104d560048036038101906104d0919061359f565b611fdf565b6040516104e3929190613c8d565b60405180910390f35b61050660048036038101906105019190613e3c565b612130565b005b610510612993565b60405161051d91906137e0565b60405180910390f35b610540600480360381019061053b9190613ef7565b612a2b565b60405161054d9190613b4a565b60405180910390f35b610570600480360381019061056b9190613506565b612a5e565b005b600080600260008473ffffffffffffffffffffffffffffffffffffffff1673ffffffffffffffffffffffffffffffffffffffff16815260200190815260200160002060000154119050919050565b600160003373ffffffffffffffffffffffffffffffffffffffff1673ffffffffffffffffffffffffffffffffffffffff16815260200190815260200160002060009054906101000a900460ff1661064c576040517f08c379a000000000000000000000000000000000000000000000000000000000815260040161064390613f70565b60405180910390fd5b6000600260008473ffffffffffffffffffffffffffffffffffffffff1673ffffffffffffffffffffffffffffffffffffffff16815260200190815260200160002060405180610180016040529081600082015481526020016001820160009054906101000a900473ffffffffffffffffffffffffffffffffffffffff1673ffffffffffffffffffffffffffffffffffffffff1673ffffffffffffffffffffffffffffffffffffffff16815260200160028201805461070990613fbf565b80601f016020809104026020016040519081016040528092919081815260200182805461073590613fbf565b80156107825780601f1061075757610100808354040283529160200191610782565b820191906000526020600020905b81548152906001019060200180831161076557829003601f168201915b5050505050815260200160038201805461079b90613fbf565b80601f01602080910402602001604051908101604052809291908181526020018280546107c790613fbf565b80156108145780601f106107e957610100808354040283529160200191610814565b820191906000526020600020905b8154815290600101906020018083116107f757829003601f168201915b50505050508152602001600482015481526020016005820160009054906101000a900460ff161515151581526020016006820154815260200160078201548152602001600882016040518060200160405290816000820154815250508152602001600982016040518060400160405290816000820160009054906101000a900460ff161515151581526020016001820154815250508152602001600b8201548152602001600c82015481525050905060008203610924576000600260008573ffffffffffffffffffffffffffffffffffffffff1673ffffffffffffffffffffffffffffffffffffffff1681526020019081526020016000206008016000018190555061091f83612ae1565b610981565b81600260008573ffffffffffffffffffffffffffffffffffffffff1673ffffffffffffffffffffffffffffffffffffffff1681526020019081526020016000206008016000016000828254610979919061401f565b925050819055505b600860009054906101000a900473ffffffffffffffffffffffffffffffffffffffff1673ffffffffffffffffffffffffffffffffffffffff1663157ffc528483610120015160200151856040518463ffffffff1660e01b81526004016109e993929190614053565b600060405180830381600087803b158015610a0357600080fd5b505af1158015610a17573d6000803e3d6000fd5b50505050505050565b600160003373ffffffffffffffffffffffffffffffffffffffff1673ffffffffffffffffffffffffffffffffffffffff16815260200190815260200160002060009054906101000a900460ff16610aac576040517f08c379a0000000000000000000000000000000000000000000000000000000008152600401610aa390613f70565b60405180910390fd5b610ab7816000612b3f565b50565b60066020528060005260406000206000915090508054610ad990613fbf565b80601f0160208091040260200160405190810160405280929190818152602001828054610b0590613fbf565b8015610b525780601f10610b2757610100808354040283529160200191610b52565b820191906000526020600020905b815481529060010190602001808311610b3557829003601f168201915b505050505081565b60026020528060005260406000206000915090508060000154908060010160009054906101000a900473ffffffffffffffffffffffffffffffffffffffff1690806002018054610ba990613fbf565b80601f0160208091040260200160405190810160405280929190818152602001828054610bd590613fbf565b8015610c225780601f10610bf757610100808354040283529160200191610c22565b820191906000526020600020905b815481529060010190602001808311610c0557829003601f168201915b505050505090806003018054610c3790613fbf565b80601f0160208091040260200160405190810160405280929190818152602001828054610c6390613fbf565b8015610cb05780601f10610c8557610100808354040283529160200191610cb0565b820191906000526020600020905b815481529060010190602001808311610c9357829003601f168201915b5050505050908060040154908060050160009054906101000a900460ff16908060060154908060070154908060080160405180602001604052908160008201548152505090806009016040518060400160405290816000820160009054906101000a900460ff161515151581526020016001820154815250509080600b01549080600c015490508c565b6000600160003373ffffffffffffffffffffffffffffffffffffffff1673ffffffffffffffffffffffffffffffffffffffff16815260200190815260200160002060009054906101000a900460ff16610dc8576040517f08c379a0000000000000000000000000000000000000000000000000000000008152600401610dbf90613f70565b60405180910390fd5b6000610dd384612b9d565b9050610ddf8484612d03565b8091505092915050565b600760009054906101000a900473ffffffffffffffffffffffffffffffffffffffff1673ffffffffffffffffffffffffffffffffffffffff16639497c6086001336040518363ffffffff1660e01b8152600401610e47929190614101565b602060405180830381865afa158015610e64573d6000803e3d6000fd5b505050506040513d601f19601f82011682018060405250810190610e889190614156565b610ec7576040517f08c379a0000000000000000000000000000000000000000000000000000000008152600401610ebe906141cf565b60405180910390fd5b6000600260003373ffffffffffffffffffffffffffffffffffffffff1673ffffffffffffffffffffffffffffffffffffffff16815260200190815260200160002060405180610180016040529081600082015481526020016001820160009054906101000a900473ffffffffffffffffffffffffffffffffffffffff1673ffffffffffffffffffffffffffffffffffffffff1673ffffffffffffffffffffffffffffffffffffffff168152602001600282018054610f8490613fbf565b80601f0160208091040260200160405190810160405280929190818152602001828054610fb090613fbf565b8015610ffd5780601f10610fd257610100808354040283529160200191610ffd565b820191906000526020600020905b815481529060010190602001808311610fe057829003601f168201915b5050505050815260200160038201805461101690613fbf565b80601f016020809104026020016040519081016040528092919081815260200182805461104290613fbf565b801561108f5780601f106110645761010080835404028352916020019161108f565b820191906000526020600020905b81548152906001019060200180831161107257829003601f168201915b50505050508152602001600482015481526020016005820160009054906101000a900460ff161515151581526020016006820154815260200160078201548152602001600882016040518060200160405290816000820154815250508152602001600982016040518060400160405290816000820160009054906101000a900460ff161515151581526020016001820154815250508152602001600b8201548152602001600c82015481525050905061114b8160c00151613223565b61118a576040517f08c379a00000000000000000000000000000000000000000000000000000000081526004016111819061423b565b60405180910390fd5b600260003373ffffffffffffffffffffffffffffffffffffffff1673ffffffffffffffffffffffffffffffffffffffff16815260200190815260200160002060090160010160008154809291906111e09061425b565b9190505550600860009054906101000a900473ffffffffffffffffffffffffffffffffffffffff1673ffffffffffffffffffffffffffffffffffffffff1663f3fef3a333836101200151602001516040518363ffffffff1660e01b815260040161124b9291906142a3565b600060405180830381600087803b15801561126557600080fd5b505af1158015611279573d6000803e3d6000fd5b5050505050565b600a5481565b6000600a54905090565b6000600860009054906101000a900473ffffffffffffffffffffffffffffffffffffffff1673ffffffffffffffffffffffffffffffffffffffff1663d5ee3eb56112d8612993565b6040518263ffffffff1660e01b81526004016112f491906137e0565b602060405180830381865afa158015611311573d6000803e3d6000fd5b505050506040513d601f19601f820116820180604052508101906113359190614302565b905090565b6113426133c6565b600260008373ffffffffffffffffffffffffffffffffffffffff1673ffffffffffffffffffffffffffffffffffffffff16815260200190815260200160002060405180610180016040529081600082015481526020016001820160009054906101000a900473ffffffffffffffffffffffffffffffffffffffff1673ffffffffffffffffffffffffffffffffffffffff1673ffffffffffffffffffffffffffffffffffffffff1681526020016002820180546113fd90613fbf565b80601f016020809104026020016040519081016040528092919081815260200182805461142990613fbf565b80156114765780601f1061144b57610100808354040283529160200191611476565b820191906000526020600020905b81548152906001019060200180831161145957829003601f168201915b5050505050815260200160038201805461148f90613fbf565b80601f01602080910402602001604051908101604052809291908181526020018280546114bb90613fbf565b80156115085780601f106114dd57610100808354040283529160200191611508565b820191906000526020600020905b8154815290600101906020018083116114eb57829003601f168201915b50505050508152602001600482015481526020016005820160009054906101000a900460ff161515151581526020016006820154815260200160078201548152602001600882016040518060200160405290816000820154815250508152602001600982016040518060400160405290816000820160009054906101000a900460ff161515151581526020016001820154815250508152602001600b8201548152602001600c820154815250509050919050565b6115c4613231565b6115ce60006132af565b565b600760009054906101000a900473ffffffffffffffffffffffffffffffffffffffff1673ffffffffffffffffffffffffffffffffffffffff16639497c6086001336040518363ffffffff1660e01b815260040161162e929190614101565b602060405180830381865afa15801561164b573d6000803e3d6000fd5b505050506040513d601f19601f8201168201806040525081019061166f9190614156565b6116ae576040517f08c379a00000000000000000000000000000000000000000000000000000000081526004016116a59061437b565b60405180910390fd5b6064815111156116f3576040517f08c379a00000000000000000000000000000000000000000000000000000000081526004016116ea906143e7565b60405180910390fd5b80600660003373ffffffffffffffffffffffffffffffffffffffff1673ffffffffffffffffffffffffffffffffffffffff168152602001908152602001600020908161173f91906145b3565b5050565b60016020528060005260406000206000915054906101000a900460ff1681565b60056020528060005260406000206000915054906101000a900460ff1681565b60008060009054906101000a900473ffffffffffffffffffffffffffffffffffffffff16905090565b60606000600260008473ffffffffffffffffffffffffffffffffffffffff1673ffffffffffffffffffffffffffffffffffffffff16815260200190815260200160002060405180610180016040529081600082015481526020016001820160009054906101000a900473ffffffffffffffffffffffffffffffffffffffff1673ffffffffffffffffffffffffffffffffffffffff1673ffffffffffffffffffffffffffffffffffffffff16815260200160028201805461186b90613fbf565b80601f016020809104026020016040519081016040528092919081815260200182805461189790613fbf565b80156118e45780601f106118b9576101008083540402835291602001916118e4565b820191906000526020600020905b8154815290600101906020018083116118c757829003601f168201915b505050505081526020016003820180546118fd90613fbf565b80601f016020809104026020016040519081016040528092919081815260200182805461192990613fbf565b80156119765780601f1061194b57610100808354040283529160200191611976565b820191906000526020600020905b81548152906001019060200180831161195957829003601f168201915b50505050508152602001600482015481526020016005820160009054906101000a900460ff161515151581526020016006820154815260200160078201548152602001600882016040518060200160405290816000820154815250508152602001600982016040518060400160405290816000820160009054906101000a900460ff161515151581526020016001820154815250508152602001600b8201548152602001600c820154815250509050600081610160015167ffffffffffffffff811115611a4657611a456139d6565b5b604051908082528060200260200182016040528015611a7f57816020015b611a6c61344b565b815260200190600190039081611a645790505b50905060005b826101600151811015611c4b57600460008673ffffffffffffffffffffffffffffffffffffffff1673ffffffffffffffffffffffffffffffffffffffff1681526020019081526020016000208181548110611ae357611ae2614685565b5b9060005260206000209060020201604051806040016040529081600082018054611b0c90613fbf565b80601f0160208091040260200160405190810160405280929190818152602001828054611b3890613fbf565b8015611b855780601f10611b5a57610100808354040283529160200191611b85565b820191906000526020600020905b815481529060010190602001808311611b6857829003601f168201915b50505050508152602001600182018054611b9e90613fbf565b80601f0160208091040260200160405190810160405280929190818152602001828054611bca90613fbf565b8015611c175780601f10611bec57610100808354040283529160200191611c17565b820191906000526020600020905b815481529060010190602001808311611bfa57829003601f168201915b505050505081525050828281518110611c3357611c32614685565b5b60200260200101819052508080600101915050611a85565b508092505050919050565b611c5e613231565b60018060008373ffffffffffffffffffffffffffffffffffffffff1673ffffffffffffffffffffffffffffffffffffffff16815260200190815260200160002060006101000a81548160ff02191690831515021790555050565b600160003373ffffffffffffffffffffffffffffffffffffffff1673ffffffffffffffffffffffffffffffffffffffff16815260200190815260200160002060009054906101000a900460ff16611d44576040517f08c379a0000000000000000000000000000000000000000000000000000000008152600401611d3b90613f70565b60405180910390fd5b611d4f816001612b3f565b611d598143613373565b50565b6000600160008373ffffffffffffffffffffffffffffffffffffffff1673ffffffffffffffffffffffffffffffffffffffff16815260200190815260200160002060009054906101000a900460ff169050919050565b60095481565b600160003373ffffffffffffffffffffffffffffffffffffffff1673ffffffffffffffffffffffffffffffffffffffff16815260200190815260200160002060009054906101000a900460ff16611e44576040517f08c379a0000000000000000000000000000000000000000000000000000000008152600401611e3b90613f70565b60405180910390fd5b6000600260008373ffffffffffffffffffffffffffffffffffffffff1673ffffffffffffffffffffffffffffffffffffffff1681526020019081526020016000206006015411611ec9576040517f08c379a0000000000000000000000000000000000000000000000000000000008152600401611ec090614700565b60405180910390fd5b6001600260008373ffffffffffffffffffffffffffffffffffffffff1673ffffffffffffffffffffffffffffffffffffffff1681526020019081526020016000206006015403611f845760096000815480929190611f2690614720565b91905055506000600560008373ffffffffffffffffffffffffffffffffffffffff1673ffffffffffffffffffffffffffffffffffffffff16815260200190815260200160002060006101000a81548160ff0219169083151502179055505b600260008273ffffffffffffffffffffffffffffffffffffffff1673ffffffffffffffffffffffffffffffffffffffff1681526020019081526020016000206006016000815480929190611fd790614720565b919050555050565b60046020528160005260406000208181548110611ffb57600080fd5b90600052602060002090600202016000915091505080600001805461201f90613fbf565b80601f016020809104026020016040519081016040528092919081815260200182805461204b90613fbf565b80156120985780601f1061206d57610100808354040283529160200191612098565b820191906000526020600020905b81548152906001019060200180831161207b57829003601f168201915b5050505050908060010180546120ad90613fbf565b80601f01602080910402602001604051908101604052809291908181526020018280546120d990613fbf565b80156121265780601f106120fb57610100808354040283529160200191612126565b820191906000526020600020905b81548152906001019060200180831161210957829003601f168201915b5050505050905082565b606483511115801561214457506064825111155b612183576040517f08c379a000000000000000000000000000000000000000000000000000000000815260040161217a906143e7565b60405180910390fd5b60038151101580156121975750600a815111155b6121d6576040517f08c379a00000000000000000000000000000000000000000000000000000000081526004016121cd906147bb565b60405180910390fd5b6101f484101561221b576040517f08c379a000000000000000000000000000000000000000000000000000000000815260040161221290614827565b60405180910390fd5b6000600260003373ffffffffffffffffffffffffffffffffffffffff1673ffffffffffffffffffffffffffffffffffffffff16815260200190815260200160002060405180610180016040529081600082015481526020016001820160009054906101000a900473ffffffffffffffffffffffffffffffffffffffff1673ffffffffffffffffffffffffffffffffffffffff1673ffffffffffffffffffffffffffffffffffffffff1681526020016002820180546122d890613fbf565b80601f016020809104026020016040519081016040528092919081815260200182805461230490613fbf565b80156123515780601f1061232657610100808354040283529160200191612351565b820191906000526020600020905b81548152906001019060200180831161233457829003601f168201915b5050505050815260200160038201805461236a90613fbf565b80601f016020809104026020016040519081016040528092919081815260200182805461239690613fbf565b80156123e35780601f106123b8576101008083540402835291602001916123e3565b820191906000526020600020905b8154815290600101906020018083116123c657829003601f168201915b50505050508152602001600482015481526020016005820160009054906101000a900460ff161515151581526020016006820154815260200160078201548152602001600882016040518060200160405290816000820154815250508152602001600982016040518060400160405290816000820160009054906101000a900460ff161515151581526020016001820154815250508152602001600b8201548152602001600c82015481525050905060006001600760009054906101000a900473ffffffffffffffffffffffffffffffffffffffff1673ffffffffffffffffffffffffffffffffffffffff16631eb2c12060016040518263ffffffff1660e01b81526004016124f29190614847565b602060405180830381865afa15801561250f573d6000803e3d6000fd5b505050506040513d601f19601f820116820180604052508101906125339190614877565b61253d91906148a4565b90508082600001818152505033826020019073ffffffffffffffffffffffffffffffffffffffff16908173ffffffffffffffffffffffffffffffffffffffff1681525050848260400181905250838260600181905250858260800181815250506040518060400160405280600015158152602001600860009054906101000a900473ffffffffffffffffffffffffffffffffffffffff1673ffffffffffffffffffffffffffffffffffffffff1663ed0df79e6040518163ffffffff1660e01b8152600401602060405180830381865afa15801561261e573d6000803e3d6000fd5b505050506040513d601f19601f820116820180604052508101906126429190614877565b815250826101200181905250438261014001818152505082518261016001818152505081600260003373ffffffffffffffffffffffffffffffffffffffff1673ffffffffffffffffffffffffffffffffffffffff1681526020019081526020016000206000820151816000015560208201518160010160006101000a81548173ffffffffffffffffffffffffffffffffffffffff021916908373ffffffffffffffffffffffffffffffffffffffff160217905550604082015181600201908161270b91906145b3565b50606082015181600301908161272191906145b3565b506080820151816004015560a08201518160050160006101000a81548160ff02191690831515021790555060c0820151816006015560e08201518160070155610100820151816008016000820151816000015550506101208201518160090160008201518160000160006101000a81548160ff02191690831515021790555060208201518160010155505061014082015181600b015561016082015181600c0155905050336003600083815260200190815260200160002060006101000a81548173ffffffffffffffffffffffffffffffffffffffff021916908373ffffffffffffffffffffffffffffffffffffffff160217905550600760009054906101000a900473ffffffffffffffffffffffffffffffffffffffff1673ffffffffffffffffffffffffffffffffffffffff16639c3eead93360016040518363ffffffff1660e01b81526004016128759291906148d8565b600060405180830381600087803b15801561288f57600080fd5b505af11580156128a3573d6000803e3d6000fd5b5050505085600a60008282546128b991906148a4565b9250508190555060005b835181101561298a57600460003373ffffffffffffffffffffffffffffffffffffffff1673ffffffffffffffffffffffffffffffffffffffff16815260200190815260200160002084828151811061291e5761291d614685565b5b60200260200101519080600181540180825580915050600190039060005260206000209060020201600090919091909150600082015181600001908161296491906145b3565b50602082015181600101908161297a91906145b3565b50505080806001019150506128c3565b50505050505050565b6000600860009054906101000a900473ffffffffffffffffffffffffffffffffffffffff1673ffffffffffffffffffffffffffffffffffffffff1663ed0df79e6040518163ffffffff1660e01b8152600401602060405180830381865afa158015612a02573d6000803e3d6000fd5b505050506040513d601f19601f82011682018060405250810190612a269190614877565b905090565b60036020528060005260406000206000915054906101000a900473ffffffffffffffffffffffffffffffffffffffff1681565b612a66613231565b600073ffffffffffffffffffffffffffffffffffffffff168173ffffffffffffffffffffffffffffffffffffffff1603612ad5576040517f08c379a0000000000000000000000000000000000000000000000000000000008152600401612acc90614973565b60405180910390fd5b612ade816132af565b50565b600260008273ffffffffffffffffffffffffffffffffffffffff1673ffffffffffffffffffffffffffffffffffffffff16815260200190815260200160002060040154600a6000828254612b35919061401f565b9250508190555050565b80600260008473ffffffffffffffffffffffffffffffffffffffff1673ffffffffffffffffffffffffffffffffffffffff16815260200190815260200160002060050160006101000a81548160ff0219169083151502179055505050565b6000600260008373ffffffffffffffffffffffffffffffffffffffff1673ffffffffffffffffffffffffffffffffffffffff1681526020019081526020016000206006016000815480929190612bf29061425b565b9190505550600560008373ffffffffffffffffffffffffffffffffffffffff1673ffffffffffffffffffffffffffffffffffffffff16815260200190815260200160002060009054906101000a900460ff16612cb9576001600560008473ffffffffffffffffffffffffffffffffffffffff1673ffffffffffffffffffffffffffffffffffffffff16815260200190815260200160002060006101000a81548160ff02191690831515021790555060096000815480929190612cb39061425b565b91905055505b600260008373ffffffffffffffffffffffffffffffffffffffff1673ffffffffffffffffffffffffffffffffffffffff168152602001908152602001600020600601549050919050565b6000600260008473ffffffffffffffffffffffffffffffffffffffff1673ffffffffffffffffffffffffffffffffffffffff16815260200190815260200160002060405180610180016040529081600082015481526020016001820160009054906101000a900473ffffffffffffffffffffffffffffffffffffffff1673ffffffffffffffffffffffffffffffffffffffff1673ffffffffffffffffffffffffffffffffffffffff168152602001600282018054612dc090613fbf565b80601f0160208091040260200160405190810160405280929190818152602001828054612dec90613fbf565b8015612e395780601f10612e0e57610100808354040283529160200191612e39565b820191906000526020600020905b815481529060010190602001808311612e1c57829003601f168201915b50505050508152602001600382018054612e5290613fbf565b80601f0160208091040260200160405190810160405280929190818152602001828054612e7e90613fbf565b8015612ecb5780601f10612ea057610100808354040283529160200191612ecb565b820191906000526020600020905b815481529060010190602001808311612eae57829003601f168201915b50505050508152602001600482015481526020016005820160009054906101000a900460ff161515151581526020016006820154815260200160078201548152602001600882016040518060200160405290816000820154815250508152602001600982016040518060400160405290816000820160009054906101000a900460ff161515151581526020016001820154815250508152602001600b8201548152602001600c82015481525050905081816101000151600001818151612f9191906148a4565b9150818152505080600260008573ffffffffffffffffffffffffffffffffffffffff1673ffffffffffffffffffffffffffffffffffffffff1681526020019081526020016000206000820151816000015560208201518160010160006101000a81548173ffffffffffffffffffffffffffffffffffffffff021916908373ffffffffffffffffffffffffffffffffffffffff160217905550604082015181600201908161303e91906145b3565b50606082015181600301908161305491906145b3565b506080820151816004015560a08201518160050160006101000a81548160ff02191690831515021790555060c0820151816006015560e08201518160070155610100820151816008016000820151816000015550506101208201518160090160008201518160000160006101000a81548160ff02191690831515021790555060208201518160010155505061014082015181600b015561016082015181600c01559050506131058160c00151613223565b61310f575061321f565b60008290508161012001516000015161318d576001600260008673ffffffffffffffffffffffffffffffffffffffff1673ffffffffffffffffffffffffffffffffffffffff16815260200190815260200160002060090160000160006101000a81548160ff0219169083151502179055508161010001516000015190505b600860009054906101000a900473ffffffffffffffffffffffffffffffffffffffff1673ffffffffffffffffffffffffffffffffffffffff166352b8d3ed85836040518363ffffffff1660e01b81526004016131ea9291906142a3565b600060405180830381600087803b15801561320457600080fd5b505af1158015613218573d6000803e3d6000fd5b5050505050505b5050565b600060038210159050919050565b6132396133be565b73ffffffffffffffffffffffffffffffffffffffff16613257611783565b73ffffffffffffffffffffffffffffffffffffffff16146132ad576040517f08c379a00000000000000000000000000000000000000000000000000000000081526004016132a4906149df565b60405180910390fd5b565b60008060009054906101000a900473ffffffffffffffffffffffffffffffffffffffff169050816000806101000a81548173ffffffffffffffffffffffffffffffffffffffff021916908373ffffffffffffffffffffffffffffffffffffffff1602179055508173ffffffffffffffffffffffffffffffffffffffff168173ffffffffffffffffffffffffffffffffffffffff167f8be0079c531659141344cd1fd0a4f28419497f9722a3daafe3b4186f6b6457e060405160405180910390a35050565b80600260008473ffffffffffffffffffffffffffffffffffffffff1673ffffffffffffffffffffffffffffffffffffffff168152602001908152602001600020600701819055505050565b600033905090565b60405180610180016040528060008152602001600073ffffffffffffffffffffffffffffffffffffffff168152602001606081526020016060815260200160008152602001600015158152602001600081526020016000815260200161342a613465565b8152602001613437613478565b815260200160008152602001600081525090565b604051806040016040528060608152602001606081525090565b6040518060200160405280600081525090565b6040518060400160405280600015158152602001600081525090565b6000604051905090565b600080fd5b600080fd5b600073ffffffffffffffffffffffffffffffffffffffff82169050919050565b60006134d3826134a8565b9050919050565b6134e3816134c8565b81146134ee57600080fd5b50565b600081359050613500816134da565b92915050565b60006020828403121561351c5761351b61349e565b5b600061352a848285016134f1565b91505092915050565b60008115159050919050565b61354881613533565b82525050565b6000602082019050613563600083018461353f565b92915050565b6000819050919050565b61357c81613569565b811461358757600080fd5b50565b60008135905061359981613573565b92915050565b600080604083850312156135b6576135b561349e565b5b60006135c4858286016134f1565b92505060206135d58582860161358a565b9150509250929050565b600081519050919050565b600082825260208201905092915050565b60005b838110156136195780820151818401526020810190506135fe565b60008484015250505050565b6000601f19601f8301169050919050565b6000613641826135df565b61364b81856135ea565b935061365b8185602086016135fb565b61366481613625565b840191505092915050565b600060208201905081810360008301526136898184613636565b905092915050565b61369a81613569565b82525050565b6136a9816134c8565b82525050565b6136b881613569565b82525050565b6020820160008201516136d460008501826136af565b50505050565b6136e381613533565b82525050565b6040820160008201516136ff60008501826136da565b50602082015161371260208501826136af565b50505050565b60006101a08201905061372e600083018f613691565b61373b602083018e6136a0565b818103604083015261374d818d613636565b90508181036060830152613761818c613636565b9050613770608083018b613691565b61377d60a083018a61353f565b61378a60c0830189613691565b61379760e0830188613691565b6137a56101008301876136be565b6137b36101208301866136e9565b6137c1610160830185613691565b6137cf610180830184613691565b9d9c50505050505050505050505050565b60006020820190506137f56000830184613691565b92915050565b613804816134c8565b82525050565b600082825260208201905092915050565b6000613826826135df565b613830818561380a565b93506138408185602086016135fb565b61384981613625565b840191505092915050565b60208201600082015161386a60008501826136af565b50505050565b60408201600082015161388660008501826136da565b50602082015161389960208501826136af565b50505050565b60006101a0830160008301516138b860008601826136af565b5060208301516138cb60208601826137fb565b50604083015184820360408601526138e3828261381b565b915050606083015184820360608601526138fd828261381b565b915050608083015161391260808601826136af565b5060a083015161392560a08601826136da565b5060c083015161393860c08601826136af565b5060e083015161394b60e08601826136af565b50610100830151613960610100860182613854565b50610120830151613975610120860182613870565b5061014083015161398a6101608601826136af565b5061016083015161399f6101808601826136af565b508091505092915050565b600060208201905081810360008301526139c4818461389f565b905092915050565b600080fd5b600080fd5b7f4e487b7100000000000000000000000000000000000000000000000000000000600052604160045260246000fd5b613a0e82613625565b810181811067ffffffffffffffff82111715613a2d57613a2c6139d6565b5b80604052505050565b6000613a40613494565b9050613a4c8282613a05565b919050565b600067ffffffffffffffff821115613a6c57613a6b6139d6565b5b613a7582613625565b9050602081019050919050565b82818337600083830152505050565b6000613aa4613a9f84613a51565b613a36565b905082815260208101848484011115613ac057613abf6139d1565b5b613acb848285613a82565b509392505050565b600082601f830112613ae857613ae76139cc565b5b8135613af8848260208601613a91565b91505092915050565b600060208284031215613b1757613b1661349e565b5b600082013567ffffffffffffffff811115613b3557613b346134a3565b5b613b4184828501613ad3565b91505092915050565b6000602082019050613b5f60008301846136a0565b92915050565b600081519050919050565b600082825260208201905092915050565b6000819050602082019050919050565b60006040830160008301518482036000860152613bae828261381b565b91505060208301518482036020860152613bc8828261381b565b9150508091505092915050565b6000613be18383613b91565b905092915050565b6000602082019050919050565b6000613c0182613b65565b613c0b8185613b70565b935083602082028501613c1d85613b81565b8060005b85811015613c595784840389528151613c3a8582613bd5565b9450613c4583613be9565b925060208a01995050600181019050613c21565b50829750879550505050505092915050565b60006020820190508181036000830152613c858184613bf6565b905092915050565b60006040820190508181036000830152613ca78185613636565b90508181036020830152613cbb8184613636565b90509392505050565b600067ffffffffffffffff821115613cdf57613cde6139d6565b5b602082029050602081019050919050565b600080fd5b600080fd5b600080fd5b600060408284031215613d1557613d14613cf5565b5b613d1f6040613a36565b9050600082013567ffffffffffffffff811115613d3f57613d3e613cfa565b5b613d4b84828501613ad3565b600083015250602082013567ffffffffffffffff811115613d6f57613d6e613cfa565b5b613d7b84828501613ad3565b60208301525092915050565b6000613d9a613d9584613cc4565b613a36565b90508083825260208201905060208402830185811115613dbd57613dbc613cf0565b5b835b81811015613e0457803567ffffffffffffffff811115613de257613de16139cc565b5b808601613def8982613cff565b85526020850194505050602081019050613dbf565b5050509392505050565b600082601f830112613e2357613e226139cc565b5b8135613e33848260208601613d87565b91505092915050565b60008060008060808587031215613e5657613e5561349e565b5b6000613e648782880161358a565b945050602085013567ffffffffffffffff811115613e8557613e846134a3565b5b613e9187828801613ad3565b935050604085013567ffffffffffffffff811115613eb257613eb16134a3565b5b613ebe87828801613ad3565b925050606085013567ffffffffffffffff811115613edf57613ede6134a3565b5b613eeb87828801613e0e565b91505092959194509250565b600060208284031215613f0d57613f0c61349e565b5b6000613f1b8482850161358a565b91505092915050565b7f4e6f7420616c6c6f7765642063616c6c65720000000000000000000000000000600082015250565b6000613f5a6012836135ea565b9150613f6582613f24565b602082019050919050565b60006020820190508181036000830152613f8981613f4d565b9050919050565b7f4e487b7100000000000000000000000000000000000000000000000000000000600052602260045260246000fd5b60006002820490506001821680613fd757607f821691505b602082108103613fea57613fe9613f90565b5b50919050565b7f4e487b7100000000000000000000000000000000000000000000000000000000600052601160045260246000fd5b600061402a82613569565b915061403583613569565b925082820390508181111561404d5761404c613ff0565b5b92915050565b600060608201905061406860008301866136a0565b6140756020830185613691565b6140826040830184613691565b949350505050565b7f4e487b7100000000000000000000000000000000000000000000000000000000600052602160045260246000fd5b600981106140ca576140c961408a565b5b50565b60008190506140db826140b9565b919050565b60006140eb826140cd565b9050919050565b6140fb816140e0565b82525050565b600060408201905061411660008301856140f2565b61412360208301846136a0565b9392505050565b61413381613533565b811461413e57600080fd5b50565b6000815190506141508161412a565b92915050565b60006020828403121561416c5761416b61349e565b5b600061417a84828501614141565b91505092915050565b7f4f6e6c7920726567656e657261746f727320706f6f6c00000000000000000000600082015250565b60006141b96016836135ea565b91506141c482614183565b602082019050919050565b600060208201905081810360008301526141e8816141ac565b9050919050565b7f4d696e696d756d20696e7370656374696f6e7300000000000000000000000000600082015250565b60006142256013836135ea565b9150614230826141ef565b602082019050919050565b6000602082019050818103600083015261425481614218565b9050919050565b600061426682613569565b91507fffffffffffffffffffffffffffffffffffffffffffffffffffffffffffffffff820361429857614297613ff0565b5b600182019050919050565b60006040820190506142b860008301856136a0565b6142c56020830184613691565b9392505050565b6000819050919050565b6142df816142cc565b81146142ea57600080fd5b50565b6000815190506142fc816142d6565b92915050565b6000602082840312156143185761431761349e565b5b6000614326848285016142ed565b91505092915050565b7f4f6e6c7920726567656e657261746f7273000000000000000000000000000000600082015250565b60006143656011836135ea565b91506143708261432f565b602082019050919050565b6000602082019050818103600083015261439481614358565b9050919050565b7f4d61782031303020636861726163746572730000000000000000000000000000600082015250565b60006143d16012836135ea565b91506143dc8261439b565b602082019050919050565b60006020820190508181036000830152614400816143c4565b9050919050565b60008190508160005260206000209050919050565b60006020601f8301049050919050565b600082821b905092915050565b6000600883026144697fffffffffffffffffffffffffffffffffffffffffffffffffffffffffffffffff8261442c565b614473868361442c565b95508019841693508086168417925050509392505050565b6000819050919050565b60006144b06144ab6144a684613569565b61448b565b613569565b9050919050565b6000819050919050565b6144ca83614495565b6144de6144d6826144b7565b848454614439565b825550505050565b600090565b6144f36144e6565b6144fe8184846144c1565b505050565b5b81811015614522576145176000826144eb565b600181019050614504565b5050565b601f8211156145675761453881614407565b6145418461441c565b81016020851015614550578190505b61456461455c8561441c565b830182614503565b50505b505050565b600082821c905092915050565b600061458a6000198460080261456c565b1980831691505092915050565b60006145a38383614579565b9150826002028217905092915050565b6145bc826135df565b67ffffffffffffffff8111156145d5576145d46139d6565b5b6145df8254613fbf565b6145ea828285614526565b600060209050601f83116001811461461d576000841561460b578287015190505b6146158582614597565b86555061467d565b601f19841661462b86614407565b60005b828110156146535784890151825560018201915060208501945060208101905061462e565b86831015614670578489015161466c601f891682614579565b8355505b6001600288020188555050505b505050505050565b7f4e487b7100000000000000000000000000000000000000000000000000000000600052603260045260246000fd5b7f746f74616c496e7370656374696f6e7320696e76616c69640000000000000000600082015250565b60006146ea6018836135ea565b91506146f5826146b4565b602082019050919050565b60006020820190508181036000830152614719816146dd565b9050919050565b600061472b82613569565b91506000820361473e5761473d613ff0565b5b600182039050919050565b7f4d696e696d756d203320616e64206d6178696d756d20313020636f6f7264696e60008201527f61746520706f696e747300000000000000000000000000000000000000000000602082015250565b60006147a5602a836135ea565b91506147b082614749565b604082019050919050565b600060208201905081810360008301526147d481614798565b9050919050565b7f4d696e696d756d2035303020737175617265206d657465727300000000000000600082015250565b60006148116019836135ea565b915061481c826147db565b602082019050919050565b6000602082019050818103600083015261484081614804565b9050919050565b600060208201905061485c60008301846140f2565b92915050565b60008151905061487181613573565b92915050565b60006020828403121561488d5761488c61349e565b5b600061489b84828501614862565b91505092915050565b60006148af82613569565b91506148ba83613569565b92508282019050808211156148d2576148d1613ff0565b5b92915050565b60006040820190506148ed60008301856136a0565b6148fa60208301846140f2565b9392505050565b7f4f776e61626c653a206e6577206f776e657220697320746865207a65726f206160008201527f6464726573730000000000000000000000000000000000000000000000000000602082015250565b600061495d6026836135ea565b915061496882614901565b604082019050919050565b6000602082019050818103600083015261498c81614950565b9050919050565b7f4f776e61626c653a2063616c6c6572206973206e6f7420746865206f776e6572600082015250565b60006149c96020836135ea565b91506149d482614993565b602082019050919050565b600060208201905081810360008301526149f8816149bc565b905091905056fea2646970667358221220ed299d8f1402da0d2a083409b52757213a5e9bd946e0df5c56ba54c8811f4f9164736f6c634300081b0033",
  "linkReferences": {},
  "deployedLinkReferences": {}
}