{
  "_format": "hh-sol-artifact-1",
  "contractName": "RegenerationCreditImpact",
  "sourceName": "contracts/RegenerationCreditImpact.sol",
  "abi": [
    {
      "inputs": [
        {
          "internalType": "address",
          "name": "regenerationCreditAddress",
          "type": "address"
        },
        {
          "internalType": "address",
          "name": "inspectionRulesAddress",
          "type": "address"
        },
        {
          "internalType": "address",
          "name": "regeneratorRulesAddress",
          "type": "address"
        }
      ],
      "stateMutability": "nonpayable",
      "type": "constructor"
    },
    {
      "inputs": [],
      "name": "CARBON_PER_TREE",
      "outputs": [
        {
          "internalType": "uint256",
          "name": "",
          "type": "uint256"
        }
      ],
      "stateMutability": "view",
      "type": "function"
    },
    {
      "inputs": [],
      "name": "areaPerToken",
      "outputs": [
        {
          "internalType": "uint256",
          "name": "",
          "type": "uint256"
        }
      ],
      "stateMutability": "view",
      "type": "function"
    },
    {
      "inputs": [],
      "name": "biodiversityPerToken",
      "outputs": [
        {
          "internalType": "uint256",
          "name": "",
          "type": "uint256"
        }
      ],
      "stateMutability": "view",
      "type": "function"
    },
    {
      "inputs": [],
      "name": "carbonPerToken",
      "outputs": [
        {
          "internalType": "uint256",
          "name": "",
          "type": "uint256"
        }
      ],
      "stateMutability": "view",
      "type": "function"
    },
    {
      "inputs": [],
      "name": "totalAreaImpact",
      "outputs": [
        {
          "internalType": "uint256",
          "name": "",
          "type": "uint256"
        }
      ],
      "stateMutability": "view",
      "type": "function"
    },
    {
      "inputs": [],
      "name": "totalBiodiversityImpact",
      "outputs": [
        {
          "internalType": "uint256",
          "name": "",
          "type": "uint256"
        }
      ],
      "stateMutability": "view",
      "type": "function"
    },
    {
      "inputs": [],
      "name": "totalCarbonImpact",
      "outputs": [
        {
          "internalType": "uint256",
          "name": "",
          "type": "uint256"
        }
      ],
      "stateMutability": "view",
      "type": "function"
    },
    {
      "inputs": [],
      "name": "totalTreesImpact",
      "outputs": [
        {
          "internalType": "uint256",
          "name": "",
          "type": "uint256"
        }
      ],
      "stateMutability": "view",
      "type": "function"
    },
    {
      "inputs": [],
      "name": "treesPerToken",
      "outputs": [
        {
          "internalType": "uint256",
          "name": "",
          "type": "uint256"
        }
      ],
      "stateMutability": "view",
      "type": "function"
    }
  ],
  "bytecode": "0x6080604052348015600f57600080fd5b5060405161098d38038061098d833981016040819052602c916088565b600080546001600160a01b039485166001600160a01b03199182161790915560018054938516938216939093179092556002805491909316911617905560c4565b80516001600160a01b0381168114608357600080fd5b919050565b600080600060608486031215609c57600080fd5b60a384606d565b925060af60208501606d565b915060bb60408501606d565b90509250925092565b6108ba806100d36000396000f3fe608060405234801561001057600080fd5b50600436106100935760003560e01c8063940cd0d411610066578063940cd0d4146100ca578063b0bc3d43146100d2578063d90d4a6c146100dc578063ecfdff32146100e4578063f753ddf6146100ec57600080fd5b8063305407101461009857806353eb0419146100b257806364ecc25b146100ba578063787822c3146100c2575b600080fd5b6100a06100f4565b60405190815260200160405180910390f35b6100a0610144565b6100a061017a565b6100a0610387565b6100a0610557565b6100a0620186a081565b6100a061058d565b6100a06105c3565b6100a0610631565b6000806100ff610649565b90508060000361011157600091505090565b806ec097ce7bc90715b34b9f100000000061012a61017a565b61013491906107d5565b61013e91906107f2565b91505090565b60008061014f610649565b90508060000361016157600091505090565b806ec097ce7bc90715b34b9f100000000061012a610387565b600154604080516305b4af4d60e21b815290516000926001600160a01b0316916316d2bd349160048083019260209291908290030181865afa1580156101c4573d6000803e3d6000fd5b505050506040513d601f19601f820116820180604052508101906101e89190610814565b67ffffffffffffffff166000036101ff5750600090565b600160009054906101000a90046001600160a01b03166001600160a01b03166316d2bd346040518163ffffffff1660e01b8152600401602060405180830381865afa158015610252573d6000803e3d6000fd5b505050506040513d601f19601f820116820180604052508101906102769190610814565b67ffffffffffffffff16600260009054906101000a90046001600160a01b03166001600160a01b031663a6bae8b06040518163ffffffff1660e01b8152600401602060405180830381865afa1580156102d3573d6000803e3d6000fd5b505050506040513d601f19601f820116820180604052508101906102f79190610845565b600160009054906101000a90046001600160a01b03166001600160a01b031663a2b570a46040518163ffffffff1660e01b8152600401602060405180830381865afa15801561034a573d6000803e3d6000fd5b505050506040513d601f19601f8201168201806040525081019061036e9190610845565b61037891906107d5565b61038291906107f2565b905090565b600154604080516305b4af4d60e21b815290516000926001600160a01b0316916316d2bd349160048083019260209291908290030181865afa1580156103d1573d6000803e3d6000fd5b505050506040513d601f19601f820116820180604052508101906103f59190610814565b67ffffffffffffffff1660000361040c5750600090565b600160009054906101000a90046001600160a01b03166001600160a01b03166316d2bd346040518163ffffffff1660e01b8152600401602060405180830381865afa15801561045f573d6000803e3d6000fd5b505050506040513d601f19601f820116820180604052508101906104839190610814565b67ffffffffffffffff16600260009054906101000a90046001600160a01b03166001600160a01b031663a6bae8b06040518163ffffffff1660e01b8152600401602060405180830381865afa1580156104e0573d6000803e3d6000fd5b505050506040513d601f19601f820116820180604052508101906105049190610845565b600160009054906101000a90046001600160a01b03166001600160a01b031663ed8f93216040518163ffffffff1660e01b8152600401602060405180830381865afa15801561034a573d6000803e3d6000fd5b600080610562610649565b90508060000361057457600091505090565b806ec097ce7bc90715b34b9f100000000061012a6105c3565b600080610598610649565b9050806000036105aa57600091505090565b806ec097ce7bc90715b34b9f100000000061012a610631565b6002546040805163442f962560e01b815290516000926001600160a01b03169163442f96259160048083019260209291908290030181865afa15801561060d573d6000803e3d6000fd5b505050506040513d601f19601f820116820180604052508101906103829190610845565b6000620186a061063f610387565b61038291906107d5565b60008060009054906101000a90046001600160a01b03166001600160a01b03166349d627766040518163ffffffff1660e01b8152600401602060405180830381865afa15801561069d573d6000803e3d6000fd5b505050506040513d601f19601f820116820180604052508101906106c19190610845565b60008054906101000a90046001600160a01b03166001600160a01b0316630ed944c36040518163ffffffff1660e01b8152600401602060405180830381865afa158015610712573d6000803e3d6000fd5b505050506040513d601f19601f820116820180604052508101906107369190610845565b60008054906101000a90046001600160a01b03166001600160a01b03166318160ddd6040518163ffffffff1660e01b8152600401602060405180830381865afa158015610787573d6000803e3d6000fd5b505050506040513d601f19601f820116820180604052508101906107ab9190610845565b6107b5919061085e565b6103829190610871565b634e487b7160e01b600052601160045260246000fd5b80820281158282048414176107ec576107ec6107bf565b92915050565b60008261080f57634e487b7160e01b600052601260045260246000fd5b500490565b60006020828403121561082657600080fd5b815167ffffffffffffffff8116811461083e57600080fd5b9392505050565b60006020828403121561085757600080fd5b5051919050565b808201808211156107ec576107ec6107bf565b818103818111156107ec576107ec6107bf56fea26469706673582212209c50eb6931b6575913dd2c84f171347fce64406b71338c94870b699556d8ea5164736f6c634300081b0033",
  "linkReferences": {},
  "deployedLinkReferences": {}
}