{
  "_format": "hh-sol-artifact-1",
  "contractName": "ResearcherRules",
  "sourceName": "contracts/ResearcherRules.sol",
  "abi": [
    {
      "inputs": [
        {
          "internalType": "uint256",
          "name": "timeBetweenWorks_",
          "type": "uint256"
        },
        {
          "internalType": "uint256",
          "name": "maxPenalties_",
          "type": "uint256"
        },
        {
          "internalType": "uint256",
          "name": "securityBlocksToValidatorAnalysis",
          "type": "uint256"
        }
      ],
      "stateMutability": "nonpayable",
      "type": "constructor"
    },
    {
      "anonymous": false,
      "inputs": [
        {
          "indexed": true,
          "internalType": "address",
          "name": "previousOwner",
          "type": "address"
        },
        {
          "indexed": true,
          "internalType": "address",
          "name": "newOwner",
          "type": "address"
        }
      ],
      "name": "OwnershipTransferred",
      "type": "event"
    },
    {
      "inputs": [],
      "name": "MAX_PENALTIES",
      "outputs": [
        {
          "internalType": "uint256",
          "name": "",
          "type": "uint256"
        }
      ],
      "stateMutability": "view",
      "type": "function"
    },
    {
      "inputs": [],
      "name": "SECURITY_BLOCKS_TO_VALIDATOR_ANALYSIS",
      "outputs": [
        {
          "internalType": "uint256",
          "name": "",
          "type": "uint256"
        }
      ],
      "stateMutability": "view",
      "type": "function"
    },
    {
      "inputs": [
        {
          "internalType": "string",
          "name": "title",
          "type": "string"
        },
        {
          "internalType": "string",
          "name": "unit",
          "type": "string"
        },
        {
          "internalType": "string",
          "name": "justification",
          "type": "string"
        },
        {
          "internalType": "uint256",
          "name": "carbonImpact",
          "type": "uint256"
        }
      ],
      "name": "addCalculatorItem",
      "outputs": [],
      "stateMutability": "nonpayable",
      "type": "function"
    },
    {
      "inputs": [
        {
          "internalType": "string",
          "name": "title",
          "type": "string"
        },
        {
          "internalType": "string",
          "name": "research",
          "type": "string"
        },
        {
          "internalType": "string",
          "name": "projectURL",
          "type": "string"
        }
      ],
      "name": "addEvaluationMethod",
      "outputs": [],
      "stateMutability": "nonpayable",
      "type": "function"
    },
    {
      "inputs": [
        {
          "internalType": "address",
          "name": "addr",
          "type": "address"
        },
        {
          "internalType": "uint256",
          "name": "researchId",
          "type": "uint256"
        }
      ],
      "name": "addPenalty",
      "outputs": [
        {
          "internalType": "uint256",
          "name": "",
          "type": "uint256"
        }
      ],
      "stateMutability": "nonpayable",
      "type": "function"
    },
    {
      "inputs": [
        {
          "internalType": "string",
          "name": "title",
          "type": "string"
        },
        {
          "internalType": "string",
          "name": "thesis",
          "type": "string"
        },
        {
          "internalType": "string",
          "name": "file",
          "type": "string"
        }
      ],
      "name": "addResearch",
      "outputs": [],
      "stateMutability": "nonpayable",
      "type": "function"
    },
    {
      "inputs": [
        {
          "internalType": "uint256",
          "name": "id",
          "type": "uint256"
        },
        {
          "internalType": "string",
          "name": "justification",
          "type": "string"
        }
      ],
      "name": "addResearchValidation",
      "outputs": [],
      "stateMutability": "nonpayable",
      "type": "function"
    },
    {
      "inputs": [
        {
          "internalType": "string",
          "name": "name",
          "type": "string"
        },
        {
          "internalType": "string",
          "name": "proofPhoto",
          "type": "string"
        }
      ],
      "name": "addResearcher",
      "outputs": [],
      "stateMutability": "nonpayable",
      "type": "function"
    },
    {
      "inputs": [
        {
          "internalType": "address",
          "name": "",
          "type": "address"
        }
      ],
      "name": "allowedCallers",
      "outputs": [
        {
          "internalType": "bool",
          "name": "",
          "type": "bool"
        }
      ],
      "stateMutability": "view",
      "type": "function"
    },
    {
      "inputs": [
        {
          "internalType": "uint256",
          "name": "",
          "type": "uint256"
        }
      ],
      "name": "calculatorItems",
      "outputs": [
        {
          "internalType": "uint256",
          "name": "id",
          "type": "uint256"
        },
        {
          "internalType": "address",
          "name": "createdBy",
          "type": "address"
        },
        {
          "internalType": "string",
          "name": "title",
          "type": "string"
        },
        {
          "internalType": "string",
          "name": "unit",
          "type": "string"
        },
        {
          "internalType": "string",
          "name": "justification",
          "type": "string"
        },
        {
          "internalType": "uint256",
          "name": "carbonImpact",
          "type": "uint256"
        }
      ],
      "stateMutability": "view",
      "type": "function"
    },
    {
      "inputs": [],
      "name": "calculatorItemsCount",
      "outputs": [
        {
          "internalType": "uint256",
          "name": "",
          "type": "uint256"
        }
      ],
      "stateMutability": "view",
      "type": "function"
    },
    {
      "inputs": [
        {
          "internalType": "uint256",
          "name": "totalLevels",
          "type": "uint256"
        },
        {
          "internalType": "uint256",
          "name": "totalUsers",
          "type": "uint256"
        },
        {
          "internalType": "uint256",
          "name": "userLevels",
          "type": "uint256"
        }
      ],
      "name": "canInvite",
      "outputs": [
        {
          "internalType": "bool",
          "name": "",
          "type": "bool"
        }
      ],
      "stateMutability": "pure",
      "type": "function"
    },
    {
      "inputs": [
        {
          "internalType": "address",
          "name": "addr",
          "type": "address"
        }
      ],
      "name": "canSendInvite",
      "outputs": [
        {
          "internalType": "bool",
          "name": "",
          "type": "bool"
        }
      ],
      "stateMutability": "view",
      "type": "function"
    },
    {
      "inputs": [
        {
          "internalType": "uint256",
          "name": "",
          "type": "uint256"
        }
      ],
      "name": "evaluationMethods",
      "outputs": [
        {
          "internalType": "uint256",
          "name": "id",
          "type": "uint256"
        },
        {
          "internalType": "address",
          "name": "createdBy",
          "type": "address"
        },
        {
          "internalType": "string",
          "name": "title",
          "type": "string"
        },
        {
          "internalType": "string",
          "name": "research",
          "type": "string"
        },
        {
          "internalType": "string",
          "name": "projectURL",
          "type": "string"
        }
      ],
      "stateMutability": "view",
      "type": "function"
    },
    {
      "inputs": [],
      "name": "evaluationMethodsCount",
      "outputs": [
        {
          "internalType": "uint256",
          "name": "",
          "type": "uint256"
        }
      ],
      "stateMutability": "view",
      "type": "function"
    },
    {
      "inputs": [
        {
          "internalType": "uint256",
          "name": "id",
          "type": "uint256"
        }
      ],
      "name": "getCalculatorItem",
      "outputs": [
        {
          "components": [
            {
              "internalType": "uint256",
              "name": "id",
              "type": "uint256"
            },
            {
              "internalType": "address",
              "name": "createdBy",
              "type": "address"
            },
            {
              "internalType": "string",
              "name": "title",
              "type": "string"
            },
            {
              "internalType": "string",
              "name": "unit",
              "type": "string"
            },
            {
              "internalType": "string",
              "name": "justification",
              "type": "string"
            },
            {
              "internalType": "uint256",
              "name": "carbonImpact",
              "type": "uint256"
            }
          ],
          "internalType": "struct CalculatorItem",
          "name": "",
          "type": "tuple"
        }
      ],
      "stateMutability": "view",
      "type": "function"
    },
    {
      "inputs": [
        {
          "internalType": "uint256",
          "name": "id",
          "type": "uint256"
        }
      ],
      "name": "getResearch",
      "outputs": [
        {
          "components": [
            {
              "internalType": "uint256",
              "name": "id",
              "type": "uint256"
            },
            {
              "internalType": "uint256",
              "name": "era",
              "type": "uint256"
            },
            {
              "internalType": "address",
              "name": "createdBy",
              "type": "address"
            },
            {
              "internalType": "string",
              "name": "title",
              "type": "string"
            },
            {
              "internalType": "string",
              "name": "thesis",
              "type": "string"
            },
            {
              "internalType": "string",
              "name": "file",
              "type": "string"
            },
            {
              "internalType": "uint256",
              "name": "validationsCount",
              "type": "uint256"
            },
            {
              "internalType": "bool",
              "name": "valid",
              "type": "bool"
            },
            {
              "internalType": "uint256",
              "name": "invalidatedAt",
              "type": "uint256"
            },
            {
              "internalType": "uint256",
              "name": "createdAtBlock",
              "type": "uint256"
            }
          ],
          "internalType": "struct Research",
          "name": "",
          "type": "tuple"
        }
      ],
      "stateMutability": "view",
      "type": "function"
    },
    {
      "inputs": [
        {
          "internalType": "address",
          "name": "addr",
          "type": "address"
        }
      ],
      "name": "getResearcher",
      "outputs": [
        {
          "components": [
            {
              "internalType": "uint256",
              "name": "id",
              "type": "uint256"
            },
            {
              "internalType": "address",
              "name": "researcherWallet",
              "type": "address"
            },
            {
              "internalType": "string",
              "name": "name",
              "type": "string"
            },
            {
              "components": [
                {
                  "internalType": "uint256",
                  "name": "level",
                  "type": "uint256"
                },
                {
                  "internalType": "uint256",
                  "name": "currentEra",
                  "type": "uint256"
                }
              ],
              "internalType": "struct Pool",
              "name": "pool",
              "type": "tuple"
            },
            {
              "internalType": "string",
              "name": "proofPhoto",
              "type": "string"
            },
            {
              "internalType": "uint256",
              "name": "publishedResearches",
              "type": "uint256"
            },
            {
              "internalType": "uint256",
              "name": "lastPublishedAt",
              "type": "uint256"
            },
            {
              "internalType": "uint256",
              "name": "publishedItems",
              "type": "uint256"
            },
            {
              "internalType": "uint256",
              "name": "lastCalculatorItemAt",
              "type": "uint256"
            },
            {
              "internalType": "uint256",
              "name": "createdAt",
              "type": "uint256"
            },
            {
              "internalType": "bool",
              "name": "canPublishMethod",
              "type": "bool"
            }
          ],
          "internalType": "struct Researcher",
          "name": "",
          "type": "tuple"
        }
      ],
      "stateMutability": "view",
      "type": "function"
    },
    {
      "inputs": [
        {
          "internalType": "address",
          "name": "addr",
          "type": "address"
        }
      ],
      "name": "getResearchesIds",
      "outputs": [
        {
          "internalType": "uint256[]",
          "name": "",
          "type": "uint256[]"
        }
      ],
      "stateMutability": "view",
      "type": "function"
    },
    {
      "inputs": [
        {
          "internalType": "address",
          "name": "caller",
          "type": "address"
        }
      ],
      "name": "isAllowedCaller",
      "outputs": [
        {
          "internalType": "bool",
          "name": "",
          "type": "bool"
        }
      ],
      "stateMutability": "view",
      "type": "function"
    },
    {
      "inputs": [
        {
          "internalType": "address",
          "name": "allowed",
          "type": "address"
        }
      ],
      "name": "newAllowedCaller",
      "outputs": [],
      "stateMutability": "nonpayable",
      "type": "function"
    },
    {
      "inputs": [],
      "name": "nextEraIn",
      "outputs": [
        {
          "internalType": "uint256",
          "name": "",
          "type": "uint256"
        }
      ],
      "stateMutability": "view",
      "type": "function"
    },
    {
      "inputs": [],
      "name": "owner",
      "outputs": [
        {
          "internalType": "address",
          "name": "",
          "type": "address"
        }
      ],
      "stateMutability": "view",
      "type": "function"
    },
    {
      "inputs": [
        {
          "internalType": "address",
          "name": "",
          "type": "address"
        },
        {
          "internalType": "uint256",
          "name": "",
          "type": "uint256"
        }
      ],
      "name": "penalties",
      "outputs": [
        {
          "internalType": "uint256",
          "name": "researchId",
          "type": "uint256"
        }
      ],
      "stateMutability": "view",
      "type": "function"
    },
    {
      "inputs": [],
      "name": "poolCurrentEra",
      "outputs": [
        {
          "internalType": "uint256",
          "name": "",
          "type": "uint256"
        }
      ],
      "stateMutability": "view",
      "type": "function"
    },
    {
      "inputs": [
        {
          "internalType": "address",
          "name": "addr",
          "type": "address"
        },
        {
          "internalType": "uint256",
          "name": "removeSomeLevels",
          "type": "uint256"
        }
      ],
      "name": "removePoolLevels",
      "outputs": [],
      "stateMutability": "nonpayable",
      "type": "function"
    },
    {
      "inputs": [],
      "name": "renounceOwnership",
      "outputs": [],
      "stateMutability": "nonpayable",
      "type": "function"
    },
    {
      "inputs": [
        {
          "internalType": "address",
          "name": "addr",
          "type": "address"
        }
      ],
      "name": "researcherExists",
      "outputs": [
        {
          "internalType": "bool",
          "name": "",
          "type": "bool"
        }
      ],
      "stateMutability": "view",
      "type": "function"
    },
    {
      "inputs": [
        {
          "internalType": "uint256",
          "name": "",
          "type": "uint256"
        }
      ],
      "name": "researchersAddress",
      "outputs": [
        {
          "internalType": "address",
          "name": "",
          "type": "address"
        }
      ],
      "stateMutability": "view",
      "type": "function"
    },
    {
      "inputs": [
        {
          "internalType": "uint256",
          "name": "",
          "type": "uint256"
        }
      ],
      "name": "researches",
      "outputs": [
        {
          "internalType": "uint256",
          "name": "id",
          "type": "uint256"
        },
        {
          "internalType": "uint256",
          "name": "era",
          "type": "uint256"
        },
        {
          "internalType": "address",
          "name": "createdBy",
          "type": "address"
        },
        {
          "internalType": "string",
          "name": "title",
          "type": "string"
        },
        {
          "internalType": "string",
          "name": "thesis",
          "type": "string"
        },
        {
          "internalType": "string",
          "name": "file",
          "type": "string"
        },
        {
          "internalType": "uint256",
          "name": "validationsCount",
          "type": "uint256"
        },
        {
          "internalType": "bool",
          "name": "valid",
          "type": "bool"
        },
        {
          "internalType": "uint256",
          "name": "invalidatedAt",
          "type": "uint256"
        },
        {
          "internalType": "uint256",
          "name": "createdAtBlock",
          "type": "uint256"
        }
      ],
      "stateMutability": "view",
      "type": "function"
    },
    {
      "inputs": [],
      "name": "researchesCount",
      "outputs": [
        {
          "internalType": "uint256",
          "name": "",
          "type": "uint256"
        }
      ],
      "stateMutability": "view",
      "type": "function"
    },
    {
      "inputs": [
        {
          "internalType": "address",
          "name": "",
          "type": "address"
        },
        {
          "internalType": "uint256",
          "name": "",
          "type": "uint256"
        }
      ],
      "name": "researchesIds",
      "outputs": [
        {
          "internalType": "uint256",
          "name": "",
          "type": "uint256"
        }
      ],
      "stateMutability": "view",
      "type": "function"
    },
    {
      "inputs": [],
      "name": "researchesTotalCount",
      "outputs": [
        {
          "internalType": "uint256",
          "name": "",
          "type": "uint256"
        }
      ],
      "stateMutability": "view",
      "type": "function"
    },
    {
      "inputs": [
        {
          "components": [
            {
              "internalType": "address",
              "name": "communityRulesAddress",
              "type": "address"
            },
            {
              "internalType": "address",
              "name": "researcherPoolAddress",
              "type": "address"
            },
            {
              "internalType": "address",
              "name": "validationRulesAddress",
              "type": "address"
            },
            {
              "internalType": "address",
              "name": "voteRulesAddress",
              "type": "address"
            }
          ],
          "internalType": "struct ContractsDependency",
          "name": "contractDependency",
          "type": "tuple"
        }
      ],
      "name": "setContractAddressDependencies",
      "outputs": [],
      "stateMutability": "nonpayable",
      "type": "function"
    },
    {
      "inputs": [
        {
          "internalType": "address",
          "name": "addr",
          "type": "address"
        }
      ],
      "name": "totalPenalties",
      "outputs": [
        {
          "internalType": "uint256",
          "name": "",
          "type": "uint256"
        }
      ],
      "stateMutability": "view",
      "type": "function"
    },
    {
      "inputs": [
        {
          "internalType": "address",
          "name": "newOwner",
          "type": "address"
        }
      ],
      "name": "transferOwnership",
      "outputs": [],
      "stateMutability": "nonpayable",
      "type": "function"
    },
    {
      "inputs": [],
      "name": "withdraw",
      "outputs": [],
      "stateMutability": "nonpayable",
      "type": "function"
    }
  ],
  "bytecode": "0x60e060405234801561001057600080fd5b506040516160ca3803806160ca83398181016040528101906100329190610175565b61004e61004361006e60201b60201c565b61007660201b60201c565b82608081815250508160a081815250508060c081815250505050506101c8565b600033905090565b60008060009054906101000a900473ffffffffffffffffffffffffffffffffffffffff169050816000806101000a81548173ffffffffffffffffffffffffffffffffffffffff021916908373ffffffffffffffffffffffffffffffffffffffff1602179055508173ffffffffffffffffffffffffffffffffffffffff168173ffffffffffffffffffffffffffffffffffffffff167f8be0079c531659141344cd1fd0a4f28419497f9722a3daafe3b4186f6b6457e060405160405180910390a35050565b600080fd5b6000819050919050565b6101528161013f565b811461015d57600080fd5b50565b60008151905061016f81610149565b92915050565b60008060006060848603121561018e5761018d61013a565b5b600061019c86828701610160565b93505060206101ad86828701610160565b92505060406101be86828701610160565b9150509250925092565b60805160a05160c051615ec5610205600039600081816128800152613a2301526000612b93015260008181613f6801526142170152615ec56000f3fe608060405234801561001057600080fd5b50600436106102275760003560e01c80637b33415411610130578063b4de0ff4116100b8578063e05cf1551161007c578063e05cf155146106d6578063e3e02ba7146106f4578063e7eba4c214610724578063e8a6a92214610754578063f2fde38b1461077057610227565b8063b4de0ff4146105f6578063b702523b14610626578063b932c8b714610642578063be18bc8014610672578063c77c1ce6146106a657610227565b806397705d60116100ff57806397705d601461052a5780639eaf666f14610548578063a58273c814610578578063a6801258146105a8578063b43f070a146105d857610227565b80637b334154146104a45780638b2b80e2146104d45780638da5cb5b146104f05780638f93716f1461050e57610227565b8063406458f2116101b35780635f1f6587116101825780635f1f6587146103e05780635f7d0704146104155780635fa71c281461044e578063715018a61461047e57806372e2e6cc1461048857610227565b8063406458f21461035657806352d3ea9d14610374578063582256f1146103925780635a52293a146103b057610227565b80631f701ee0116101fa5780631f701ee0146102c65780632076267b146102e45780632d68402e146103145780633270f4ad146103305780633ccfd60b1461034c57610227565b80630eaf485c1461022c57806318ad5c9a1461024a5780631b63a43c146102665780631e6dffc214610296575b600080fd5b61023461078c565b60405161024191906143c5565b60405180910390f35b610264600480360381019061025f919061447e565b610792565b005b610280600480360381019061027b919061447e565b610b76565b60405161028d91906143c5565b60405180910390f35b6102b060048036038101906102ab91906144be565b610c94565b6040516102bd9190614506565b60405180910390f35b6102ce610cee565b6040516102db91906143c5565b60405180910390f35b6102fe60048036038101906102f991906144be565b610cf4565b60405161030b91906143c5565b60405180910390f35b61032e6004803603810190610329919061462a565b610d40565b005b61034a60048036038101906103459190614711565b610e5f565b005b610354611395565b005b61035e611891565b60405161036b91906143c5565b60405180910390f35b61037c611897565b60405161038991906143c5565b60405180910390f35b61039a61189d565b6040516103a791906143c5565b60405180910390f35b6103ca60048036038101906103c5919061447e565b611947565b6040516103d791906143c5565b60405180910390f35b6103fa60048036038101906103f591906147cc565b611978565b60405161040c96959493929190614887565b60405180910390f35b61042f600480360381019061042a91906147cc565b611b6c565b6040516104459a999897969594939291906148fd565b60405180910390f35b6104686004803603810190610463919061447e565b611d85565b60405161047591906143c5565b60405180910390f35b610486611dbc565b005b6104a2600480360381019061049d91906149ae565b611dd0565b005b6104be60048036038101906104b991906144be565b6120af565b6040516104cb9190614506565b60405180910390f35b6104ee60048036038101906104e99190614a55565b6120cf565b005b6104f86127f3565b6040516105059190614ab1565b60405180910390f35b610528600480360381019061052391906144be565b61281c565b005b61053261287e565b60405161053f91906143c5565b60405180910390f35b610562600480360381019061055d9190614acc565b6128a2565b60405161056f9190614506565b60405180910390f35b610592600480360381019061058d91906147cc565b6128ee565b60405161059f9190614c1e565b60405180910390f35b6105c260048036038101906105bd91906144be565b612b3b565b6040516105cf9190614506565b60405180910390f35b6105e0612b91565b6040516105ed91906143c5565b60405180910390f35b610610600480360381019061060b91906144be565b612bb5565b60405161061d9190614cef565b60405180910390f35b610640600480360381019061063b9190614d11565b612c4c565b005b61065c600480360381019061065791906147cc565b6130d2565b6040516106699190614ab1565b60405180910390f35b61068c600480360381019061068791906147cc565b613105565b60405161069d959493929190614d89565b60405180910390f35b6106c060048036038101906106bb91906144be565b6132f3565b6040516106cd9190614506565b60405180910390f35b6106de6133d1565b6040516106eb91906143c5565b60405180910390f35b61070e600480360381019061070991906147cc565b613469565b60405161071b9190614ee8565b60405180910390f35b61073e600480360381019061073991906144be565b6136f0565b60405161074b9190615030565b60405180910390f35b61076e600480360381019061076991906149ae565b613943565b005b61078a600480360381019061078591906144be565b613e58565b005b600f5481565b600160003373ffffffffffffffffffffffffffffffffffffffff1673ffffffffffffffffffffffffffffffffffffffff16815260200190815260200160002060009054906101000a900460ff1661081e576040517f08c379a00000000000000000000000000000000000000000000000000000000081526004016108159061509e565b60405180910390fd5b6000600260008473ffffffffffffffffffffffffffffffffffffffff1673ffffffffffffffffffffffffffffffffffffffff16815260200190815260200160002060405180610160016040529081600082015481526020016001820160009054906101000a900473ffffffffffffffffffffffffffffffffffffffff1673ffffffffffffffffffffffffffffffffffffffff1673ffffffffffffffffffffffffffffffffffffffff1681526020016002820180546108db906150ed565b80601f0160208091040260200160405190810160405280929190818152602001828054610907906150ed565b80156109545780601f1061092957610100808354040283529160200191610954565b820191906000526020600020905b81548152906001019060200180831161093757829003601f168201915b5050505050815260200160038201604051806040016040529081600082015481526020016001820154815250508152602001600582018054610995906150ed565b80601f01602080910402602001604051908101604052809291908181526020018280546109c1906150ed565b8015610a0e5780601f106109e357610100808354040283529160200191610a0e565b820191906000526020600020905b8154815290600101906020018083116109f157829003601f168201915b5050505050815260200160068201548152602001600782015481526020016008820154815260200160098201548152602001600a8201548152602001600b820160009054906101000a900460ff161515151581525050905060008211610a7c57806060015160000151610a7e565b815b600260008573ffffffffffffffffffffffffffffffffffffffff1673ffffffffffffffffffffffffffffffffffffffff1681526020019081526020016000206003016000016000828254610ad2919061514d565b92505081905550600a60009054906101000a900473ffffffffffffffffffffffffffffffffffffffff1673ffffffffffffffffffffffffffffffffffffffff1663157ffc5284610b206133d1565b856040518463ffffffff1660e01b8152600401610b3f93929190615181565b600060405180830381600087803b158015610b5957600080fd5b505af1158015610b6d573d6000803e3d6000fd5b50505050505050565b6000600160003373ffffffffffffffffffffffffffffffffffffffff1673ffffffffffffffffffffffffffffffffffffffff16815260200190815260200160002060009054906101000a900460ff16610c04576040517f08c379a0000000000000000000000000000000000000000000000000000000008152600401610bfb9061509e565b60405180910390fd5b600760008473ffffffffffffffffffffffffffffffffffffffff1673ffffffffffffffffffffffffffffffffffffffff16815260200190815260200160002060405180602001604052808481525090806001815401808255809150506001900390600052602060002001600090919091909150600082015181600001555050610c8c83610cf4565b905092915050565b600080600260008473ffffffffffffffffffffffffffffffffffffffff1673ffffffffffffffffffffffffffffffffffffffff1681526020019081526020016000206002018054610ce4906150ed565b9050119050919050565b60105481565b6000600760008373ffffffffffffffffffffffffffffffffffffffff1673ffffffffffffffffffffffffffffffffffffffff168152602001908152602001600020805490509050919050565b610d48613edb565b8060000151600960006101000a81548173ffffffffffffffffffffffffffffffffffffffff021916908373ffffffffffffffffffffffffffffffffffffffff1602179055508060200151600a60006101000a81548173ffffffffffffffffffffffffffffffffffffffff021916908373ffffffffffffffffffffffffffffffffffffffff1602179055508060400151600b60006101000a81548173ffffffffffffffffffffffffffffffffffffffff021916908373ffffffffffffffffffffffffffffffffffffffff1602179055508060600151600c60006101000a81548173ffffffffffffffffffffffffffffffffffffffff021916908373ffffffffffffffffffffffffffffffffffffffff16021790555050565b600960009054906101000a900473ffffffffffffffffffffffffffffffffffffffff1673ffffffffffffffffffffffffffffffffffffffff16639497c6086003336040518363ffffffff1660e01b8152600401610ebd92919061522f565b602060405180830381865afa158015610eda573d6000803e3d6000fd5b505050506040513d601f19601f82011682018060405250810190610efe9190615284565b610f3d576040517f08c379a0000000000000000000000000000000000000000000000000000000008152600401610f34906152fd565b60405180910390fd5b6000600260003373ffffffffffffffffffffffffffffffffffffffff1673ffffffffffffffffffffffffffffffffffffffff16815260200190815260200160002060405180610160016040529081600082015481526020016001820160009054906101000a900473ffffffffffffffffffffffffffffffffffffffff1673ffffffffffffffffffffffffffffffffffffffff1673ffffffffffffffffffffffffffffffffffffffff168152602001600282018054610ffa906150ed565b80601f0160208091040260200160405190810160405280929190818152602001828054611026906150ed565b80156110735780601f1061104857610100808354040283529160200191611073565b820191906000526020600020905b81548152906001019060200180831161105657829003601f168201915b50505050508152602001600382016040518060400160405290816000820154815260200160018201548152505081526020016005820180546110b4906150ed565b80601f01602080910402602001604051908101604052809291908181526020018280546110e0906150ed565b801561112d5780601f106111025761010080835404028352916020019161112d565b820191906000526020600020905b81548152906001019060200180831161111057829003601f168201915b5050505050815260200160068201548152602001600782015481526020016008820154815260200160098201548152602001600a8201548152602001600b820160009054906101000a900460ff161515151581525050905061118e81613f59565b6111cd576040517f08c379a00000000000000000000000000000000000000000000000000000000081526004016111c490615369565b60405180910390fd5b60006001600f546111de9190615389565b90506040518060c001604052808281526020013373ffffffffffffffffffffffffffffffffffffffff16815260200187815260200186815260200185815260200184815250600560008381526020019081526020016000206000820151816000015560208201518160010160006101000a81548173ffffffffffffffffffffffffffffffffffffffff021916908373ffffffffffffffffffffffffffffffffffffffff160217905550604082015181600201908161129c9190615569565b5060608201518160030190816112b29190615569565b5060808201518160040190816112c89190615569565b5060a08201518160050155905050600f60008154809291906112e99061563b565b919050555043600260003373ffffffffffffffffffffffffffffffffffffffff1673ffffffffffffffffffffffffffffffffffffffff16815260200190815260200160002060090181905550600260003373ffffffffffffffffffffffffffffffffffffffff1673ffffffffffffffffffffffffffffffffffffffff16815260200190815260200160002060080160008154809291906113889061563b565b9190505550505050505050565b600960009054906101000a900473ffffffffffffffffffffffffffffffffffffffff1673ffffffffffffffffffffffffffffffffffffffff16639497c6086003336040518363ffffffff1660e01b81526004016113f392919061522f565b602060405180830381865afa158015611410573d6000803e3d6000fd5b505050506040513d601f19601f820116820180604052508101906114349190615284565b611473576040517f08c379a000000000000000000000000000000000000000000000000000000000815260040161146a906156cf565b60405180910390fd5b6000600260003373ffffffffffffffffffffffffffffffffffffffff1673ffffffffffffffffffffffffffffffffffffffff16815260200190815260200160002060405180610160016040529081600082015481526020016001820160009054906101000a900473ffffffffffffffffffffffffffffffffffffffff1673ffffffffffffffffffffffffffffffffffffffff1673ffffffffffffffffffffffffffffffffffffffff168152602001600282018054611530906150ed565b80601f016020809104026020016040519081016040528092919081815260200182805461155c906150ed565b80156115a95780601f1061157e576101008083540402835291602001916115a9565b820191906000526020600020905b81548152906001019060200180831161158c57829003601f168201915b50505050508152602001600382016040518060400160405290816000820154815260200160018201548152505081526020016005820180546115ea906150ed565b80601f0160208091040260200160405190810160405280929190818152602001828054611616906150ed565b80156116635780601f1061163857610100808354040283529160200191611663565b820191906000526020600020905b81548152906001019060200180831161164657829003601f168201915b5050505050815260200160068201548152602001600782015481526020016008820154815260200160098201548152602001600a8201548152602001600b820160009054906101000a900460ff161515151581525050905060008160600151602001519050600a60009054906101000a900473ffffffffffffffffffffffffffffffffffffffff1673ffffffffffffffffffffffffffffffffffffffff1663fbe85f06826040518263ffffffff1660e01b815260040161172391906143c5565b602060405180830381865afa158015611740573d6000803e3d6000fd5b505050506040513d601f19601f820116820180604052508101906117649190615284565b6117a3576040517f08c379a000000000000000000000000000000000000000000000000000000000815260040161179a9061573b565b60405180910390fd5b600260003373ffffffffffffffffffffffffffffffffffffffff1673ffffffffffffffffffffffffffffffffffffffff16815260200190815260200160002060030160010160008154809291906117f99061563b565b9190505550600a60009054906101000a900473ffffffffffffffffffffffffffffffffffffffff1673ffffffffffffffffffffffffffffffffffffffff1663f3fef3a333836040518363ffffffff1660e01b815260040161185b92919061575b565b600060405180830381600087803b15801561187557600080fd5b505af1158015611889573d6000803e3d6000fd5b505050505050565b600d5481565b600e5481565b6000600a60009054906101000a900473ffffffffffffffffffffffffffffffffffffffff1673ffffffffffffffffffffffffffffffffffffffff1663d5ee3eb56118e56133d1565b6040518263ffffffff1660e01b815260040161190191906143c5565b602060405180830381865afa15801561191e573d6000803e3d6000fd5b505050506040513d601f19601f8201168201806040525081019061194291906157ba565b905090565b6004602052816000526040600020818154811061196357600080fd5b90600052602060002001600091509150505481565b60056020528060005260406000206000915090508060000154908060010160009054906101000a900473ffffffffffffffffffffffffffffffffffffffff16908060020180546119c7906150ed565b80601f01602080910402602001604051908101604052809291908181526020018280546119f3906150ed565b8015611a405780601f10611a1557610100808354040283529160200191611a40565b820191906000526020600020905b815481529060010190602001808311611a2357829003601f168201915b505050505090806003018054611a55906150ed565b80601f0160208091040260200160405190810160405280929190818152602001828054611a81906150ed565b8015611ace5780601f10611aa357610100808354040283529160200191611ace565b820191906000526020600020905b815481529060010190602001808311611ab157829003601f168201915b505050505090806004018054611ae3906150ed565b80601f0160208091040260200160405190810160405280929190818152602001828054611b0f906150ed565b8015611b5c5780601f10611b3157610100808354040283529160200191611b5c565b820191906000526020600020905b815481529060010190602001808311611b3f57829003601f168201915b5050505050908060050154905086565b60036020528060005260406000206000915090508060000154908060010154908060020160009054906101000a900473ffffffffffffffffffffffffffffffffffffffff1690806003018054611bc1906150ed565b80601f0160208091040260200160405190810160405280929190818152602001828054611bed906150ed565b8015611c3a5780601f10611c0f57610100808354040283529160200191611c3a565b820191906000526020600020905b815481529060010190602001808311611c1d57829003601f168201915b505050505090806004018054611c4f906150ed565b80601f0160208091040260200160405190810160405280929190818152602001828054611c7b906150ed565b8015611cc85780601f10611c9d57610100808354040283529160200191611cc8565b820191906000526020600020905b815481529060010190602001808311611cab57829003601f168201915b505050505090806005018054611cdd906150ed565b80601f0160208091040260200160405190810160405280929190818152602001828054611d09906150ed565b8015611d565780601f10611d2b57610100808354040283529160200191611d56565b820191906000526020600020905b815481529060010190602001808311611d3957829003601f168201915b5050505050908060060154908060070160009054906101000a900460ff1690806008015490806009015490508a565b60076020528160005260406000208181548110611da157600080fd5b90600052602060002001600091509150508060000154905081565b611dc4613edb565b611dce6000613fac565b565b600960009054906101000a900473ffffffffffffffffffffffffffffffffffffffff1673ffffffffffffffffffffffffffffffffffffffff16639497c6086003336040518363ffffffff1660e01b8152600401611e2e92919061522f565b602060405180830381865afa158015611e4b573d6000803e3d6000fd5b505050506040513d601f19601f82011682018060405250810190611e6f9190615284565b611eae576040517f08c379a0000000000000000000000000000000000000000000000000000000008152600401611ea5906152fd565b60405180910390fd5b600260003373ffffffffffffffffffffffffffffffffffffffff1673ffffffffffffffffffffffffffffffffffffffff168152602001908152602001600020600b0160009054906101000a900460ff16611f3d576040517f08c379a0000000000000000000000000000000000000000000000000000000008152600401611f3490615833565b60405180910390fd5b60006001601054611f4e9190615389565b90506040518060a001604052808281526020013373ffffffffffffffffffffffffffffffffffffffff16815260200185815260200184815260200183815250600660008381526020019081526020016000206000820151816000015560208201518160010160006101000a81548173ffffffffffffffffffffffffffffffffffffffff021916908373ffffffffffffffffffffffffffffffffffffffff16021790555060408201518160020190816120069190615569565b50606082015181600301908161201c9190615569565b5060808201518160040190816120329190615569565b50905050601060008154809291906120499061563b565b91905055506000600260003373ffffffffffffffffffffffffffffffffffffffff1673ffffffffffffffffffffffffffffffffffffffff168152602001908152602001600020600b0160006101000a81548160ff02191690831515021790555050505050565b60016020528060005260406000206000915054906101000a900460ff1681565b600c60009054906101000a900473ffffffffffffffffffffffffffffffffffffffff1673ffffffffffffffffffffffffffffffffffffffff1663adfaa72e336040518263ffffffff1660e01b815260040161212a9190614ab1565b602060405180830381865afa158015612147573d6000803e3d6000fd5b505050506040513d601f19601f8201168201806040525081019061216b9190615284565b6121aa576040517f08c379a00000000000000000000000000000000000000000000000000000000081526004016121a19061589f565b60405180910390fd5b600b60009054906101000a900473ffffffffffffffffffffffffffffffffffffffff1673ffffffffffffffffffffffffffffffffffffffff1663361119ac336040518263ffffffff1660e01b81526004016122059190614ab1565b602060405180830381865afa158015612222573d6000803e3d6000fd5b505050506040513d601f19601f820116820180604052508101906122469190615284565b612285576040517f08c379a000000000000000000000000000000000000000000000000000000000815260040161227c9061590b565b60405180910390fd5b61012c815111156122cb576040517f08c379a00000000000000000000000000000000000000000000000000000000081526004016122c290615977565b60405180910390fd5b6000600360008481526020019081526020016000206040518061014001604052908160008201548152602001600182015481526020016002820160009054906101000a900473ffffffffffffffffffffffffffffffffffffffff1673ffffffffffffffffffffffffffffffffffffffff1673ffffffffffffffffffffffffffffffffffffffff168152602001600382018054612366906150ed565b80601f0160208091040260200160405190810160405280929190818152602001828054612392906150ed565b80156123df5780601f106123b4576101008083540402835291602001916123df565b820191906000526020600020905b8154815290600101906020018083116123c257829003601f168201915b505050505081526020016004820180546123f8906150ed565b80601f0160208091040260200160405190810160405280929190818152602001828054612424906150ed565b80156124715780601f1061244657610100808354040283529160200191612471565b820191906000526020600020905b81548152906001019060200180831161245457829003601f168201915b5050505050815260200160058201805461248a906150ed565b80601f01602080910402602001604051908101604052809291908181526020018280546124b6906150ed565b80156125035780601f106124d857610100808354040283529160200191612503565b820191906000526020600020905b8154815290600101906020018083116124e657829003601f168201915b50505050508152602001600682015481526020016007820160009054906101000a900460ff161515151581526020016008820154815260200160098201548152505090508060e001518015612563575080602001516125606133d1565b11155b6125a2576040517f08c379a0000000000000000000000000000000000000000000000000000000008152600401612599906159e3565b60405180910390fd5b60018160c0018181516125b59190615389565b915081815250508060036000858152602001908152602001600020600082015181600001556020820151816001015560408201518160020160006101000a81548173ffffffffffffffffffffffffffffffffffffffff021916908373ffffffffffffffffffffffffffffffffffffffff16021790555060608201518160030190816126409190615569565b5060808201518160040190816126569190615569565b5060a082015181600501908161266c9190615569565b5060c0820151816006015560e08201518160070160006101000a81548160ff021916908315150217905550610100820151816008015561012082015181600901559050506000600b60009054906101000a900473ffffffffffffffffffffffffffffffffffffffff1673ffffffffffffffffffffffffffffffffffffffff166369bf81c36040518163ffffffff1660e01b8152600401602060405180830381865afa15801561271f573d6000803e3d6000fd5b505050506040513d601f19601f820116820180604052508101906127439190615a18565b8260c0015110159050801561275c5761275b82614070565b5b600b60009054906101000a900473ffffffffffffffffffffffffffffffffffffffff1673ffffffffffffffffffffffffffffffffffffffff166384305d8a8385336040518463ffffffff1660e01b81526004016127bb93929190615a45565b600060405180830381600087803b1580156127d557600080fd5b505af11580156127e9573d6000803e3d6000fd5b5050505050505050565b60008060009054906101000a900473ffffffffffffffffffffffffffffffffffffffff16905090565b612824613edb565b60018060008373ffffffffffffffffffffffffffffffffffffffff1673ffffffffffffffffffffffffffffffffffffffff16815260200190815260200160002060006101000a81548160ff02191690831515021790555050565b7f000000000000000000000000000000000000000000000000000000000000000081565b6000600583116128b557600190506128e7565b60006128dd60016128cf868861419f90919063ffffffff16565b6141b590919063ffffffff16565b9050808310159150505b9392505050565b6128f6614263565b600560008381526020019081526020016000206040518060c0016040529081600082015481526020016001820160009054906101000a900473ffffffffffffffffffffffffffffffffffffffff1673ffffffffffffffffffffffffffffffffffffffff1673ffffffffffffffffffffffffffffffffffffffff168152602001600282018054612984906150ed565b80601f01602080910402602001604051908101604052809291908181526020018280546129b0906150ed565b80156129fd5780601f106129d2576101008083540402835291602001916129fd565b820191906000526020600020905b8154815290600101906020018083116129e057829003601f168201915b50505050508152602001600382018054612a16906150ed565b80601f0160208091040260200160405190810160405280929190818152602001828054612a42906150ed565b8015612a8f5780601f10612a6457610100808354040283529160200191612a8f565b820191906000526020600020905b815481529060010190602001808311612a7257829003601f168201915b50505050508152602001600482018054612aa8906150ed565b80601f0160208091040260200160405190810160405280929190818152602001828054612ad4906150ed565b8015612b215780601f10612af657610100808354040283529160200191612b21565b820191906000526020600020905b815481529060010190602001808311612b0457829003601f168201915b505050505081526020016005820154815250509050919050565b6000600160008373ffffffffffffffffffffffffffffffffffffffff1673ffffffffffffffffffffffffffffffffffffffff16815260200190815260200160002060009054906101000a900460ff169050919050565b7f000000000000000000000000000000000000000000000000000000000000000081565b6060600460008373ffffffffffffffffffffffffffffffffffffffff1673ffffffffffffffffffffffffffffffffffffffff168152602001908152602001600020805480602002602001604051908101604052809291908181526020018280548015612c4057602002820191906000526020600020905b815481526020019060010190808311612c2c575b50505050509050919050565b6064825111158015612c6057506064815111155b612c9f576040517f08c379a0000000000000000000000000000000000000000000000000000000008152600401612c9690615ad6565b60405180910390fd5b613e80600960009054906101000a900473ffffffffffffffffffffffffffffffffffffffff1673ffffffffffffffffffffffffffffffffffffffff16632f22dc7b60036040518263ffffffff1660e01b8152600401612cfe9190615af6565b602060405180830381865afa158015612d1b573d6000803e3d6000fd5b505050506040513d601f19601f82011682018060405250810190612d3f9190615a18565b1115612d80576040517f08c379a0000000000000000000000000000000000000000000000000000000008152600401612d7790615b5d565b60405180910390fd5b60006001600960009054906101000a900473ffffffffffffffffffffffffffffffffffffffff1673ffffffffffffffffffffffffffffffffffffffff16631eb2c12060036040518263ffffffff1660e01b8152600401612de09190615af6565b602060405180830381865afa158015612dfd573d6000803e3d6000fd5b505050506040513d601f19601f82011682018060405250810190612e219190615a18565b612e2b9190615389565b905060006040518061016001604052808381526020013373ffffffffffffffffffffffffffffffffffffffff168152602001858152602001604051806040016040528060008152602001612e7d6133d1565b81525081526020018481526020016000815260200160008152602001600081526020016000815260200143815260200160011515815250905080600260003373ffffffffffffffffffffffffffffffffffffffff1673ffffffffffffffffffffffffffffffffffffffff1681526020019081526020016000206000820151816000015560208201518160010160006101000a81548173ffffffffffffffffffffffffffffffffffffffff021916908373ffffffffffffffffffffffffffffffffffffffff1602179055506040820151816002019081612f5c9190615569565b50606082015181600301600082015181600001556020820151816001015550506080820151816005019081612f919190615569565b5060a0820151816006015560c0820151816007015560e08201518160080155610100820151816009015561012082015181600a015561014082015181600b0160006101000a81548160ff021916908315150217905550905050336008600084815260200190815260200160002060006101000a81548173ffffffffffffffffffffffffffffffffffffffff021916908373ffffffffffffffffffffffffffffffffffffffff160217905550600960009054906101000a900473ffffffffffffffffffffffffffffffffffffffff1673ffffffffffffffffffffffffffffffffffffffff16639c3eead93360036040518363ffffffff1660e01b815260040161309a929190615b7d565b600060405180830381600087803b1580156130b457600080fd5b505af11580156130c8573d6000803e3d6000fd5b5050505050505050565b60086020528060005260406000206000915054906101000a900473ffffffffffffffffffffffffffffffffffffffff1681565b60066020528060005260406000206000915090508060000154908060010160009054906101000a900473ffffffffffffffffffffffffffffffffffffffff1690806002018054613154906150ed565b80601f0160208091040260200160405190810160405280929190818152602001828054613180906150ed565b80156131cd5780601f106131a2576101008083540402835291602001916131cd565b820191906000526020600020905b8154815290600101906020018083116131b057829003601f168201915b5050505050908060030180546131e2906150ed565b80601f016020809104026020016040519081016040528092919081815260200182805461320e906150ed565b801561325b5780601f106132305761010080835404028352916020019161325b565b820191906000526020600020905b81548152906001019060200180831161323e57829003601f168201915b505050505090806004018054613270906150ed565b80601f016020809104026020016040519081016040528092919081815260200182805461329c906150ed565b80156132e95780601f106132be576101008083540402835291602001916132e9565b820191906000526020600020905b8154815290600101906020018083116132cc57829003601f168201915b5050505050905085565b6000806132ff836136f0565b905060008160000151116133175760009150506133cc565b6133c8600e54600960009054906101000a900473ffffffffffffffffffffffffffffffffffffffff1673ffffffffffffffffffffffffffffffffffffffff16631eb2c12060036040518263ffffffff1660e01b81526004016133799190615af6565b602060405180830381865afa158015613396573d6000803e3d6000fd5b505050506040513d601f19601f820116820180604052508101906133ba9190615a18565b8360600151600001516128a2565b9150505b919050565b6000600a60009054906101000a900473ffffffffffffffffffffffffffffffffffffffff1673ffffffffffffffffffffffffffffffffffffffff1663ed0df79e6040518163ffffffff1660e01b8152600401602060405180830381865afa158015613440573d6000803e3d6000fd5b505050506040513d601f19601f820116820180604052508101906134649190615a18565b905090565b6134716142af565b600360008381526020019081526020016000206040518061014001604052908160008201548152602001600182015481526020016002820160009054906101000a900473ffffffffffffffffffffffffffffffffffffffff1673ffffffffffffffffffffffffffffffffffffffff1673ffffffffffffffffffffffffffffffffffffffff16815260200160038201805461350a906150ed565b80601f0160208091040260200160405190810160405280929190818152602001828054613536906150ed565b80156135835780601f1061355857610100808354040283529160200191613583565b820191906000526020600020905b81548152906001019060200180831161356657829003601f168201915b5050505050815260200160048201805461359c906150ed565b80601f01602080910402602001604051908101604052809291908181526020018280546135c8906150ed565b80156136155780601f106135ea57610100808354040283529160200191613615565b820191906000526020600020905b8154815290600101906020018083116135f857829003601f168201915b5050505050815260200160058201805461362e906150ed565b80601f016020809104026020016040519081016040528092919081815260200182805461365a906150ed565b80156136a75780601f1061367c576101008083540402835291602001916136a7565b820191906000526020600020905b81548152906001019060200180831161368a57829003601f168201915b50505050508152602001600682015481526020016007820160009054906101000a900460ff16151515158152602001600882015481526020016009820154815250509050919050565b6136f861431a565b600260008373ffffffffffffffffffffffffffffffffffffffff1673ffffffffffffffffffffffffffffffffffffffff16815260200190815260200160002060405180610160016040529081600082015481526020016001820160009054906101000a900473ffffffffffffffffffffffffffffffffffffffff1673ffffffffffffffffffffffffffffffffffffffff1673ffffffffffffffffffffffffffffffffffffffff1681526020016002820180546137b3906150ed565b80601f01602080910402602001604051908101604052809291908181526020018280546137df906150ed565b801561382c5780601f106138015761010080835404028352916020019161382c565b820191906000526020600020905b81548152906001019060200180831161380f57829003601f168201915b505050505081526020016003820160405180604001604052908160008201548152602001600182015481525050815260200160058201805461386d906150ed565b80601f0160208091040260200160405190810160405280929190818152602001828054613899906150ed565b80156138e65780601f106138bb576101008083540402835291602001916138e6565b820191906000526020600020905b8154815290600101906020018083116138c957829003601f168201915b5050505050815260200160068201548152602001600782015481526020016008820154815260200160098201548152602001600a8201548152602001600b820160009054906101000a900460ff1615151515815250509050919050565b600960009054906101000a900473ffffffffffffffffffffffffffffffffffffffff1673ffffffffffffffffffffffffffffffffffffffff16639497c6086003336040518363ffffffff1660e01b81526004016139a192919061522f565b602060405180830381865afa1580156139be573d6000803e3d6000fd5b505050506040513d601f19601f820116820180604052508101906139e29190615284565b613a21576040517f08c379a0000000000000000000000000000000000000000000000000000000008152600401613a18906152fd565b60405180910390fd5b7f0000000000000000000000000000000000000000000000000000000000000000613a4a61189d565b11613a8a576040517f08c379a0000000000000000000000000000000000000000000000000000000008152600401613a8190615c18565b60405180910390fd5b613a93336141cb565b613ad2576040517f08c379a0000000000000000000000000000000000000000000000000000000008152600401613ac990615369565b60405180910390fd5b6064835111158015613ae757506101f4825111155b8015613af557506064815111155b613b34576040517f08c379a0000000000000000000000000000000000000000000000000000000008152600401613b2b90615c84565b60405180910390fd5b6000600260003373ffffffffffffffffffffffffffffffffffffffff1673ffffffffffffffffffffffffffffffffffffffff168152602001908152602001600020905060006001600d54613b889190615389565b90506000604051806101400160405280838152602001613ba66133d1565b81526020013373ffffffffffffffffffffffffffffffffffffffff16815260200187815260200186815260200185815260200160008152602001600115158152602001600081526020014381525090508060036000848152602001908152602001600020600082015181600001556020820151816001015560408201518160020160006101000a81548173ffffffffffffffffffffffffffffffffffffffff021916908373ffffffffffffffffffffffffffffffffffffffff1602179055506060820151816003019081613c7a9190615569565b506080820151816004019081613c909190615569565b5060a0820151816005019081613ca69190615569565b5060c0820151816006015560e08201518160070160006101000a81548160ff02191690831515021790555061010082015181600801556101208201518160090155905050600d6000815480929190613cfd9061563b565b9190505550600e6000815480929190613d159061563b565b9190505550826006016000815480929190613d2f9061563b565b9190505550438360070181905550600460003373ffffffffffffffffffffffffffffffffffffffff1673ffffffffffffffffffffffffffffffffffffffff168152602001908152602001600020829080600181540180825580915050600190039060005260206000200160009091909190915055826003016000016000815480929190613dbb9061563b565b9190505550600a60009054906101000a900473ffffffffffffffffffffffffffffffffffffffff1673ffffffffffffffffffffffffffffffffffffffff166352b8d3ed3360016040518363ffffffff1660e01b8152600401613e1e929190615cdf565b600060405180830381600087803b158015613e3857600080fd5b505af1158015613e4c573d6000803e3d6000fd5b50505050505050505050565b613e60613edb565b600073ffffffffffffffffffffffffffffffffffffffff168173ffffffffffffffffffffffffffffffffffffffff1603613ecf576040517f08c379a0000000000000000000000000000000000000000000000000000000008152600401613ec690615d7a565b60405180910390fd5b613ed881613fac565b50565b613ee361425b565b73ffffffffffffffffffffffffffffffffffffffff16613f016127f3565b73ffffffffffffffffffffffffffffffffffffffff1614613f57576040517f08c379a0000000000000000000000000000000000000000000000000000000008152600401613f4e90615de6565b60405180910390fd5b565b600080826101000151905060007f000000000000000000000000000000000000000000000000000000000000000082613f929190615389565b431190508080613fa3575060008211155b92505050919050565b60008060009054906101000a900473ffffffffffffffffffffffffffffffffffffffff169050816000806101000a81548173ffffffffffffffffffffffffffffffffffffffff021916908373ffffffffffffffffffffffffffffffffffffffff1602179055508173ffffffffffffffffffffffffffffffffffffffff168173ffffffffffffffffffffffffffffffffffffffff167f8be0079c531659141344cd1fd0a4f28419497f9722a3daafe3b4186f6b6457e060405160405180910390a35050565b600e600081548092919061408390615e06565b919050555060008160e00190151590811515815250504381610100018181525050806003600083600001518152602001908152602001600020600082015181600001556020820151816001015560408201518160020160006101000a81548173ffffffffffffffffffffffffffffffffffffffff021916908373ffffffffffffffffffffffffffffffffffffffff160217905550606082015181600301908161412c9190615569565b5060808201518160040190816141429190615569565b5060a08201518160050190816141589190615569565b5060c0820151816006015560e08201518160070160006101000a81548160ff0219169083151502179055506101008201518160080155610120820151816009015590505050565b600081836141ad9190615e5e565b905092915050565b600081836141c39190615389565b905092915050565b600080600260008473ffffffffffffffffffffffffffffffffffffffff1673ffffffffffffffffffffffffffffffffffffffff16815260200190815260200160002060070154905060007f0000000000000000000000000000000000000000000000000000000000000000826142419190615389565b431190508080614252575060008211155b92505050919050565b600033905090565b6040518060c0016040528060008152602001600073ffffffffffffffffffffffffffffffffffffffff168152602001606081526020016060815260200160608152602001600081525090565b6040518061014001604052806000815260200160008152602001600073ffffffffffffffffffffffffffffffffffffffff1681526020016060815260200160608152602001606081526020016000815260200160001515815260200160008152602001600081525090565b60405180610160016040528060008152602001600073ffffffffffffffffffffffffffffffffffffffff16815260200160608152602001614359614392565b81526020016060815260200160008152602001600081526020016000815260200160008152602001600081526020016000151581525090565b604051806040016040528060008152602001600081525090565b6000819050919050565b6143bf816143ac565b82525050565b60006020820190506143da60008301846143b6565b92915050565b6000604051905090565b600080fd5b600080fd5b600073ffffffffffffffffffffffffffffffffffffffff82169050919050565b600061441f826143f4565b9050919050565b61442f81614414565b811461443a57600080fd5b50565b60008135905061444c81614426565b92915050565b61445b816143ac565b811461446657600080fd5b50565b60008135905061447881614452565b92915050565b60008060408385031215614495576144946143ea565b5b60006144a38582860161443d565b92505060206144b485828601614469565b9150509250929050565b6000602082840312156144d4576144d36143ea565b5b60006144e28482850161443d565b91505092915050565b60008115159050919050565b614500816144eb565b82525050565b600060208201905061451b60008301846144f7565b92915050565b600080fd5b6000601f19601f8301169050919050565b7f4e487b7100000000000000000000000000000000000000000000000000000000600052604160045260246000fd5b61456f82614526565b810181811067ffffffffffffffff8211171561458e5761458d614537565b5b80604052505050565b60006145a16143e0565b90506145ad8282614566565b919050565b6000608082840312156145c8576145c7614521565b5b6145d26080614597565b905060006145e28482850161443d565b60008301525060206145f68482850161443d565b602083015250604061460a8482850161443d565b604083015250606061461e8482850161443d565b60608301525092915050565b6000608082840312156146405761463f6143ea565b5b600061464e848285016145b2565b91505092915050565b600080fd5b600080fd5b600067ffffffffffffffff82111561467c5761467b614537565b5b61468582614526565b9050602081019050919050565b82818337600083830152505050565b60006146b46146af84614661565b614597565b9050828152602081018484840111156146d0576146cf61465c565b5b6146db848285614692565b509392505050565b600082601f8301126146f8576146f7614657565b5b81356147088482602086016146a1565b91505092915050565b6000806000806080858703121561472b5761472a6143ea565b5b600085013567ffffffffffffffff811115614749576147486143ef565b5b614755878288016146e3565b945050602085013567ffffffffffffffff811115614776576147756143ef565b5b614782878288016146e3565b935050604085013567ffffffffffffffff8111156147a3576147a26143ef565b5b6147af878288016146e3565b92505060606147c087828801614469565b91505092959194509250565b6000602082840312156147e2576147e16143ea565b5b60006147f084828501614469565b91505092915050565b61480281614414565b82525050565b600081519050919050565b600082825260208201905092915050565b60005b83811015614842578082015181840152602081019050614827565b60008484015250505050565b600061485982614808565b6148638185614813565b9350614873818560208601614824565b61487c81614526565b840191505092915050565b600060c08201905061489c60008301896143b6565b6148a960208301886147f9565b81810360408301526148bb818761484e565b905081810360608301526148cf818661484e565b905081810360808301526148e3818561484e565b90506148f260a08301846143b6565b979650505050505050565b600061014082019050614913600083018d6143b6565b614920602083018c6143b6565b61492d604083018b6147f9565b818103606083015261493f818a61484e565b90508181036080830152614953818961484e565b905081810360a0830152614967818861484e565b905061497660c08301876143b6565b61498360e08301866144f7565b6149916101008301856143b6565b61499f6101208301846143b6565b9b9a5050505050505050505050565b6000806000606084860312156149c7576149c66143ea565b5b600084013567ffffffffffffffff8111156149e5576149e46143ef565b5b6149f1868287016146e3565b935050602084013567ffffffffffffffff811115614a1257614a116143ef565b5b614a1e868287016146e3565b925050604084013567ffffffffffffffff811115614a3f57614a3e6143ef565b5b614a4b868287016146e3565b9150509250925092565b60008060408385031215614a6c57614a6b6143ea565b5b6000614a7a85828601614469565b925050602083013567ffffffffffffffff811115614a9b57614a9a6143ef565b5b614aa7858286016146e3565b9150509250929050565b6000602082019050614ac660008301846147f9565b92915050565b600080600060608486031215614ae557614ae46143ea565b5b6000614af386828701614469565b9350506020614b0486828701614469565b9250506040614b1586828701614469565b9150509250925092565b614b28816143ac565b82525050565b614b3781614414565b82525050565b600082825260208201905092915050565b6000614b5982614808565b614b638185614b3d565b9350614b73818560208601614824565b614b7c81614526565b840191505092915050565b600060c083016000830151614b9f6000860182614b1f565b506020830151614bb26020860182614b2e565b5060408301518482036040860152614bca8282614b4e565b91505060608301518482036060860152614be48282614b4e565b91505060808301518482036080860152614bfe8282614b4e565b91505060a0830151614c1360a0860182614b1f565b508091505092915050565b60006020820190508181036000830152614c388184614b87565b905092915050565b600081519050919050565b600082825260208201905092915050565b6000819050602082019050919050565b6000614c788383614b1f565b60208301905092915050565b6000602082019050919050565b6000614c9c82614c40565b614ca68185614c4b565b9350614cb183614c5c565b8060005b83811015614ce2578151614cc98882614c6c565b9750614cd483614c84565b925050600181019050614cb5565b5085935050505092915050565b60006020820190508181036000830152614d098184614c91565b905092915050565b60008060408385031215614d2857614d276143ea565b5b600083013567ffffffffffffffff811115614d4657614d456143ef565b5b614d52858286016146e3565b925050602083013567ffffffffffffffff811115614d7357614d726143ef565b5b614d7f858286016146e3565b9150509250929050565b600060a082019050614d9e60008301886143b6565b614dab60208301876147f9565b8181036040830152614dbd818661484e565b90508181036060830152614dd1818561484e565b90508181036080830152614de5818461484e565b90509695505050505050565b614dfa816144eb565b82525050565b600061014083016000830151614e196000860182614b1f565b506020830151614e2c6020860182614b1f565b506040830151614e3f6040860182614b2e565b5060608301518482036060860152614e578282614b4e565b91505060808301518482036080860152614e718282614b4e565b91505060a083015184820360a0860152614e8b8282614b4e565b91505060c0830151614ea060c0860182614b1f565b5060e0830151614eb360e0860182614df1565b50610100830151614ec8610100860182614b1f565b50610120830151614edd610120860182614b1f565b508091505092915050565b60006020820190508181036000830152614f028184614e00565b905092915050565b604082016000820151614f206000850182614b1f565b506020820151614f336020850182614b1f565b50505050565b600061018083016000830151614f526000860182614b1f565b506020830151614f656020860182614b2e565b5060408301518482036040860152614f7d8282614b4e565b9150506060830151614f926060860182614f0a565b50608083015184820360a0860152614faa8282614b4e565b91505060a0830151614fbf60c0860182614b1f565b5060c0830151614fd260e0860182614b1f565b5060e0830151614fe6610100860182614b1f565b50610100830151614ffb610120860182614b1f565b50610120830151615010610140860182614b1f565b50610140830151615025610160860182614df1565b508091505092915050565b6000602082019050818103600083015261504a8184614f39565b905092915050565b7f4e6f7420616c6c6f7765642063616c6c65720000000000000000000000000000600082015250565b6000615088601283614813565b915061509382615052565b602082019050919050565b600060208201905081810360008301526150b78161507b565b9050919050565b7f4e487b7100000000000000000000000000000000000000000000000000000000600052602260045260246000fd5b6000600282049050600182168061510557607f821691505b602082108103615118576151176150be565b5b50919050565b7f4e487b7100000000000000000000000000000000000000000000000000000000600052601160045260246000fd5b6000615158826143ac565b9150615163836143ac565b925082820390508181111561517b5761517a61511e565b5b92915050565b600060608201905061519660008301866147f9565b6151a360208301856143b6565b6151b060408301846143b6565b949350505050565b7f4e487b7100000000000000000000000000000000000000000000000000000000600052602160045260246000fd5b600981106151f8576151f76151b8565b5b50565b6000819050615209826151e7565b919050565b6000615219826151fb565b9050919050565b6152298161520e565b82525050565b60006040820190506152446000830185615220565b61525160208301846147f9565b9392505050565b615261816144eb565b811461526c57600080fd5b50565b60008151905061527e81615258565b92915050565b60006020828403121561529a576152996143ea565b5b60006152a88482850161526f565b91505092915050565b7f4f6e6c7920616c6c6f77656420746f2072657365617263686572730000000000600082015250565b60006152e7601b83614813565b91506152f2826152b1565b602082019050919050565b60006020820190508181036000830152615316816152da565b9050919050565b7f43616e2774207075626c69736820796574000000000000000000000000000000600082015250565b6000615353601183614813565b915061535e8261531d565b602082019050919050565b6000602082019050818103600083015261538281615346565b9050919050565b6000615394826143ac565b915061539f836143ac565b92508282019050808211156153b7576153b661511e565b5b92915050565b60008190508160005260206000209050919050565b60006020601f8301049050919050565b600082821b905092915050565b60006008830261541f7fffffffffffffffffffffffffffffffffffffffffffffffffffffffffffffffff826153e2565b61542986836153e2565b95508019841693508086168417925050509392505050565b6000819050919050565b600061546661546161545c846143ac565b615441565b6143ac565b9050919050565b6000819050919050565b6154808361544b565b61549461548c8261546d565b8484546153ef565b825550505050565b600090565b6154a961549c565b6154b4818484615477565b505050565b5b818110156154d8576154cd6000826154a1565b6001810190506154ba565b5050565b601f82111561551d576154ee816153bd565b6154f7846153d2565b81016020851015615506578190505b61551a615512856153d2565b8301826154b9565b50505b505050565b600082821c905092915050565b600061554060001984600802615522565b1980831691505092915050565b6000615559838361552f565b9150826002028217905092915050565b61557282614808565b67ffffffffffffffff81111561558b5761558a614537565b5b61559582546150ed565b6155a08282856154dc565b600060209050601f8311600181146155d357600084156155c1578287015190505b6155cb858261554d565b865550615633565b601f1984166155e1866153bd565b60005b82811015615609578489015182556001820191506020850194506020810190506155e4565b868310156156265784890151615622601f89168261552f565b8355505b6001600288020188555050505b505050505050565b6000615646826143ac565b91507fffffffffffffffffffffffffffffffffffffffffffffffffffffffffffffffff82036156785761567761511e565b5b600182019050919050565b7f506f6f6c206f6e6c7920746f2072657365617263686572730000000000000000600082015250565b60006156b9601883614813565b91506156c482615683565b602082019050919050565b600060208201905081810360008301526156e8816156ac565b9050919050565b7f43616e277420617070726f766520776974686472617700000000000000000000600082015250565b6000615725601683614813565b9150615730826156ef565b602082019050919050565b6000602082019050818103600083015261575481615718565b9050919050565b600060408201905061577060008301856147f9565b61577d60208301846143b6565b9392505050565b6000819050919050565b61579781615784565b81146157a257600080fd5b50565b6000815190506157b48161578e565b92915050565b6000602082840312156157d0576157cf6143ea565b5b60006157de848285016157a5565b91505092915050565b7f4f6e6c79206f6e65206d6574686f6420616c6c6f776564000000000000000000600082015250565b600061581d601783614813565b9150615828826157e7565b602082019050919050565b6000602082019050818103600083015261584c81615810565b9050919050565b7f557365722063616e6e6f7420766f746500000000000000000000000000000000600082015250565b6000615889601083614813565b915061589482615853565b602082019050919050565b600060208201905081810360008301526158b88161587c565b9050919050565b7f576169742074696d654265747765656e566f7465730000000000000000000000600082015250565b60006158f5601583614813565b9150615900826158bf565b602082019050919050565b60006020820190508181036000830152615924816158e8565b9050919050565b7f4d61782033303020636861726163746572732072656163686564000000000000600082015250565b6000615961601a83614813565b915061596c8261592b565b602082019050919050565b6000602082019050818103600083015261599081615954565b9050919050565b7f54686973207265736561726368206973206e6f742056414c4944000000000000600082015250565b60006159cd601a83614813565b91506159d882615997565b602082019050919050565b600060208201905081810360008301526159fc816159c0565b9050919050565b600081519050615a1281614452565b92915050565b600060208284031215615a2e57615a2d6143ea565b5b6000615a3c84828501615a03565b91505092915050565b60006060820190508181036000830152615a5f8186614e00565b90508181036020830152615a73818561484e565b9050615a8260408301846147f9565b949350505050565b7f4d61782031303020636861726163746572730000000000000000000000000000600082015250565b6000615ac0601283614813565b9150615acb82615a8a565b602082019050919050565b60006020820190508181036000830152615aef81615ab3565b9050919050565b6000602082019050615b0b6000830184615220565b92915050565b7f4d6178206c696d69742072656163686564000000000000000000000000000000600082015250565b6000615b47601183614813565b9150615b5282615b11565b602082019050919050565b60006020820190508181036000830152615b7681615b3a565b9050919050565b6000604082019050615b9260008301856147f9565b615b9f6020830184615220565b9392505050565b7f5761697420756e74696c206e6578742065726120746f2061646420726573656160008201527f7263680000000000000000000000000000000000000000000000000000000000602082015250565b6000615c02602383614813565b9150615c0d82615ba6565b604082019050919050565b60006020820190508181036000830152615c3181615bf5565b9050919050565b7f4d61782063686172616374657273207265616368656400000000000000000000600082015250565b6000615c6e601683614813565b9150615c7982615c38565b602082019050919050565b60006020820190508181036000830152615c9d81615c61565b9050919050565b6000819050919050565b6000615cc9615cc4615cbf84615ca4565b615441565b6143ac565b9050919050565b615cd981615cae565b82525050565b6000604082019050615cf460008301856147f9565b615d016020830184615cd0565b9392505050565b7f4f776e61626c653a206e6577206f776e657220697320746865207a65726f206160008201527f6464726573730000000000000000000000000000000000000000000000000000602082015250565b6000615d64602683614813565b9150615d6f82615d08565b604082019050919050565b60006020820190508181036000830152615d9381615d57565b9050919050565b7f4f776e61626c653a2063616c6c6572206973206e6f7420746865206f776e6572600082015250565b6000615dd0602083614813565b9150615ddb82615d9a565b602082019050919050565b60006020820190508181036000830152615dff81615dc3565b9050919050565b6000615e11826143ac565b915060008203615e2457615e2361511e565b5b600182039050919050565b7f4e487b7100000000000000000000000000000000000000000000000000000000600052601260045260246000fd5b6000615e69826143ac565b9150615e74836143ac565b925082615e8457615e83615e2f565b5b82820490509291505056fea26469706673582212208965ca794d8005bda55391f254ebb3ddc9ae351408fdb35feb277e25442d84ad64736f6c634300081b0033",
  "linkReferences": {},
  "deployedLinkReferences": {}
}