{
  "_format": "hh-sol-artifact-1",
  "contractName": "SupporterRules",
  "sourceName": "contracts/SupporterRules.sol",
  "abi": [
    {
      "inputs": [
        {
          "internalType": "address",
          "name": "communityRulesAddress",
          "type": "address"
        },
        {
          "internalType": "address",
          "name": "supporterPoolAddress",
          "type": "address"
        },
        {
          "internalType": "address",
          "name": "researcherRulesAddress",
          "type": "address"
        }
      ],
      "stateMutability": "nonpayable",
      "type": "constructor"
    },
    {
      "inputs": [],
      "name": "INVITER_PERCENTAGE",
      "outputs": [
        {
          "internalType": "uint256",
          "name": "",
          "type": "uint256"
        }
      ],
      "stateMutability": "view",
      "type": "function"
    },
    {
      "inputs": [
        {
          "internalType": "string",
          "name": "name",
          "type": "string"
        },
        {
          "internalType": "string",
          "name": "profilePhoto",
          "type": "string"
        }
      ],
      "name": "addSupporter",
      "outputs": [],
      "stateMutability": "nonpayable",
      "type": "function"
    },
    {
      "inputs": [
        {
          "internalType": "address",
          "name": "",
          "type": "address"
        },
        {
          "internalType": "uint256",
          "name": "",
          "type": "uint256"
        }
      ],
      "name": "calculatorItemCertificates",
      "outputs": [
        {
          "internalType": "uint256",
          "name": "",
          "type": "uint256"
        }
      ],
      "stateMutability": "view",
      "type": "function"
    },
    {
      "inputs": [
        {
          "internalType": "uint256",
          "name": "calculatorItemId",
          "type": "uint256"
        }
      ],
      "name": "declareReductionCommitment",
      "outputs": [],
      "stateMutability": "nonpayable",
      "type": "function"
    },
    {
      "inputs": [
        {
          "internalType": "address",
          "name": "addr",
          "type": "address"
        }
      ],
      "name": "getPublications",
      "outputs": [
        {
          "internalType": "uint256[]",
          "name": "",
          "type": "uint256[]"
        }
      ],
      "stateMutability": "view",
      "type": "function"
    },
    {
      "inputs": [
        {
          "internalType": "address",
          "name": "addr",
          "type": "address"
        }
      ],
      "name": "getReductionCommitments",
      "outputs": [
        {
          "internalType": "uint256[]",
          "name": "",
          "type": "uint256[]"
        }
      ],
      "stateMutability": "view",
      "type": "function"
    },
    {
      "inputs": [
        {
          "internalType": "address",
          "name": "addr",
          "type": "address"
        }
      ],
      "name": "getSupporter",
      "outputs": [
        {
          "components": [
            {
              "internalType": "uint256",
              "name": "id",
              "type": "uint256"
            },
            {
              "internalType": "address",
              "name": "supporterWallet",
              "type": "address"
            },
            {
              "internalType": "string",
              "name": "name",
              "type": "string"
            },
            {
              "internalType": "string",
              "name": "profilePhoto",
              "type": "string"
            },
            {
              "internalType": "uint256",
              "name": "publicationsCount",
              "type": "uint256"
            },
            {
              "internalType": "uint256",
              "name": "offsetsCount",
              "type": "uint256"
            },
            {
              "internalType": "uint256",
              "name": "reductionItemsCount",
              "type": "uint256"
            },
            {
              "internalType": "uint256",
              "name": "createdAt",
              "type": "uint256"
            }
          ],
          "internalType": "struct Supporter",
          "name": "",
          "type": "tuple"
        }
      ],
      "stateMutability": "view",
      "type": "function"
    },
    {
      "inputs": [
        {
          "internalType": "uint256",
          "name": "amount",
          "type": "uint256"
        },
        {
          "internalType": "uint256",
          "name": "calculatorItemId",
          "type": "uint256"
        }
      ],
      "name": "offset",
      "outputs": [],
      "stateMutability": "nonpayable",
      "type": "function"
    },
    {
      "inputs": [
        {
          "internalType": "address",
          "name": "",
          "type": "address"
        },
        {
          "internalType": "uint256",
          "name": "",
          "type": "uint256"
        }
      ],
      "name": "offsetIds",
      "outputs": [
        {
          "internalType": "uint256",
          "name": "id",
          "type": "uint256"
        }
      ],
      "stateMutability": "view",
      "type": "function"
    },
    {
      "inputs": [
        {
          "internalType": "uint256",
          "name": "",
          "type": "uint256"
        }
      ],
      "name": "offsets",
      "outputs": [
        {
          "internalType": "address",
          "name": "supporterAddress",
          "type": "address"
        },
        {
          "internalType": "uint256",
          "name": "createdAt",
          "type": "uint256"
        },
        {
          "internalType": "uint256",
          "name": "amountBurn",
          "type": "uint256"
        },
        {
          "internalType": "uint256",
          "name": "calculatorItemId",
          "type": "uint256"
        }
      ],
      "stateMutability": "view",
      "type": "function"
    },
    {
      "inputs": [],
      "name": "offsetsCount",
      "outputs": [
        {
          "internalType": "uint256",
          "name": "",
          "type": "uint256"
        }
      ],
      "stateMutability": "view",
      "type": "function"
    },
    {
      "inputs": [
        {
          "internalType": "address",
          "name": "",
          "type": "address"
        },
        {
          "internalType": "uint256",
          "name": "",
          "type": "uint256"
        }
      ],
      "name": "publicationIds",
      "outputs": [
        {
          "internalType": "uint256",
          "name": "id",
          "type": "uint256"
        }
      ],
      "stateMutability": "view",
      "type": "function"
    },
    {
      "inputs": [
        {
          "internalType": "uint256",
          "name": "",
          "type": "uint256"
        }
      ],
      "name": "publications",
      "outputs": [
        {
          "internalType": "address",
          "name": "supporterAddress",
          "type": "address"
        },
        {
          "internalType": "uint256",
          "name": "createdAt",
          "type": "uint256"
        },
        {
          "internalType": "uint256",
          "name": "amount",
          "type": "uint256"
        },
        {
          "internalType": "string",
          "name": "description",
          "type": "string"
        },
        {
          "internalType": "string",
          "name": "content",
          "type": "string"
        }
      ],
      "stateMutability": "view",
      "type": "function"
    },
    {
      "inputs": [],
      "name": "publicationsCount",
      "outputs": [
        {
          "internalType": "uint256",
          "name": "",
          "type": "uint256"
        }
      ],
      "stateMutability": "view",
      "type": "function"
    },
    {
      "inputs": [
        {
          "internalType": "uint256",
          "name": "amount",
          "type": "uint256"
        },
        {
          "internalType": "string",
          "name": "description",
          "type": "string"
        },
        {
          "internalType": "string",
          "name": "content",
          "type": "string"
        }
      ],
      "name": "publish",
      "outputs": [],
      "stateMutability": "nonpayable",
      "type": "function"
    },
    {
      "inputs": [
        {
          "internalType": "address",
          "name": "",
          "type": "address"
        },
        {
          "internalType": "uint256",
          "name": "",
          "type": "uint256"
        }
      ],
      "name": "reductionCommitments",
      "outputs": [
        {
          "internalType": "uint256",
          "name": "",
          "type": "uint256"
        }
      ],
      "stateMutability": "view",
      "type": "function"
    },
    {
      "inputs": [
        {
          "internalType": "uint256",
          "name": "",
          "type": "uint256"
        }
      ],
      "name": "supportersAddress",
      "outputs": [
        {
          "internalType": "address",
          "name": "",
          "type": "address"
        }
      ],
      "stateMutability": "view",
      "type": "function"
    },
    {
      "inputs": [
        {
          "internalType": "string",
          "name": "newPhoto",
          "type": "string"
        }
      ],
      "name": "updateProfilePhoto",
      "outputs": [],
      "stateMutability": "nonpayable",
      "type": "function"
    }
  ],
  "bytecode": "0x608060405234801561001057600080fd5b50604051612f77380380612f7783398181016040528101906100329190610160565b82600a60006101000a81548173ffffffffffffffffffffffffffffffffffffffff021916908373ffffffffffffffffffffffffffffffffffffffff16021790555081600b60006101000a81548173ffffffffffffffffffffffffffffffffffffffff021916908373ffffffffffffffffffffffffffffffffffffffff16021790555080600c60006101000a81548173ffffffffffffffffffffffffffffffffffffffff021916908373ffffffffffffffffffffffffffffffffffffffff1602179055505050506101b3565b600080fd5b600073ffffffffffffffffffffffffffffffffffffffff82169050919050565b600061012d82610102565b9050919050565b61013d81610122565b811461014857600080fd5b50565b60008151905061015a81610134565b92915050565b600080600060608486031215610179576101786100fd565b5b60006101878682870161014b565b93505060206101988682870161014b565b92505060406101a98682870161014b565b9150509250925092565b612db5806101c26000396000f3fe608060405234801561001057600080fd5b50600436106101165760003560e01c80636c960b0d116100a257806394cea0a31161007157806394cea0a31461031e578063d4fadeae1461033c578063d64da3311461036c578063dc02837f1461039c578063f0006940146103cc57610116565b80636c960b0d1461028157806381914619146102b157806385851afc146102e457806388cc28da1461030257610116565b80630e2647ad116100e95780630e2647ad146101c95780631fd5bbab146101e5578063243c145214610219578063335525ad14610235578063591ba3911461025157610116565b806305b95fbe1461011b578063082047801461014b5780630864e8f61461017b5780630d378ffd14610199575b600080fd5b61013560048036038101906101309190611b49565b6103e8565b6040516101429190611bb7565b60405180910390f35b61016560048036038101906101609190611bfe565b61041b565b6040516101729190611ce9565b60405180910390f35b6101836104b2565b6040516101909190611d1a565b60405180910390f35b6101b360048036038101906101ae9190611d35565b6104b8565b6040516101c09190611d1a565b60405180910390f35b6101e360048036038101906101de9190611ebb565b6104e9565b005b6101ff60048036038101906101fa9190611b49565b61065e565b604051610210959493929190611f83565b60405180910390f35b610233600480360381019061022e9190611fe4565b6107c4565b005b61024f600480360381019061024a919061205c565b610aea565b005b61026b60048036038101906102669190611d35565b610f41565b6040516102789190611d1a565b60405180910390f35b61029b60048036038101906102969190611d35565b610f78565b6040516102a89190611d1a565b60405180910390f35b6102cb60048036038101906102c69190611b49565b610f9d565b6040516102db949392919061209c565b60405180910390f35b6102ec610fed565b6040516102f99190611d1a565b60405180910390f35b61031c60048036038101906103179190611b49565b610ff3565b005b61032661127e565b6040516103339190611d1a565b60405180910390f35b61035660048036038101906103519190611bfe565b611283565b6040516103639190611ce9565b60405180910390f35b61038660048036038101906103819190611d35565b61131a565b6040516103939190611d1a565b60405180910390f35b6103b660048036038101906103b19190611bfe565b611351565b6040516103c391906121f1565b60405180910390f35b6103e660048036038101906103e19190612213565b611556565b005b60036020528060005260406000206000915054906101000a900473ffffffffffffffffffffffffffffffffffffffff1681565b6060600260008373ffffffffffffffffffffffffffffffffffffffff1673ffffffffffffffffffffffffffffffffffffffff1681526020019081526020016000208054806020026020016040519081016040528092919081815260200182805480156104a657602002820191906000526020600020905b815481526020019060010190808311610492575b50505050509050919050565b60065481565b600260205281600052604060002081815481106104d457600080fd5b90600052602060002001600091509150505481565b600a60009054906101000a900473ffffffffffffffffffffffffffffffffffffffff1673ffffffffffffffffffffffffffffffffffffffff16639497c6086007336040518363ffffffff1660e01b8152600401610547929190612315565b602060405180830381865afa158015610564573d6000803e3d6000fd5b505050506040513d601f19601f820116820180604052508101906105889190612376565b6105c7576040517f08c379a00000000000000000000000000000000000000000000000000000000081526004016105be906123ef565b60405180910390fd5b60648151111561060c576040517f08c379a00000000000000000000000000000000000000000000000000000000081526004016106039061245b565b60405180910390fd5b806000803373ffffffffffffffffffffffffffffffffffffffff1673ffffffffffffffffffffffffffffffffffffffff168152602001908152602001600020600301908161065a9190612687565b5050565b60046020528060005260406000206000915090508060000160009054906101000a900473ffffffffffffffffffffffffffffffffffffffff16908060010154908060020154908060030180546106b3906124aa565b80601f01602080910402602001604051908101604052809291908181526020018280546106df906124aa565b801561072c5780601f106107015761010080835404028352916020019161072c565b820191906000526020600020905b81548152906001019060200180831161070f57829003601f168201915b505050505090806004018054610741906124aa565b80601f016020809104026020016040519081016040528092919081815260200182805461076d906124aa565b80156107ba5780601f1061078f576101008083540402835291602001916107ba565b820191906000526020600020905b81548152906001019060200180831161079d57829003601f168201915b5050505050905085565b60648251111580156107d857506064815111155b610817576040517f08c379a000000000000000000000000000000000000000000000000000000000815260040161080e9061245b565b60405180910390fd5b60006001600a60009054906101000a900473ffffffffffffffffffffffffffffffffffffffff1673ffffffffffffffffffffffffffffffffffffffff16631eb2c12060076040518263ffffffff1660e01b81526004016108779190612759565b602060405180830381865afa158015610894573d6000803e3d6000fd5b505050506040513d601f19601f820116820180604052508101906108b89190612789565b6108c291906127e5565b905060006040518061010001604052808381526020013373ffffffffffffffffffffffffffffffffffffffff168152602001858152602001848152602001600081526020016000815260200160008152602001438152509050806000803373ffffffffffffffffffffffffffffffffffffffff1673ffffffffffffffffffffffffffffffffffffffff1681526020019081526020016000206000820151816000015560208201518160010160006101000a81548173ffffffffffffffffffffffffffffffffffffffff021916908373ffffffffffffffffffffffffffffffffffffffff16021790555060408201518160020190816109c09190612687565b5060608201518160030190816109d69190612687565b506080820151816004015560a0820151816005015560c0820151816006015560e08201518160070155905050336003600084815260200190815260200160002060006101000a81548173ffffffffffffffffffffffffffffffffffffffff021916908373ffffffffffffffffffffffffffffffffffffffff160217905550600a60009054906101000a900473ffffffffffffffffffffffffffffffffffffffff1673ffffffffffffffffffffffffffffffffffffffff16639c3eead93360076040518363ffffffff1660e01b8152600401610ab2929190612819565b600060405180830381600087803b158015610acc57600080fd5b505af1158015610ae0573d6000803e3d6000fd5b5050505050505050565b600a60009054906101000a900473ffffffffffffffffffffffffffffffffffffffff1673ffffffffffffffffffffffffffffffffffffffff16639497c6086007336040518363ffffffff1660e01b8152600401610b48929190612315565b602060405180830381865afa158015610b65573d6000803e3d6000fd5b505050506040513d601f19601f82011682018060405250810190610b899190612376565b610bc8576040517f08c379a0000000000000000000000000000000000000000000000000000000008152600401610bbf906123ef565b60405180910390fd5b670de0b6b3a7640000821015610c13576040517f08c379a0000000000000000000000000000000000000000000000000000000008152600401610c0a9061288e565b60405180910390fd5b60008211610c56576040517f08c379a0000000000000000000000000000000000000000000000000000000008152600401610c4d9061288e565b60405180910390fd5b6000610c61836118c3565b905060006001600954610c7491906127e5565b90506000831115610d9b576000600c60009054906101000a900473ffffffffffffffffffffffffffffffffffffffff1673ffffffffffffffffffffffffffffffffffffffff1663a58273c8856040518263ffffffff1660e01b8152600401610cdc9190611d1a565b600060405180830381865afa158015610cf9573d6000803e3d6000fd5b505050506040513d6000823e3d601f19601f82011682018060405250810190610d229190612a31565b9050600081600001511115610d995782600160003373ffffffffffffffffffffffffffffffffffffffff1673ffffffffffffffffffffffffffffffffffffffff16815260200190815260200160002060008681526020019081526020016000206000828254610d9191906127e5565b925050819055505b505b60405180608001604052803373ffffffffffffffffffffffffffffffffffffffff168152602001438152602001838152602001848152506007600083815260200190815260200160002060008201518160000160006101000a81548173ffffffffffffffffffffffffffffffffffffffff021916908373ffffffffffffffffffffffffffffffffffffffff160217905550602082015181600101556040820151816002015560608201518160030155905050600860003373ffffffffffffffffffffffffffffffffffffffff1673ffffffffffffffffffffffffffffffffffffffff1681526020019081526020016000206040518060200160405280838152509080600181540180825580915050600190039060005260206000200160009091909190915060008201518160000155505060096000815480929190610edf90612a7a565b91905055506000803373ffffffffffffffffffffffffffffffffffffffff1673ffffffffffffffffffffffffffffffffffffffff1681526020019081526020016000206005016000815480929190610f3690612a7a565b919050555050505050565b60086020528160005260406000208181548110610f5d57600080fd5b90600052602060002001600091509150508060000154905081565b6001602052816000526040600020602052806000526040600020600091509150505481565b60076020528060005260406000206000915090508060000160009054906101000a900473ffffffffffffffffffffffffffffffffffffffff16908060010154908060020154908060030154905084565b60095481565b600a60009054906101000a900473ffffffffffffffffffffffffffffffffffffffff1673ffffffffffffffffffffffffffffffffffffffff16639497c6086007336040518363ffffffff1660e01b8152600401611051929190612315565b602060405180830381865afa15801561106e573d6000803e3d6000fd5b505050506040513d601f19601f820116820180604052508101906110929190612376565b6110d1576040517f08c379a00000000000000000000000000000000000000000000000000000000081526004016110c8906123ef565b60405180910390fd5b6000600c60009054906101000a900473ffffffffffffffffffffffffffffffffffffffff1673ffffffffffffffffffffffffffffffffffffffff1663a58273c8836040518263ffffffff1660e01b815260040161112e9190611d1a565b600060405180830381865afa15801561114b573d6000803e3d6000fd5b505050506040513d6000823e3d601f19601f820116820180604052508101906111749190612a31565b905060008160000151116111bd576040517f08c379a00000000000000000000000000000000000000000000000000000000081526004016111b490612b0e565b60405180910390fd5b600260003373ffffffffffffffffffffffffffffffffffffffff1673ffffffffffffffffffffffffffffffffffffffff1681526020019081526020016000208290806001815401808255809150506001900390600052602060002001600090919091909150556000803373ffffffffffffffffffffffffffffffffffffffff1673ffffffffffffffffffffffffffffffffffffffff168152602001908152602001600020600601600081548092919061127590612a7a565b91905055505050565b600581565b6060600260008373ffffffffffffffffffffffffffffffffffffffff1673ffffffffffffffffffffffffffffffffffffffff16815260200190815260200160002080548060200260200160405190810160405280929190818152602001828054801561130e57602002820191906000526020600020905b8154815260200190600101908083116112fa575b50505050509050919050565b6005602052816000526040600020818154811061133657600080fd5b90600052602060002001600091509150508060000154905081565b611359611aa4565b6000808373ffffffffffffffffffffffffffffffffffffffff1673ffffffffffffffffffffffffffffffffffffffff16815260200190815260200160002060405180610100016040529081600082015481526020016001820160009054906101000a900473ffffffffffffffffffffffffffffffffffffffff1673ffffffffffffffffffffffffffffffffffffffff1673ffffffffffffffffffffffffffffffffffffffff168152602001600282018054611413906124aa565b80601f016020809104026020016040519081016040528092919081815260200182805461143f906124aa565b801561148c5780601f106114615761010080835404028352916020019161148c565b820191906000526020600020905b81548152906001019060200180831161146f57829003601f168201915b505050505081526020016003820180546114a5906124aa565b80601f01602080910402602001604051908101604052809291908181526020018280546114d1906124aa565b801561151e5780601f106114f35761010080835404028352916020019161151e565b820191906000526020600020905b81548152906001019060200180831161150157829003601f168201915b505050505081526020016004820154815260200160058201548152602001600682015481526020016007820154815250509050919050565b600a60009054906101000a900473ffffffffffffffffffffffffffffffffffffffff1673ffffffffffffffffffffffffffffffffffffffff16639497c6086007336040518363ffffffff1660e01b81526004016115b4929190612315565b602060405180830381865afa1580156115d1573d6000803e3d6000fd5b505050506040513d601f19601f820116820180604052508101906115f59190612376565b611634576040517f08c379a000000000000000000000000000000000000000000000000000000000815260040161162b906123ef565b60405180910390fd5b670de0b6b3a764000083101561167f576040517f08c379a00000000000000000000000000000000000000000000000000000000081526004016116769061288e565b60405180910390fd5b6103e882511115801561169557506103e8815111155b6116d4576040517f08c379a00000000000000000000000000000000000000000000000000000000081526004016116cb90612b7a565b60405180910390fd5b60006116df846118c3565b9050600060016006546116f291906127e5565b90506040518060a001604052803373ffffffffffffffffffffffffffffffffffffffff168152602001438152602001838152602001858152602001848152506004600083815260200190815260200160002060008201518160000160006101000a81548173ffffffffffffffffffffffffffffffffffffffff021916908373ffffffffffffffffffffffffffffffffffffffff160217905550602082015181600101556040820151816002015560608201518160030190816117b49190612687565b5060808201518160040190816117ca9190612687565b50905050600560003373ffffffffffffffffffffffffffffffffffffffff1673ffffffffffffffffffffffffffffffffffffffff168152602001908152602001600020604051806020016040528083815250908060018154018082558091505060019003906000526020600020016000909190919091506000820151816000015550506006600081548092919061186090612a7a565b91905055506000803373ffffffffffffffffffffffffffffffffffffffff1673ffffffffffffffffffffffffffffffffffffffff16815260200190815260200160002060040160008154809291906118b790612a7a565b91905055505050505050565b600080600a60009054906101000a900473ffffffffffffffffffffffffffffffffffffffff1673ffffffffffffffffffffffffffffffffffffffff16632b17b8be336040518263ffffffff1660e01b81526004016119219190611bb7565b608060405180830381865afa15801561193e573d6000803e3d6000fd5b505050506040513d601f19601f820116820180604052508101906119629190612c37565b905060008082606001511415905060008161197e5760006119a6565b6119a56064611997600588611a6290919063ffffffff16565b611a7890919063ffffffff16565b5b905060006119bd8287611a8e90919063ffffffff16565b9050600b60009054906101000a900473ffffffffffffffffffffffffffffffffffffffff1673ffffffffffffffffffffffffffffffffffffffff1663f61b916033866020015184866040518563ffffffff1660e01b8152600401611a249493929190612c64565b600060405180830381600087803b158015611a3e57600080fd5b505af1158015611a52573d6000803e3d6000fd5b5050505080945050505050919050565b60008183611a709190612ca9565b905092915050565b60008183611a869190612d1a565b905092915050565b60008183611a9c9190612d4b565b905092915050565b60405180610100016040528060008152602001600073ffffffffffffffffffffffffffffffffffffffff1681526020016060815260200160608152602001600081526020016000815260200160008152602001600081525090565b6000604051905090565b600080fd5b600080fd5b6000819050919050565b611b2681611b13565b8114611b3157600080fd5b50565b600081359050611b4381611b1d565b92915050565b600060208284031215611b5f57611b5e611b09565b5b6000611b6d84828501611b34565b91505092915050565b600073ffffffffffffffffffffffffffffffffffffffff82169050919050565b6000611ba182611b76565b9050919050565b611bb181611b96565b82525050565b6000602082019050611bcc6000830184611ba8565b92915050565b611bdb81611b96565b8114611be657600080fd5b50565b600081359050611bf881611bd2565b92915050565b600060208284031215611c1457611c13611b09565b5b6000611c2284828501611be9565b91505092915050565b600081519050919050565b600082825260208201905092915050565b6000819050602082019050919050565b611c6081611b13565b82525050565b6000611c728383611c57565b60208301905092915050565b6000602082019050919050565b6000611c9682611c2b565b611ca08185611c36565b9350611cab83611c47565b8060005b83811015611cdc578151611cc38882611c66565b9750611cce83611c7e565b925050600181019050611caf565b5085935050505092915050565b60006020820190508181036000830152611d038184611c8b565b905092915050565b611d1481611b13565b82525050565b6000602082019050611d2f6000830184611d0b565b92915050565b60008060408385031215611d4c57611d4b611b09565b5b6000611d5a85828601611be9565b9250506020611d6b85828601611b34565b9150509250929050565b600080fd5b600080fd5b6000601f19601f8301169050919050565b7f4e487b7100000000000000000000000000000000000000000000000000000000600052604160045260246000fd5b611dc882611d7f565b810181811067ffffffffffffffff82111715611de757611de6611d90565b5b80604052505050565b6000611dfa611aff565b9050611e068282611dbf565b919050565b600067ffffffffffffffff821115611e2657611e25611d90565b5b611e2f82611d7f565b9050602081019050919050565b82818337600083830152505050565b6000611e5e611e5984611e0b565b611df0565b905082815260208101848484011115611e7a57611e79611d7a565b5b611e85848285611e3c565b509392505050565b600082601f830112611ea257611ea1611d75565b5b8135611eb2848260208601611e4b565b91505092915050565b600060208284031215611ed157611ed0611b09565b5b600082013567ffffffffffffffff811115611eef57611eee611b0e565b5b611efb84828501611e8d565b91505092915050565b600081519050919050565b600082825260208201905092915050565b60005b83811015611f3e578082015181840152602081019050611f23565b60008484015250505050565b6000611f5582611f04565b611f5f8185611f0f565b9350611f6f818560208601611f20565b611f7881611d7f565b840191505092915050565b600060a082019050611f986000830188611ba8565b611fa56020830187611d0b565b611fb26040830186611d0b565b8181036060830152611fc48185611f4a565b90508181036080830152611fd88184611f4a565b90509695505050505050565b60008060408385031215611ffb57611ffa611b09565b5b600083013567ffffffffffffffff81111561201957612018611b0e565b5b61202585828601611e8d565b925050602083013567ffffffffffffffff81111561204657612045611b0e565b5b61205285828601611e8d565b9150509250929050565b6000806040838503121561207357612072611b09565b5b600061208185828601611b34565b925050602061209285828601611b34565b9150509250929050565b60006080820190506120b16000830187611ba8565b6120be6020830186611d0b565b6120cb6040830185611d0b565b6120d86060830184611d0b565b95945050505050565b6120ea81611b96565b82525050565b600082825260208201905092915050565b600061210c82611f04565b61211681856120f0565b9350612126818560208601611f20565b61212f81611d7f565b840191505092915050565b6000610100830160008301516121536000860182611c57565b50602083015161216660208601826120e1565b506040830151848203604086015261217e8282612101565b915050606083015184820360608601526121988282612101565b91505060808301516121ad6080860182611c57565b5060a08301516121c060a0860182611c57565b5060c08301516121d360c0860182611c57565b5060e08301516121e660e0860182611c57565b508091505092915050565b6000602082019050818103600083015261220b818461213a565b905092915050565b60008060006060848603121561222c5761222b611b09565b5b600061223a86828701611b34565b935050602084013567ffffffffffffffff81111561225b5761225a611b0e565b5b61226786828701611e8d565b925050604084013567ffffffffffffffff81111561228857612287611b0e565b5b61229486828701611e8d565b9150509250925092565b7f4e487b7100000000000000000000000000000000000000000000000000000000600052602160045260246000fd5b600981106122de576122dd61229e565b5b50565b60008190506122ef826122cd565b919050565b60006122ff826122e1565b9050919050565b61230f816122f4565b82525050565b600060408201905061232a6000830185612306565b6123376020830184611ba8565b9392505050565b60008115159050919050565b6123538161233e565b811461235e57600080fd5b50565b6000815190506123708161234a565b92915050565b60006020828403121561238c5761238b611b09565b5b600061239a84828501612361565b91505092915050565b7f4f6e6c7920737570706f72746572730000000000000000000000000000000000600082015250565b60006123d9600f83611f0f565b91506123e4826123a3565b602082019050919050565b60006020820190508181036000830152612408816123cc565b9050919050565b7f4d61782031303020636861726163746572730000000000000000000000000000600082015250565b6000612445601283611f0f565b91506124508261240f565b602082019050919050565b6000602082019050818103600083015261247481612438565b9050919050565b7f4e487b7100000000000000000000000000000000000000000000000000000000600052602260045260246000fd5b600060028204905060018216806124c257607f821691505b6020821081036124d5576124d461247b565b5b50919050565b60008190508160005260206000209050919050565b60006020601f8301049050919050565b600082821b905092915050565b60006008830261253d7fffffffffffffffffffffffffffffffffffffffffffffffffffffffffffffffff82612500565b6125478683612500565b95508019841693508086168417925050509392505050565b6000819050919050565b600061258461257f61257a84611b13565b61255f565b611b13565b9050919050565b6000819050919050565b61259e83612569565b6125b26125aa8261258b565b84845461250d565b825550505050565b600090565b6125c76125ba565b6125d2818484612595565b505050565b5b818110156125f6576125eb6000826125bf565b6001810190506125d8565b5050565b601f82111561263b5761260c816124db565b612615846124f0565b81016020851015612624578190505b612638612630856124f0565b8301826125d7565b50505b505050565b600082821c905092915050565b600061265e60001984600802612640565b1980831691505092915050565b6000612677838361264d565b9150826002028217905092915050565b61269082611f04565b67ffffffffffffffff8111156126a9576126a8611d90565b5b6126b382546124aa565b6126be8282856125fa565b600060209050601f8311600181146126f157600084156126df578287015190505b6126e9858261266b565b865550612751565b601f1984166126ff866124db565b60005b8281101561272757848901518255600182019150602085019450602081019050612702565b868310156127445784890151612740601f89168261264d565b8355505b6001600288020188555050505b505050505050565b600060208201905061276e6000830184612306565b92915050565b60008151905061278381611b1d565b92915050565b60006020828403121561279f5761279e611b09565b5b60006127ad84828501612774565b91505092915050565b7f4e487b7100000000000000000000000000000000000000000000000000000000600052601160045260246000fd5b60006127f082611b13565b91506127fb83611b13565b9250828201905080821115612813576128126127b6565b5b92915050565b600060408201905061282e6000830185611ba8565b61283b6020830184612306565b9392505050565b7f416d6f756e7420696e76616c6964000000000000000000000000000000000000600082015250565b6000612878600e83611f0f565b915061288382612842565b602082019050919050565b600060208201905081810360008301526128a78161286b565b9050919050565b600080fd5b600080fd5b6000815190506128c781611bd2565b92915050565b60006128e06128db84611e0b565b611df0565b9050828152602081018484840111156128fc576128fb611d7a565b5b612907848285611f20565b509392505050565b600082601f83011261292457612923611d75565b5b81516129348482602086016128cd565b91505092915050565b600060c08284031215612953576129526128ae565b5b61295d60c0611df0565b9050600061296d84828501612774565b6000830152506020612981848285016128b8565b602083015250604082015167ffffffffffffffff8111156129a5576129a46128b3565b5b6129b18482850161290f565b604083015250606082015167ffffffffffffffff8111156129d5576129d46128b3565b5b6129e18482850161290f565b606083015250608082015167ffffffffffffffff811115612a0557612a046128b3565b5b612a118482850161290f565b60808301525060a0612a2584828501612774565b60a08301525092915050565b600060208284031215612a4757612a46611b09565b5b600082015167ffffffffffffffff811115612a6557612a64611b0e565b5b612a718482850161293d565b91505092915050565b6000612a8582611b13565b91507fffffffffffffffffffffffffffffffffffffffffffffffffffffffffffffffff8203612ab757612ab66127b6565b5b600182019050919050565b7f43616c63756c61746f72206974656d20646f6573206e6f742065786973740000600082015250565b6000612af8601e83611f0f565b9150612b0382612ac2565b602082019050919050565b60006020820190508181036000830152612b2781612aeb565b9050919050565b7f4d61782031303030206368617261637465727300000000000000000000000000600082015250565b6000612b64601383611f0f565b9150612b6f82612b2e565b602082019050919050565b60006020820190508181036000830152612b9381612b57565b9050919050565b60098110612ba757600080fd5b50565b600081519050612bb981612b9a565b92915050565b600060808284031215612bd557612bd46128ae565b5b612bdf6080611df0565b90506000612bef848285016128b8565b6000830152506020612c03848285016128b8565b6020830152506040612c1784828501612baa565b6040830152506060612c2b84828501612774565b60608301525092915050565b600060808284031215612c4d57612c4c611b09565b5b6000612c5b84828501612bbf565b91505092915050565b6000608082019050612c796000830187611ba8565b612c866020830186611ba8565b612c936040830185611d0b565b612ca06060830184611d0b565b95945050505050565b6000612cb482611b13565b9150612cbf83611b13565b9250828202612ccd81611b13565b91508282048414831517612ce457612ce36127b6565b5b5092915050565b7f4e487b7100000000000000000000000000000000000000000000000000000000600052601260045260246000fd5b6000612d2582611b13565b9150612d3083611b13565b925082612d4057612d3f612ceb565b5b828204905092915050565b6000612d5682611b13565b9150612d6183611b13565b9250828203905081811115612d7957612d786127b6565b5b9291505056fea26469706673582212207a694cf29077474e2525e2ce483ea692c673f4d20ac6d9fa2d59b4c0fe4b1dd764736f6c634300081b0033",
  "linkReferences": {},
  "deployedLinkReferences": {}
}