{
  "_format": "hh-sol-artifact-1",
  "contractName": "SupporterRules",
  "sourceName": "contracts/SupporterRules.sol",
  "abi": [
    {
      "inputs": [
        {
          "internalType": "address",
          "name": "communityRulesAddress",
          "type": "address"
        },
        {
          "internalType": "address",
          "name": "researcherRulesAddress",
          "type": "address"
        },
        {
          "internalType": "address",
          "name": "regenerationCreditAddress",
          "type": "address"
        }
      ],
      "stateMutability": "nonpayable",
      "type": "constructor"
    },
    {
      "inputs": [],
      "name": "ReentrancyGuardReentrantCall",
      "type": "error"
    },
    {
      "anonymous": false,
      "inputs": [
        {
          "indexed": true,
          "internalType": "address",
          "name": "supporterAddress",
          "type": "address"
        },
        {
          "indexed": false,
          "internalType": "uint256",
          "name": "offsetId",
          "type": "uint256"
        },
        {
          "indexed": false,
          "internalType": "uint256",
          "name": "amountBurned",
          "type": "uint256"
        },
        {
          "indexed": false,
          "internalType": "uint256",
          "name": "calculatorItemId",
          "type": "uint256"
        },
        {
          "indexed": false,
          "internalType": "uint256",
          "name": "blockNumber",
          "type": "uint256"
        },
        {
          "indexed": false,
          "internalType": "string",
          "name": "message",
          "type": "string"
        }
      ],
      "name": "OffsetMade",
      "type": "event"
    },
    {
      "anonymous": false,
      "inputs": [
        {
          "indexed": true,
          "internalType": "address",
          "name": "supporterAddress",
          "type": "address"
        },
        {
          "indexed": false,
          "internalType": "uint256",
          "name": "calculatorItemId",
          "type": "uint256"
        },
        {
          "indexed": false,
          "internalType": "uint256",
          "name": "blockNumber",
          "type": "uint256"
        }
      ],
      "name": "ReductionCommitmentDeclared",
      "type": "event"
    },
    {
      "anonymous": false,
      "inputs": [
        {
          "indexed": true,
          "internalType": "address",
          "name": "supporterAddress",
          "type": "address"
        },
        {
          "indexed": false,
          "internalType": "uint256",
          "name": "supporterId",
          "type": "uint256"
        },
        {
          "indexed": false,
          "internalType": "string",
          "name": "name",
          "type": "string"
        },
        {
          "indexed": false,
          "internalType": "string",
          "name": "profilePhoto",
          "type": "string"
        },
        {
          "indexed": false,
          "internalType": "uint256",
          "name": "createdAtBlock",
          "type": "uint256"
        }
      ],
      "name": "SupporterRegistered",
      "type": "event"
    },
    {
      "inputs": [],
      "name": "INVITER_PERCENTAGE",
      "outputs": [
        {
          "internalType": "uint8",
          "name": "",
          "type": "uint8"
        }
      ],
      "stateMutability": "view",
      "type": "function"
    },
    {
      "inputs": [],
      "name": "MAX_COMMITMENTS",
      "outputs": [
        {
          "internalType": "uint256",
          "name": "",
          "type": "uint256"
        }
      ],
      "stateMutability": "view",
      "type": "function"
    },
    {
      "inputs": [
        {
          "internalType": "string",
          "name": "name",
          "type": "string"
        },
        {
          "internalType": "string",
          "name": "description",
          "type": "string"
        },
        {
          "internalType": "string",
          "name": "profilePhoto",
          "type": "string"
        }
      ],
      "name": "addSupporter",
      "outputs": [],
      "stateMutability": "nonpayable",
      "type": "function"
    },
    {
      "inputs": [
        {
          "internalType": "address",
          "name": "",
          "type": "address"
        },
        {
          "internalType": "uint64",
          "name": "",
          "type": "uint64"
        }
      ],
      "name": "calculatorItemCertificates",
      "outputs": [
        {
          "internalType": "uint256",
          "name": "",
          "type": "uint256"
        }
      ],
      "stateMutability": "view",
      "type": "function"
    },
    {
      "inputs": [
        {
          "internalType": "uint64",
          "name": "calculatorItemId",
          "type": "uint64"
        }
      ],
      "name": "declareReductionCommitment",
      "outputs": [],
      "stateMutability": "nonpayable",
      "type": "function"
    },
    {
      "inputs": [
        {
          "internalType": "address",
          "name": "",
          "type": "address"
        },
        {
          "internalType": "uint256",
          "name": "",
          "type": "uint256"
        }
      ],
      "name": "declaredReduction",
      "outputs": [
        {
          "internalType": "bool",
          "name": "",
          "type": "bool"
        }
      ],
      "stateMutability": "view",
      "type": "function"
    },
    {
      "inputs": [
        {
          "internalType": "address",
          "name": "addr",
          "type": "address"
        }
      ],
      "name": "getReductionCommitments",
      "outputs": [
        {
          "internalType": "uint64[]",
          "name": "",
          "type": "uint64[]"
        }
      ],
      "stateMutability": "view",
      "type": "function"
    },
    {
      "inputs": [
        {
          "internalType": "address",
          "name": "addr",
          "type": "address"
        }
      ],
      "name": "getSupporter",
      "outputs": [
        {
          "components": [
            {
              "internalType": "uint64",
              "name": "id",
              "type": "uint64"
            },
            {
              "internalType": "address",
              "name": "supporterWallet",
              "type": "address"
            },
            {
              "internalType": "string",
              "name": "name",
              "type": "string"
            },
            {
              "internalType": "string",
              "name": "description",
              "type": "string"
            },
            {
              "internalType": "string",
              "name": "profilePhoto",
              "type": "string"
            },
            {
              "internalType": "uint32",
              "name": "offsetsCount",
              "type": "uint32"
            },
            {
              "internalType": "uint16",
              "name": "reductionItemsCount",
              "type": "uint16"
            },
            {
              "internalType": "uint256",
              "name": "createdAt",
              "type": "uint256"
            }
          ],
          "internalType": "struct Supporter",
          "name": "",
          "type": "tuple"
        }
      ],
      "stateMutability": "view",
      "type": "function"
    },
    {
      "inputs": [
        {
          "internalType": "uint256",
          "name": "amount",
          "type": "uint256"
        },
        {
          "internalType": "uint256",
          "name": "minAmountToBurn",
          "type": "uint256"
        },
        {
          "internalType": "uint64",
          "name": "calculatorItemId",
          "type": "uint64"
        },
        {
          "internalType": "string",
          "name": "message",
          "type": "string"
        }
      ],
      "name": "offset",
      "outputs": [],
      "stateMutability": "nonpayable",
      "type": "function"
    },
    {
      "inputs": [
        {
          "internalType": "uint64",
          "name": "",
          "type": "uint64"
        }
      ],
      "name": "offsets",
      "outputs": [
        {
          "internalType": "address",
          "name": "supporterAddress",
          "type": "address"
        },
        {
          "internalType": "uint256",
          "name": "createdAt",
          "type": "uint256"
        },
        {
          "internalType": "uint256",
          "name": "amountBurn",
          "type": "uint256"
        },
        {
          "internalType": "uint256",
          "name": "calculatorItemId",
          "type": "uint256"
        },
        {
          "internalType": "string",
          "name": "message",
          "type": "string"
        }
      ],
      "stateMutability": "view",
      "type": "function"
    },
    {
      "inputs": [],
      "name": "offsetsCount",
      "outputs": [
        {
          "internalType": "uint64",
          "name": "",
          "type": "uint64"
        }
      ],
      "stateMutability": "view",
      "type": "function"
    },
    {
      "inputs": [
        {
          "internalType": "address",
          "name": "",
          "type": "address"
        },
        {
          "internalType": "uint256",
          "name": "",
          "type": "uint256"
        }
      ],
      "name": "reductionCommitments",
      "outputs": [
        {
          "internalType": "uint64",
          "name": "",
          "type": "uint64"
        }
      ],
      "stateMutability": "view",
      "type": "function"
    },
    {
      "inputs": [],
      "name": "regenerationCredit",
      "outputs": [
        {
          "internalType": "contract IRegenerationCredit",
          "name": "",
          "type": "address"
        }
      ],
      "stateMutability": "view",
      "type": "function"
    },
    {
      "inputs": [
        {
          "internalType": "uint256",
          "name": "",
          "type": "uint256"
        }
      ],
      "name": "supportersAddress",
      "outputs": [
        {
          "internalType": "address",
          "name": "",
          "type": "address"
        }
      ],
      "stateMutability": "view",
      "type": "function"
    },
    {
      "inputs": [
        {
          "internalType": "string",
          "name": "newPhoto",
          "type": "string"
        }
      ],
      "name": "updateProfilePhoto",
      "outputs": [],
      "stateMutability": "nonpayable",
      "type": "function"
    }
  ],
  "bytecode": "0x6080604052348015600f57600080fd5b50604051611f69380380611f69833981016040819052602c91608d565b6001600055600880546001600160a01b039485166001600160a01b0319918216179091556009805493851693821693909317909255600a805491909316911617905560c9565b80516001600160a01b0381168114608857600080fd5b919050565b60008060006060848603121560a157600080fd5b60a8846072565b925060b4602085016072565b915060c0604085016072565b90509250925092565b611e91806100d86000396000f3fe608060405234801561001057600080fd5b50600436106100f55760003560e01c806385851afc11610097578063dcfc77e011610066578063dcfc77e014610239578063ee9645e814610250578063f8a47d8a1461028e578063f9c5512c146102b257600080fd5b806385851afc146101cc57806394cea0a3146101df578063d4fadeae146101f9578063dc02837f1461021957600080fd5b806320f5f456116100d357806320f5f456146101805780632e7759ba146101935780632f9ed1ef146101a6578063723ce4ae146101b957600080fd5b806305b95fbe146100fa5780630d378ffd146101405780630e2647ad1461016b575b600080fd5b61012361010836600461142c565b6005602052600090815260409020546001600160a01b031681565b6040516001600160a01b0390911681526020015b60405180910390f35b61015361014e36600461145d565b6102dd565b6040516001600160401b039091168152602001610137565b61017e610179366004611574565b610329565b005b61017e61018e3660046115c5565b610421565b61017e6101a13660046115e9565b61075e565b600a54610123906001600160a01b031681565b61017e6101c736600461167a565b610a2b565b600654610153906001600160401b031681565b6101e7600581565b60405160ff9091168152602001610137565b61020c6102073660046116dc565b610f4c565b60405161013791906116f9565b61022c6102273660046116dc565b610fea565b6040516101379190611795565b6102426103e881565b604051908152602001610137565b61027e61025e36600461145d565b600460209081526000928352604080842090915290825290205460ff1681565b6040519015158152602001610137565b6102a161029c3660046115c5565b61127f565b604051610137959493929190611862565b6102426102c03660046118a0565b600260209081526000928352604080842090915290825290205481565b600360205281600052604060002081815481106102f957600080fd5b9060005260206000209060049182820401919006600802915091509054906101000a90046001600160401b031681565b8051609610156103715760405162461bcd60e51b815260206004820152600e60248201526d4d6178206368617261637465727360901b60448201526064015b60405180910390fd5b600854604051631292f8c160e31b81526001600160a01b0390911690639497c608906103a49060079033906004016118fb565b602060405180830381865afa1580156103c1573d6000803e3d6000fd5b505050506040513d601f19601f820116820180604052508101906103e59190611921565b6104015760405162461bcd60e51b815260040161036890611943565b33600090815260016020526040902060030161041d82826119f5565b5050565b600854604051631292f8c160e31b81526001600160a01b0390911690639497c608906104549060079033906004016118fb565b602060405180830381865afa158015610471573d6000803e3d6000fd5b505050506040513d601f19601f820116820180604052508101906104959190611921565b6104b15760405162461bcd60e51b815260040161036890611943565b3360009081526004602090815260408083206001600160401b038516845290915290205460ff16156105255760405162461bcd60e51b815260206004820152601b60248201527f436f6d6d69746d656e7420616c7265616479206465636c6172656400000000006044820152606401610368565b336000908152600160205260409020600401546103e864010000000090910461ffff16106105955760405162461bcd60e51b815260206004820152601760248201527f4d617820636f6d6d69746d656e747320726561636865640000000000000000006044820152606401610368565b6009546040516311868d0b60e01b81526001600160401b03831660048201526000916001600160a01b0316906311868d0b90602401600060405180830381865afa1580156105e7573d6000803e3d6000fd5b505050506040513d6000823e601f3d908101601f1916820160405261060f9190810190611b13565b80519091506001600160401b03166106695760405162461bcd60e51b815260206004820152601e60248201527f43616c63756c61746f72206974656d20646f6573206e6f7420657869737400006044820152606401610368565b33600081815260036020818152604080842080546001808201835591865283862060048083049091018054929096166008026101000a6001600160401b0381810219909316928b16908102929092179095558686528484528286209086528352818520805460ff19168217905594845293905291902081018054640100000000900461ffff16916106f983611c26565b825461ffff9182166101009390930a928302919092021990911617905550604080516001600160401b038416815243602082015233917f6a8703d0dfd7a2ebeec57615dbfe3bd225042a61a5ddc5e565d02ee8cc27c82d910160405180910390a25050565b82516032108015906107725750815160c810155b801561078057508051609610155b6107c55760405162461bcd60e51b815260206004820152601660248201527513585e0818da185c9858dd195c9cc81c995858da195960521b6044820152606401610368565b60085460405162f5960960e51b81526000916001600160a01b031690631eb2c120906107f690600790600401611c47565b602060405180830381865afa158015610813573d6000803e3d6000fd5b505050506040513d601f19601f820116820180604052508101906108379190611c5b565b610842906001611c78565b60408051610100810182526001600160401b0380841682523360208084018281528486018b8152606086018b9052608086018a9052600060a0870181905260c087018190524360e0880152938452600192839052959092208451815493516001600160a01b0316600160401b026001600160e01b03199094169416939093179190911782559251939450909290918201906108dd90826119f5565b50606082015160028201906108f290826119f5565b506080820151600382019061090790826119f5565b5060a08201516004808301805460c086015161ffff166401000000000265ffffffffffff1990911663ffffffff909416939093179290921790915560e0909201516005918201556001600160401b038316600090815260209190915260409081902080546001600160a01b031916339081179091556008549151639c3eead960e01b81526001600160a01b039290921692639c3eead9926109ac929160079101611c97565b600060405180830381600087803b1580156109c657600080fd5b505af11580156109da573d6000803e3d6000fd5b50505050336001600160a01b03167f2fe5386557a95a5d820fa0514dc2a3c8d60986e6f41bace2d281e6b8d63636eb82868543604051610a1d9493929190611cb4565b60405180910390a250505050565b610a33611342565b6009546040516311868d0b60e01b81526001600160401b03841660048201526000916001600160a01b0316906311868d0b90602401600060405180830381865afa158015610a85573d6000803e3d6000fd5b505050506040513d6000823e601f3d908101601f19168201604052610aad9190810190611b13565b516001600160401b031611610b045760405162461bcd60e51b815260206004820152601e60248201527f43616c63756c61746f72206974656d20646f6573206e6f7420657869737400006044820152606401610368565b600854604051631292f8c160e31b81526001600160a01b0390911690639497c60890610b379060079033906004016118fb565b602060405180830381865afa158015610b54573d6000803e3d6000fd5b505050506040513d601f19601f82011682018060405250810190610b789190611921565b610b945760405162461bcd60e51b815260040161036890611943565b670de0b6b3a7640000841015610bec5760405162461bcd60e51b815260206004820152601c60248201527f416d6f756e74206d757374206265206174206c656173742031205243000000006044820152606401610368565b805161012c1015610c305760405162461bcd60e51b815260206004820152600e60248201526d4d6178206368617261637465727360901b6044820152606401610368565b6000806000610c3f338861136c565b92509250925085831015610cab5760405162461bcd60e51b815260206004820152602d60248201527f536c6970706167653a20616d6f756e7420746f206275726e206973206c65737360448201526c207468616e206d696e696d756d60981b6064820152608401610368565b600680546001600160401b0316906000610cc483611cfa565b82546101009290920a6001600160401b038181021990931691831602179091556006543360009081526002602090815260408083208b8616845290915281208054929093169350869291610d19908490611d1c565b90915550506040805160a0810182523381524360208083019182528284018881526001600160401b038b811660608601908152608086018c81529188166000908152600790945295909220845181546001600160a01b0319166001600160a01b03909116178155925160018401555160028301559251600382015591519091906004820190610da890826119f5565b5050336000908152600160205260408120600401805463ffffffff16925090610dd083611d2f565b91906101000a81548163ffffffff021916908363ffffffff16021790555050600083118015610e0757506001600160a01b03821615155b15610e8b57600a546040516323b872dd60e01b81523360048201526001600160a01b03848116602483015260448201869052909116906323b872dd906064016020604051808303816000875af1158015610e65573d6000803e3d6000fd5b505050506040513d601f19601f82011682018060405250810190610e899190611921565b505b600a5460405163079cc67960e41b8152336004820152602481018690526001600160a01b03909116906379cc679090604401600060405180830381600087803b158015610ed757600080fd5b505af1158015610eeb573d6000803e3d6000fd5b50505050336001600160a01b03167fc62a9975173688bea5677b29a71ab0d3d6ac9a0234406d997e0b340a88d33aa3828689438a604051610f30959493929190611d4b565b60405180910390a250505050610f466001600055565b50505050565b6001600160a01b038116600090815260036020908152604091829020805483518184028101840190945280845260609392830182828015610fde57602002820191906000526020600020906000905b82829054906101000a90046001600160401b03166001600160401b031681526020019060080190602082600701049283019260010382029150808411610f9b5790505b50505050509050919050565b61104e60405180610100016040528060006001600160401b0316815260200160006001600160a01b03168152602001606081526020016060815260200160608152602001600063ffffffff168152602001600061ffff168152602001600081525090565b6001600160a01b0380831660009081526001602081815260409283902083516101008101855281546001600160401b0381168252600160401b900490951691850191909152908101805491928401916110a69061196c565b80601f01602080910402602001604051908101604052809291908181526020018280546110d29061196c565b801561111f5780601f106110f45761010080835404028352916020019161111f565b820191906000526020600020905b81548152906001019060200180831161110257829003601f168201915b505050505081526020016002820180546111389061196c565b80601f01602080910402602001604051908101604052809291908181526020018280546111649061196c565b80156111b15780601f10611186576101008083540402835291602001916111b1565b820191906000526020600020905b81548152906001019060200180831161119457829003601f168201915b505050505081526020016003820180546111ca9061196c565b80601f01602080910402602001604051908101604052809291908181526020018280546111f69061196c565b80156112435780601f1061121857610100808354040283529160200191611243565b820191906000526020600020905b81548152906001019060200180831161122657829003601f168201915b5050509183525050600482015463ffffffff81166020830152640100000000900461ffff16604082015260059091015460609091015292915050565b600760205260009081526040902080546001820154600283015460038401546004850180546001600160a01b03909516959394929391926112bf9061196c565b80601f01602080910402602001604051908101604052809291908181526020018280546112eb9061196c565b80156113385780601f1061130d57610100808354040283529160200191611338565b820191906000526020600020905b81548152906001019060200180831161131b57829003601f168201915b5050505050905085565b60026000540361136557604051633ee5aeb560e01b815260040160405180910390fd5b6002600055565b60085460405163158bdc5f60e11b81526001600160a01b0384811660048301526000928392839283921690632b17b8be90602401608060405180830381865afa1580156113bd573d6000803e3d6000fd5b505050506040513d601f19601f820116820180604052508101906113e19190611d88565b6060810151602082015193509091501515806113fe576000611415565b606461140b600588611e0f565b6114159190611e26565b93506114218487611e48565b945050509250925092565b60006020828403121561143e57600080fd5b5035919050565b6001600160a01b038116811461145a57600080fd5b50565b6000806040838503121561147057600080fd5b823561147b81611445565b946020939093013593505050565b634e487b7160e01b600052604160045260246000fd5b60405160e081016001600160401b03811182821017156114c1576114c1611489565b60405290565b604051601f8201601f191681016001600160401b03811182821017156114ef576114ef611489565b604052919050565b60006001600160401b0382111561151057611510611489565b50601f01601f191660200190565b600082601f83011261152f57600080fd5b813561154261153d826114f7565b6114c7565b81815284602083860101111561155757600080fd5b816020850160208301376000918101602001919091529392505050565b60006020828403121561158657600080fd5b81356001600160401b0381111561159c57600080fd5b6115a88482850161151e565b949350505050565b6001600160401b038116811461145a57600080fd5b6000602082840312156115d757600080fd5b81356115e2816115b0565b9392505050565b6000806000606084860312156115fe57600080fd5b83356001600160401b0381111561161457600080fd5b6116208682870161151e565b93505060208401356001600160401b0381111561163c57600080fd5b6116488682870161151e565b92505060408401356001600160401b0381111561166457600080fd5b6116708682870161151e565b9150509250925092565b6000806000806080858703121561169057600080fd5b843593506020850135925060408501356116a9816115b0565b915060608501356001600160401b038111156116c457600080fd5b6116d08782880161151e565b91505092959194509250565b6000602082840312156116ee57600080fd5b81356115e281611445565b602080825282518282018190526000918401906040840190835b8181101561173a5783516001600160401b0316835260209384019390920191600101611713565b509095945050505050565b60005b83811015611760578181015183820152602001611748565b50506000910152565b60008151808452611781816020860160208601611745565b601f01601f19169290920160200192915050565b602081526117af6020820183516001600160401b03169052565b600060208301516117cb60408401826001600160a01b03169052565b50604083015161010060608401526117e7610120840182611769565b90506060840151601f198483030160808501526118048282611769565b9150506080840151601f198483030160a08501526118228282611769565b91505060a084015161183c60c085018263ffffffff169052565b5060c084015161ffff811660e08501525060e08401516101008401528091505092915050565b60018060a01b038616815284602082015283604082015282606082015260a06080820152600061189560a0830184611769565b979650505050505050565b600080604083850312156118b357600080fd5b82356118be81611445565b915060208301356118ce816115b0565b809150509250929050565b600881106118f757634e487b7160e01b600052602160045260246000fd5b9052565b6040810161190982856118d9565b6001600160a01b039290921660209190910152919050565b60006020828403121561193357600080fd5b815180151581146115e257600080fd5b6020808252600f908201526e4f6e6c7920737570706f727465727360881b604082015260600190565b600181811c9082168061198057607f821691505b6020821081036119a057634e487b7160e01b600052602260045260246000fd5b50919050565b601f8211156119f057806000526020600020601f840160051c810160208510156119cd5750805b601f840160051c820191505b818110156119ed57600081556001016119d9565b50505b505050565b81516001600160401b03811115611a0e57611a0e611489565b611a2281611a1c845461196c565b846119a6565b6020601f821160018114611a565760008315611a3e5750848201515b600019600385901b1c1916600184901b1784556119ed565b600084815260208120601f198516915b82811015611a865787850151825560209485019460019092019101611a66565b5084821015611aa45786840151600019600387901b60f8161c191681555b50505050600190811b01905550565b8051611abe816115b0565b919050565b8051611abe81611445565b600082601f830112611adf57600080fd5b8151611aed61153d826114f7565b818152846020838601011115611b0257600080fd5b6115a8826020830160208701611745565b600060208284031215611b2557600080fd5b81516001600160401b03811115611b3b57600080fd5b820160e08185031215611b4d57600080fd5b611b5561149f565b611b5e82611ab3565b8152611b6c60208301611ac3565b602082015260408201516001600160401b03811115611b8a57600080fd5b611b9686828501611ace565b60408301525060608201516001600160401b03811115611bb557600080fd5b611bc186828501611ace565b60608301525060808201516001600160401b03811115611be057600080fd5b611bec86828501611ace565b60808301525060a0828101519082015260c091820151918101919091529392505050565b634e487b7160e01b600052601160045260246000fd5b600061ffff821661ffff8103611c3e57611c3e611c10565b60010192915050565b60208101611c5582846118d9565b92915050565b600060208284031215611c6d57600080fd5b81516115e2816115b0565b6001600160401b038181168382160190811115611c5557611c55611c10565b6001600160a01b0383168152604081016115e260208301846118d9565b6001600160401b0385168152608060208201526000611cd66080830186611769565b8281036040840152611ce88186611769565b91505082606083015295945050505050565b60006001600160401b0382166001600160401b038103611c3e57611c3e611c10565b80820180821115611c5557611c55611c10565b600063ffffffff821663ffffffff8103611c3e57611c3e611c10565b6001600160401b03861681528460208201526001600160401b038416604082015282606082015260a06080820152600061189560a0830184611769565b60006080828403128015611d9b57600080fd5b50604051600090608081016001600160401b0381118282101715611dc157611dc1611489565b6040528351611dcf81611445565b81526020840151611ddf81611445565b6020820152604084015160088110611df5578283fd5b604082015260609384015193810193909352509092915050565b8082028115828204841417611c5557611c55611c10565b600082611e4357634e487b7160e01b600052601260045260246000fd5b500490565b81810381811115611c5557611c55611c1056fea26469706673582212209913f679453bf37bdfcbe2c319b9d1a3e68f77e4fad201b65a67d2e3408d123f64736f6c634300081b0033",
  "linkReferences": {},
  "deployedLinkReferences": {}
}