{
  "_format": "hh-sol-artifact-1",
  "contractName": "ValidationRules",
  "sourceName": "contracts/ValidationRules.sol",
  "abi": [
    {
      "inputs": [
        {
          "internalType": "uint256",
          "name": "timeBetweenVotes_",
          "type": "uint256"
        }
      ],
      "stateMutability": "nonpayable",
      "type": "constructor"
    },
    {
      "anonymous": false,
      "inputs": [
        {
          "indexed": true,
          "internalType": "address",
          "name": "previousOwner",
          "type": "address"
        },
        {
          "indexed": true,
          "internalType": "address",
          "name": "newOwner",
          "type": "address"
        }
      ],
      "name": "OwnershipTransferred",
      "type": "event"
    },
    {
      "inputs": [
        {
          "components": [
            {
              "internalType": "uint256",
              "name": "id",
              "type": "uint256"
            },
            {
              "internalType": "uint256",
              "name": "era",
              "type": "uint256"
            },
            {
              "internalType": "address",
              "name": "user",
              "type": "address"
            },
            {
              "internalType": "string",
              "name": "description",
              "type": "string"
            },
            {
              "internalType": "string",
              "name": "report",
              "type": "string"
            },
            {
              "internalType": "uint256",
              "name": "validationsCount",
              "type": "uint256"
            },
            {
              "internalType": "bool",
              "name": "valid",
              "type": "bool"
            },
            {
              "internalType": "uint256",
              "name": "invalidatedAt",
              "type": "uint256"
            },
            {
              "internalType": "uint256",
              "name": "createdAtBlockNumber",
              "type": "uint256"
            }
          ],
          "internalType": "struct Contribution",
          "name": "contribution",
          "type": "tuple"
        },
        {
          "internalType": "string",
          "name": "justification",
          "type": "string"
        },
        {
          "internalType": "address",
          "name": "validatorAddress",
          "type": "address"
        }
      ],
      "name": "addContributionValidation",
      "outputs": [],
      "stateMutability": "nonpayable",
      "type": "function"
    },
    {
      "inputs": [
        {
          "components": [
            {
              "internalType": "uint256",
              "name": "id",
              "type": "uint256"
            },
            {
              "internalType": "enum InspectionStatus",
              "name": "status",
              "type": "uint8"
            },
            {
              "internalType": "address",
              "name": "regenerator",
              "type": "address"
            },
            {
              "internalType": "address",
              "name": "inspector",
              "type": "address"
            },
            {
              "internalType": "uint256",
              "name": "treesResult",
              "type": "uint256"
            },
            {
              "internalType": "uint256",
              "name": "biodiversityResult",
              "type": "uint256"
            },
            {
              "internalType": "uint256",
              "name": "regenerationScore",
              "type": "uint256"
            },
            {
              "internalType": "string",
              "name": "proofPhoto",
              "type": "string"
            },
            {
              "internalType": "string",
              "name": "report",
              "type": "string"
            },
            {
              "internalType": "uint256",
              "name": "validationsCount",
              "type": "uint256"
            },
            {
              "internalType": "uint256",
              "name": "createdAt",
              "type": "uint256"
            },
            {
              "internalType": "uint256",
              "name": "acceptedAt",
              "type": "uint256"
            },
            {
              "internalType": "uint256",
              "name": "inspectedAt",
              "type": "uint256"
            },
            {
              "internalType": "uint256",
              "name": "inspectedAtEra",
              "type": "uint256"
            },
            {
              "internalType": "uint256",
              "name": "invalidatedAt",
              "type": "uint256"
            }
          ],
          "internalType": "struct Inspection",
          "name": "inspection",
          "type": "tuple"
        },
        {
          "internalType": "string",
          "name": "justification",
          "type": "string"
        },
        {
          "internalType": "address",
          "name": "validatorAddress",
          "type": "address"
        }
      ],
      "name": "addInspectionValidation",
      "outputs": [],
      "stateMutability": "nonpayable",
      "type": "function"
    },
    {
      "inputs": [
        {
          "components": [
            {
              "internalType": "uint256",
              "name": "id",
              "type": "uint256"
            },
            {
              "internalType": "uint256",
              "name": "era",
              "type": "uint256"
            },
            {
              "internalType": "address",
              "name": "developer",
              "type": "address"
            },
            {
              "internalType": "string",
              "name": "description",
              "type": "string"
            },
            {
              "internalType": "string",
              "name": "report",
              "type": "string"
            },
            {
              "internalType": "uint256",
              "name": "validationsCount",
              "type": "uint256"
            },
            {
              "internalType": "bool",
              "name": "valid",
              "type": "bool"
            },
            {
              "internalType": "uint256",
              "name": "invalidatedAt",
              "type": "uint256"
            },
            {
              "internalType": "uint256",
              "name": "createdAtBlockNumber",
              "type": "uint256"
            }
          ],
          "internalType": "struct Report",
          "name": "report",
          "type": "tuple"
        },
        {
          "internalType": "string",
          "name": "justification",
          "type": "string"
        },
        {
          "internalType": "address",
          "name": "validatorAddress",
          "type": "address"
        }
      ],
      "name": "addReportValidation",
      "outputs": [],
      "stateMutability": "nonpayable",
      "type": "function"
    },
    {
      "inputs": [
        {
          "components": [
            {
              "internalType": "uint256",
              "name": "id",
              "type": "uint256"
            },
            {
              "internalType": "uint256",
              "name": "era",
              "type": "uint256"
            },
            {
              "internalType": "address",
              "name": "createdBy",
              "type": "address"
            },
            {
              "internalType": "string",
              "name": "title",
              "type": "string"
            },
            {
              "internalType": "string",
              "name": "thesis",
              "type": "string"
            },
            {
              "internalType": "string",
              "name": "file",
              "type": "string"
            },
            {
              "internalType": "uint256",
              "name": "validationsCount",
              "type": "uint256"
            },
            {
              "internalType": "bool",
              "name": "valid",
              "type": "bool"
            },
            {
              "internalType": "uint256",
              "name": "invalidatedAt",
              "type": "uint256"
            },
            {
              "internalType": "uint256",
              "name": "createdAtBlock",
              "type": "uint256"
            }
          ],
          "internalType": "struct Research",
          "name": "research",
          "type": "tuple"
        },
        {
          "internalType": "string",
          "name": "justification",
          "type": "string"
        },
        {
          "internalType": "address",
          "name": "validatorAddress",
          "type": "address"
        }
      ],
      "name": "addResearchValidation",
      "outputs": [],
      "stateMutability": "nonpayable",
      "type": "function"
    },
    {
      "inputs": [
        {
          "internalType": "address",
          "name": "userAddress",
          "type": "address"
        },
        {
          "internalType": "string",
          "name": "justification",
          "type": "string"
        }
      ],
      "name": "addUserValidation",
      "outputs": [],
      "stateMutability": "nonpayable",
      "type": "function"
    },
    {
      "inputs": [
        {
          "internalType": "address",
          "name": "",
          "type": "address"
        }
      ],
      "name": "allowedCallers",
      "outputs": [
        {
          "internalType": "bool",
          "name": "",
          "type": "bool"
        }
      ],
      "stateMutability": "view",
      "type": "function"
    },
    {
      "inputs": [
        {
          "internalType": "uint256",
          "name": "",
          "type": "uint256"
        },
        {
          "internalType": "uint256",
          "name": "",
          "type": "uint256"
        }
      ],
      "name": "contributionValidations",
      "outputs": [
        {
          "internalType": "address",
          "name": "validator",
          "type": "address"
        },
        {
          "internalType": "uint256",
          "name": "resourceId",
          "type": "uint256"
        },
        {
          "internalType": "string",
          "name": "justification",
          "type": "string"
        },
        {
          "internalType": "uint256",
          "name": "votesToInvalidate",
          "type": "uint256"
        },
        {
          "internalType": "uint256",
          "name": "createdAtBlockNumber",
          "type": "uint256"
        }
      ],
      "stateMutability": "view",
      "type": "function"
    },
    {
      "inputs": [
        {
          "internalType": "address",
          "name": "userAddress",
          "type": "address"
        },
        {
          "internalType": "uint256",
          "name": "currentEra",
          "type": "uint256"
        }
      ],
      "name": "getUserValidations",
      "outputs": [
        {
          "components": [
            {
              "internalType": "address",
              "name": "validator",
              "type": "address"
            },
            {
              "internalType": "address",
              "name": "user",
              "type": "address"
            },
            {
              "internalType": "string",
              "name": "justification",
              "type": "string"
            },
            {
              "internalType": "uint256",
              "name": "votesToInvalidate",
              "type": "uint256"
            },
            {
              "internalType": "uint256",
              "name": "createdAtBlockNumber",
              "type": "uint256"
            }
          ],
          "internalType": "struct UserValidation[]",
          "name": "",
          "type": "tuple[]"
        }
      ],
      "stateMutability": "view",
      "type": "function"
    },
    {
      "inputs": [
        {
          "internalType": "uint256",
          "name": "",
          "type": "uint256"
        },
        {
          "internalType": "uint256",
          "name": "",
          "type": "uint256"
        }
      ],
      "name": "inspectionValidations",
      "outputs": [
        {
          "internalType": "address",
          "name": "validator",
          "type": "address"
        },
        {
          "internalType": "uint256",
          "name": "resourceId",
          "type": "uint256"
        },
        {
          "internalType": "string",
          "name": "justification",
          "type": "string"
        },
        {
          "internalType": "uint256",
          "name": "votesToInvalidate",
          "type": "uint256"
        },
        {
          "internalType": "uint256",
          "name": "createdAtBlockNumber",
          "type": "uint256"
        }
      ],
      "stateMutability": "view",
      "type": "function"
    },
    {
      "inputs": [
        {
          "internalType": "address",
          "name": "caller",
          "type": "address"
        }
      ],
      "name": "isAllowedCaller",
      "outputs": [
        {
          "internalType": "bool",
          "name": "",
          "type": "bool"
        }
      ],
      "stateMutability": "view",
      "type": "function"
    },
    {
      "inputs": [
        {
          "internalType": "address",
          "name": "allowed",
          "type": "address"
        }
      ],
      "name": "newAllowedCaller",
      "outputs": [],
      "stateMutability": "nonpayable",
      "type": "function"
    },
    {
      "inputs": [],
      "name": "owner",
      "outputs": [
        {
          "internalType": "address",
          "name": "",
          "type": "address"
        }
      ],
      "stateMutability": "view",
      "type": "function"
    },
    {
      "inputs": [],
      "name": "renounceOwnership",
      "outputs": [],
      "stateMutability": "nonpayable",
      "type": "function"
    },
    {
      "inputs": [
        {
          "internalType": "uint256",
          "name": "",
          "type": "uint256"
        },
        {
          "internalType": "uint256",
          "name": "",
          "type": "uint256"
        }
      ],
      "name": "reportValidations",
      "outputs": [
        {
          "internalType": "address",
          "name": "validator",
          "type": "address"
        },
        {
          "internalType": "uint256",
          "name": "resourceId",
          "type": "uint256"
        },
        {
          "internalType": "string",
          "name": "justification",
          "type": "string"
        },
        {
          "internalType": "uint256",
          "name": "votesToInvalidate",
          "type": "uint256"
        },
        {
          "internalType": "uint256",
          "name": "createdAtBlockNumber",
          "type": "uint256"
        }
      ],
      "stateMutability": "view",
      "type": "function"
    },
    {
      "inputs": [
        {
          "internalType": "uint256",
          "name": "",
          "type": "uint256"
        },
        {
          "internalType": "uint256",
          "name": "",
          "type": "uint256"
        }
      ],
      "name": "researchValidations",
      "outputs": [
        {
          "internalType": "address",
          "name": "validator",
          "type": "address"
        },
        {
          "internalType": "uint256",
          "name": "resourceId",
          "type": "uint256"
        },
        {
          "internalType": "string",
          "name": "justification",
          "type": "string"
        },
        {
          "internalType": "uint256",
          "name": "votesToInvalidate",
          "type": "uint256"
        },
        {
          "internalType": "uint256",
          "name": "createdAtBlockNumber",
          "type": "uint256"
        }
      ],
      "stateMutability": "view",
      "type": "function"
    },
    {
      "inputs": [
        {
          "components": [
            {
              "internalType": "address",
              "name": "communityRulesAddress",
              "type": "address"
            },
            {
              "internalType": "address",
              "name": "regeneratorRulesAddress",
              "type": "address"
            },
            {
              "internalType": "address",
              "name": "inspectorRulesAddress",
              "type": "address"
            },
            {
              "internalType": "address",
              "name": "developerRulesAddress",
              "type": "address"
            },
            {
              "internalType": "address",
              "name": "researcherRulesAddress",
              "type": "address"
            },
            {
              "internalType": "address",
              "name": "contributorRulesAddress",
              "type": "address"
            },
            {
              "internalType": "address",
              "name": "activistRulesAddress",
              "type": "address"
            },
            {
              "internalType": "address",
              "name": "voteRulesAddress",
              "type": "address"
            }
          ],
          "internalType": "struct ContractsDependency",
          "name": "contractDependency",
          "type": "tuple"
        }
      ],
      "name": "setContractAddressDependencies",
      "outputs": [],
      "stateMutability": "nonpayable",
      "type": "function"
    },
    {
      "inputs": [
        {
          "internalType": "address",
          "name": "newOwner",
          "type": "address"
        }
      ],
      "name": "transferOwnership",
      "outputs": [],
      "stateMutability": "nonpayable",
      "type": "function"
    },
    {
      "inputs": [
        {
          "internalType": "address",
          "name": "",
          "type": "address"
        },
        {
          "internalType": "uint256",
          "name": "",
          "type": "uint256"
        },
        {
          "internalType": "uint256",
          "name": "",
          "type": "uint256"
        }
      ],
      "name": "userValidations",
      "outputs": [
        {
          "internalType": "address",
          "name": "validator",
          "type": "address"
        },
        {
          "internalType": "address",
          "name": "user",
          "type": "address"
        },
        {
          "internalType": "string",
          "name": "justification",
          "type": "string"
        },
        {
          "internalType": "uint256",
          "name": "votesToInvalidate",
          "type": "uint256"
        },
        {
          "internalType": "uint256",
          "name": "createdAtBlockNumber",
          "type": "uint256"
        }
      ],
      "stateMutability": "view",
      "type": "function"
    },
    {
      "inputs": [
        {
          "internalType": "address",
          "name": "",
          "type": "address"
        }
      ],
      "name": "validatorLastVoteAt",
      "outputs": [
        {
          "internalType": "uint256",
          "name": "",
          "type": "uint256"
        }
      ],
      "stateMutability": "view",
      "type": "function"
    },
    {
      "inputs": [],
      "name": "votesToInvalidate",
      "outputs": [
        {
          "internalType": "uint256",
          "name": "count",
          "type": "uint256"
        }
      ],
      "stateMutability": "view",
      "type": "function"
    },
    {
      "inputs": [
        {
          "internalType": "address",
          "name": "validatorAddress",
          "type": "address"
        }
      ],
      "name": "waitedTimeBetweenVotes",
      "outputs": [
        {
          "internalType": "bool",
          "name": "",
          "type": "bool"
        }
      ],
      "stateMutability": "view",
      "type": "function"
    }
  ],
  "bytecode": "0x60a060405234801561001057600080fd5b5060405161513638038061513683398181016040528101906100329190610163565b61004e61004361005c60201b60201c565b61006460201b60201c565b806080818152505050610190565b600033905090565b60008060009054906101000a900473ffffffffffffffffffffffffffffffffffffffff169050816000806101000a81548173ffffffffffffffffffffffffffffffffffffffff021916908373ffffffffffffffffffffffffffffffffffffffff1602179055508173ffffffffffffffffffffffffffffffffffffffff168173ffffffffffffffffffffffffffffffffffffffff167f8be0079c531659141344cd1fd0a4f28419497f9722a3daafe3b4186f6b6457e060405160405180910390a35050565b600080fd5b6000819050919050565b6101408161012d565b811461014b57600080fd5b50565b60008151905061015d81610137565b92915050565b60006020828403121561017957610178610128565b5b60006101878482850161014e565b91505092915050565b608051614f8b6101ab6000396000610a150152614f8b6000f3fe608060405234801561001057600080fd5b50600436106101375760003560e01c80638da5cb5b116100b8578063bdac344f1161007c578063bdac344f1461036e578063c6c9b9b41461039e578063f2fde38b146103ce578063f9e05690146103ea578063fa77deda14610406578063ff12574e1461043a57610137565b80638da5cb5b146102b45780638f93716f146102d25780639e6a0efb146102ee578063a68012581461030a578063bd254b6b1461033a57610137565b8063715018a6116100ff578063715018a6146101f65780637b33415414610200578063817f0e9d1461023057806384305d8a146102645780638ba96af11461028057610137565b80630ee0a6551461013c5780632b0b788514610158578063361119ac1461018c57806369bf81c3146101bc5780636f7ffca6146101da575b600080fd5b61015660048036038101906101519190613ad9565b610456565b005b610172600480360381019061016d9190613b64565b6108a4565b604051610183959493929190613c54565b60405180910390f35b6101a660048036038101906101a19190613cae565b6109cc565b6040516101b39190613cea565b60405180910390f35b6101c4610a59565b6040516101d19190613d05565b60405180910390f35b6101f460048036038101906101ef9190613ee1565b610c09565b005b6101fe61106e565b005b61021a60048036038101906102159190613cae565b611082565b6040516102279190613cea565b60405180910390f35b61024a60048036038101906102459190613f6c565b6110a2565b60405161025b959493929190613fac565b60405180910390f35b61027e60048036038101906102799190614150565b61119d565b005b61029a60048036038101906102959190613f6c565b611601565b6040516102ab959493929190613fac565b60405180910390f35b6102bc6116fc565b6040516102c991906141db565b60405180910390f35b6102ec60048036038101906102e79190613cae565b611725565b005b610308600480360381019061030391906142c0565b611787565b005b610324600480360381019061031f9190613cae565b6119ba565b6040516103319190613cea565b60405180910390f35b610354600480360381019061034f9190613f6c565b611a10565b604051610365959493929190613fac565b60405180910390f35b61038860048036038101906103839190613cae565b611b0b565b6040516103959190613d05565b60405180910390f35b6103b860048036038101906103b391906142ee565b611b23565b6040516103c591906144ce565b60405180910390f35b6103e860048036038101906103e39190613cae565b611d25565b005b61040460048036038101906103ff91906144f0565b611da8565b005b610420600480360381019061041b9190613f6c565b612469565b604051610431959493929190613fac565b60405180910390f35b610454600480360381019061044f9190614664565b612564565b005b600160003373ffffffffffffffffffffffffffffffffffffffff1673ffffffffffffffffffffffffffffffffffffffff16815260200190815260200160002060009054906101000a900460ff166104e2576040517f08c379a00000000000000000000000000000000000000000000000000000000081526004016104d99061473b565b60405180910390fd5b600760008273ffffffffffffffffffffffffffffffffffffffff1673ffffffffffffffffffffffffffffffffffffffff16815260200190815260200160002060008460000151815260200190815260200160002060009054906101000a900460ff1615610584576040517f08c379a000000000000000000000000000000000000000000000000000000000815260040161057b906147a7565b60405180910390fd5b6001600760008373ffffffffffffffffffffffffffffffffffffffff1673ffffffffffffffffffffffffffffffffffffffff16815260200190815260200160002060008560000151815260200190815260200160002060006101000a81548160ff02191690831515021790555043600c60008373ffffffffffffffffffffffffffffffffffffffff1673ffffffffffffffffffffffffffffffffffffffff1681526020019081526020016000208190555060046000846000015181526020019081526020016000206040518060a001604052808373ffffffffffffffffffffffffffffffffffffffff1681526020018560000151815260200184815260200161068b610a59565b815260200143815250908060018154018082558091505060019003906000526020600020906005020160009091909190915060008201518160000160006101000a81548173ffffffffffffffffffffffffffffffffffffffff021916908373ffffffffffffffffffffffffffffffffffffffff16021790555060208201518160010155604082015181600201908161072391906149d3565b50606082015181600301556080820151816004015550508260c0015161089f576000601060009054906101000a900473ffffffffffffffffffffffffffffffffffffffff1673ffffffffffffffffffffffffffffffffffffffff16631b63a43c856040015186600001516040518363ffffffff1660e01b81526004016107aa929190614aa5565b6020604051808303816000875af11580156107c9573d6000803e3d6000fd5b505050506040513d601f19601f820116820180604052508101906107ed9190614ae3565b90506107f8846129b2565b601060009054906101000a900473ffffffffffffffffffffffffffffffffffffffff1673ffffffffffffffffffffffffffffffffffffffff1663b43f070a6040518163ffffffff1660e01b8152600401602060405180830381865afa158015610865573d6000803e3d6000fd5b505050506040513d601f19601f820116820180604052508101906108899190614ae3565b811061089d5761089c84604001516129c4565b5b505b505050565b600260205282600052604060002060205281600052604060002081815481106108cc57600080fd5b906000526020600020906005020160009250925050508060000160009054906101000a900473ffffffffffffffffffffffffffffffffffffffff16908060010160009054906101000a900473ffffffffffffffffffffffffffffffffffffffff169080600201805461093d906147f6565b80601f0160208091040260200160405190810160405280929190818152602001828054610969906147f6565b80156109b65780601f1061098b576101008083540402835291602001916109b6565b820191906000526020600020905b81548152906001019060200180831161099957829003601f168201915b5050505050908060030154908060040154905085565b600080600c60008473ffffffffffffffffffffffffffffffffffffffff1673ffffffffffffffffffffffffffffffffffffffff16815260200190815260200160002054905060007f000000000000000000000000000000000000000000000000000000000000000082610a3f9190614b3f565b431190508080610a50575060008211155b92505050919050565b600080600d60009054906101000a900473ffffffffffffffffffffffffffffffffffffffff1673ffffffffffffffffffffffffffffffffffffffff166398c079386040518163ffffffff1660e01b8152600401602060405180830381865afa158015610ac9573d6000803e3d6000fd5b505050506040513d601f19601f82011682018060405250810190610aed9190614ae3565b905060328111610b01576002915050610c06565b603281118015610b1357506101f48111155b15610b22576005915050610c06565b6101f481118015610b3557506103e88111155b15610b4457600a915050610c06565b6103e881118015610b5757506107d08111155b15610b66576014915050610c06565b6107d081118015610b795750610fa08111155b15610b88576028915050610c06565b610fa081118015610b9b5750611f408111155b15610baa576050915050610c06565b611f4081118015610bbd5750613e808111155b15610bcc5760a0915050610c06565b613e8081118015610bdf5750617d008111155b15610bef57610140915050610c06565b617d00811115610c04576101f4915050610c06565b505b90565b600160003373ffffffffffffffffffffffffffffffffffffffff1673ffffffffffffffffffffffffffffffffffffffff16815260200190815260200160002060009054906101000a900460ff16610c95576040517f08c379a0000000000000000000000000000000000000000000000000000000008152600401610c8c9061473b565b60405180910390fd5b600960008273ffffffffffffffffffffffffffffffffffffffff1673ffffffffffffffffffffffffffffffffffffffff16815260200190815260200160002060008460000151815260200190815260200160002060009054906101000a900460ff1615610d37576040517f08c379a0000000000000000000000000000000000000000000000000000000008152600401610d2e906147a7565b60405180910390fd5b6001600960008373ffffffffffffffffffffffffffffffffffffffff1673ffffffffffffffffffffffffffffffffffffffff16815260200190815260200160002060008560000151815260200190815260200160002060006101000a81548160ff02191690831515021790555043600c60008373ffffffffffffffffffffffffffffffffffffffff1673ffffffffffffffffffffffffffffffffffffffff168152602001908152602001600020819055506000610df2610a59565b90506000818561012001511015905060036000866000015181526020019081526020016000206040518060a001604052808573ffffffffffffffffffffffffffffffffffffffff1681526020018760000151815260200186815260200184815260200143815250908060018154018082558091505060019003906000526020600020906005020160009091909190915060008201518160000160006101000a81548173ffffffffffffffffffffffffffffffffffffffff021916908373ffffffffffffffffffffffffffffffffffffffff160217905550602082015181600101556040820151816002019081610ee891906149d3565b506060820151816003015560808201518160040155505080610f0b575050611069565b6000600f60009054906101000a900473ffffffffffffffffffffffffffffffffffffffff1673ffffffffffffffffffffffffffffffffffffffff16631b63a43c876060015188600001516040518363ffffffff1660e01b8152600401610f72929190614aa5565b6020604051808303816000875af1158015610f91573d6000803e3d6000fd5b505050506040513d601f19601f82011682018060405250810190610fb59190614ae3565b9050610fc0866129d0565b600f60009054906101000a900473ffffffffffffffffffffffffffffffffffffffff1673ffffffffffffffffffffffffffffffffffffffff1663b24eb7696040518163ffffffff1660e01b8152600401602060405180830381865afa15801561102d573d6000803e3d6000fd5b505050506040513d601f19601f820116820180604052508101906110519190614ae3565b81106110655761106486606001516129c4565b5b5050505b505050565b611076612b16565b6110806000612b94565b565b60016020528060005260406000206000915054906101000a900460ff1681565b600560205281600052604060002081815481106110be57600080fd5b9060005260206000209060050201600091509150508060000160009054906101000a900473ffffffffffffffffffffffffffffffffffffffff169080600101549080600201805461110e906147f6565b80601f016020809104026020016040519081016040528092919081815260200182805461113a906147f6565b80156111875780601f1061115c57610100808354040283529160200191611187565b820191906000526020600020905b81548152906001019060200180831161116a57829003601f168201915b5050505050908060030154908060040154905085565b600160003373ffffffffffffffffffffffffffffffffffffffff1673ffffffffffffffffffffffffffffffffffffffff16815260200190815260200160002060009054906101000a900460ff16611229576040517f08c379a00000000000000000000000000000000000000000000000000000000081526004016112209061473b565b60405180910390fd5b600a60008273ffffffffffffffffffffffffffffffffffffffff1673ffffffffffffffffffffffffffffffffffffffff16815260200190815260200160002060008460000151815260200190815260200160002060009054906101000a900460ff16156112cb576040517f08c379a00000000000000000000000000000000000000000000000000000000081526004016112c2906147a7565b60405180910390fd5b6001600a60008373ffffffffffffffffffffffffffffffffffffffff1673ffffffffffffffffffffffffffffffffffffffff16815260200190815260200160002060008560000151815260200190815260200160002060006101000a81548160ff02191690831515021790555043600c60008373ffffffffffffffffffffffffffffffffffffffff1673ffffffffffffffffffffffffffffffffffffffff168152602001908152602001600020819055506000611386610a59565b90506000818560c001511015905060066000866000015181526020019081526020016000206040518060a001604052808573ffffffffffffffffffffffffffffffffffffffff1681526020018760000151815260200186815260200184815260200143815250908060018154018082558091505060019003906000526020600020906005020160009091909190915060008201518160000160006101000a81548173ffffffffffffffffffffffffffffffffffffffff021916908373ffffffffffffffffffffffffffffffffffffffff16021790555060208201518160010155604082015181600201908161147b91906149d3565b50606082015181600301556080820151816004015550508061149e5750506115fc565b6000601160009054906101000a900473ffffffffffffffffffffffffffffffffffffffff1673ffffffffffffffffffffffffffffffffffffffff16631b63a43c876040015188600001516040518363ffffffff1660e01b8152600401611505929190614aa5565b6020604051808303816000875af1158015611524573d6000803e3d6000fd5b505050506040513d601f19601f820116820180604052508101906115489190614ae3565b905061155386612c58565b601160009054906101000a900473ffffffffffffffffffffffffffffffffffffffff1673ffffffffffffffffffffffffffffffffffffffff1663b43f070a6040518163ffffffff1660e01b8152600401602060405180830381865afa1580156115c0573d6000803e3d6000fd5b505050506040513d601f19601f820116820180604052508101906115e49190614ae3565b81106115f8576115f786604001516129c4565b5b5050505b505050565b6006602052816000526040600020818154811061161d57600080fd5b9060005260206000209060050201600091509150508060000160009054906101000a900473ffffffffffffffffffffffffffffffffffffffff169080600101549080600201805461166d906147f6565b80601f0160208091040260200160405190810160405280929190818152602001828054611699906147f6565b80156116e65780601f106116bb576101008083540402835291602001916116e6565b820191906000526020600020905b8154815290600101906020018083116116c957829003601f168201915b5050505050908060030154908060040154905085565b60008060009054906101000a900473ffffffffffffffffffffffffffffffffffffffff16905090565b61172d612b16565b60018060008373ffffffffffffffffffffffffffffffffffffffff1673ffffffffffffffffffffffffffffffffffffffff16815260200190815260200160002060006101000a81548160ff02191690831515021790555050565b61178f612b16565b8060000151600d60006101000a81548173ffffffffffffffffffffffffffffffffffffffff021916908373ffffffffffffffffffffffffffffffffffffffff1602179055508060200151600e60006101000a81548173ffffffffffffffffffffffffffffffffffffffff021916908373ffffffffffffffffffffffffffffffffffffffff1602179055508060400151600f60006101000a81548173ffffffffffffffffffffffffffffffffffffffff021916908373ffffffffffffffffffffffffffffffffffffffff1602179055508060600151601060006101000a81548173ffffffffffffffffffffffffffffffffffffffff021916908373ffffffffffffffffffffffffffffffffffffffff1602179055508060800151601160006101000a81548173ffffffffffffffffffffffffffffffffffffffff021916908373ffffffffffffffffffffffffffffffffffffffff1602179055508060a00151601260006101000a81548173ffffffffffffffffffffffffffffffffffffffff021916908373ffffffffffffffffffffffffffffffffffffffff1602179055508060c00151601360006101000a81548173ffffffffffffffffffffffffffffffffffffffff021916908373ffffffffffffffffffffffffffffffffffffffff1602179055508060e00151601460006101000a81548173ffffffffffffffffffffffffffffffffffffffff021916908373ffffffffffffffffffffffffffffffffffffffff16021790555050565b6000600160008373ffffffffffffffffffffffffffffffffffffffff1673ffffffffffffffffffffffffffffffffffffffff16815260200190815260200160002060009054906101000a900460ff169050919050565b60046020528160005260406000208181548110611a2c57600080fd5b9060005260206000209060050201600091509150508060000160009054906101000a900473ffffffffffffffffffffffffffffffffffffffff1690806001015490806002018054611a7c906147f6565b80601f0160208091040260200160405190810160405280929190818152602001828054611aa8906147f6565b8015611af55780601f10611aca57610100808354040283529160200191611af5565b820191906000526020600020905b815481529060010190602001808311611ad857829003601f168201915b5050505050908060030154908060040154905085565b600c6020528060005260406000206000915090505481565b6060600260008473ffffffffffffffffffffffffffffffffffffffff1673ffffffffffffffffffffffffffffffffffffffff1681526020019081526020016000206000838152602001908152602001600020805480602002602001604051908101604052809291908181526020016000905b82821015611d1957838290600052602060002090600502016040518060a00160405290816000820160009054906101000a900473ffffffffffffffffffffffffffffffffffffffff1673ffffffffffffffffffffffffffffffffffffffff1673ffffffffffffffffffffffffffffffffffffffff1681526020016001820160009054906101000a900473ffffffffffffffffffffffffffffffffffffffff1673ffffffffffffffffffffffffffffffffffffffff1673ffffffffffffffffffffffffffffffffffffffff168152602001600282018054611c74906147f6565b80601f0160208091040260200160405190810160405280929190818152602001828054611ca0906147f6565b8015611ced5780601f10611cc257610100808354040283529160200191611ced565b820191906000526020600020905b815481529060010190602001808311611cd057829003601f168201915b505050505081526020016003820154815260200160048201548152505081526020019060010190611b95565b50505050905092915050565b611d2d612b16565b600073ffffffffffffffffffffffffffffffffffffffff168173ffffffffffffffffffffffffffffffffffffffff1603611d9c576040517f08c379a0000000000000000000000000000000000000000000000000000000008152600401611d9390614be5565b60405180910390fd5b611da581612b94565b50565b601460009054906101000a900473ffffffffffffffffffffffffffffffffffffffff1673ffffffffffffffffffffffffffffffffffffffff1663adfaa72e336040518263ffffffff1660e01b8152600401611e0391906141db565b602060405180830381865afa158015611e20573d6000803e3d6000fd5b505050506040513d601f19601f82011682018060405250810190611e449190614c1a565b611e83576040517f08c379a0000000000000000000000000000000000000000000000000000000008152600401611e7a90614c93565b60405180910390fd5b600d60009054906101000a900473ffffffffffffffffffffffffffffffffffffffff1673ffffffffffffffffffffffffffffffffffffffff16639497c6086000846040518363ffffffff1660e01b8152600401611ee1929190614d2a565b602060405180830381865afa158015611efe573d6000803e3d6000fd5b505050506040513d601f19601f82011682018060405250810190611f229190614c1a565b15611f62576040517f08c379a0000000000000000000000000000000000000000000000000000000008152600401611f5990614d9f565b60405180910390fd5b600d60009054906101000a900473ffffffffffffffffffffffffffffffffffffffff1673ffffffffffffffffffffffffffffffffffffffff16639497c6086008846040518363ffffffff1660e01b8152600401611fc0929190614d2a565b602060405180830381865afa158015611fdd573d6000803e3d6000fd5b505050506040513d601f19601f820116820180604052508101906120019190614c1a565b15612041576040517f08c379a000000000000000000000000000000000000000000000000000000000815260040161203890614e0b565b60405180910390fd5b600061204c83612c6a565b9050600b60003373ffffffffffffffffffffffffffffffffffffffff1673ffffffffffffffffffffffffffffffffffffffff16815260200190815260200160002060008473ffffffffffffffffffffffffffffffffffffffff1673ffffffffffffffffffffffffffffffffffffffff168152602001908152602001600020600082815260200190815260200160002060009054906101000a900460ff1615612129576040517f08c379a0000000000000000000000000000000000000000000000000000000008152600401612120906147a7565b60405180910390fd5b612132336109cc565b612171576040517f08c379a000000000000000000000000000000000000000000000000000000000815260040161216890614e77565b60405180910390fd5b6001600b60003373ffffffffffffffffffffffffffffffffffffffff1673ffffffffffffffffffffffffffffffffffffffff16815260200190815260200160002060008573ffffffffffffffffffffffffffffffffffffffff1673ffffffffffffffffffffffffffffffffffffffff168152602001908152602001600020600083815260200190815260200160002060006101000a81548160ff02191690831515021790555043600c60003373ffffffffffffffffffffffffffffffffffffffff1673ffffffffffffffffffffffffffffffffffffffff168152602001908152602001600020819055506000612265610a59565b905060006001600260008773ffffffffffffffffffffffffffffffffffffffff1673ffffffffffffffffffffffffffffffffffffffff1681526020019081526020016000206000858152602001908152602001600020805490506122c99190614b3f565b9050600260008673ffffffffffffffffffffffffffffffffffffffff1673ffffffffffffffffffffffffffffffffffffffff16815260200190815260200160002060008481526020019081526020016000206040518060a001604052803373ffffffffffffffffffffffffffffffffffffffff1681526020018773ffffffffffffffffffffffffffffffffffffffff16815260200186815260200184815260200143815250908060018154018082558091505060019003906000526020600020906005020160009091909190915060008201518160000160006101000a81548173ffffffffffffffffffffffffffffffffffffffff021916908373ffffffffffffffffffffffffffffffffffffffff16021790555060208201518160010160006101000a81548173ffffffffffffffffffffffffffffffffffffffff021916908373ffffffffffffffffffffffffffffffffffffffff160217905550604082015181600201908161243a91906149d3565b506060820151816003015560808201518160040155505081811061246257612461856131b0565b5b5050505050565b6003602052816000526040600020818154811061248557600080fd5b9060005260206000209060050201600091509150508060000160009054906101000a900473ffffffffffffffffffffffffffffffffffffffff16908060010154908060020180546124d5906147f6565b80601f0160208091040260200160405190810160405280929190818152602001828054612501906147f6565b801561254e5780601f106125235761010080835404028352916020019161254e565b820191906000526020600020905b81548152906001019060200180831161253157829003601f168201915b5050505050908060030154908060040154905085565b600160003373ffffffffffffffffffffffffffffffffffffffff1673ffffffffffffffffffffffffffffffffffffffff16815260200190815260200160002060009054906101000a900460ff166125f0576040517f08c379a00000000000000000000000000000000000000000000000000000000081526004016125e79061473b565b60405180910390fd5b600860008273ffffffffffffffffffffffffffffffffffffffff1673ffffffffffffffffffffffffffffffffffffffff16815260200190815260200160002060008460000151815260200190815260200160002060009054906101000a900460ff1615612692576040517f08c379a0000000000000000000000000000000000000000000000000000000008152600401612689906147a7565b60405180910390fd5b6001600860008373ffffffffffffffffffffffffffffffffffffffff1673ffffffffffffffffffffffffffffffffffffffff16815260200190815260200160002060008560000151815260200190815260200160002060006101000a81548160ff02191690831515021790555043600c60008373ffffffffffffffffffffffffffffffffffffffff1673ffffffffffffffffffffffffffffffffffffffff1681526020019081526020016000208190555060056000846000015181526020019081526020016000206040518060a001604052808373ffffffffffffffffffffffffffffffffffffffff16815260200185600001518152602001848152602001612799610a59565b815260200143815250908060018154018082558091505060019003906000526020600020906005020160009091909190915060008201518160000160006101000a81548173ffffffffffffffffffffffffffffffffffffffff021916908373ffffffffffffffffffffffffffffffffffffffff16021790555060208201518160010155604082015181600201908161283191906149d3565b50606082015181600301556080820151816004015550508260c001516129ad576000601260009054906101000a900473ffffffffffffffffffffffffffffffffffffffff1673ffffffffffffffffffffffffffffffffffffffff16631b63a43c856040015186600001516040518363ffffffff1660e01b81526004016128b8929190614aa5565b6020604051808303816000875af11580156128d7573d6000803e3d6000fd5b505050506040513d601f19601f820116820180604052508101906128fb9190614ae3565b90506129068461324b565b601260009054906101000a900473ffffffffffffffffffffffffffffffffffffffff1673ffffffffffffffffffffffffffffffffffffffff1663b43f070a6040518163ffffffff1660e01b8152600401602060405180830381865afa158015612973573d6000803e3d6000fd5b505050506040513d601f19601f820116820180604052508101906129979190614ae3565b81106129ab576129aa84604001516129c4565b5b505b505050565b6129c18160400151600161325d565b50565b6129cd816131b0565b50565b600f60009054906101000a900473ffffffffffffffffffffffffffffffffffffffff1673ffffffffffffffffffffffffffffffffffffffff1663c3c983d282606001516040518263ffffffff1660e01b8152600401612a2f91906141db565b600060405180830381600087803b158015612a4957600080fd5b505af1158015612a5d573d6000803e3d6000fd5b50505050600e60009054906101000a900473ffffffffffffffffffffffffffffffffffffffff1673ffffffffffffffffffffffffffffffffffffffff1663c3c983d282604001516040518263ffffffff1660e01b8152600401612ac091906141db565b600060405180830381600087803b158015612ada57600080fd5b505af1158015612aee573d6000803e3d6000fd5b50505050612b018160600151600161325d565b612b1381604001518260c0015161325d565b50565b612b1e613789565b73ffffffffffffffffffffffffffffffffffffffff16612b3c6116fc565b73ffffffffffffffffffffffffffffffffffffffff1614612b92576040517f08c379a0000000000000000000000000000000000000000000000000000000008152600401612b8990614ee3565b60405180910390fd5b565b60008060009054906101000a900473ffffffffffffffffffffffffffffffffffffffff169050816000806101000a81548173ffffffffffffffffffffffffffffffffffffffff021916908373ffffffffffffffffffffffffffffffffffffffff1602179055508173ffffffffffffffffffffffffffffffffffffffff168173ffffffffffffffffffffffffffffffffffffffff167f8be0079c531659141344cd1fd0a4f28419497f9722a3daafe3b4186f6b6457e060405160405180910390a35050565b612c678160400151600161325d565b50565b600080600d60009054906101000a900473ffffffffffffffffffffffffffffffffffffffff1673ffffffffffffffffffffffffffffffffffffffff16636f77926b846040518263ffffffff1660e01b8152600401612cc891906141db565b602060405180830381865afa158015612ce5573d6000803e3d6000fd5b505050506040513d601f19601f82011682018060405250810190612d099190614f28565b905060066008811115612d1f57612d1e614cb3565b5b816008811115612d3257612d31614cb3565b5b03612dd057601360009054906101000a900473ffffffffffffffffffffffffffffffffffffffff1673ffffffffffffffffffffffffffffffffffffffff1663e05cf1556040518163ffffffff1660e01b8152600401602060405180830381865afa158015612da4573d6000803e3d6000fd5b505050506040513d601f19601f82011682018060405250810190612dc89190614ae3565b9150506131ab565b60056008811115612de457612de3614cb3565b5b816008811115612df757612df6614cb3565b5b03612e9557601260009054906101000a900473ffffffffffffffffffffffffffffffffffffffff1673ffffffffffffffffffffffffffffffffffffffff1663e05cf1556040518163ffffffff1660e01b8152600401602060405180830381865afa158015612e69573d6000803e3d6000fd5b505050506040513d601f19601f82011682018060405250810190612e8d9190614ae3565b9150506131ab565b60046008811115612ea957612ea8614cb3565b5b816008811115612ebc57612ebb614cb3565b5b03612f5a57601060009054906101000a900473ffffffffffffffffffffffffffffffffffffffff1673ffffffffffffffffffffffffffffffffffffffff1663e05cf1556040518163ffffffff1660e01b8152600401602060405180830381865afa158015612f2e573d6000803e3d6000fd5b505050506040513d601f19601f82011682018060405250810190612f529190614ae3565b9150506131ab565b60026008811115612f6e57612f6d614cb3565b5b816008811115612f8157612f80614cb3565b5b0361301f57600f60009054906101000a900473ffffffffffffffffffffffffffffffffffffffff1673ffffffffffffffffffffffffffffffffffffffff1663e05cf1556040518163ffffffff1660e01b8152600401602060405180830381865afa158015612ff3573d6000803e3d6000fd5b505050506040513d601f19601f820116820180604052508101906130179190614ae3565b9150506131ab565b6003600881111561303357613032614cb3565b5b81600881111561304657613045614cb3565b5b036130e457601160009054906101000a900473ffffffffffffffffffffffffffffffffffffffff1673ffffffffffffffffffffffffffffffffffffffff1663e05cf1556040518163ffffffff1660e01b8152600401602060405180830381865afa1580156130b8573d6000803e3d6000fd5b505050506040513d601f19601f820116820180604052508101906130dc9190614ae3565b9150506131ab565b600160088111156130f8576130f7614cb3565b5b81600881111561310b5761310a614cb3565b5b036131a957600e60009054906101000a900473ffffffffffffffffffffffffffffffffffffffff1673ffffffffffffffffffffffffffffffffffffffff1663e05cf1556040518163ffffffff1660e01b8152600401602060405180830381865afa15801561317d573d6000803e3d6000fd5b505050506040513d601f19601f820116820180604052508101906131a19190614ae3565b9150506131ab565b505b919050565b6131bb81600061325d565b600d60009054906101000a900473ffffffffffffffffffffffffffffffffffffffff1673ffffffffffffffffffffffffffffffffffffffff1663e202fa4d826040518263ffffffff1660e01b815260040161321691906141db565b600060405180830381600087803b15801561323057600080fd5b505af1158015613244573d6000803e3d6000fd5b5050505050565b61325a8160400151600161325d565b50565b6000600d60009054906101000a900473ffffffffffffffffffffffffffffffffffffffff1673ffffffffffffffffffffffffffffffffffffffff16636f77926b846040518263ffffffff1660e01b81526004016132ba91906141db565b602060405180830381865afa1580156132d7573d6000803e3d6000fd5b505050506040513d601f19601f820116820180604052508101906132fb9190614f28565b90506002600881111561331157613310614cb3565b5b81600881111561332457613323614cb3565b5b036133be57600f60009054906101000a900473ffffffffffffffffffffffffffffffffffffffff1673ffffffffffffffffffffffffffffffffffffffff166318ad5c9a84846040518363ffffffff1660e01b8152600401613386929190614aa5565b600060405180830381600087803b1580156133a057600080fd5b505af11580156133b4573d6000803e3d6000fd5b5050505050613785565b600160088111156133d2576133d1614cb3565b5b8160088111156133e5576133e4614cb3565b5b0361347f57600e60009054906101000a900473ffffffffffffffffffffffffffffffffffffffff1673ffffffffffffffffffffffffffffffffffffffff166318ad5c9a84846040518363ffffffff1660e01b8152600401613447929190614aa5565b600060405180830381600087803b15801561346157600080fd5b505af1158015613475573d6000803e3d6000fd5b5050505050613785565b6004600881111561349357613492614cb3565b5b8160088111156134a6576134a5614cb3565b5b0361354057601060009054906101000a900473ffffffffffffffffffffffffffffffffffffffff1673ffffffffffffffffffffffffffffffffffffffff166318ad5c9a84846040518363ffffffff1660e01b8152600401613508929190614aa5565b600060405180830381600087803b15801561352257600080fd5b505af1158015613536573d6000803e3d6000fd5b5050505050613785565b6003600881111561355457613553614cb3565b5b81600881111561356757613566614cb3565b5b0361360157601160009054906101000a900473ffffffffffffffffffffffffffffffffffffffff1673ffffffffffffffffffffffffffffffffffffffff166318ad5c9a84846040518363ffffffff1660e01b81526004016135c9929190614aa5565b600060405180830381600087803b1580156135e357600080fd5b505af11580156135f7573d6000803e3d6000fd5b5050505050613785565b6005600881111561361557613614614cb3565b5b81600881111561362857613627614cb3565b5b036136c257601260009054906101000a900473ffffffffffffffffffffffffffffffffffffffff1673ffffffffffffffffffffffffffffffffffffffff166318ad5c9a84846040518363ffffffff1660e01b815260040161368a929190614aa5565b600060405180830381600087803b1580156136a457600080fd5b505af11580156136b8573d6000803e3d6000fd5b5050505050613785565b600660088111156136d6576136d5614cb3565b5b8160088111156136e9576136e8614cb3565b5b0361378357601360009054906101000a900473ffffffffffffffffffffffffffffffffffffffff1673ffffffffffffffffffffffffffffffffffffffff166318ad5c9a84846040518363ffffffff1660e01b815260040161374b929190614aa5565b600060405180830381600087803b15801561376557600080fd5b505af1158015613779573d6000803e3d6000fd5b5050505050613785565b505b5050565b600033905090565b6000604051905090565b600080fd5b600080fd5b600080fd5b6000601f19601f8301169050919050565b7f4e487b7100000000000000000000000000000000000000000000000000000000600052604160045260246000fd5b6137f3826137aa565b810181811067ffffffffffffffff82111715613812576138116137bb565b5b80604052505050565b6000613825613791565b905061383182826137ea565b919050565b600080fd5b6000819050919050565b61384e8161383b565b811461385957600080fd5b50565b60008135905061386b81613845565b92915050565b600073ffffffffffffffffffffffffffffffffffffffff82169050919050565b600061389c82613871565b9050919050565b6138ac81613891565b81146138b757600080fd5b50565b6000813590506138c9816138a3565b92915050565b600080fd5b600080fd5b600067ffffffffffffffff8211156138f4576138f36137bb565b5b6138fd826137aa565b9050602081019050919050565b82818337600083830152505050565b600061392c613927846138d9565b61381b565b905082815260208101848484011115613948576139476138d4565b5b61395384828561390a565b509392505050565b600082601f8301126139705761396f6138cf565b5b8135613980848260208601613919565b91505092915050565b60008115159050919050565b61399e81613989565b81146139a957600080fd5b50565b6000813590506139bb81613995565b92915050565b600061012082840312156139d8576139d76137a5565b5b6139e361012061381b565b905060006139f38482850161385c565b6000830152506020613a078482850161385c565b6020830152506040613a1b848285016138ba565b604083015250606082013567ffffffffffffffff811115613a3f57613a3e613836565b5b613a4b8482850161395b565b606083015250608082013567ffffffffffffffff811115613a6f57613a6e613836565b5b613a7b8482850161395b565b60808301525060a0613a8f8482850161385c565b60a08301525060c0613aa3848285016139ac565b60c08301525060e0613ab78482850161385c565b60e083015250610100613acc8482850161385c565b6101008301525092915050565b600080600060608486031215613af257613af161379b565b5b600084013567ffffffffffffffff811115613b1057613b0f6137a0565b5b613b1c868287016139c1565b935050602084013567ffffffffffffffff811115613b3d57613b3c6137a0565b5b613b498682870161395b565b9250506040613b5a868287016138ba565b9150509250925092565b600080600060608486031215613b7d57613b7c61379b565b5b6000613b8b868287016138ba565b9350506020613b9c8682870161385c565b9250506040613bad8682870161385c565b9150509250925092565b613bc081613891565b82525050565b600081519050919050565b600082825260208201905092915050565b60005b83811015613c00578082015181840152602081019050613be5565b60008484015250505050565b6000613c1782613bc6565b613c218185613bd1565b9350613c31818560208601613be2565b613c3a816137aa565b840191505092915050565b613c4e8161383b565b82525050565b600060a082019050613c696000830188613bb7565b613c766020830187613bb7565b8181036040830152613c888186613c0c565b9050613c976060830185613c45565b613ca46080830184613c45565b9695505050505050565b600060208284031215613cc457613cc361379b565b5b6000613cd2848285016138ba565b91505092915050565b613ce481613989565b82525050565b6000602082019050613cff6000830184613cdb565b92915050565b6000602082019050613d1a6000830184613c45565b92915050565b60058110613d2d57600080fd5b50565b600081359050613d3f81613d20565b92915050565b60006101e08284031215613d5c57613d5b6137a5565b5b613d676101e061381b565b90506000613d778482850161385c565b6000830152506020613d8b84828501613d30565b6020830152506040613d9f848285016138ba565b6040830152506060613db3848285016138ba565b6060830152506080613dc78482850161385c565b60808301525060a0613ddb8482850161385c565b60a08301525060c0613def8482850161385c565b60c08301525060e082013567ffffffffffffffff811115613e1357613e12613836565b5b613e1f8482850161395b565b60e08301525061010082013567ffffffffffffffff811115613e4457613e43613836565b5b613e508482850161395b565b61010083015250610120613e668482850161385c565b61012083015250610140613e7c8482850161385c565b61014083015250610160613e928482850161385c565b61016083015250610180613ea88482850161385c565b610180830152506101a0613ebe8482850161385c565b6101a0830152506101c0613ed48482850161385c565b6101c08301525092915050565b600080600060608486031215613efa57613ef961379b565b5b600084013567ffffffffffffffff811115613f1857613f176137a0565b5b613f2486828701613d45565b935050602084013567ffffffffffffffff811115613f4557613f446137a0565b5b613f518682870161395b565b9250506040613f62868287016138ba565b9150509250925092565b60008060408385031215613f8357613f8261379b565b5b6000613f918582860161385c565b9250506020613fa28582860161385c565b9150509250929050565b600060a082019050613fc16000830188613bb7565b613fce6020830187613c45565b8181036040830152613fe08186613c0c565b9050613fef6060830185613c45565b613ffc6080830184613c45565b9695505050505050565b6000610140828403121561401d5761401c6137a5565b5b61402861014061381b565b905060006140388482850161385c565b600083015250602061404c8482850161385c565b6020830152506040614060848285016138ba565b604083015250606082013567ffffffffffffffff81111561408457614083613836565b5b6140908482850161395b565b606083015250608082013567ffffffffffffffff8111156140b4576140b3613836565b5b6140c08482850161395b565b60808301525060a082013567ffffffffffffffff8111156140e4576140e3613836565b5b6140f08482850161395b565b60a08301525060c06141048482850161385c565b60c08301525060e0614118848285016139ac565b60e08301525061010061412d8482850161385c565b610100830152506101206141438482850161385c565b6101208301525092915050565b6000806000606084860312156141695761416861379b565b5b600084013567ffffffffffffffff811115614187576141866137a0565b5b61419386828701614006565b935050602084013567ffffffffffffffff8111156141b4576141b36137a0565b5b6141c08682870161395b565b92505060406141d1868287016138ba565b9150509250925092565b60006020820190506141f06000830184613bb7565b92915050565b6000610100828403121561420d5761420c6137a5565b5b61421861010061381b565b90506000614228848285016138ba565b600083015250602061423c848285016138ba565b6020830152506040614250848285016138ba565b6040830152506060614264848285016138ba565b6060830152506080614278848285016138ba565b60808301525060a061428c848285016138ba565b60a08301525060c06142a0848285016138ba565b60c08301525060e06142b4848285016138ba565b60e08301525092915050565b600061010082840312156142d7576142d661379b565b5b60006142e5848285016141f6565b91505092915050565b600080604083850312156143055761430461379b565b5b6000614313858286016138ba565b92505060206143248582860161385c565b9150509250929050565b600081519050919050565b600082825260208201905092915050565b6000819050602082019050919050565b61436381613891565b82525050565b600082825260208201905092915050565b600061438582613bc6565b61438f8185614369565b935061439f818560208601613be2565b6143a8816137aa565b840191505092915050565b6143bc8161383b565b82525050565b600060a0830160008301516143da600086018261435a565b5060208301516143ed602086018261435a565b5060408301518482036040860152614405828261437a565b915050606083015161441a60608601826143b3565b50608083015161442d60808601826143b3565b508091505092915050565b600061444483836143c2565b905092915050565b6000602082019050919050565b60006144648261432e565b61446e8185614339565b9350836020820285016144808561434a565b8060005b858110156144bc578484038952815161449d8582614438565b94506144a88361444c565b925060208a01995050600181019050614484565b50829750879550505050505092915050565b600060208201905081810360008301526144e88184614459565b905092915050565b600080604083850312156145075761450661379b565b5b6000614515858286016138ba565b925050602083013567ffffffffffffffff811115614536576145356137a0565b5b6145428582860161395b565b9150509250929050565b60006101208284031215614563576145626137a5565b5b61456e61012061381b565b9050600061457e8482850161385c565b60008301525060206145928482850161385c565b60208301525060406145a6848285016138ba565b604083015250606082013567ffffffffffffffff8111156145ca576145c9613836565b5b6145d68482850161395b565b606083015250608082013567ffffffffffffffff8111156145fa576145f9613836565b5b6146068482850161395b565b60808301525060a061461a8482850161385c565b60a08301525060c061462e848285016139ac565b60c08301525060e06146428482850161385c565b60e0830152506101006146578482850161385c565b6101008301525092915050565b60008060006060848603121561467d5761467c61379b565b5b600084013567ffffffffffffffff81111561469b5761469a6137a0565b5b6146a78682870161454c565b935050602084013567ffffffffffffffff8111156146c8576146c76137a0565b5b6146d48682870161395b565b92505060406146e5868287016138ba565b9150509250925092565b7f4e6f7420616c6c6f7765642063616c6c65720000000000000000000000000000600082015250565b6000614725601283613bd1565b9150614730826146ef565b602082019050919050565b6000602082019050818103600083015261475481614718565b9050919050565b7f416c726561647920766f74656400000000000000000000000000000000000000600082015250565b6000614791600d83613bd1565b915061479c8261475b565b602082019050919050565b600060208201905081810360008301526147c081614784565b9050919050565b7f4e487b7100000000000000000000000000000000000000000000000000000000600052602260045260246000fd5b6000600282049050600182168061480e57607f821691505b602082108103614821576148206147c7565b5b50919050565b60008190508160005260206000209050919050565b60006020601f8301049050919050565b600082821b905092915050565b6000600883026148897fffffffffffffffffffffffffffffffffffffffffffffffffffffffffffffffff8261484c565b614893868361484c565b95508019841693508086168417925050509392505050565b6000819050919050565b60006148d06148cb6148c68461383b565b6148ab565b61383b565b9050919050565b6000819050919050565b6148ea836148b5565b6148fe6148f6826148d7565b848454614859565b825550505050565b600090565b614913614906565b61491e8184846148e1565b505050565b5b818110156149425761493760008261490b565b600181019050614924565b5050565b601f8211156149875761495881614827565b6149618461483c565b81016020851015614970578190505b61498461497c8561483c565b830182614923565b50505b505050565b600082821c905092915050565b60006149aa6000198460080261498c565b1980831691505092915050565b60006149c38383614999565b9150826002028217905092915050565b6149dc82613bc6565b67ffffffffffffffff8111156149f5576149f46137bb565b5b6149ff82546147f6565b614a0a828285614946565b600060209050601f831160018114614a3d5760008415614a2b578287015190505b614a3585826149b7565b865550614a9d565b601f198416614a4b86614827565b60005b82811015614a7357848901518255600182019150602085019450602081019050614a4e565b86831015614a905784890151614a8c601f891682614999565b8355505b6001600288020188555050505b505050505050565b6000604082019050614aba6000830185613bb7565b614ac76020830184613c45565b9392505050565b600081519050614add81613845565b92915050565b600060208284031215614af957614af861379b565b5b6000614b0784828501614ace565b91505092915050565b7f4e487b7100000000000000000000000000000000000000000000000000000000600052601160045260246000fd5b6000614b4a8261383b565b9150614b558361383b565b9250828201905080821115614b6d57614b6c614b10565b5b92915050565b7f4f776e61626c653a206e6577206f776e657220697320746865207a65726f206160008201527f6464726573730000000000000000000000000000000000000000000000000000602082015250565b6000614bcf602683613bd1565b9150614bda82614b73565b604082019050919050565b60006020820190508181036000830152614bfe81614bc2565b9050919050565b600081519050614c1481613995565b92915050565b600060208284031215614c3057614c2f61379b565b5b6000614c3e84828501614c05565b91505092915050565b7f557365722063616e6e6f7420766f746500000000000000000000000000000000600082015250565b6000614c7d601083613bd1565b9150614c8882614c47565b602082019050919050565b60006020820190508181036000830152614cac81614c70565b9050919050565b7f4e487b7100000000000000000000000000000000000000000000000000000000600052602160045260246000fd5b60098110614cf357614cf2614cb3565b5b50565b6000819050614d0482614ce2565b919050565b6000614d1482614cf6565b9050919050565b614d2481614d09565b82525050565b6000604082019050614d3f6000830185614d1b565b614d4c6020830184613bb7565b9392505050565b7f55736572206e6f74207265676973746572656400000000000000000000000000600082015250565b6000614d89601383613bd1565b9150614d9482614d53565b602082019050919050565b60006020820190508181036000830152614db881614d7c565b9050919050565b7f5573657220616c72656164792064656e69656400000000000000000000000000600082015250565b6000614df5601383613bd1565b9150614e0082614dbf565b602082019050919050565b60006020820190508181036000830152614e2481614de8565b9050919050565b7f576169742074696d654265747765656e566f7465730000000000000000000000600082015250565b6000614e61601583613bd1565b9150614e6c82614e2b565b602082019050919050565b60006020820190508181036000830152614e9081614e54565b9050919050565b7f4f776e61626c653a2063616c6c6572206973206e6f7420746865206f776e6572600082015250565b6000614ecd602083613bd1565b9150614ed882614e97565b602082019050919050565b60006020820190508181036000830152614efc81614ec0565b9050919050565b60098110614f1057600080fd5b50565b600081519050614f2281614f03565b92915050565b600060208284031215614f3e57614f3d61379b565b5b6000614f4c84828501614f13565b9150509291505056fea26469706673582212200a7b8bf23343540d16ca3c1740ccbdf63ec9a4a034d425a3c1d756135d23693464736f6c634300081b0033",
  "linkReferences": {},
  "deployedLinkReferences": {}
}