{
  "_format": "hh-sol-artifact-1",
  "contractName": "ValidationRules",
  "sourceName": "contracts/ValidationRules.sol",
  "abi": [
    {
      "inputs": [
        {
          "internalType": "uint256",
          "name": "timeBetweenVotes_",
          "type": "uint256"
        }
      ],
      "stateMutability": "nonpayable",
      "type": "constructor"
    },
    {
      "inputs": [
        {
          "internalType": "address",
          "name": "owner",
          "type": "address"
        }
      ],
      "name": "OwnableInvalidOwner",
      "type": "error"
    },
    {
      "inputs": [
        {
          "internalType": "address",
          "name": "account",
          "type": "address"
        }
      ],
      "name": "OwnableUnauthorizedAccount",
      "type": "error"
    },
    {
      "inputs": [],
      "name": "ReentrancyGuardReentrantCall",
      "type": "error"
    },
    {
      "anonymous": false,
      "inputs": [
        {
          "indexed": true,
          "internalType": "address",
          "name": "previousOwner",
          "type": "address"
        },
        {
          "indexed": true,
          "internalType": "address",
          "name": "newOwner",
          "type": "address"
        }
      ],
      "name": "OwnershipTransferred",
      "type": "event"
    },
    {
      "anonymous": false,
      "inputs": [
        {
          "indexed": true,
          "internalType": "address",
          "name": "_userAddress",
          "type": "address"
        }
      ],
      "name": "UserDenied",
      "type": "event"
    },
    {
      "anonymous": false,
      "inputs": [
        {
          "indexed": true,
          "internalType": "address",
          "name": "_validatorAddress",
          "type": "address"
        },
        {
          "indexed": true,
          "internalType": "address",
          "name": "_userAddress",
          "type": "address"
        },
        {
          "indexed": false,
          "internalType": "string",
          "name": "_justification",
          "type": "string"
        }
      ],
      "name": "UserValidation",
      "type": "event"
    },
    {
      "inputs": [
        {
          "internalType": "address",
          "name": "userAddress",
          "type": "address"
        },
        {
          "internalType": "string",
          "name": "justification",
          "type": "string"
        }
      ],
      "name": "addUserValidation",
      "outputs": [],
      "stateMutability": "nonpayable",
      "type": "function"
    },
    {
      "inputs": [
        {
          "internalType": "address",
          "name": "",
          "type": "address"
        }
      ],
      "name": "allowedCallers",
      "outputs": [
        {
          "internalType": "bool",
          "name": "",
          "type": "bool"
        }
      ],
      "stateMutability": "view",
      "type": "function"
    },
    {
      "inputs": [
        {
          "internalType": "address",
          "name": "userAddress",
          "type": "address"
        },
        {
          "internalType": "uint256",
          "name": "currentEra",
          "type": "uint256"
        }
      ],
      "name": "getUserValidations",
      "outputs": [
        {
          "internalType": "uint256",
          "name": "",
          "type": "uint256"
        }
      ],
      "stateMutability": "view",
      "type": "function"
    },
    {
      "inputs": [
        {
          "internalType": "address",
          "name": "caller",
          "type": "address"
        }
      ],
      "name": "isAllowedCaller",
      "outputs": [
        {
          "internalType": "bool",
          "name": "",
          "type": "bool"
        }
      ],
      "stateMutability": "view",
      "type": "function"
    },
    {
      "inputs": [
        {
          "internalType": "address",
          "name": "allowed",
          "type": "address"
        }
      ],
      "name": "newAllowedCaller",
      "outputs": [],
      "stateMutability": "nonpayable",
      "type": "function"
    },
    {
      "inputs": [],
      "name": "owner",
      "outputs": [
        {
          "internalType": "address",
          "name": "",
          "type": "address"
        }
      ],
      "stateMutability": "view",
      "type": "function"
    },
    {
      "inputs": [],
      "name": "renounceOwnership",
      "outputs": [],
      "stateMutability": "nonpayable",
      "type": "function"
    },
    {
      "inputs": [
        {
          "components": [
            {
              "internalType": "address",
              "name": "communityRulesAddress",
              "type": "address"
            },
            {
              "internalType": "address",
              "name": "regeneratorRulesAddress",
              "type": "address"
            },
            {
              "internalType": "address",
              "name": "inspectorRulesAddress",
              "type": "address"
            },
            {
              "internalType": "address",
              "name": "developerRulesAddress",
              "type": "address"
            },
            {
              "internalType": "address",
              "name": "researcherRulesAddress",
              "type": "address"
            },
            {
              "internalType": "address",
              "name": "contributorRulesAddress",
              "type": "address"
            },
            {
              "internalType": "address",
              "name": "activistRulesAddress",
              "type": "address"
            },
            {
              "internalType": "address",
              "name": "voteRulesAddress",
              "type": "address"
            }
          ],
          "internalType": "struct ContractsDependency",
          "name": "contractDependency",
          "type": "tuple"
        }
      ],
      "name": "setContractInterfaces",
      "outputs": [],
      "stateMutability": "nonpayable",
      "type": "function"
    },
    {
      "inputs": [],
      "name": "timeBetweenVotes",
      "outputs": [
        {
          "internalType": "uint256",
          "name": "",
          "type": "uint256"
        }
      ],
      "stateMutability": "view",
      "type": "function"
    },
    {
      "inputs": [
        {
          "internalType": "address",
          "name": "newOwner",
          "type": "address"
        }
      ],
      "name": "transferOwnership",
      "outputs": [],
      "stateMutability": "nonpayable",
      "type": "function"
    },
    {
      "inputs": [
        {
          "internalType": "address",
          "name": "validatorAddress",
          "type": "address"
        }
      ],
      "name": "updateValidatorLastVoteBlock",
      "outputs": [],
      "stateMutability": "nonpayable",
      "type": "function"
    },
    {
      "inputs": [
        {
          "internalType": "address",
          "name": "",
          "type": "address"
        },
        {
          "internalType": "uint256",
          "name": "",
          "type": "uint256"
        }
      ],
      "name": "userValidations",
      "outputs": [
        {
          "internalType": "uint256",
          "name": "",
          "type": "uint256"
        }
      ],
      "stateMutability": "view",
      "type": "function"
    },
    {
      "inputs": [
        {
          "internalType": "address",
          "name": "",
          "type": "address"
        }
      ],
      "name": "validatorLastVoteAt",
      "outputs": [
        {
          "internalType": "uint256",
          "name": "",
          "type": "uint256"
        }
      ],
      "stateMutability": "view",
      "type": "function"
    },
    {
      "inputs": [],
      "name": "votesToInvalidate",
      "outputs": [
        {
          "internalType": "uint256",
          "name": "",
          "type": "uint256"
        }
      ],
      "stateMutability": "view",
      "type": "function"
    },
    {
      "inputs": [
        {
          "internalType": "address",
          "name": "validatorAddress",
          "type": "address"
        }
      ],
      "name": "waitedTimeBetweenVotes",
      "outputs": [
        {
          "internalType": "bool",
          "name": "",
          "type": "bool"
        }
      ],
      "stateMutability": "view",
      "type": "function"
    }
  ],
  "bytecode": "0x60a060405234801561001057600080fd5b50604051611b44380380611b4483398101604081905261002f916100bc565b338061005557604051631e4fbdf760e01b81526000600482015260240160405180910390fd5b61005e8161006c565b5060016002556080526100d5565b600080546001600160a01b038381166001600160a01b0319831681178455604051919092169283917f8be0079c531659141344cd1fd0a4f28419497f9722a3daafe3b4186f6b6457e09190a35050565b6000602082840312156100ce57600080fd5b5051919050565b608051611a4d6100f76000396000818161011401526103640152611a4d6000f3fe608060405234801561001057600080fd5b50600436106100f55760003560e01c80638da5cb5b11610097578063c6c9b9b411610066578063c6c9b9b414610244578063eb48556b14610257578063f2fde38b1461026a578063f9e056901461027d57600080fd5b80638da5cb5b146101ca5780638f93716f146101e5578063a6801258146101f8578063bdac344f1461022457600080fd5b8063361119ac116100d3578063361119ac1461017457806369bf81c314610197578063715018a61461019f5780637b334154146101a757600080fd5b80631422b783146100fa57806321e3c5bb1461010f5780632c885cfd14610149575b600080fd5b61010d610108366004611400565b610290565b005b6101367f000000000000000000000000000000000000000000000000000000000000000081565b6040519081526020015b60405180910390f35b6101366101573660046114a8565b600360209081526000928352604080842090915290825290205481565b6101876101823660046114d4565b610345565b6040519015158152602001610140565b61013661039f565b61010d61046a565b6101876101b53660046114d4565b60016020526000908152604090205460ff1681565b6000546040516001600160a01b039091168152602001610140565b61010d6101f33660046114d4565b61047e565b6101876102063660046114d4565b6001600160a01b031660009081526001602052604090205460ff1690565b6101366102323660046114d4565b60056020526000908152604090205481565b6101366102523660046114a8565b6104ad565b61010d6102653660046114d4565b6104d8565b61010d6102783660046114d4565b61054d565b61010d61028b366004611519565b61058b565b610298610a0b565b8051600680546001600160a01b03199081166001600160a01b03938416179091556020830151600780548316918416919091179055604083015160088054831691841691909117905560608301516009805483169184169190911790556080830151600a8054831691841691909117905560a0830151600b8054831691841691909117905560c0830151600c8054831691841691909117905560e090920151600d80549093169116179055565b6001600160a01b038116600090815260056020526040812054816103897f0000000000000000000000000000000000000000000000000000000000000000836115c2565b431190508080610397575081155b949350505050565b600080600660009054906101000a90046001600160a01b03166001600160a01b03166398c079386040518163ffffffff1660e01b8152600401602060405180830381865afa1580156103f5573d6000803e3d6000fd5b505050506040513d601f19601f8201168201806040525081019061041991906115d5565b9050600c81101561042c57506002919050565b60a781101561043d57506005919050565b6000606461044c6003846115ee565b6104569190611605565b90506104638160016115c2565b9250505090565b610472610a0b565b61047c6000610a38565b565b610486610a0b565b6001600160a01b03166000908152600160208190526040909120805460ff19169091179055565b6001600160a01b03821660009081526003602090815260408083208484529091529020545b92915050565b3360009081526001602052604090205460ff166105315760405162461bcd60e51b81526020600482015260126024820152712737ba1030b63637bbb2b21031b0b63632b960711b60448201526064015b60405180910390fd5b6001600160a01b03166000908152600560205260409020439055565b610555610a0b565b6001600160a01b03811661057f57604051631e4fbdf760e01b815260006004820152602401610528565b61058881610a38565b50565b610593610a88565b805161012c10156105d75760405162461bcd60e51b815260206004820152600e60248201526d4d6178206368617261637465727360901b6044820152606401610528565b600d546040516356fd539760e11b81523360048201526001600160a01b039091169063adfaa72e90602401602060405180830381865afa15801561061f573d6000803e3d6000fd5b505050506040513d601f19601f820116820180604052508101906106439190611637565b61067d5760405162461bcd60e51b815260206004820152600b60248201526a2737ba1030903b37ba32b960a91b6044820152606401610528565b600654604051631292f8c160e31b81526001600160a01b0390911690639497c608906106b0906000908690600401611668565b602060405180830381865afa1580156106cd573d6000803e3d6000fd5b505050506040513d601f19601f820116820180604052508101906106f19190611637565b156107345760405162461bcd60e51b8152602060048201526013602482015272155cd95c881b9bdd081c9959da5cdd195c9959606a1b6044820152606401610528565b60065460405163e838dfbb60e01b81526001600160a01b0384811660048301529091169063e838dfbb90602401602060405180830381865afa15801561077e573d6000803e3d6000fd5b505050506040513d601f19601f820116820180604052508101906107a29190611637565b156107e55760405162461bcd60e51b8152602060048201526013602482015272155cd95c88185b1c9958591e4819195b9a5959606a1b6044820152606401610528565b6107ee82610ab0565b61084e5760405162461bcd60e51b815260206004820152602b60248201527f526567656e657261746f722068617320726561636865642076616c696461746960448201526a6f6e20696d6d756e69747960a81b6064820152608401610528565b600061085983610bb2565b3360009081526004602090815260408083206001600160a01b0388168452825280832084845290915290205490915060ff16156108c85760405162461bcd60e51b815260206004820152600d60248201526c105b1c9958591e481d9bdd1959609a1b6044820152606401610528565b6108d133610345565b6109155760405162461bcd60e51b8152602060048201526015602482015274576169742074696d654265747765656e566f74657360581b6044820152606401610528565b3360008181526004602090815260408083206001600160a01b0388168085529083528184208685528352818420805460ff1916600117905593835260058252808320439055928252600381528282208483529052908120805491610978836116a2565b9190505550600061098761039f565b6001600160a01b0385166000818152600360209081526040808320878452909152908190205490519293509133907f8cb53ba58e6b58f4456b623f61a5b8776a23ac36733b731d50fd9e40ee39c0fc906109e29088906116df565b60405180910390a38181106109fa576109fa85610edf565b505050610a076001600255565b5050565b6000546001600160a01b0316331461047c5760405163118cdaa760e01b8152336004820152602401610528565b600080546001600160a01b038381166001600160a01b0319831681178455604051919092169283917f8be0079c531659141344cd1fd0a4f28419497f9722a3daafe3b4186f6b6457e09190a35050565b6002805403610aaa57604051633ee5aeb560e01b815260040160405180910390fd5b60028055565b600654604051631292f8c160e31b81526000916001600160a01b031690639497c60890610ae4906001908690600401611668565b602060405180830381865afa158015610b01573d6000803e3d6000fd5b505050506040513d601f19601f82011682018060405250810190610b259190611637565b610b3157506001919050565b60075460405163065ab21b60e41b81526001600160a01b03848116600483015260009216906365ab21b090602401600060405180830381865afa158015610b7c573d6000803e3d6000fd5b505050506040513d6000823e601f3d908101601f19168201604052610ba49190810190611827565b60c001516006119392505050565b600654604051636f77926b60e01b81526001600160a01b0383811660048301526000928392911690636f77926b90602401602060405180830381865afa158015610c00573d6000803e3d6000fd5b505050506040513d601f19601f82011682018060405250810190610c24919061197e565b90506006816007811115610c3a57610c3a611652565b03610cbd57600c60009054906101000a90046001600160a01b03166001600160a01b031663e05cf1556040518163ffffffff1660e01b8152600401602060405180830381865afa158015610c92573d6000803e3d6000fd5b505050506040513d601f19601f82011682018060405250810190610cb691906115d5565b9392505050565b6005816007811115610cd157610cd1611652565b03610d2957600b60009054906101000a90046001600160a01b03166001600160a01b031663e05cf1556040518163ffffffff1660e01b8152600401602060405180830381865afa158015610c92573d6000803e3d6000fd5b6004816007811115610d3d57610d3d611652565b03610d9557600960009054906101000a90046001600160a01b03166001600160a01b031663e05cf1556040518163ffffffff1660e01b8152600401602060405180830381865afa158015610c92573d6000803e3d6000fd5b6002816007811115610da957610da9611652565b03610e0157600860009054906101000a90046001600160a01b03166001600160a01b031663e05cf1556040518163ffffffff1660e01b8152600401602060405180830381865afa158015610c92573d6000803e3d6000fd5b6003816007811115610e1557610e15611652565b03610e6d57600a60009054906101000a90046001600160a01b03166001600160a01b031663e05cf1556040518163ffffffff1660e01b8152600401602060405180830381865afa158015610c92573d6000803e3d6000fd5b6001816007811115610e8157610e81611652565b03610ed957600760009054906101000a90046001600160a01b03166001600160a01b031663e05cf1556040518163ffffffff1660e01b8152600401602060405180830381865afa158015610c92573d6000803e3d6000fd5b50919050565b600654604051636f77926b60e01b81526001600160a01b0383811660048301526000921690636f77926b90602401602060405180830381865afa158015610f2a573d6000803e3d6000fd5b505050506040513d601f19601f82011682018060405250810190610f4e919061197e565b60065460405163e838dfbb60e01b81526001600160a01b03858116600483015292935091169063e838dfbb90602401602060405180830381865afa158015610f9a573d6000803e3d6000fd5b505050506040513d601f19601f82011682018060405250810190610fbe9190611637565b15610fc7575050565b600654604051634acf78e960e11b81526001600160a01b0384811660048301529091169063959ef1d290602401600060405180830381600087803b15801561100e57600080fd5b505af1158015611022573d6000803e3d6000fd5b505060065460405163158bdc5f60e11b81526001600160a01b038681166004830152600094509091169150632b17b8be90602401608060405180830381865afa158015611073573d6000803e3d6000fd5b505050506040513d601f19601f820116820180604052508101906110979190611999565b60208101519091506001600160a01b031615611111576006546020820151604051636101bf2160e01b81526001600160a01b039182166004820152911690636101bf2190602401600060405180830381600087803b1580156110f857600080fd5b505af115801561110c573d6000803e3d6000fd5b505050505b600182600781111561112557611125611652565b0361118f57600754604051637c9787c760e11b81526001600160a01b0385811660048301529091169063f92f0f8e906024015b600060405180830381600087803b15801561117257600080fd5b505af1158015611186573d6000803e3d6000fd5b50505050505050565b60028260078111156111a3576111a3611652565b036111e1576008546040516310c791e560e11b81526001600160a01b038581166004830152600160248301529091169063218f23ca90604401611158565b60048260078111156111f5576111f5611652565b0361122c57600954604051637c9787c760e11b81526001600160a01b0385811660048301529091169063f92f0f8e90602401611158565b600382600781111561124057611240611652565b0361127757600a54604051637c9787c760e11b81526001600160a01b0385811660048301529091169063f92f0f8e90602401611158565b600582600781111561128b5761128b611652565b036112c257600b54604051637c9787c760e11b81526001600160a01b0385811660048301529091169063f92f0f8e90602401611158565b60068260078111156112d6576112d6611652565b0361130d57600c54604051637c9787c760e11b81526001600160a01b0385811660048301529091169063f92f0f8e90602401611158565b6040516001600160a01b038416907fa86ab5eafc988f5b42ba604cdc3a37d9abe90ac4c02f44aad2ff13f3dea10b1890600090a2505050565b634e487b7160e01b600052604160045260246000fd5b604051610100810167ffffffffffffffff8111828210171561138057611380611346565b60405290565b6040516101a0810167ffffffffffffffff8111828210171561138057611380611346565b604051601f8201601f1916810167ffffffffffffffff811182821017156113d3576113d3611346565b604052919050565b6001600160a01b038116811461058857600080fd5b80356113fb816113db565b919050565b600061010082840312801561141457600080fd5b5061141d61135c565b8235611428816113db565b8152611436602084016113f0565b6020820152611447604084016113f0565b6040820152611458606084016113f0565b6060820152611469608084016113f0565b608082015261147a60a084016113f0565b60a082015261148b60c084016113f0565b60c082015261149c60e084016113f0565b60e08201529392505050565b600080604083850312156114bb57600080fd5b82356114c6816113db565b946020939093013593505050565b6000602082840312156114e657600080fd5b8135610cb6816113db565b600067ffffffffffffffff82111561150b5761150b611346565b50601f01601f191660200190565b6000806040838503121561152c57600080fd5b8235611537816113db565b9150602083013567ffffffffffffffff81111561155357600080fd5b8301601f8101851361156457600080fd5b8035611577611572826114f1565b6113aa565b81815286602083850101111561158c57600080fd5b816020840160208301376000602083830101528093505050509250929050565b634e487b7160e01b600052601160045260246000fd5b808201808211156104d2576104d26115ac565b6000602082840312156115e757600080fd5b5051919050565b80820281158282048414176104d2576104d26115ac565b60008261162257634e487b7160e01b600052601260045260246000fd5b500490565b805180151581146113fb57600080fd5b60006020828403121561164957600080fd5b610cb682611627565b634e487b7160e01b600052602160045260246000fd5b604081016008841061168a57634e487b7160e01b600052602160045260246000fd5b9281526001600160a01b039190911660209091015290565b6000600182016116b4576116b46115ac565b5060010190565b60005b838110156116d65781810151838201526020016116be565b50506000910152565b60208152600082518060208401526116fe8160408501602087016116bb565b601f01601f19169190910160400192915050565b805167ffffffffffffffff811681146113fb57600080fd5b80516113fb816113db565b600082601f83011261174657600080fd5b8151611754611572826114f1565b81815284602083860101111561176957600080fd5b6103978260208301602087016116bb565b805163ffffffff811681146113fb57600080fd5b6000602082840312156117a057600080fd5b6040516020810167ffffffffffffffff811182821017156117c3576117c3611346565b6040529151825250919050565b6000604082840312156117e257600080fd5b6040805190810167ffffffffffffffff8111828210171561180557611805611346565b60405290508061181483611627565b8152602092830151920191909152919050565b60006020828403121561183957600080fd5b815167ffffffffffffffff81111561185057600080fd5b82016101c0818503121561186357600080fd5b61186b611386565b61187482611712565b81526118826020830161172a565b6020820152604082015167ffffffffffffffff8111156118a157600080fd5b6118ad86828501611735565b604083015250606082015167ffffffffffffffff8111156118cd57600080fd5b6118d986828501611735565b6060830152506118eb6080830161177a565b60808201526118fc60a08301611627565b60a082015260c0828101519082015260e0808301519082015261192385610100840161178e565b6101008201526119378561012084016117d0565b61012082015261016082810151610140830152610180830151908201526119616101a08301611627565b610180820152949350505050565b8051600881106113fb57600080fd5b60006020828403121561199057600080fd5b610cb68261196f565b600060808284031280156119ac57600080fd5b506040516080810167ffffffffffffffff811182821017156119d0576119d0611346565b60405282516119de816113db565b815260208301516119ee816113db565b60208201526119ff6040840161196f565b6040820152606092830151928101929092525091905056fea2646970667358221220eddced3c4d837b7ba13b24b4af6b39f09c90d636f83bbd46401bebf168c59a2264736f6c634300081b0033",
  "linkReferences": {},
  "deployedLinkReferences": {}
}